{
  "_format": "hh-sol-artifact-1",
  "contractName": "BridgeReceiver",
  "sourceName": "src/avalanche/BridgeReceiver.sol",
  "abi": [
    {
      "inputs": [
        {
          "internalType": "address",
          "name": "initialOwner",
          "type": "address"
        },
        {
          "internalType": "address",
          "name": "_loanNFT",
          "type": "address"
        },
        {
          "internalType": "address",
          "name": "_paymentDistributor",
          "type": "address"
        },
        {
          "internalType": "address[]",
          "name": "_initialValidators",
          "type": "address[]"
        },
        {
          "internalType": "uint256",
          "name": "_requiredSignatures",
          "type": "uint256"
        }
      ],
      "stateMutability": "nonpayable",
      "type": "constructor"
    },
    {
      "inputs": [
        {
          "internalType": "address",
          "name": "owner",
          "type": "address"
        }
      ],
      "name": "OwnableInvalidOwner",
      "type": "error"
    },
    {
      "inputs": [
        {
          "internalType": "address",
          "name": "account",
          "type": "address"
        }
      ],
      "name": "OwnableUnauthorizedAccount",
      "type": "error"
    },
    {
      "anonymous": false,
      "inputs": [
        {
          "indexed": true,
          "internalType": "string",
          "name": "loanId",
          "type": "string"
        },
        {
          "indexed": true,
          "internalType": "uint256",
          "name": "tokenId",
          "type": "uint256"
        },
        {
          "indexed": true,
          "internalType": "address",
          "name": "lender",
          "type": "address"
        },
        {
          "indexed": false,
          "internalType": "uint256",
          "name": "timestamp",
          "type": "uint256"
        }
      ],
      "name": "LoanMinted",
      "type": "event"
    },
    {
      "anonymous": false,
      "inputs": [
        {
          "indexed": true,
          "internalType": "string",
          "name": "loanId",
          "type": "string"
        },
        {
          "indexed": true,
          "internalType": "uint256",
          "name": "tokenId",
          "type": "uint256"
        },
        {
          "indexed": false,
          "internalType": "uint256",
          "name": "timestamp",
          "type": "uint256"
        }
      ],
      "name": "LoanPaidOff",
      "type": "event"
    },
    {
      "anonymous": false,
      "inputs": [
        {
          "indexed": true,
          "internalType": "string",
          "name": "loanId",
          "type": "string"
        },
        {
          "indexed": true,
          "internalType": "uint256",
          "name": "tokenId",
          "type": "uint256"
        },
        {
          "indexed": false,
          "internalType": "uint256",
          "name": "timestamp",
          "type": "uint256"
        }
      ],
      "name": "LoanUnlocked",
      "type": "event"
    },
    {
      "anonymous": false,
      "inputs": [
        {
          "indexed": true,
          "internalType": "string",
          "name": "loanId",
          "type": "string"
        },
        {
          "indexed": true,
          "internalType": "uint256",
          "name": "tokenId",
          "type": "uint256"
        },
        {
          "indexed": false,
          "internalType": "uint256",
          "name": "timestamp",
          "type": "uint256"
        }
      ],
      "name": "MetadataUpdated",
      "type": "event"
    },
    {
      "anonymous": false,
      "inputs": [
        {
          "indexed": true,
          "internalType": "address",
          "name": "previousOwner",
          "type": "address"
        },
        {
          "indexed": true,
          "internalType": "address",
          "name": "newOwner",
          "type": "address"
        }
      ],
      "name": "OwnershipTransferred",
      "type": "event"
    },
    {
      "anonymous": false,
      "inputs": [
        {
          "indexed": true,
          "internalType": "string",
          "name": "loanId",
          "type": "string"
        },
        {
          "indexed": true,
          "internalType": "uint256",
          "name": "tokenId",
          "type": "uint256"
        },
        {
          "indexed": false,
          "internalType": "uint256",
          "name": "amount",
          "type": "uint256"
        },
        {
          "indexed": false,
          "internalType": "uint256",
          "name": "timestamp",
          "type": "uint256"
        }
      ],
      "name": "PaymentProcessed",
      "type": "event"
    },
    {
      "anonymous": false,
      "inputs": [
        {
          "indexed": true,
          "internalType": "string",
          "name": "loanId",
          "type": "string"
        },
        {
          "indexed": true,
          "internalType": "uint256",
          "name": "tokenId",
          "type": "uint256"
        },
        {
          "indexed": false,
          "internalType": "uint256",
          "name": "timestamp",
          "type": "uint256"
        }
      ],
      "name": "TokenIdNeedsSyncToBesu",
      "type": "event"
    },
    {
      "inputs": [
        {
          "internalType": "address",
          "name": "validator",
          "type": "address"
        }
      ],
      "name": "addValidator",
      "outputs": [],
      "stateMutability": "nonpayable",
      "type": "function"
    },
    {
      "inputs": [
        {
          "internalType": "string",
          "name": "",
          "type": "string"
        }
      ],
      "name": "approvedInBesu",
      "outputs": [
        {
          "internalType": "bool",
          "name": "",
          "type": "bool"
        }
      ],
      "stateMutability": "view",
      "type": "function"
    },
    {
      "inputs": [],
      "name": "getValidators",
      "outputs": [
        {
          "internalType": "address[]",
          "name": "",
          "type": "address[]"
        }
      ],
      "stateMutability": "view",
      "type": "function"
    },
    {
      "inputs": [
        {
          "internalType": "string",
          "name": "loanId",
          "type": "string"
        }
      ],
      "name": "isLoanApprovedInBesu",
      "outputs": [
        {
          "internalType": "bool",
          "name": "",
          "type": "bool"
        }
      ],
      "stateMutability": "view",
      "type": "function"
    },
    {
      "inputs": [
        {
          "internalType": "bytes32",
          "name": "messageHash",
          "type": "bytes32"
        }
      ],
      "name": "isMessageProcessed",
      "outputs": [
        {
          "internalType": "bool",
          "name": "",
          "type": "bool"
        }
      ],
      "stateMutability": "view",
      "type": "function"
    },
    {
      "inputs": [
        {
          "internalType": "address",
          "name": "addr",
          "type": "address"
        }
      ],
      "name": "isValidator",
      "outputs": [
        {
          "internalType": "bool",
          "name": "",
          "type": "bool"
        }
      ],
      "stateMutability": "view",
      "type": "function"
    },
    {
      "inputs": [],
      "name": "loanNFT",
      "outputs": [
        {
          "internalType": "contract ILoanNFT",
          "name": "",
          "type": "address"
        }
      ],
      "stateMutability": "view",
      "type": "function"
    },
    {
      "inputs": [
        {
          "internalType": "string",
          "name": "loanId",
          "type": "string"
        },
        {
          "internalType": "uint256",
          "name": "timestamp",
          "type": "uint256"
        },
        {
          "internalType": "uint256",
          "name": "nonce",
          "type": "uint256"
        },
        {
          "internalType": "bytes[]",
          "name": "signatures",
          "type": "bytes[]"
        }
      ],
      "name": "markLoanApprovedInBesu",
      "outputs": [
        {
          "internalType": "bool",
          "name": "",
          "type": "bool"
        }
      ],
      "stateMutability": "nonpayable",
      "type": "function"
    },
    {
      "inputs": [
        {
          "internalType": "string",
          "name": "loanId",
          "type": "string"
        },
        {
          "internalType": "uint256",
          "name": "timestamp",
          "type": "uint256"
        },
        {
          "internalType": "uint256",
          "name": "nonce",
          "type": "uint256"
        },
        {
          "internalType": "bytes[]",
          "name": "signatures",
          "type": "bytes[]"
        }
      ],
      "name": "markLoanCancelledInBesu",
      "outputs": [
        {
          "internalType": "bool",
          "name": "",
          "type": "bool"
        }
      ],
      "stateMutability": "nonpayable",
      "type": "function"
    },
    {
      "inputs": [],
      "name": "owner",
      "outputs": [
        {
          "internalType": "address",
          "name": "",
          "type": "address"
        }
      ],
      "stateMutability": "view",
      "type": "function"
    },
    {
      "inputs": [],
      "name": "paymentDistributor",
      "outputs": [
        {
          "internalType": "contract IPaymentDistributor",
          "name": "",
          "type": "address"
        }
      ],
      "stateMutability": "view",
      "type": "function"
    },
    {
      "inputs": [
        {
          "internalType": "string",
          "name": "loanId",
          "type": "string"
        },
        {
          "internalType": "uint256",
          "name": "timestamp",
          "type": "uint256"
        },
        {
          "internalType": "uint256",
          "name": "nonce",
          "type": "uint256"
        },
        {
          "internalType": "bytes[]",
          "name": "signatures",
          "type": "bytes[]"
        }
      ],
      "name": "processEmergencyUnlock",
      "outputs": [
        {
          "internalType": "bool",
          "name": "",
          "type": "bool"
        }
      ],
      "stateMutability": "nonpayable",
      "type": "function"
    },
    {
      "inputs": [
        {
          "internalType": "string",
          "name": "loanId",
          "type": "string"
        },
        {
          "internalType": "address",
          "name": "lenderAddress",
          "type": "address"
        },
        {
          "internalType": "uint256",
          "name": "currentBalance",
          "type": "uint256"
        },
        {
          "internalType": "uint256",
          "name": "monthlyPayment",
          "type": "uint256"
        },
        {
          "internalType": "uint256",
          "name": "interestRate",
          "type": "uint256"
        },
        {
          "internalType": "string",
          "name": "status",
          "type": "string"
        },
        {
          "internalType": "string",
          "name": "location",
          "type": "string"
        },
        {
          "internalType": "uint256",
          "name": "askingPrice",
          "type": "uint256"
        },
        {
          "internalType": "uint256",
          "name": "timestamp",
          "type": "uint256"
        },
        {
          "internalType": "uint256",
          "name": "nonce",
          "type": "uint256"
        },
        {
          "internalType": "bytes[]",
          "name": "signatures",
          "type": "bytes[]"
        }
      ],
      "name": "processLoanApproval",
      "outputs": [
        {
          "internalType": "uint256",
          "name": "",
          "type": "uint256"
        }
      ],
      "stateMutability": "nonpayable",
      "type": "function"
    },
    {
      "inputs": [
        {
          "internalType": "string",
          "name": "loanId",
          "type": "string"
        },
        {
          "internalType": "uint256",
          "name": "timestamp",
          "type": "uint256"
        },
        {
          "internalType": "uint256",
          "name": "nonce",
          "type": "uint256"
        },
        {
          "internalType": "bytes[]",
          "name": "signatures",
          "type": "bytes[]"
        }
      ],
      "name": "processLoanPaidOff",
      "outputs": [
        {
          "internalType": "bool",
          "name": "",
          "type": "bool"
        }
      ],
      "stateMutability": "nonpayable",
      "type": "function"
    },
    {
      "inputs": [
        {
          "internalType": "string",
          "name": "loanId",
          "type": "string"
        },
        {
          "internalType": "uint256",
          "name": "timestamp",
          "type": "uint256"
        },
        {
          "internalType": "uint256",
          "name": "nonce",
          "type": "uint256"
        },
        {
          "internalType": "bytes[]",
          "name": "signatures",
          "type": "bytes[]"
        }
      ],
      "name": "processLoanUnlocked",
      "outputs": [
        {
          "internalType": "bool",
          "name": "",
          "type": "bool"
        }
      ],
      "stateMutability": "nonpayable",
      "type": "function"
    },
    {
      "inputs": [
        {
          "internalType": "string",
          "name": "loanId",
          "type": "string"
        },
        {
          "internalType": "uint256",
          "name": "newBalance",
          "type": "uint256"
        },
        {
          "internalType": "string",
          "name": "newStatus",
          "type": "string"
        },
        {
          "internalType": "uint256",
          "name": "timestamp",
          "type": "uint256"
        },
        {
          "internalType": "uint256",
          "name": "nonce",
          "type": "uint256"
        },
        {
          "internalType": "bytes[]",
          "name": "signatures",
          "type": "bytes[]"
        }
      ],
      "name": "processMetadataUpdate",
      "outputs": [
        {
          "internalType": "bool",
          "name": "",
          "type": "bool"
        }
      ],
      "stateMutability": "nonpayable",
      "type": "function"
    },
    {
      "inputs": [
        {
          "internalType": "string",
          "name": "loanId",
          "type": "string"
        },
        {
          "internalType": "uint256",
          "name": "amount",
          "type": "uint256"
        },
        {
          "internalType": "uint256",
          "name": "timestamp",
          "type": "uint256"
        },
        {
          "internalType": "uint256",
          "name": "nonce",
          "type": "uint256"
        },
        {
          "internalType": "bytes[]",
          "name": "signatures",
          "type": "bytes[]"
        }
      ],
      "name": "processPayment",
      "outputs": [
        {
          "internalType": "bool",
          "name": "",
          "type": "bool"
        }
      ],
      "stateMutability": "nonpayable",
      "type": "function"
    },
    {
      "inputs": [
        {
          "internalType": "bytes32",
          "name": "",
          "type": "bytes32"
        }
      ],
      "name": "processedMessages",
      "outputs": [
        {
          "internalType": "bool",
          "name": "",
          "type": "bool"
        }
      ],
      "stateMutability": "view",
      "type": "function"
    },
    {
      "inputs": [
        {
          "internalType": "bytes32",
          "name": "messageHash",
          "type": "bytes32"
        },
        {
          "internalType": "bytes",
          "name": "signature",
          "type": "bytes"
        }
      ],
      "name": "recoverSigner",
      "outputs": [
        {
          "internalType": "address",
          "name": "",
          "type": "address"
        }
      ],
      "stateMutability": "pure",
      "type": "function"
    },
    {
      "inputs": [
        {
          "internalType": "address",
          "name": "validator",
          "type": "address"
        }
      ],
      "name": "removeValidator",
      "outputs": [],
      "stateMutability": "nonpayable",
      "type": "function"
    },
    {
      "inputs": [],
      "name": "renounceOwnership",
      "outputs": [],
      "stateMutability": "nonpayable",
      "type": "function"
    },
    {
      "inputs": [],
      "name": "requiredSignatures",
      "outputs": [
        {
          "internalType": "uint256",
          "name": "",
          "type": "uint256"
        }
      ],
      "stateMutability": "view",
      "type": "function"
    },
    {
      "inputs": [
        {
          "internalType": "address",
          "name": "_loanNFT",
          "type": "address"
        }
      ],
      "name": "setLoanNFT",
      "outputs": [],
      "stateMutability": "nonpayable",
      "type": "function"
    },
    {
      "inputs": [
        {
          "internalType": "address",
          "name": "_distributor",
          "type": "address"
        }
      ],
      "name": "setPaymentDistributor",
      "outputs": [],
      "stateMutability": "nonpayable",
      "type": "function"
    },
    {
      "inputs": [
        {
          "internalType": "uint256",
          "name": "newThreshold",
          "type": "uint256"
        }
      ],
      "name": "setRequiredSignatures",
      "outputs": [],
      "stateMutability": "nonpayable",
      "type": "function"
    },
    {
      "inputs": [
        {
          "internalType": "address",
          "name": "newOwner",
          "type": "address"
        }
      ],
      "name": "transferOwnership",
      "outputs": [],
      "stateMutability": "nonpayable",
      "type": "function"
    },
    {
      "inputs": [
        {
          "internalType": "uint256",
          "name": "",
          "type": "uint256"
        }
      ],
      "name": "validatorList",
      "outputs": [
        {
          "internalType": "address",
          "name": "",
          "type": "address"
        }
      ],
      "stateMutability": "view",
      "type": "function"
    },
    {
      "inputs": [
        {
          "internalType": "address",
          "name": "",
          "type": "address"
        }
      ],
      "name": "validators",
      "outputs": [
        {
          "internalType": "bool",
          "name": "",
          "type": "bool"
        }
      ],
      "stateMutability": "view",
      "type": "function"
    },
    {
      "inputs": [
        {
          "internalType": "bytes32",
          "name": "messageHash",
          "type": "bytes32"
        },
        {
          "internalType": "bytes[]",
          "name": "signatures",
          "type": "bytes[]"
        }
      ],
      "name": "verifyMessage",
      "outputs": [
        {
          "internalType": "bool",
          "name": "",
          "type": "bool"
        }
      ],
      "stateMutability": "view",
      "type": "function"
    }
  ],
  "bytecode": "0x60406080815234620003fc576200233c803803806200001e8162000417565b928339810160a082820312620003fc5762000039826200043d565b602090620000498285016200043d565b91620000578686016200043d565b606086015190956001600160401b03959091868111620003fc57820181601f82011215620003fc57805196871162000401578660051b9084806200009d81850162000417565b809a81520192820101928311620003fc5784809101915b838310620003e1575050505060800151946001600160a01b03928316928315620003c957600080546001600160a01b0319808216871783558a51979096929492849283167f8be0079c531659141344cd1fd0a4f28419497f9722a3daafe3b4186f6b6457e08780a316958615620003955750811695861562000351578051156200031b57871515806200030f575b15620002d757600198979689968688541617875585600254161760025582985b6200017b575b878760055551611ebe90816200047e8239f35b8051891015620002d15781620001928a8362000452565b511615620002995781620001a78a8362000452565b51168352600380855260ff8985205416620002555782620001c98b8462000452565b511684528452878320805460ff19168717905581620001e98a8362000452565b5116986004998a54680100000000000000008110156200024257888101808d558110156200022f579a8552858520909a0180548716909a17909955978501978562000162565b634e487b7160e01b865260328c52602486fd5b634e487b7160e01b865260418c52602486fd5b885162461bcd60e51b815260048101869052601360248201527f4475706c69636174652076616c696461746f72000000000000000000000000006044820152606490fd5b875162461bcd60e51b815260048101859052601160248201527024b73b30b634b2103b30b634b230ba37b960791b6044820152606490fd5b62000168565b885162461bcd60e51b8152600481018590526011602482015270125b9d985b1a59081d1a1c995cda1bdb19607a1b6044820152606490fd5b50805188111562000142565b885162461bcd60e51b815260048101859052600f60248201526e4e6565642076616c696461746f727360881b6044820152606490fd5b885162461bcd60e51b815260048101859052601a60248201527f496e76616c6964205061796d656e744469737472696275746f720000000000006044820152606490fd5b62461bcd60e51b815260048101859052600f60248201526e125b9d985b1a5908131bd85b939195608a1b6044820152606490fd5b8751631e4fbdf760e01b815260006004820152602490fd5b8190620003ee846200043d565b8152019101908490620000b4565b600080fd5b634e487b7160e01b600052604160045260246000fd5b6040519190601f01601f191682016001600160401b038111838210176200040157604052565b51906001600160a01b0382168203620003fc57565b8051821015620004675760209160051b010190565b634e487b7160e01b600052603260045260246000fdfe6080604052600436101561001257600080fd5b60003560e01c80631bd31ef6146101dd5780631ec81944146101d857806329c5a876146101d357806334a41177146101ce57806340a141ff146101c95780634c518bac146101975780634d238c8e146101c45780635b9579c4146101bf578063715018a6146101ba5780637d2b9cc0146101b557806385884565146101b057806386b39bce146101ab57806388ba16ab146101a65780638d068043146101a15780638da5cb5b1461019c5780638fba18311461019757806397aba7f91461019257806397b1a6721461018d5780639f4a714214610188578063aad9e18514610183578063b048e0561461017e578063b7ab4db514610179578063bb4c6ace14610174578063bfabf2da1461016f578063cda6526d1461016a578063ecc26aee14610165578063f2fde38b14610160578063fa52c7d81461015b5763facd743b1461015b57600080fd5b61129c565b611214565b611186565b61115d565b6110e0565b611099565b610ff0565b610fa7565b610f26565b610edb565b610d1f565b610cd0565b610850565b610ca7565b610c89565b6101dd565b610c49565b610b9b565b610af4565b610a96565b610947565b610898565b6106ea565b6106c1565b610489565b61037a565b3461020e57602036600319011261020e576004356000526006602052602060ff604060002054166040519015158152f35b600080fd5b634e487b7160e01b600052604160045260246000fd5b6001600160401b03811161023c57604052565b610213565b90601f801991011681019081106001600160401b0382111761023c57604052565b81601f8201121561020e578035906001600160401b03821161023c5760405192610296601f8401601f191660200185610241565b8284526020838301011161020e57816000926020809301838601378301015290565b602435906001600160a01b038216820361020e57565b600435906001600160a01b038216820361020e57565b6001600160401b03811161023c5760051b60200190565b81601f8201121561020e57803591602091610315846102e4565b936103236040519586610241565b808552838086019160051b8301019280841161020e57848301915b84831061034e5750505050505090565b82356001600160401b03811161020e57869161036f84848094890101610262565b81520192019161033e565b3461020e5761016036600319011261020e576001600160401b0360043581811161020e576103ac903690600401610262565b906103b56102b8565b9160a43582811161020e576103ce903690600401610262565b60c43583811161020e576103e6903690600401610262565b916101443593841161020e57610437946104076104279536906004016102fb565b936101243593610104359360e435936084359160643591604435916115b4565b6040519081529081906020820190565b0390f35b608060031982011261020e576001600160401b039060043582811161020e578161046791600401610262565b92602435926044359260643591821161020e57610486916004016102fb565b90565b3461020e5761054461025861056761055a61054a6104a63661043b565b9392969161051161050c6104c98a60409c958d519283918760208401948561172d565b03916104dd601f1993848101835282610241565b519020906105028d5191826104f660208201958661136e565b03908101835282610241565b5190209687611b9c565b61139d565b61053e61053961053561052e886000526006602052604060002090565b5460ff1690565b1590565b6113de565b42611448565b10611455565b6000526006602052604060002090565b805460ff19166001179055565b600154610584906001600160a01b03165b6001600160a01b031690565b82516319eba01560e31b815291602083806105a28460048301611764565b0381855afa92831561068057600093610685575b506105c2831515611775565b813b1561020e57600084518093633fc2686960e21b8252818381610613896004830160a0918152600060208201526060604082015260086060820152672830b4b21027b33360c11b60808201520190565b03925af19182156106805761062d92610667575b50611594565b82514281527fb65f2e46565c3b8eabc8703933629b049d8ab239125e0c4dde27854a9d0d77bf9080602081015b0390a35160018152602090f35b8061067461067a92610229565b806106b6565b38610627565b611588565b6106a891935060203d6020116106af575b6106a08183610241565b8101906114f2565b91386105b6565b503d610696565b600091031261020e57565b3461020e57600036600319011261020e576001546040516001600160a01b039091168152602090f35b3461020e57602036600319011261020e576107036102ce565b61070b611e65565b6001600160a01b038181166000818152600360205260409020549192916107349060ff166117b6565b61077961076f60049361075561074b600454611434565b60055411156117f4565b6001600160a01b0316600090815260036020526040902090565b805460ff19169055565b60005b8254808210156108055782856107a961079485610f87565b905460039190911b1c6001600160a01b031690565b16146107b8575060010161077c565b6107fd94506107d99193506107df92506107d461079491611434565b610f87565b91610f87565b90919060018060a01b038084549260031b9316831b921b1916179055565b610805611838565b005b60005b83811061081a5750506000910152565b818101518382015260200161080a565b6020610843918160405193828580945193849201610807565b8101600781520301902090565b3461020e57602036600319011261020e576004356001600160401b03811161020e5760ff61088c6108876020933690600401610262565b61082a565b54166040519015158152f35b3461020e57602036600319011261020e576108b16102ce565b6108b9611e65565b6001600160a01b0381166108ce811515611890565b600052600360205260ff6040600020541661090e576001600160a01b038116600090815260036020526040902061080591906109099061055a565b6118ce565b60405162461bcd60e51b815260206004820152601160248201527020b63932b0b23c903b30b634b230ba37b960791b6044820152606490fd5b3461020e5761054461025861098761055a61054a6109643661043b565b9392969161051161050c6104c98a60409c958d5192839187602084019485611920565b60015461099c906001600160a01b0316610578565b82516319eba01560e31b815291602083806109ba8460048301611764565b0381855afa92831561068057600093610a75575b506109da831515611775565b813b1561020e57600084518093633fc2686960e21b8252818381610a2b896004830160a091815260006020820152606060408201526008606082015267155b9b1bd8dad95960c21b60808201520190565b03925af191821561068057610a44926106675750611594565b82514281527fd69a3b593b29f590f1e4f80795d05399d49b300394d7b48eedc449026cb216f490806020810161065a565b610a8f91935060203d6020116106af576106a08183610241565b91386109ce565b3461020e57600080600319360112610af157610ab0611e65565b80546001600160a01b03198116825581906001600160a01b03167f8be0079c531659141344cd1fd0a4f28419497f9722a3daafe3b4186f6b6457e08280a380f35b80fd5b3461020e57602036600319011261020e57600435610b10611e65565b8015610b5e576004548111610b2457600555005b60405162461bcd60e51b81526020600482015260126024820152710a8d0e4cae6d0ded8c840e8dede40d0d2ced60731b6044820152606490fd5b60405162461bcd60e51b815260206004820152601560248201527405468726573686f6c64206d757374206265203e203605c1b6044820152606490fd5b3461020e57610c3d61055a61050c61088761055a61051161054a610258610544610bc43661043b565b969192809a91610c17606860405180936020820195671054141493d5915160c21b8752610bfb815180926020602887019101610807565b8201908960288301526048820152036048810184520182610241565b51902060405161050281610c2f60208201948561136e565b03601f198101835282610241565b60405160018152602090f35b3461020e5761054461025861098761055a61054a610c663661043b565b9392969161051161050c6104c98a60409c958d5192839187602084019485611947565b3461020e57600036600319011261020e576020600554604051908152f35b3461020e57600036600319011261020e576000546040516001600160a01b039091168152602090f35b3461020e57604036600319011261020e576024356001600160401b03811161020e57610d0d610d056020923690600401610262565b6004356119e0565b6040516001600160a01b039091168152f35b3461020e5760a036600319011261020e576001600160401b0360043581811161020e57610d50903690600401610262565b6024359160443560843591821161020e5761055a610dd19161054a610258610544610d80899736906004016102fb565b9361051161050c8a610da861050260409e8f9384519384918960208401946064359286611ac6565b0392610dbc601f1994858101835282610241565b519020925191826104f660208201958661136e565b600154610de6906001600160a01b0316610578565b916020845180946319eba01560e31b82528180610e068660048301611764565b03915afa92831561068057600093610eba575b50610e25831515611775565b600254610e3a906001600160a01b0316610578565b803b1561020e578451631fde780560e01b81526004810185905260248101849052906000908290604490829084905af18015610680577f5f6b374a1ee52061eaf49a202db87a381913e45bf87161d06b46a0974afaff879261065a92610ea4926106675750611594565b8551938452426020850152929081906040820190565b610ed491935060203d6020116106af576106a08183610241565b9138610e19565b3461020e57602036600319011261020e57610ef46102ce565b610efc611e65565b6001600160a01b0316610f10811515611890565b600180546001600160a01b031916919091179055005b3461020e57602036600319011261020e57610f3f6102ce565b610f47611e65565b6001600160a01b0316610f5b811515611890565b600280546001600160a01b031916919091179055005b634e487b7160e01b600052603260045260246000fd5b600454811015610fa257600460005260206000200190600090565b610f71565b3461020e57602036600319011261020e5760043560045481101561020e576004600052600080516020611e9283398151915201546040516001600160a01b039091168152602090f35b3461020e57600080600319360112610af157604051809160045490818352602080930180926004835284832090835b81811061107c5750505084611035910385610241565b60405193838594850191818652518092526040850193925b82811061105c57505050500390f35b83516001600160a01b03168552869550938101939281019260010161104d565b82546001600160a01b03168452928601926001928301920161101f565b3461020e57604036600319011261020e576024356001600160401b03811161020e576110d66110ce60209236906004016102fb565b600435611b9c565b6040519015158152f35b3461020e57610c3d61076f61050c61088761055a61051161054a6102586105446111093661043b565b969192809a91610c176069604051809360208201956810d05390d15313115160ba1b8752611141815180926020602987019101610807565b8201908960298301526049820152036049810184520182610241565b3461020e57600036600319011261020e576002546040516001600160a01b039091168152602090f35b3461020e5760c036600319011261020e576001600160401b0360043581811161020e576111b7903690600401610262565b9060443581811161020e576111d0903690600401610262565b9160a43591821161020e57610437926111f06112029336906004016102fb565b91608435916064359160243590611d18565b60405190151581529081906020820190565b3461020e57602036600319011261020e5761122d6102ce565b611235611e65565b6001600160a01b03908116801561128357600080546001600160a01b03198116831782559092167f8be0079c531659141344cd1fd0a4f28419497f9722a3daafe3b4186f6b6457e08380a380f35b604051631e4fbdf760e01b815260006004820152602490fd5b3461020e57602036600319011261020e576001600160a01b036112bd6102ce565b166000526003602052602060ff604060002054166040519015158152f35b9060d89a98999796959391949294631352539560e21b8152611307825180936020600485019101610807565b01936bffffffffffffffffffffffff199060601b166004850152601884015260388301526058820152611344825180936020607885019101610807565b01611359825180936020607885019101610807565b01926078840152609883015260b88201520190565b603c917f19457468657265756d205369676e6564204d6573736167653a0a3332000000008252601c8201520190565b156113a457565b60405162461bcd60e51b8152602060048201526012602482015271496e76616c6964207369676e61747572657360701b6044820152606490fd5b156113e557565b60405162461bcd60e51b8152602060048201526011602482015270105b1c9958591e481c1c9bd8d95cdcd959607a1b6044820152606490fd5b634e487b7160e01b600052601160045260246000fd5b60001981019190821161144357565b61141e565b9190820391821161144357565b1561145c57565b60405162461bcd60e51b815260206004820152600f60248201526e13595cdcd859d9481d1bdbc81bdb19608a1b6044820152606490fd5b1561149a57565b60405162461bcd60e51b815260206004820152602a60248201527f4c6f616e206e6f7420617070726f766564206f72207761732063616e63656c6c604482015269656420696e204265737560b01b6064820152608490fd5b9081602091031261020e575190565b9060209161151a81518092818552858086019101610807565b601f01601f1916010190565b9897969394611583956115759461154960e099948d610100908181520190611501565b6001600160a01b0390951660208d015260408c015260608b015260808a015288820360a08a0152611501565b9086820360c0880152611501565b930152565b6040513d6000823e3d90fd5b6115ac90602060405192828480945193849201610807565b810103902090565b9796868661164761055a879e611633879f8f999d60209f8f8e9f8c9f9160009f8f909e61167a9f8f98876102589a6105449a61050c986105119a611604966040519a6020998c9a8b019b8c6112db565b0391611618601f1993848101835282610241565b519020906105026040519160206104f684918201958661136e565b61054a61164261052e8a61082a565b611493565b60015461165c906001600160a01b0316610578565b976040519d8e9a8b998a986381571e3d60e01b8a5260048a01611526565b03925af19283156106805760009361170a575b506116ce818461169d8194611594565b6040514281527ff09996b9b0eb4e6c1e6f21b808fb119c4169312f15e667f35b9900530712a53b90602090a3611594565b6040514281526001600160a01b0393909316927fdca3630c28a9da1477fb823057d822d0e3ddb8834c928726d348e8fb3544a64790602090a490565b6116ce93506117279060203d6020116106af576106a08183610241565b9261168d565b9060489391672820a4a22fa7a32360c11b8152611754825180936020600885019101610807565b0191600883015260288201520190565b906020610486928181520190611501565b1561177c57565b60405162461bcd60e51b8152602060048201526012602482015271131bd85b881b9bdd081d1bdad95b9a5e995960721b6044820152606490fd5b156117bd57565b60405162461bcd60e51b815260206004820152600f60248201526e2737ba1030903b30b634b230ba37b960891b6044820152606490fd5b156117fb57565b60405162461bcd60e51b815260206004820152601560248201527415dbdd5b1908189c99585ac81d1a1c995cda1bdb19605a1b6044820152606490fd5b600454801561187a576000198181019180831015610fa257600460008190529101600080516020611e928339815191520180546001600160a01b031916905555565b634e487b7160e01b600052603160045260246000fd5b1561189757565b60405162461bcd60e51b815260206004820152600f60248201526e496e76616c6964206164647265737360881b6044820152606490fd5b600454600160401b81101561023c576001810180600455811015610fa2576004600052600080516020611e928339815191520180546001600160a01b0319166001600160a01b03909216919091179055565b90604893916715539313d0d2d15160c21b8152611754825180936020600885019101610807565b90605093916f454d455247454e43595f554e4c4f434b60801b8152611976825180936020601085019101610807565b0191601083015260308201520190565b60ff601b9116019060ff821161144357565b1561199f57565b60405162461bcd60e51b8152602060048201526019602482015278496e76616c6964207369676e617475726520762076616c756560381b6044820152606490fd5b6041825103611a86576020916000918291848101519260606040830151920151901a92601b8410611a6f575b90611a5091611a2a60ff8616601b8114908115611a64575b50611998565b604051948594859094939260ff6060936080840197845216602083015260408201520152565b838052039060015afa156106805760005190565b601c91501438611a24565b9290611a7d611a5092611986565b93909150611a0c565b60405162461bcd60e51b8152602060048201526018602482015277092dcecc2d8d2c840e6d2cedcc2e8eae4ca40d8cadccee8d60431b6044820152606490fd5b90606794929391661410565351539560ca1b8152611aee825180936020600785019101610807565b01926007840152602783015260478201520190565b15611b0a57565b60405162461bcd60e51b81526020600482015260156024820152744e6f7420656e6f756768207369676e61747572657360581b6044820152606490fd5b90611b51826102e4565b611b5e6040519182610241565b8281528092611b6f601f19916102e4565b0190602036910137565b8051821015610fa25760209160051b010190565b60001981146114435760010190565b9190805191611bb060055480941015611b03565b611bba8251611b47565b91600091825b8251811015611c9f57611bdd611bd68285611b79565b51886119e0565b6001600160a01b0381166000908152600360205260409020611c02906105359061052e565b611c965760006001600160a01b038216815b878110611c5f575b505015611c2f575b506001905b01611bc0565b84611c53611c5892611c44600195988a611b79565b6001600160a01b039091169052565b611b8d565b9390611c24565b81611c7d610578611c70848d611b79565b516001600160a01b031690565b14611c8a57600101611c14565b50505060013880611c1c565b50600190611c29565b509450509050101590565b906066959392916555504441544560d01b8152611cd1825180936020600685019101610807565b01906006820152611cec825180936020602685019101610807565b0191602683015260468201520190565b6104869392606092825260208201528160408201520190611501565b929461054a610258610544859861051161050c611d79988a89611d4b61055a9b9e87604051958694602086019687611caa565b0391611d5f601f1993848101835282610241565b5190209061050260405191826104f660208201958661136e565b600154611d8e906001600160a01b0316610578565b91604051936319eba01560e31b855260208580611dae8660048301611764565b0381875afa94851561068057600095611e44575b50611dce851515611775565b833b1561020e57611dfa9360009283604051809781958294633fc2686960e21b84528b60048501611cfc565b03925af191821561068057611e13926106675750611594565b6040514281527fff1488042f54db04cb79ce08410ecdcbead34276b0e11b2ccb7074918799146390602090a3600190565b611e5e91955060203d6020116106af576106a08183610241565b9338611dc2565b6000546001600160a01b03163303611e7957565b60405163118cdaa760e01b8152336004820152602490fdfe8a35acfbc15ff81a39ae7d344fd709f28e8600b4aa8c65c6b64bfe7fe36bd19ba164736f6c6343000818000a",
  "linkReferences": {},
  "deployedLinkReferences": {}
}