{
  "_format": "hh-sol-artifact-1",
  "contractName": "LoanNFT",
  "sourceName": "src/avalanche/LoanNFT.sol",
  "abi": [
    {
      "inputs": [
        {
          "internalType": "address",
          "name": "initialOwner",
          "type": "address"
        }
      ],
      "stateMutability": "nonpayable",
      "type": "constructor"
    },
    {
      "inputs": [
        {
          "internalType": "address",
          "name": "sender",
          "type": "address"
        },
        {
          "internalType": "uint256",
          "name": "tokenId",
          "type": "uint256"
        },
        {
          "internalType": "address",
          "name": "owner",
          "type": "address"
        }
      ],
      "name": "ERC721IncorrectOwner",
      "type": "error"
    },
    {
      "inputs": [
        {
          "internalType": "address",
          "name": "operator",
          "type": "address"
        },
        {
          "internalType": "uint256",
          "name": "tokenId",
          "type": "uint256"
        }
      ],
      "name": "ERC721InsufficientApproval",
      "type": "error"
    },
    {
      "inputs": [
        {
          "internalType": "address",
          "name": "approver",
          "type": "address"
        }
      ],
      "name": "ERC721InvalidApprover",
      "type": "error"
    },
    {
      "inputs": [
        {
          "internalType": "address",
          "name": "operator",
          "type": "address"
        }
      ],
      "name": "ERC721InvalidOperator",
      "type": "error"
    },
    {
      "inputs": [
        {
          "internalType": "address",
          "name": "owner",
          "type": "address"
        }
      ],
      "name": "ERC721InvalidOwner",
      "type": "error"
    },
    {
      "inputs": [
        {
          "internalType": "address",
          "name": "receiver",
          "type": "address"
        }
      ],
      "name": "ERC721InvalidReceiver",
      "type": "error"
    },
    {
      "inputs": [
        {
          "internalType": "address",
          "name": "sender",
          "type": "address"
        }
      ],
      "name": "ERC721InvalidSender",
      "type": "error"
    },
    {
      "inputs": [
        {
          "internalType": "uint256",
          "name": "tokenId",
          "type": "uint256"
        }
      ],
      "name": "ERC721NonexistentToken",
      "type": "error"
    },
    {
      "inputs": [
        {
          "internalType": "address",
          "name": "owner",
          "type": "address"
        }
      ],
      "name": "OwnableInvalidOwner",
      "type": "error"
    },
    {
      "inputs": [
        {
          "internalType": "address",
          "name": "account",
          "type": "address"
        }
      ],
      "name": "OwnableUnauthorizedAccount",
      "type": "error"
    },
    {
      "anonymous": false,
      "inputs": [
        {
          "indexed": true,
          "internalType": "address",
          "name": "owner",
          "type": "address"
        },
        {
          "indexed": true,
          "internalType": "address",
          "name": "approved",
          "type": "address"
        },
        {
          "indexed": true,
          "internalType": "uint256",
          "name": "tokenId",
          "type": "uint256"
        }
      ],
      "name": "Approval",
      "type": "event"
    },
    {
      "anonymous": false,
      "inputs": [
        {
          "indexed": true,
          "internalType": "address",
          "name": "owner",
          "type": "address"
        },
        {
          "indexed": true,
          "internalType": "address",
          "name": "operator",
          "type": "address"
        },
        {
          "indexed": false,
          "internalType": "bool",
          "name": "approved",
          "type": "bool"
        }
      ],
      "name": "ApprovalForAll",
      "type": "event"
    },
    {
      "anonymous": false,
      "inputs": [
        {
          "indexed": true,
          "internalType": "uint256",
          "name": "tokenId",
          "type": "uint256"
        },
        {
          "indexed": false,
          "internalType": "string",
          "name": "loanId",
          "type": "string"
        },
        {
          "indexed": true,
          "internalType": "address",
          "name": "lender",
          "type": "address"
        },
        {
          "indexed": false,
          "internalType": "uint256",
          "name": "timestamp",
          "type": "uint256"
        }
      ],
      "name": "LoanNFTMinted",
      "type": "event"
    },
    {
      "anonymous": false,
      "inputs": [
        {
          "indexed": true,
          "internalType": "uint256",
          "name": "tokenId",
          "type": "uint256"
        },
        {
          "indexed": false,
          "internalType": "string",
          "name": "loanId",
          "type": "string"
        },
        {
          "indexed": false,
          "internalType": "uint256",
          "name": "newBalance",
          "type": "uint256"
        },
        {
          "indexed": false,
          "internalType": "string",
          "name": "newStatus",
          "type": "string"
        },
        {
          "indexed": false,
          "internalType": "uint256",
          "name": "timestamp",
          "type": "uint256"
        }
      ],
      "name": "MetadataUpdated",
      "type": "event"
    },
    {
      "anonymous": false,
      "inputs": [
        {
          "indexed": true,
          "internalType": "address",
          "name": "previousOwner",
          "type": "address"
        },
        {
          "indexed": true,
          "internalType": "address",
          "name": "newOwner",
          "type": "address"
        }
      ],
      "name": "OwnershipTransferred",
      "type": "event"
    },
    {
      "anonymous": false,
      "inputs": [
        {
          "indexed": true,
          "internalType": "address",
          "name": "from",
          "type": "address"
        },
        {
          "indexed": true,
          "internalType": "address",
          "name": "to",
          "type": "address"
        },
        {
          "indexed": true,
          "internalType": "uint256",
          "name": "tokenId",
          "type": "uint256"
        }
      ],
      "name": "Transfer",
      "type": "event"
    },
    {
      "inputs": [
        {
          "internalType": "address",
          "name": "to",
          "type": "address"
        },
        {
          "internalType": "uint256",
          "name": "tokenId",
          "type": "uint256"
        }
      ],
      "name": "approve",
      "outputs": [],
      "stateMutability": "nonpayable",
      "type": "function"
    },
    {
      "inputs": [
        {
          "internalType": "address",
          "name": "owner",
          "type": "address"
        }
      ],
      "name": "balanceOf",
      "outputs": [
        {
          "internalType": "uint256",
          "name": "",
          "type": "uint256"
        }
      ],
      "stateMutability": "view",
      "type": "function"
    },
    {
      "inputs": [],
      "name": "bridgeReceiver",
      "outputs": [
        {
          "internalType": "address",
          "name": "",
          "type": "address"
        }
      ],
      "stateMutability": "view",
      "type": "function"
    },
    {
      "inputs": [
        {
          "internalType": "uint256",
          "name": "tokenId",
          "type": "uint256"
        }
      ],
      "name": "exists",
      "outputs": [
        {
          "internalType": "bool",
          "name": "",
          "type": "bool"
        }
      ],
      "stateMutability": "view",
      "type": "function"
    },
    {
      "inputs": [
        {
          "internalType": "uint256",
          "name": "tokenId",
          "type": "uint256"
        }
      ],
      "name": "getApproved",
      "outputs": [
        {
          "internalType": "address",
          "name": "",
          "type": "address"
        }
      ],
      "stateMutability": "view",
      "type": "function"
    },
    {
      "inputs": [
        {
          "internalType": "uint256",
          "name": "tokenId",
          "type": "uint256"
        }
      ],
      "name": "getLoanMetadata",
      "outputs": [
        {
          "components": [
            {
              "internalType": "string",
              "name": "loanId",
              "type": "string"
            },
            {
              "internalType": "uint256",
              "name": "currentBalance",
              "type": "uint256"
            },
            {
              "internalType": "uint256",
              "name": "monthlyPayment",
              "type": "uint256"
            },
            {
              "internalType": "uint256",
              "name": "interestRate",
              "type": "uint256"
            },
            {
              "internalType": "string",
              "name": "status",
              "type": "string"
            },
            {
              "internalType": "string",
              "name": "location",
              "type": "string"
            },
            {
              "internalType": "uint256",
              "name": "askingPrice",
              "type": "uint256"
            },
            {
              "internalType": "uint256",
              "name": "mintedAt",
              "type": "uint256"
            },
            {
              "internalType": "uint256",
              "name": "lastUpdated",
              "type": "uint256"
            }
          ],
          "internalType": "struct LoanNFT.LoanMetadata",
          "name": "",
          "type": "tuple"
        }
      ],
      "stateMutability": "view",
      "type": "function"
    },
    {
      "inputs": [],
      "name": "getTotalMinted",
      "outputs": [
        {
          "internalType": "uint256",
          "name": "",
          "type": "uint256"
        }
      ],
      "stateMutability": "view",
      "type": "function"
    },
    {
      "inputs": [
        {
          "internalType": "string",
          "name": "",
          "type": "string"
        }
      ],
      "name": "hasBeenMinted",
      "outputs": [
        {
          "internalType": "bool",
          "name": "",
          "type": "bool"
        }
      ],
      "stateMutability": "view",
      "type": "function"
    },
    {
      "inputs": [
        {
          "internalType": "address",
          "name": "owner",
          "type": "address"
        },
        {
          "internalType": "address",
          "name": "operator",
          "type": "address"
        }
      ],
      "name": "isApprovedForAll",
      "outputs": [
        {
          "internalType": "bool",
          "name": "",
          "type": "bool"
        }
      ],
      "stateMutability": "view",
      "type": "function"
    },
    {
      "inputs": [
        {
          "internalType": "string",
          "name": "",
          "type": "string"
        }
      ],
      "name": "loanIdToTokenId",
      "outputs": [
        {
          "internalType": "uint256",
          "name": "",
          "type": "uint256"
        }
      ],
      "stateMutability": "view",
      "type": "function"
    },
    {
      "inputs": [
        {
          "internalType": "uint256",
          "name": "",
          "type": "uint256"
        }
      ],
      "name": "loanMetadata",
      "outputs": [
        {
          "internalType": "string",
          "name": "loanId",
          "type": "string"
        },
        {
          "internalType": "uint256",
          "name": "currentBalance",
          "type": "uint256"
        },
        {
          "internalType": "uint256",
          "name": "monthlyPayment",
          "type": "uint256"
        },
        {
          "internalType": "uint256",
          "name": "interestRate",
          "type": "uint256"
        },
        {
          "internalType": "string",
          "name": "status",
          "type": "string"
        },
        {
          "internalType": "string",
          "name": "location",
          "type": "string"
        },
        {
          "internalType": "uint256",
          "name": "askingPrice",
          "type": "uint256"
        },
        {
          "internalType": "uint256",
          "name": "mintedAt",
          "type": "uint256"
        },
        {
          "internalType": "uint256",
          "name": "lastUpdated",
          "type": "uint256"
        }
      ],
      "stateMutability": "view",
      "type": "function"
    },
    {
      "inputs": [
        {
          "internalType": "string",
          "name": "loanId",
          "type": "string"
        },
        {
          "internalType": "address",
          "name": "lenderAddress",
          "type": "address"
        },
        {
          "internalType": "uint256",
          "name": "currentBalance",
          "type": "uint256"
        },
        {
          "internalType": "uint256",
          "name": "monthlyPayment",
          "type": "uint256"
        },
        {
          "internalType": "uint256",
          "name": "interestRate",
          "type": "uint256"
        },
        {
          "internalType": "string",
          "name": "status",
          "type": "string"
        },
        {
          "internalType": "string",
          "name": "location",
          "type": "string"
        },
        {
          "internalType": "uint256",
          "name": "askingPrice",
          "type": "uint256"
        }
      ],
      "name": "mint",
      "outputs": [
        {
          "internalType": "uint256",
          "name": "",
          "type": "uint256"
        }
      ],
      "stateMutability": "nonpayable",
      "type": "function"
    },
    {
      "inputs": [],
      "name": "name",
      "outputs": [
        {
          "internalType": "string",
          "name": "",
          "type": "string"
        }
      ],
      "stateMutability": "view",
      "type": "function"
    },
    {
      "inputs": [],
      "name": "owner",
      "outputs": [
        {
          "internalType": "address",
          "name": "",
          "type": "address"
        }
      ],
      "stateMutability": "view",
      "type": "function"
    },
    {
      "inputs": [
        {
          "internalType": "uint256",
          "name": "tokenId",
          "type": "uint256"
        }
      ],
      "name": "ownerOf",
      "outputs": [
        {
          "internalType": "address",
          "name": "",
          "type": "address"
        }
      ],
      "stateMutability": "view",
      "type": "function"
    },
    {
      "inputs": [],
      "name": "renounceOwnership",
      "outputs": [],
      "stateMutability": "nonpayable",
      "type": "function"
    },
    {
      "inputs": [
        {
          "internalType": "address",
          "name": "from",
          "type": "address"
        },
        {
          "internalType": "address",
          "name": "to",
          "type": "address"
        },
        {
          "internalType": "uint256",
          "name": "tokenId",
          "type": "uint256"
        }
      ],
      "name": "safeTransferFrom",
      "outputs": [],
      "stateMutability": "nonpayable",
      "type": "function"
    },
    {
      "inputs": [
        {
          "internalType": "address",
          "name": "from",
          "type": "address"
        },
        {
          "internalType": "address",
          "name": "to",
          "type": "address"
        },
        {
          "internalType": "uint256",
          "name": "tokenId",
          "type": "uint256"
        },
        {
          "internalType": "bytes",
          "name": "data",
          "type": "bytes"
        }
      ],
      "name": "safeTransferFrom",
      "outputs": [],
      "stateMutability": "nonpayable",
      "type": "function"
    },
    {
      "inputs": [
        {
          "internalType": "address",
          "name": "operator",
          "type": "address"
        },
        {
          "internalType": "bool",
          "name": "approved",
          "type": "bool"
        }
      ],
      "name": "setApprovalForAll",
      "outputs": [],
      "stateMutability": "nonpayable",
      "type": "function"
    },
    {
      "inputs": [
        {
          "internalType": "string",
          "name": "baseURI",
          "type": "string"
        }
      ],
      "name": "setBaseURI",
      "outputs": [],
      "stateMutability": "nonpayable",
      "type": "function"
    },
    {
      "inputs": [
        {
          "internalType": "address",
          "name": "_bridge",
          "type": "address"
        }
      ],
      "name": "setBridgeReceiver",
      "outputs": [],
      "stateMutability": "nonpayable",
      "type": "function"
    },
    {
      "inputs": [
        {
          "internalType": "bytes4",
          "name": "interfaceId",
          "type": "bytes4"
        }
      ],
      "name": "supportsInterface",
      "outputs": [
        {
          "internalType": "bool",
          "name": "",
          "type": "bool"
        }
      ],
      "stateMutability": "view",
      "type": "function"
    },
    {
      "inputs": [],
      "name": "symbol",
      "outputs": [
        {
          "internalType": "string",
          "name": "",
          "type": "string"
        }
      ],
      "stateMutability": "view",
      "type": "function"
    },
    {
      "inputs": [
        {
          "internalType": "uint256",
          "name": "",
          "type": "uint256"
        }
      ],
      "name": "tokenIdToLoanId",
      "outputs": [
        {
          "internalType": "string",
          "name": "",
          "type": "string"
        }
      ],
      "stateMutability": "view",
      "type": "function"
    },
    {
      "inputs": [
        {
          "internalType": "uint256",
          "name": "tokenId",
          "type": "uint256"
        }
      ],
      "name": "tokenURI",
      "outputs": [
        {
          "internalType": "string",
          "name": "",
          "type": "string"
        }
      ],
      "stateMutability": "view",
      "type": "function"
    },
    {
      "inputs": [
        {
          "internalType": "address",
          "name": "from",
          "type": "address"
        },
        {
          "internalType": "address",
          "name": "to",
          "type": "address"
        },
        {
          "internalType": "uint256",
          "name": "tokenId",
          "type": "uint256"
        }
      ],
      "name": "transferFrom",
      "outputs": [],
      "stateMutability": "nonpayable",
      "type": "function"
    },
    {
      "inputs": [
        {
          "internalType": "address",
          "name": "newOwner",
          "type": "address"
        }
      ],
      "name": "transferOwnership",
      "outputs": [],
      "stateMutability": "nonpayable",
      "type": "function"
    },
    {
      "inputs": [
        {
          "internalType": "uint256",
          "name": "tokenId",
          "type": "uint256"
        },
        {
          "internalType": "uint256",
          "name": "newBalance",
          "type": "uint256"
        },
        {
          "internalType": "string",
          "name": "newStatus",
          "type": "string"
        }
      ],
      "name": "updateMetadata",
      "outputs": [],
      "stateMutability": "nonpayable",
      "type": "function"
    },
    {
      "inputs": [
        {
          "internalType": "string",
          "name": "loanId",
          "type": "string"
        }
      ],
      "name": "wasEverMinted",
      "outputs": [
        {
          "internalType": "bool",
          "name": "",
          "type": "bool"
        }
      ],
      "stateMutability": "view",
      "type": "function"
    }
  ],
  "bytecode": "0x608034620003b757601f906001600160401b0390601f1990620025ff388190038581018416830185811184821017620003a157839282916040528339602092839181010312620003b757516001600160a01b03948582169491859003620003b7576200006a620003bc565b9260088452672321a4902637b0b760c11b8185015262000089620003bc565b9060078252662321a4a627a0a760c91b81830152845195848711620003a1576000968754966001978881811c9116801562000396575b8582101462000382579081878493116200032f575b508490878311600114620002ce578a92620002c2575b5050600019600383901b1c191690871b1787555b8251948511620002ae5785548681811c91168015620002a3575b838210146200028f5790818587969594931162000236575b5081938511600114620001d15750508592620001c5575b5050600019600383901b1c191690821b1790555b8115620001ad57600680546001600160a01b0319811684179091556040519316907f8be0079c531659141344cd1fd0a4f28419497f9722a3daafe3b4186f6b6457e09080a36122229081620003dd8239f35b60249060405190631e4fbdf760e01b82526004820152fd5b01519050388062000147565b869593929193168588528388209388905b8282106200021c575050841162000202575b505050811b0190556200015b565b015160001960f88460031b161c19169055388080620001f4565b8484015186558897909501949384019390810190620001e2565b9091929394508688528288208580880160051c82019285891062000285575b9188978a9297969594930160051c01915b8281106200027657505062000130565b8a815588975089910162000266565b9250819262000255565b634e487b7160e01b88526022600452602488fd5b90607f169062000118565b634e487b7160e01b87526041600452602487fd5b015190503880620000ea565b90848a9416918b8052868c20928c5b88828210620003185750508411620002fe575b505050811b018755620000fe565b015160001960f88460031b161c19169055388080620002f0565b8385015186558d97909501949384019301620002dd565b909150898052848a208780850160051c82019287861062000378575b918b91869594930160051c01915b82811062000369575050620000d4565b8c81558594508b910162000359565b925081926200034b565b634e487b7160e01b8a52602260045260248afd5b90607f1690620000bf565b634e487b7160e01b600052604160045260246000fd5b600080fd5b60408051919082016001600160401b03811183821017620003a15760405256fe608080604052600436101561001357600080fd5b60003560e01c90816301ffc9a714611a325750806306fdde03146119a2578063081812fc1461196457806308ccae6914610847578063095ea7b31461187d5780630a208972146118545780630ca1c5c91461183657806323b872dd1461181f57806342842e0e146117f15780634f558e79146117bb57806355f804b31461167c578063604ed12b146114b95780636352211e1461148957806370a0823114611430578063715018a6146113d357806381571e3d14610a155780638da5cb5b146109ec57806395d89b411461093a578063a22cb46514610895578063b10d782414610847578063b88d4fde146107da578063c57cca4f14610789578063c87b56dd14610651578063cf5d00a8146105f5578063d044e81f14610571578063e6bf24aa1461047e578063e985e9c514610428578063f2fde38b146103a05763ff09a1a41461015e57600080fd5b3461039b57606036600319011261039b576004356024356001600160401b0360443581811161039b57610195903690600401611b8f565b6008546001600160a01b0392906101af9084163314611d8e565b846000526101cb60209360028552604060002054161515611d4b565b84600052600c83526040600020906004600192868482015501918351918211610385576101f88354611c0e565b601f811161033c575b5084601f83116001146102ae5792828061028797947f0d2d5acdd26bfdd3bca82de53d50873b481e1c10abf677ad3333adc44aaee98b999794610298976000936102a3575b501b916000199060031b1c19161790555b86600052600c825242600860406000200155600a8252604060002093604051958695608087526080870190611c48565b928501528382036040850152611ac0565b4260608301520390a2005b860151925038610246565b601f9291921982169084600052866000209160005b8181106103275750926102989592610287989592827f0d2d5acdd26bfdd3bca82de53d50873b481e1c10abf677ad3333adc44aaee98b9b99961061030e575b5050811b019055610257565b85015160001960f88460031b161c191690553880610302565b878301518455928501929188019188016102c3565b8360005285600020601f840160051c81019187851061037b575b601f0160051c019082905b82811061036f575050610201565b60008155018290610361565b9091508190610356565b634e487b7160e01b600052604160045260246000fd5b600080fd5b3461039b57602036600319011261039b576103b9611bad565b6103c1611e84565b6001600160a01b0390811690811561040f57600680546001600160a01b031981168417909155167f8be0079c531659141344cd1fd0a4f28419497f9722a3daafe3b4186f6b6457e0600080a3005b604051631e4fbdf760e01b815260006004820152602490fd5b3461039b57604036600319011261039b57610441611bad565b610449611bc3565b9060018060a01b03809116600052600560205260406000209116600052602052602060ff604060002054166040519015158152f35b3461039b57602036600319011261039b57600435600052600c6020526105316040600020604051906104bb826104b48184611c48565b0383611b1c565b60018101549060028101549061055c60038201549361054e604051916104ef836104e88160048901611c48565b0384611b1c565b6040519261050b846105048160058a01611c48565b0385611b1c565b60068601549760086007880154970154976040519b8c9b8c6101208091528d0190611ac0565b9360208c015260408b015260608a015288820360808a0152611ac0565b9086820360a0880152611ac0565b9260c085015260e08401526101008301520390f35b3461039b57602036600319011261039b5761058a611bad565b610592611e84565b6001600160a01b031680156105b757600880546001600160a01b031916919091179055005b60405162461bcd60e51b8152602060048201526016602482015275496e76616c696420627269646765206164647265737360501b6044820152606490fd5b3461039b57602036600319011261039b576004356001600160401b03811161039b5761063e602061062b81933690600401611b8f565b8160405193828580945193849201611a9d565b8101600981520301902054604051908152f35b3461039b5760208060031936011261039b576004356000818152600283526040902054610688906001600160a01b03161515611d4b565b600052600a8152604060002090604051917f68747470733a2f2f6170692e6663692d6c6f616e732e636f6d2f6d6574616461828401526274612f60e81b604084015282604360009083546106db81611c0e565b946001918083169081156107645750600114610720575b505050610708925003601f198101845283611b1c565b61071c604051928284938452830190611ac0565b0390f35b9091925060005284600020856000915b86831061074d5750505050506043610708928201018580806106f2565b805489840186015288955091019086908301610730565b925050506043925061070894915060ff191682840152801515028201018580806106f2565b3461039b57602036600319011261039b57600435600052600a60205261071c6107bf6107c6604060002060405192838092611c48565b0382611b1c565b604051918291602083526020830190611ac0565b3461039b57608036600319011261039b576107f3611bad565b6107fb611bc3565b90604435606435926001600160401b03841161039b573660238501121561039b57610833610845943690602481600401359101611b58565b9261083f838383611cde565b33611eb0565b005b3461039b57602036600319011261039b576004356001600160401b03811161039b5760ff61087f602061062b81943690600401611b8f565b8101600b81520301902054166040519015158152f35b3461039b57604036600319011261039b576108ae611bad565b6024359081151580920361039b576001600160a01b031690811561092157336000526005602052604060002082600052602052604060002060ff1981541660ff83161790556040519081527f17307eab39ab6107e8899845ad3d59bd9653f200f220920489ca2b5937696c3160203392a3005b604051630b61174360e31b815260048101839052602490fd5b3461039b57600036600319011261039b5760405160006001826001549261096084611c0e565b92838352602094856001821691826000146109cc57505060011461098c575b5061070892500383611b1c565b849150600160005281600020906000915b8583106109b457505061070893508201018561097f565b8054838901850152879450869390920191810161099d565b60ff19168582015261070895151560051b850101925087915061097f9050565b3461039b57600036600319011261039b576006546040516001600160a01b039091168152602090f35b3461039b5761010036600319011261039b576004356001600160401b03811161039b57610a46903690600401611b8f565b610a4e611bc3565b60a4356001600160401b03811161039b57610a6d903690600401611b8f565b9160c4356001600160401b03811161039b57610a8d903690600401611b8f565b91610aa360018060a01b03600854163314611d8e565b60ff6040516020818551610aba8183858a01611a9d565b8101600b815203019020541661138e576040516020818451610adf8183858901611a9d565b8101600981520301902054611349576001600160a01b0381161561130b57604435156112d057815115611296576007549260001984146112805760018401600755604051610b2c81611b01565b600081526001600160a01b03610b456001870185611e1f565b1661126757823b611119575b506040518351610b65818360208801611a9d565b810190600982526020816001880193030190205560018401600052600a602052604060002083516001600160401b03811161038557610ba48254611c0e565b601f81116110d5575b50806020601f821160011461106e57600091611063575b508160011b916000199060031b1c19161790555b6040516020818551610bed8183858a01611a9d565b8101600b815203019020600160ff1982541617905560405194610c0f86611ae5565b838652604435602087015260643560408701526084356060870152608086015260a085015260e43560c08501524260e08501524261010085015260018301600052600c602052604060002084518051906001600160401b038211610385578190610c798454611c0e565b601f8111611013575b50602090601f8311600114610fa757600092610f9c575b50508160011b916000199060031b1c19161781555b60208501516001820155604085015160028201556060850151600382015560808501518051906001600160401b038211610385578190610cf16004850154611c0e565b601f8111610f49575b50602090601f8311600114610ed757600092610ecc575b50508160011b916000199060031b1c19161760048201555b60a08501519485516001600160401b03811161038557610d4c6005840154611c0e565b96601f8811610e85575b602097508790601f8311600114610e115791806008949261010094600092610e06575b50508160011b916000199060031b1c19161760058501555b60c0810151600685015560e0810151600785015501519101557f07fd5dedbe8592df46da70a1fee2c1fc6ef82f0395dd6acc705919c737bdc4e0610de060405193604085526040850190611ac0565b42848701526001600160a01b0390921692600185019281900390a3600160405191018152f35b015190508a80610d79565b9060058501600052886000209160005b601f1985168110610e6e575092600894926001926101009583601f19811610610e55575b505050811b016005850155610d91565b015160001960f88460031b161c191690558a8080610e45565b91928a600181928685015181550194019201610e21565b600584016000526020600020601f830160051c810160208410610ec5575b601f8a0160051c82018110610eb9575050610d56565b60008155600101610ea3565b5080610ea3565b015190508780610d11565b9250600484016000526020600020906000935b601f1984168510610f2e576001945083601f19811610610f15575b505050811b016004820155610d29565b015160001960f88460031b161c19169055878080610f05565b81810151835560209485019460019093019290910190610eea565b909150600484016000526020600020601f840160051c810160208510610f95575b90849392915b601f830160051c82018110610f86575050610cfa565b60008155859450600101610f70565b5080610f6a565b015190508780610c99565b9250836000526020600020906000935b601f1984168510610ff8576001945083601f19811610610fdf575b505050811b018155610cae565b015160001960f88460031b161c19169055878080610fd2565b81810151835560209485019460019093019290910190610fb7565b909150836000526020600020601f840160051c81016020851061105c575b90849392915b601f830160051c8201811061104d575050610c82565b60008155859450600101611037565b5080611031565b905085015188610bc4565b91508260005260206000206000925b601f19831684106110bd576001935082601f198116106110a4575b5050811b019055610bd8565b87015160001960f88460031b161c191690558880611098565b8781015182556020938401936001909201910161107d565b826000526020600020601f830160051c810160208410611112575b601f830160051c82018110611106575050610bad565b600081556001016110f0565b50806110f0565b602061115c91604097969594975180938192630a85bd0160e11b835233600484015260006024840152600189016044840152608060648401526084830190611ac0565b038160006001600160a01b038b165af160009181611222575b506111dd57853d156111d5573d9061118c82611b3d565b9161119a6040519384611b1c565b82523d6000602084013e5b815191826111ce57604051633250574960e11b81526001600160a01b0383166004820152602490fd5b6020915001fd5b6060906111a5565b939492939192916001600160e01b03191663757a42ff60e11b016112015785610b51565b604051633250574960e11b81526001600160a01b0383166004820152602490fd5b9091506020813d60201161125f575b8161123e60209383611b1c565b8101031261039b57516001600160e01b03198116810361039b579087611175565b3d9150611231565b6040516339e3563760e11b815260006004820152602490fd5b634e487b7160e01b600052601160045260246000fd5b60405162461bcd60e51b8152602060048201526012602482015271131bd85b9259081a5cc81c995c5d5a5c995960721b6044820152606490fd5b60405162461bcd60e51b8152602060048201526013602482015272042616c616e6365206d757374206265203e203606c1b6044820152606490fd5b60405162461bcd60e51b8152602060048201526016602482015275496e76616c6964206c656e646572206164647265737360501b6044820152606490fd5b60405162461bcd60e51b815260206004820152601d60248201527f4c6f616e20616c7265616479206861732061637469766520746f6b656e0000006044820152606490fd5b60405162461bcd60e51b815260206004820152601e60248201527f4c6f616e2077617320616c7265616479206d696e746564206265666f726500006044820152606490fd5b3461039b57600036600319011261039b576113ec611e84565b600680546001600160a01b031981169091556000906001600160a01b03167f8be0079c531659141344cd1fd0a4f28419497f9722a3daafe3b4186f6b6457e08280a3005b3461039b57602036600319011261039b576001600160a01b03611451611bad565b1680156114705760005260036020526020604060002054604051908152f35b6040516322718ad960e21b815260006004820152602490fd5b3461039b57602036600319011261039b5760206114a7600435611de4565b6040516001600160a01b039091168152f35b3461039b5760208060031936011261039b576004356040516114da81611ae5565b606091828252838201600090526040820160009052828201600090528260808301528260a083015260c082016000905260e0820160009052610100809201600090528060005260028452600160a01b6001900360406000205416151561153f90611d4b565b600052600c83526040600020926040519261155984611ae5565b604051806115678188611c48565b036115729082611b1c565b845260018501549282850193845260028601549560408601968752600381015494838701958652604051808060048501906115ac91611c48565b036115b79082611b1c565b6080880190815260405190816115d08160058701611c48565b036115db9083611b1c565b60a0890191825260068401549760c08a0198895260078501549460e08b019586526008015496868b019788526040519b8c9b8a8d52518c6101209b8c9101526101408d0161162891611ac0565b955160408d015251908b01525160808a015251601f1992838a82030160a08b015261165291611ac0565b9051918882030160c089015261166791611ac0565b945160e0870152519085015251908301520390f35b3461039b5760208060031936011261039b576001600160401b0360043581811161039b576116ae903690600401611b8f565b916116b7611e84565b8251918211610385576116cb600d54611c0e565b601f8111611774575b5080601f831160011461171057508192600092611705575b5050600019600383901b1c191660019190911b17600d55005b0151905082806116ec565b90601f19831693600d60005282600020926000905b86821061175c5750508360019510611743575b505050811b01600d55005b015160001960f88460031b161c19169055828080611738565b80600185968294968601518155019501930190611725565b600d60005281600020601f840160051c8101918385106117b1575b601f0160051c01905b8181106117a557506116d4565b60008155600101611798565b909150819061178f565b3461039b57602036600319011261039b576004356000526002602052602060018060a01b03604060002054161515604051908152f35b3461039b5761084561180236611bd9565b906040519261181084611b01565b6000845261083f838383611cde565b3461039b5761084561183036611bd9565b91611cde565b3461039b57600036600319011261039b576020600754604051908152f35b3461039b57600036600319011261039b576008546040516001600160a01b039091168152602090f35b3461039b57604036600319011261039b57611896611bad565b6024356118a281611de4565b33151580611951575b80611924575b61190c576001600160a01b039283169282918491167f8c5be1e5ebec7d5bd14f71427d1e84f3dd0314c0f7b2291e5b200ac8c7c3b925600080a4600090815260046020526040902080546001600160a01b0319169091179055005b60405163a9fbf51f60e01b8152336004820152602490fd5b5060018060a01b038116600052600560205260406000203360005260205260ff60406000205416156118b1565b506001600160a01b0381163314156118ab565b3461039b57602036600319011261039b5760043561198181611de4565b506000526004602052602060018060a01b0360406000205416604051908152f35b3461039b57600036600319011261039b576040516000805490826119c583611c0e565b91828252602093600190856001821691826000146109cc5750506001146119f3575061070892500383611b1c565b8491506000805281600020906000915b858310611a1a57505061070893508201018561097f565b80548389018501528794508693909201918101611a03565b3461039b57602036600319011261039b576004359063ffffffff60e01b821680920361039b576020916380ac58cd60e01b8114908115611a8c575b8115611a7b575b5015158152f35b6301ffc9a760e01b14905083611a74565b635b5e139f60e01b81149150611a6d565b60005b838110611ab05750506000910152565b8181015183820152602001611aa0565b90602091611ad981518092818552858086019101611a9d565b601f01601f1916010190565b61012081019081106001600160401b0382111761038557604052565b602081019081106001600160401b0382111761038557604052565b90601f801991011681019081106001600160401b0382111761038557604052565b6001600160401b03811161038557601f01601f191660200190565b929192611b6482611b3d565b91611b726040519384611b1c565b82948184528183011161039b578281602093846000960137010152565b9080601f8301121561039b57816020611baa93359101611b58565b90565b600435906001600160a01b038216820361039b57565b602435906001600160a01b038216820361039b57565b606090600319011261039b576001600160a01b0390600435828116810361039b5791602435908116810361039b579060443590565b90600182811c92168015611c3e575b6020831014611c2857565b634e487b7160e01b600052602260045260246000fd5b91607f1691611c1d565b805460009392611c5782611c0e565b91828252602093600191600181169081600014611cbf5750600114611c7e575b5050505050565b90939495506000929192528360002092846000945b838610611cab57505050500101903880808080611c77565b805485870183015294019385908201611c93565b60ff19168685015250505090151560051b010191503880808080611c77565b91906001600160a01b039081811615611d3257611cfe8291843391611e51565b9316921690828203611d0f57505050565b60649350604051926364283d7b60e01b8452600484015260248301526044820152fd5b604051633250574960e11b815260006004820152602490fd5b15611d5257565b60405162461bcd60e51b8152602060048201526014602482015273151bdad95b88191bd95cc81b9bdd08195e1a5cdd60621b6044820152606490fd5b15611d9557565b60405162461bcd60e51b815260206004820152602160248201527f4f6e6c792042726964676552656365697665722063616e2063616c6c207468696044820152607360f81b6064820152608490fd5b6000818152600260205260409020546001600160a01b0316908115611e07575090565b60249060405190637e27328960e01b82526004820152fd5b6000828152600260205260409020549091906001600160a01b031615611e4857611baa91611ffd565b611baa91611ffd565b600082815260026020526040902054909291906001600160a01b031615611e7b57611baa926120b5565b611baa926120b5565b6006546001600160a01b03163303611e9857565b60405163118cdaa760e01b8152336004820152602490fd5b90939192833b611ec1575050505050565b604051630a85bd0160e11b8082526001600160a01b039384166004830152958316602482015260448101919091526080606482015294921692602092918590611f0e906084830190611ac0565b039483816000978189895af1869181611fb9575b50611f83575050503d600014611f7a573d611f3c81611b3d565b90611f4a6040519283611b1c565b81528093823d92013e5b82519283611f7557604051633250574960e11b815260048101849052602490fd5b019050fd5b60609250611f54565b919450915063ffffffff60e01b1603611fa157503880808080611c77565b60249060405190633250574960e11b82526004820152fd5b9091508481813d8311611ff6575b611fd18183611b1c565b81010312611ff257516001600160e01b031981168103611ff2579038611f22565b8680fd5b503d611fc7565b6000828152600260205260408120546001600160a01b03908116939284917fddf252ad1be2c89b69c2b068fc378daa952ba7f163c4a11628f55a4df523b3ef9183612084575b16928361206c575b84815260026020526040812080546001600160a01b0319168517905580a490565b8381526003602052604081206001815401905561204b565b60046020908152604080872080546001600160a01b0319169055858752600390915285208054600019019055612043565b916000928284526020916002835260018060a01b03946040868082842054169788941680151580612177575b505060029084957fddf252ad1be2c89b69c2b068fc378daa952ba7f163c4a11628f55a4df523b3ef95612148575b169586612132575b87845252812080546001600160a01b0319168517905580a490565b8684526003815282842060018154019055612117565b8885526004885283852080546001600160a01b031916905586855260038852838520805460001901905561210f565b93959294509092806121d4575b1561219557918288949295936120e1565b86849189156000146121b857506024915190637e27328960e01b82526004820152fd5b90604492519163177e802f60e01b835260048301526024820152fd5b5080881480156121f9575b806121845750868552600486528083858720541614612184565b5087855260058652838520818652865260ff84862054166121df56fea164736f6c6343000818000a",
  "linkReferences": {},
  "deployedLinkReferences": {}
}