{
  "_format": "hh-sol-artifact-1",
  "contractName": "LoanRegistry",
  "sourceName": "src/LoanRegistry.sol",
  "abi": [
    {
      "inputs": [
        {
          "internalType": "address",
          "name": "initialOwner",
          "type": "address"
        },
        {
          "internalType": "address",
          "name": "userRegistryAddress",
          "type": "address"
        }
      ],
      "stateMutability": "nonpayable",
      "type": "constructor"
    },
    {
      "inputs": [
        {
          "internalType": "address",
          "name": "owner",
          "type": "address"
        }
      ],
      "name": "OwnableInvalidOwner",
      "type": "error"
    },
    {
      "inputs": [
        {
          "internalType": "address",
          "name": "account",
          "type": "address"
        }
      ],
      "name": "OwnableUnauthorizedAccount",
      "type": "error"
    },
    {
      "anonymous": false,
      "inputs": [
        {
          "indexed": true,
          "internalType": "string",
          "name": "loanId",
          "type": "string"
        },
        {
          "indexed": false,
          "internalType": "uint256",
          "name": "tokenId",
          "type": "uint256"
        },
        {
          "indexed": false,
          "internalType": "uint256",
          "name": "timestamp",
          "type": "uint256"
        }
      ],
      "name": "AvalancheTokenIdSet",
      "type": "event"
    },
    {
      "anonymous": false,
      "inputs": [
        {
          "indexed": true,
          "internalType": "string",
          "name": "loanId",
          "type": "string"
        },
        {
          "indexed": true,
          "internalType": "string",
          "name": "userId",
          "type": "string"
        },
        {
          "indexed": false,
          "internalType": "bytes32",
          "name": "txId",
          "type": "bytes32"
        },
        {
          "indexed": false,
          "internalType": "uint256",
          "name": "timestamp",
          "type": "uint256"
        }
      ],
      "name": "LoanCreated",
      "type": "event"
    },
    {
      "anonymous": false,
      "inputs": [
        {
          "indexed": true,
          "internalType": "string",
          "name": "loanId",
          "type": "string"
        },
        {
          "indexed": false,
          "internalType": "bytes32",
          "name": "txId",
          "type": "bytes32"
        }
      ],
      "name": "LoanDeleted",
      "type": "event"
    },
    {
      "anonymous": false,
      "inputs": [
        {
          "indexed": true,
          "internalType": "string",
          "name": "loanId",
          "type": "string"
        },
        {
          "indexed": false,
          "internalType": "uint256",
          "name": "timestamp",
          "type": "uint256"
        }
      ],
      "name": "LoanLocked",
      "type": "event"
    },
    {
      "anonymous": false,
      "inputs": [
        {
          "indexed": true,
          "internalType": "string",
          "name": "loanId",
          "type": "string"
        },
        {
          "indexed": false,
          "internalType": "uint256",
          "name": "timestamp",
          "type": "uint256"
        }
      ],
      "name": "LoanUnlocked",
      "type": "event"
    },
    {
      "anonymous": false,
      "inputs": [
        {
          "indexed": true,
          "internalType": "string",
          "name": "loanId",
          "type": "string"
        },
        {
          "indexed": false,
          "internalType": "bytes32",
          "name": "txId",
          "type": "bytes32"
        },
        {
          "indexed": false,
          "internalType": "uint256",
          "name": "changeCount",
          "type": "uint256"
        }
      ],
      "name": "LoanUpdated",
      "type": "event"
    },
    {
      "anonymous": false,
      "inputs": [
        {
          "indexed": true,
          "internalType": "string",
          "name": "loanId",
          "type": "string"
        },
        {
          "indexed": false,
          "internalType": "uint256",
          "name": "newBalance",
          "type": "uint256"
        },
        {
          "indexed": false,
          "internalType": "string",
          "name": "newStatus",
          "type": "string"
        },
        {
          "indexed": false,
          "internalType": "uint256",
          "name": "timestamp",
          "type": "uint256"
        }
      ],
      "name": "LockedLoanUpdated",
      "type": "event"
    },
    {
      "anonymous": false,
      "inputs": [
        {
          "indexed": true,
          "internalType": "address",
          "name": "previousOwner",
          "type": "address"
        },
        {
          "indexed": true,
          "internalType": "address",
          "name": "newOwner",
          "type": "address"
        }
      ],
      "name": "OwnershipTransferred",
      "type": "event"
    },
    {
      "inputs": [
        {
          "internalType": "string",
          "name": "_ID",
          "type": "string"
        },
        {
          "internalType": "string",
          "name": "_UserID",
          "type": "string"
        },
        {
          "internalType": "string",
          "name": "_Borrower_FullName",
          "type": "string"
        },
        {
          "internalType": "string",
          "name": "_Borrower_Home_Phone",
          "type": "string"
        },
        {
          "internalType": "string",
          "name": "_Borrower_Property_Address",
          "type": "string"
        },
        {
          "internalType": "string",
          "name": "_Borrower_State",
          "type": "string"
        },
        {
          "internalType": "string",
          "name": "_Borrower_Zip",
          "type": "string"
        },
        {
          "internalType": "string",
          "name": "_Borrower_City",
          "type": "string"
        },
        {
          "internalType": "string",
          "name": "_Borrower_Email",
          "type": "string"
        },
        {
          "internalType": "string",
          "name": "_Borrower_Occupancy_Status",
          "type": "string"
        },
        {
          "internalType": "uint256",
          "name": "_Current_Principal_Bal",
          "type": "uint256"
        },
        {
          "internalType": "uint256",
          "name": "_Restricted_Funds",
          "type": "uint256"
        },
        {
          "internalType": "uint256",
          "name": "_Suspense_Balance",
          "type": "uint256"
        },
        {
          "internalType": "uint256",
          "name": "_Escrow_Balance",
          "type": "uint256"
        },
        {
          "internalType": "uint256",
          "name": "_Total_In_Trust",
          "type": "uint256"
        },
        {
          "internalType": "uint256",
          "name": "_Note_Rate",
          "type": "uint256"
        },
        {
          "internalType": "uint256",
          "name": "_Sold_Rate",
          "type": "uint256"
        },
        {
          "internalType": "uint256",
          "name": "_Default_Rate",
          "type": "uint256"
        },
        {
          "internalType": "uint256",
          "name": "_Unpaid_Interest",
          "type": "uint256"
        },
        {
          "internalType": "uint256",
          "name": "_Unpaid_Fees",
          "type": "uint256"
        },
        {
          "internalType": "uint256",
          "name": "_Late_Fees_Amount",
          "type": "uint256"
        },
        {
          "internalType": "uint256",
          "name": "_Unpaid_Late_Fees",
          "type": "uint256"
        },
        {
          "internalType": "uint256",
          "name": "_Accrued_Late_fees",
          "type": "uint256"
        },
        {
          "internalType": "uint256",
          "name": "_Unpaid_Loan_Charges",
          "type": "uint256"
        },
        {
          "internalType": "uint256",
          "name": "_Deferred_Princ_Balance",
          "type": "uint256"
        },
        {
          "internalType": "uint256",
          "name": "_Deferred_Unp_Charges",
          "type": "uint256"
        },
        {
          "internalType": "uint256",
          "name": "_Original_Loan_Amount",
          "type": "uint256"
        },
        {
          "internalType": "string",
          "name": "_Origination_Date",
          "type": "string"
        },
        {
          "internalType": "string",
          "name": "_Next_Payment_Due",
          "type": "string"
        },
        {
          "internalType": "string",
          "name": "_Loan_Maturity_Date",
          "type": "string"
        },
        {
          "internalType": "string",
          "name": "_Last_Payment_Rec",
          "type": "string"
        },
        {
          "internalType": "string",
          "name": "_Interest_Paid_To",
          "type": "string"
        },
        {
          "internalType": "uint256",
          "name": "_Deferred_Unpaid_Int",
          "type": "uint256"
        },
        {
          "internalType": "uint256",
          "name": "_FCI_Restricted_Principal",
          "type": "uint256"
        },
        {
          "internalType": "uint256",
          "name": "_FCI_Restricted_Interest",
          "type": "uint256"
        },
        {
          "internalType": "uint256",
          "name": "_Pymt_Grace_Days",
          "type": "uint256"
        },
        {
          "internalType": "uint256",
          "name": "_Days_Since_Last_Pymt",
          "type": "uint256"
        },
        {
          "internalType": "uint256",
          "name": "_Num_Of_Pymts_Due",
          "type": "uint256"
        },
        {
          "internalType": "uint256",
          "name": "_Scheduled_Payment",
          "type": "uint256"
        },
        {
          "internalType": "uint256",
          "name": "_Promises_To_Pay",
          "type": "uint256"
        },
        {
          "internalType": "uint256",
          "name": "_NFS_In_Last_12_Months",
          "type": "uint256"
        },
        {
          "internalType": "uint256",
          "name": "_Deferred_Late_Fees",
          "type": "uint256"
        },
        {
          "internalType": "uint256",
          "name": "_Investor_Restricted_Principal",
          "type": "uint256"
        },
        {
          "internalType": "uint256",
          "name": "_Investor_Restricted_Interest",
          "type": "uint256"
        },
        {
          "internalType": "string",
          "name": "_Status",
          "type": "string"
        },
        {
          "internalType": "string",
          "name": "_LUid",
          "type": "string"
        }
      ],
      "name": "createLoan",
      "outputs": [
        {
          "internalType": "bytes32",
          "name": "",
          "type": "bytes32"
        }
      ],
      "stateMutability": "nonpayable",
      "type": "function"
    },
    {
      "inputs": [
        {
          "internalType": "string",
          "name": "loanId",
          "type": "string"
        }
      ],
      "name": "deleteLoan",
      "outputs": [
        {
          "internalType": "bytes32",
          "name": "",
          "type": "bytes32"
        }
      ],
      "stateMutability": "nonpayable",
      "type": "function"
    },
    {
      "inputs": [
        {
          "internalType": "string",
          "name": "loanUid",
          "type": "string"
        }
      ],
      "name": "findLoanByLoanUid",
      "outputs": [
        {
          "components": [
            {
              "internalType": "string",
              "name": "ID",
              "type": "string"
            },
            {
              "internalType": "string",
              "name": "UserID",
              "type": "string"
            },
            {
              "internalType": "string",
              "name": "BorrowerFullName",
              "type": "string"
            },
            {
              "internalType": "string",
              "name": "BorrowerHomePhone",
              "type": "string"
            },
            {
              "internalType": "string",
              "name": "BorrowerPropertyAddress",
              "type": "string"
            },
            {
              "internalType": "string",
              "name": "BorrowerState",
              "type": "string"
            },
            {
              "internalType": "string",
              "name": "BorrowerZip",
              "type": "string"
            },
            {
              "internalType": "string",
              "name": "BorrowerCity",
              "type": "string"
            },
            {
              "internalType": "string",
              "name": "BorrowerEmail",
              "type": "string"
            },
            {
              "internalType": "string",
              "name": "BorrowerOccupancyStatus",
              "type": "string"
            },
            {
              "internalType": "uint256",
              "name": "CurrentPrincipalBal",
              "type": "uint256"
            },
            {
              "internalType": "uint256",
              "name": "RestrictedFunds",
              "type": "uint256"
            },
            {
              "internalType": "uint256",
              "name": "SuspenseBalance",
              "type": "uint256"
            },
            {
              "internalType": "uint256",
              "name": "EscrowBalance",
              "type": "uint256"
            },
            {
              "internalType": "uint256",
              "name": "TotalInTrust",
              "type": "uint256"
            },
            {
              "internalType": "uint256",
              "name": "NoteRate",
              "type": "uint256"
            },
            {
              "internalType": "uint256",
              "name": "SoldRate",
              "type": "uint256"
            },
            {
              "internalType": "uint256",
              "name": "DefaultRate",
              "type": "uint256"
            },
            {
              "internalType": "uint256",
              "name": "UnpaidInterest",
              "type": "uint256"
            },
            {
              "internalType": "uint256",
              "name": "UnpaidFees",
              "type": "uint256"
            },
            {
              "internalType": "uint256",
              "name": "LateFeesAmount",
              "type": "uint256"
            },
            {
              "internalType": "uint256",
              "name": "UnpaidLateFees",
              "type": "uint256"
            },
            {
              "internalType": "uint256",
              "name": "AccruedLateFees",
              "type": "uint256"
            },
            {
              "internalType": "uint256",
              "name": "UnpaidLoanCharges",
              "type": "uint256"
            },
            {
              "internalType": "uint256",
              "name": "DeferredPrincBalance",
              "type": "uint256"
            },
            {
              "internalType": "uint256",
              "name": "DeferredUnpCharges",
              "type": "uint256"
            },
            {
              "internalType": "uint256",
              "name": "OriginalLoanAmount",
              "type": "uint256"
            },
            {
              "internalType": "string",
              "name": "OriginationDate",
              "type": "string"
            },
            {
              "internalType": "string",
              "name": "NextPaymentDue",
              "type": "string"
            },
            {
              "internalType": "string",
              "name": "LoanMaturityDate",
              "type": "string"
            },
            {
              "internalType": "string",
              "name": "LastPaymentRec",
              "type": "string"
            },
            {
              "internalType": "string",
              "name": "InterestPaidTo",
              "type": "string"
            },
            {
              "internalType": "uint256",
              "name": "DeferredUnpaidInt",
              "type": "uint256"
            },
            {
              "internalType": "uint256",
              "name": "FCIRestrictedPrincipal",
              "type": "uint256"
            },
            {
              "internalType": "uint256",
              "name": "FCIRestrictedInterest",
              "type": "uint256"
            },
            {
              "internalType": "uint256",
              "name": "PymtGraceDays",
              "type": "uint256"
            },
            {
              "internalType": "uint256",
              "name": "DaysSinceLastPymt",
              "type": "uint256"
            },
            {
              "internalType": "uint256",
              "name": "NumOfPymtsDue",
              "type": "uint256"
            },
            {
              "internalType": "uint256",
              "name": "ScheduledPayment",
              "type": "uint256"
            },
            {
              "internalType": "uint256",
              "name": "PromisesToPay",
              "type": "uint256"
            },
            {
              "internalType": "uint256",
              "name": "NFSInLast12Months",
              "type": "uint256"
            },
            {
              "internalType": "uint256",
              "name": "DeferredLateFees",
              "type": "uint256"
            },
            {
              "internalType": "uint256",
              "name": "InvestorRestrictedPrincipal",
              "type": "uint256"
            },
            {
              "internalType": "uint256",
              "name": "InvestorRestrictedInterest",
              "type": "uint256"
            },
            {
              "internalType": "string",
              "name": "Status",
              "type": "string"
            },
            {
              "internalType": "string",
              "name": "LUid",
              "type": "string"
            },
            {
              "internalType": "bytes32",
              "name": "TxId",
              "type": "bytes32"
            },
            {
              "internalType": "uint256",
              "name": "BLOCKAUDITCreationAt",
              "type": "uint256"
            },
            {
              "internalType": "uint256",
              "name": "BLOCKAUDITUpdatedAt",
              "type": "uint256"
            },
            {
              "internalType": "bool",
              "name": "exists",
              "type": "bool"
            },
            {
              "internalType": "uint256",
              "name": "avalancheTokenId",
              "type": "uint256"
            },
            {
              "internalType": "uint256",
              "name": "lastSyncTimestamp",
              "type": "uint256"
            },
            {
              "internalType": "bool",
              "name": "isLocked",
              "type": "bool"
            }
          ],
          "internalType": "struct LoanRegistry.Loan",
          "name": "",
          "type": "tuple"
        }
      ],
      "stateMutability": "view",
      "type": "function"
    },
    {
      "inputs": [
        {
          "internalType": "string",
          "name": "userId",
          "type": "string"
        }
      ],
      "name": "findLoansByUserId",
      "outputs": [
        {
          "components": [
            {
              "internalType": "string",
              "name": "ID",
              "type": "string"
            },
            {
              "internalType": "string",
              "name": "UserID",
              "type": "string"
            },
            {
              "internalType": "string",
              "name": "BorrowerFullName",
              "type": "string"
            },
            {
              "internalType": "string",
              "name": "BorrowerHomePhone",
              "type": "string"
            },
            {
              "internalType": "string",
              "name": "BorrowerPropertyAddress",
              "type": "string"
            },
            {
              "internalType": "string",
              "name": "BorrowerState",
              "type": "string"
            },
            {
              "internalType": "string",
              "name": "BorrowerZip",
              "type": "string"
            },
            {
              "internalType": "string",
              "name": "BorrowerCity",
              "type": "string"
            },
            {
              "internalType": "string",
              "name": "BorrowerEmail",
              "type": "string"
            },
            {
              "internalType": "string",
              "name": "BorrowerOccupancyStatus",
              "type": "string"
            },
            {
              "internalType": "uint256",
              "name": "CurrentPrincipalBal",
              "type": "uint256"
            },
            {
              "internalType": "uint256",
              "name": "RestrictedFunds",
              "type": "uint256"
            },
            {
              "internalType": "uint256",
              "name": "SuspenseBalance",
              "type": "uint256"
            },
            {
              "internalType": "uint256",
              "name": "EscrowBalance",
              "type": "uint256"
            },
            {
              "internalType": "uint256",
              "name": "TotalInTrust",
              "type": "uint256"
            },
            {
              "internalType": "uint256",
              "name": "NoteRate",
              "type": "uint256"
            },
            {
              "internalType": "uint256",
              "name": "SoldRate",
              "type": "uint256"
            },
            {
              "internalType": "uint256",
              "name": "DefaultRate",
              "type": "uint256"
            },
            {
              "internalType": "uint256",
              "name": "UnpaidInterest",
              "type": "uint256"
            },
            {
              "internalType": "uint256",
              "name": "UnpaidFees",
              "type": "uint256"
            },
            {
              "internalType": "uint256",
              "name": "LateFeesAmount",
              "type": "uint256"
            },
            {
              "internalType": "uint256",
              "name": "UnpaidLateFees",
              "type": "uint256"
            },
            {
              "internalType": "uint256",
              "name": "AccruedLateFees",
              "type": "uint256"
            },
            {
              "internalType": "uint256",
              "name": "UnpaidLoanCharges",
              "type": "uint256"
            },
            {
              "internalType": "uint256",
              "name": "DeferredPrincBalance",
              "type": "uint256"
            },
            {
              "internalType": "uint256",
              "name": "DeferredUnpCharges",
              "type": "uint256"
            },
            {
              "internalType": "uint256",
              "name": "OriginalLoanAmount",
              "type": "uint256"
            },
            {
              "internalType": "string",
              "name": "OriginationDate",
              "type": "string"
            },
            {
              "internalType": "string",
              "name": "NextPaymentDue",
              "type": "string"
            },
            {
              "internalType": "string",
              "name": "LoanMaturityDate",
              "type": "string"
            },
            {
              "internalType": "string",
              "name": "LastPaymentRec",
              "type": "string"
            },
            {
              "internalType": "string",
              "name": "InterestPaidTo",
              "type": "string"
            },
            {
              "internalType": "uint256",
              "name": "DeferredUnpaidInt",
              "type": "uint256"
            },
            {
              "internalType": "uint256",
              "name": "FCIRestrictedPrincipal",
              "type": "uint256"
            },
            {
              "internalType": "uint256",
              "name": "FCIRestrictedInterest",
              "type": "uint256"
            },
            {
              "internalType": "uint256",
              "name": "PymtGraceDays",
              "type": "uint256"
            },
            {
              "internalType": "uint256",
              "name": "DaysSinceLastPymt",
              "type": "uint256"
            },
            {
              "internalType": "uint256",
              "name": "NumOfPymtsDue",
              "type": "uint256"
            },
            {
              "internalType": "uint256",
              "name": "ScheduledPayment",
              "type": "uint256"
            },
            {
              "internalType": "uint256",
              "name": "PromisesToPay",
              "type": "uint256"
            },
            {
              "internalType": "uint256",
              "name": "NFSInLast12Months",
              "type": "uint256"
            },
            {
              "internalType": "uint256",
              "name": "DeferredLateFees",
              "type": "uint256"
            },
            {
              "internalType": "uint256",
              "name": "InvestorRestrictedPrincipal",
              "type": "uint256"
            },
            {
              "internalType": "uint256",
              "name": "InvestorRestrictedInterest",
              "type": "uint256"
            },
            {
              "internalType": "string",
              "name": "Status",
              "type": "string"
            },
            {
              "internalType": "string",
              "name": "LUid",
              "type": "string"
            },
            {
              "internalType": "bytes32",
              "name": "TxId",
              "type": "bytes32"
            },
            {
              "internalType": "uint256",
              "name": "BLOCKAUDITCreationAt",
              "type": "uint256"
            },
            {
              "internalType": "uint256",
              "name": "BLOCKAUDITUpdatedAt",
              "type": "uint256"
            },
            {
              "internalType": "bool",
              "name": "exists",
              "type": "bool"
            },
            {
              "internalType": "uint256",
              "name": "avalancheTokenId",
              "type": "uint256"
            },
            {
              "internalType": "uint256",
              "name": "lastSyncTimestamp",
              "type": "uint256"
            },
            {
              "internalType": "bool",
              "name": "isLocked",
              "type": "bool"
            }
          ],
          "internalType": "struct LoanRegistry.Loan[]",
          "name": "",
          "type": "tuple[]"
        }
      ],
      "stateMutability": "view",
      "type": "function"
    },
    {
      "inputs": [
        {
          "internalType": "bytes32",
          "name": "txId",
          "type": "bytes32"
        }
      ],
      "name": "getActivityChanges",
      "outputs": [
        {
          "components": [
            {
              "internalType": "string",
              "name": "PropertyName",
              "type": "string"
            },
            {
              "internalType": "string",
              "name": "OldValue",
              "type": "string"
            },
            {
              "internalType": "string",
              "name": "NewValue",
              "type": "string"
            }
          ],
          "internalType": "struct LoanRegistry.Change[]",
          "name": "",
          "type": "tuple[]"
        }
      ],
      "stateMutability": "view",
      "type": "function"
    },
    {
      "inputs": [],
      "name": "getAllLoanIds",
      "outputs": [
        {
          "internalType": "string[]",
          "name": "",
          "type": "string[]"
        }
      ],
      "stateMutability": "view",
      "type": "function"
    },
    {
      "inputs": [
        {
          "internalType": "string",
          "name": "loanId",
          "type": "string"
        }
      ],
      "name": "getAvalancheTokenId",
      "outputs": [
        {
          "internalType": "uint256",
          "name": "",
          "type": "uint256"
        }
      ],
      "stateMutability": "view",
      "type": "function"
    },
    {
      "inputs": [
        {
          "internalType": "string",
          "name": "loanId",
          "type": "string"
        }
      ],
      "name": "getCurrentTransactionByLoan",
      "outputs": [
        {
          "internalType": "bytes32",
          "name": "",
          "type": "bytes32"
        }
      ],
      "stateMutability": "view",
      "type": "function"
    },
    {
      "inputs": [
        {
          "internalType": "string[]",
          "name": "loanIds",
          "type": "string[]"
        }
      ],
      "name": "getLastTransactionsByLoans",
      "outputs": [
        {
          "internalType": "string[]",
          "name": "ids",
          "type": "string[]"
        },
        {
          "internalType": "bytes32[]",
          "name": "txIds",
          "type": "bytes32[]"
        }
      ],
      "stateMutability": "view",
      "type": "function"
    },
    {
      "inputs": [
        {
          "internalType": "bytes32",
          "name": "txId",
          "type": "bytes32"
        }
      ],
      "name": "getLoanByTxId",
      "outputs": [
        {
          "components": [
            {
              "internalType": "string",
              "name": "ID",
              "type": "string"
            },
            {
              "internalType": "string",
              "name": "UserID",
              "type": "string"
            },
            {
              "internalType": "string",
              "name": "BorrowerFullName",
              "type": "string"
            },
            {
              "internalType": "string",
              "name": "BorrowerHomePhone",
              "type": "string"
            },
            {
              "internalType": "string",
              "name": "BorrowerPropertyAddress",
              "type": "string"
            },
            {
              "internalType": "string",
              "name": "BorrowerState",
              "type": "string"
            },
            {
              "internalType": "string",
              "name": "BorrowerZip",
              "type": "string"
            },
            {
              "internalType": "string",
              "name": "BorrowerCity",
              "type": "string"
            },
            {
              "internalType": "string",
              "name": "BorrowerEmail",
              "type": "string"
            },
            {
              "internalType": "string",
              "name": "BorrowerOccupancyStatus",
              "type": "string"
            },
            {
              "internalType": "uint256",
              "name": "CurrentPrincipalBal",
              "type": "uint256"
            },
            {
              "internalType": "uint256",
              "name": "RestrictedFunds",
              "type": "uint256"
            },
            {
              "internalType": "uint256",
              "name": "SuspenseBalance",
              "type": "uint256"
            },
            {
              "internalType": "uint256",
              "name": "EscrowBalance",
              "type": "uint256"
            },
            {
              "internalType": "uint256",
              "name": "TotalInTrust",
              "type": "uint256"
            },
            {
              "internalType": "uint256",
              "name": "NoteRate",
              "type": "uint256"
            },
            {
              "internalType": "uint256",
              "name": "SoldRate",
              "type": "uint256"
            },
            {
              "internalType": "uint256",
              "name": "DefaultRate",
              "type": "uint256"
            },
            {
              "internalType": "uint256",
              "name": "UnpaidInterest",
              "type": "uint256"
            },
            {
              "internalType": "uint256",
              "name": "UnpaidFees",
              "type": "uint256"
            },
            {
              "internalType": "uint256",
              "name": "LateFeesAmount",
              "type": "uint256"
            },
            {
              "internalType": "uint256",
              "name": "UnpaidLateFees",
              "type": "uint256"
            },
            {
              "internalType": "uint256",
              "name": "AccruedLateFees",
              "type": "uint256"
            },
            {
              "internalType": "uint256",
              "name": "UnpaidLoanCharges",
              "type": "uint256"
            },
            {
              "internalType": "uint256",
              "name": "DeferredPrincBalance",
              "type": "uint256"
            },
            {
              "internalType": "uint256",
              "name": "DeferredUnpCharges",
              "type": "uint256"
            },
            {
              "internalType": "uint256",
              "name": "OriginalLoanAmount",
              "type": "uint256"
            },
            {
              "internalType": "string",
              "name": "OriginationDate",
              "type": "string"
            },
            {
              "internalType": "string",
              "name": "NextPaymentDue",
              "type": "string"
            },
            {
              "internalType": "string",
              "name": "LoanMaturityDate",
              "type": "string"
            },
            {
              "internalType": "string",
              "name": "LastPaymentRec",
              "type": "string"
            },
            {
              "internalType": "string",
              "name": "InterestPaidTo",
              "type": "string"
            },
            {
              "internalType": "uint256",
              "name": "DeferredUnpaidInt",
              "type": "uint256"
            },
            {
              "internalType": "uint256",
              "name": "FCIRestrictedPrincipal",
              "type": "uint256"
            },
            {
              "internalType": "uint256",
              "name": "FCIRestrictedInterest",
              "type": "uint256"
            },
            {
              "internalType": "uint256",
              "name": "PymtGraceDays",
              "type": "uint256"
            },
            {
              "internalType": "uint256",
              "name": "DaysSinceLastPymt",
              "type": "uint256"
            },
            {
              "internalType": "uint256",
              "name": "NumOfPymtsDue",
              "type": "uint256"
            },
            {
              "internalType": "uint256",
              "name": "ScheduledPayment",
              "type": "uint256"
            },
            {
              "internalType": "uint256",
              "name": "PromisesToPay",
              "type": "uint256"
            },
            {
              "internalType": "uint256",
              "name": "NFSInLast12Months",
              "type": "uint256"
            },
            {
              "internalType": "uint256",
              "name": "DeferredLateFees",
              "type": "uint256"
            },
            {
              "internalType": "uint256",
              "name": "InvestorRestrictedPrincipal",
              "type": "uint256"
            },
            {
              "internalType": "uint256",
              "name": "InvestorRestrictedInterest",
              "type": "uint256"
            },
            {
              "internalType": "string",
              "name": "Status",
              "type": "string"
            },
            {
              "internalType": "string",
              "name": "LUid",
              "type": "string"
            },
            {
              "internalType": "bytes32",
              "name": "TxId",
              "type": "bytes32"
            },
            {
              "internalType": "uint256",
              "name": "BLOCKAUDITCreationAt",
              "type": "uint256"
            },
            {
              "internalType": "uint256",
              "name": "BLOCKAUDITUpdatedAt",
              "type": "uint256"
            },
            {
              "internalType": "bool",
              "name": "exists",
              "type": "bool"
            },
            {
              "internalType": "uint256",
              "name": "avalancheTokenId",
              "type": "uint256"
            },
            {
              "internalType": "uint256",
              "name": "lastSyncTimestamp",
              "type": "uint256"
            },
            {
              "internalType": "bool",
              "name": "isLocked",
              "type": "bool"
            }
          ],
          "internalType": "struct LoanRegistry.Loan",
          "name": "loan",
          "type": "tuple"
        },
        {
          "components": [
            {
              "internalType": "string",
              "name": "PropertyName",
              "type": "string"
            },
            {
              "internalType": "string",
              "name": "OldValue",
              "type": "string"
            },
            {
              "internalType": "string",
              "name": "NewValue",
              "type": "string"
            }
          ],
          "internalType": "struct LoanRegistry.Change[]",
          "name": "changes",
          "type": "tuple[]"
        }
      ],
      "stateMutability": "view",
      "type": "function"
    },
    {
      "inputs": [
        {
          "internalType": "string",
          "name": "loanId",
          "type": "string"
        }
      ],
      "name": "getLoanHistory",
      "outputs": [
        {
          "components": [
            {
              "internalType": "bytes32",
              "name": "TxId",
              "type": "bytes32"
            },
            {
              "internalType": "uint256",
              "name": "Timestamp",
              "type": "uint256"
            },
            {
              "internalType": "bool",
              "name": "IsDelete",
              "type": "bool"
            }
          ],
          "internalType": "struct LoanRegistry.LoanHistoryEntry[]",
          "name": "",
          "type": "tuple[]"
        }
      ],
      "stateMutability": "view",
      "type": "function"
    },
    {
      "inputs": [
        {
          "internalType": "string",
          "name": "loanId",
          "type": "string"
        }
      ],
      "name": "getLoanHistoryWithChanges",
      "outputs": [
        {
          "internalType": "bytes32[]",
          "name": "txIds",
          "type": "bytes32[]"
        },
        {
          "internalType": "uint256[]",
          "name": "timestamps",
          "type": "uint256[]"
        },
        {
          "internalType": "bool[]",
          "name": "isDeletes",
          "type": "bool[]"
        },
        {
          "internalType": "uint256[]",
          "name": "changeCounts",
          "type": "uint256[]"
        }
      ],
      "stateMutability": "view",
      "type": "function"
    },
    {
      "inputs": [],
      "name": "getTotalLoansCount",
      "outputs": [
        {
          "internalType": "uint256",
          "name": "",
          "type": "uint256"
        }
      ],
      "stateMutability": "view",
      "type": "function"
    },
    {
      "inputs": [
        {
          "internalType": "string",
          "name": "loanId",
          "type": "string"
        }
      ],
      "name": "isLoanLocked",
      "outputs": [
        {
          "internalType": "bool",
          "name": "",
          "type": "bool"
        }
      ],
      "stateMutability": "view",
      "type": "function"
    },
    {
      "inputs": [
        {
          "internalType": "string",
          "name": "loanId",
          "type": "string"
        }
      ],
      "name": "isLoanTokenized",
      "outputs": [
        {
          "internalType": "bool",
          "name": "",
          "type": "bool"
        }
      ],
      "stateMutability": "view",
      "type": "function"
    },
    {
      "inputs": [
        {
          "internalType": "string",
          "name": "loanId",
          "type": "string"
        }
      ],
      "name": "loanExists",
      "outputs": [
        {
          "internalType": "bool",
          "name": "",
          "type": "bool"
        }
      ],
      "stateMutability": "view",
      "type": "function"
    },
    {
      "inputs": [
        {
          "internalType": "string",
          "name": "loanId",
          "type": "string"
        }
      ],
      "name": "lockLoan",
      "outputs": [
        {
          "internalType": "bool",
          "name": "",
          "type": "bool"
        }
      ],
      "stateMutability": "nonpayable",
      "type": "function"
    },
    {
      "inputs": [],
      "name": "marketplaceBridge",
      "outputs": [
        {
          "internalType": "address",
          "name": "",
          "type": "address"
        }
      ],
      "stateMutability": "view",
      "type": "function"
    },
    {
      "inputs": [],
      "name": "owner",
      "outputs": [
        {
          "internalType": "address",
          "name": "",
          "type": "address"
        }
      ],
      "stateMutability": "view",
      "type": "function"
    },
    {
      "inputs": [],
      "name": "queryAllLoans",
      "outputs": [
        {
          "components": [
            {
              "internalType": "string",
              "name": "ID",
              "type": "string"
            },
            {
              "internalType": "string",
              "name": "UserID",
              "type": "string"
            },
            {
              "internalType": "string",
              "name": "BorrowerFullName",
              "type": "string"
            },
            {
              "internalType": "string",
              "name": "BorrowerHomePhone",
              "type": "string"
            },
            {
              "internalType": "string",
              "name": "BorrowerPropertyAddress",
              "type": "string"
            },
            {
              "internalType": "string",
              "name": "BorrowerState",
              "type": "string"
            },
            {
              "internalType": "string",
              "name": "BorrowerZip",
              "type": "string"
            },
            {
              "internalType": "string",
              "name": "BorrowerCity",
              "type": "string"
            },
            {
              "internalType": "string",
              "name": "BorrowerEmail",
              "type": "string"
            },
            {
              "internalType": "string",
              "name": "BorrowerOccupancyStatus",
              "type": "string"
            },
            {
              "internalType": "uint256",
              "name": "CurrentPrincipalBal",
              "type": "uint256"
            },
            {
              "internalType": "uint256",
              "name": "RestrictedFunds",
              "type": "uint256"
            },
            {
              "internalType": "uint256",
              "name": "SuspenseBalance",
              "type": "uint256"
            },
            {
              "internalType": "uint256",
              "name": "EscrowBalance",
              "type": "uint256"
            },
            {
              "internalType": "uint256",
              "name": "TotalInTrust",
              "type": "uint256"
            },
            {
              "internalType": "uint256",
              "name": "NoteRate",
              "type": "uint256"
            },
            {
              "internalType": "uint256",
              "name": "SoldRate",
              "type": "uint256"
            },
            {
              "internalType": "uint256",
              "name": "DefaultRate",
              "type": "uint256"
            },
            {
              "internalType": "uint256",
              "name": "UnpaidInterest",
              "type": "uint256"
            },
            {
              "internalType": "uint256",
              "name": "UnpaidFees",
              "type": "uint256"
            },
            {
              "internalType": "uint256",
              "name": "LateFeesAmount",
              "type": "uint256"
            },
            {
              "internalType": "uint256",
              "name": "UnpaidLateFees",
              "type": "uint256"
            },
            {
              "internalType": "uint256",
              "name": "AccruedLateFees",
              "type": "uint256"
            },
            {
              "internalType": "uint256",
              "name": "UnpaidLoanCharges",
              "type": "uint256"
            },
            {
              "internalType": "uint256",
              "name": "DeferredPrincBalance",
              "type": "uint256"
            },
            {
              "internalType": "uint256",
              "name": "DeferredUnpCharges",
              "type": "uint256"
            },
            {
              "internalType": "uint256",
              "name": "OriginalLoanAmount",
              "type": "uint256"
            },
            {
              "internalType": "string",
              "name": "OriginationDate",
              "type": "string"
            },
            {
              "internalType": "string",
              "name": "NextPaymentDue",
              "type": "string"
            },
            {
              "internalType": "string",
              "name": "LoanMaturityDate",
              "type": "string"
            },
            {
              "internalType": "string",
              "name": "LastPaymentRec",
              "type": "string"
            },
            {
              "internalType": "string",
              "name": "InterestPaidTo",
              "type": "string"
            },
            {
              "internalType": "uint256",
              "name": "DeferredUnpaidInt",
              "type": "uint256"
            },
            {
              "internalType": "uint256",
              "name": "FCIRestrictedPrincipal",
              "type": "uint256"
            },
            {
              "internalType": "uint256",
              "name": "FCIRestrictedInterest",
              "type": "uint256"
            },
            {
              "internalType": "uint256",
              "name": "PymtGraceDays",
              "type": "uint256"
            },
            {
              "internalType": "uint256",
              "name": "DaysSinceLastPymt",
              "type": "uint256"
            },
            {
              "internalType": "uint256",
              "name": "NumOfPymtsDue",
              "type": "uint256"
            },
            {
              "internalType": "uint256",
              "name": "ScheduledPayment",
              "type": "uint256"
            },
            {
              "internalType": "uint256",
              "name": "PromisesToPay",
              "type": "uint256"
            },
            {
              "internalType": "uint256",
              "name": "NFSInLast12Months",
              "type": "uint256"
            },
            {
              "internalType": "uint256",
              "name": "DeferredLateFees",
              "type": "uint256"
            },
            {
              "internalType": "uint256",
              "name": "InvestorRestrictedPrincipal",
              "type": "uint256"
            },
            {
              "internalType": "uint256",
              "name": "InvestorRestrictedInterest",
              "type": "uint256"
            },
            {
              "internalType": "string",
              "name": "Status",
              "type": "string"
            },
            {
              "internalType": "string",
              "name": "LUid",
              "type": "string"
            },
            {
              "internalType": "bytes32",
              "name": "TxId",
              "type": "bytes32"
            },
            {
              "internalType": "uint256",
              "name": "BLOCKAUDITCreationAt",
              "type": "uint256"
            },
            {
              "internalType": "uint256",
              "name": "BLOCKAUDITUpdatedAt",
              "type": "uint256"
            },
            {
              "internalType": "bool",
              "name": "exists",
              "type": "bool"
            },
            {
              "internalType": "uint256",
              "name": "avalancheTokenId",
              "type": "uint256"
            },
            {
              "internalType": "uint256",
              "name": "lastSyncTimestamp",
              "type": "uint256"
            },
            {
              "internalType": "bool",
              "name": "isLocked",
              "type": "bool"
            }
          ],
          "internalType": "struct LoanRegistry.Loan[]",
          "name": "",
          "type": "tuple[]"
        }
      ],
      "stateMutability": "view",
      "type": "function"
    },
    {
      "inputs": [
        {
          "internalType": "uint256",
          "name": "offset",
          "type": "uint256"
        },
        {
          "internalType": "uint256",
          "name": "limit",
          "type": "uint256"
        }
      ],
      "name": "queryLoansPaginated",
      "outputs": [
        {
          "components": [
            {
              "internalType": "string",
              "name": "ID",
              "type": "string"
            },
            {
              "internalType": "string",
              "name": "UserID",
              "type": "string"
            },
            {
              "internalType": "string",
              "name": "BorrowerFullName",
              "type": "string"
            },
            {
              "internalType": "string",
              "name": "BorrowerHomePhone",
              "type": "string"
            },
            {
              "internalType": "string",
              "name": "BorrowerPropertyAddress",
              "type": "string"
            },
            {
              "internalType": "string",
              "name": "BorrowerState",
              "type": "string"
            },
            {
              "internalType": "string",
              "name": "BorrowerZip",
              "type": "string"
            },
            {
              "internalType": "string",
              "name": "BorrowerCity",
              "type": "string"
            },
            {
              "internalType": "string",
              "name": "BorrowerEmail",
              "type": "string"
            },
            {
              "internalType": "string",
              "name": "BorrowerOccupancyStatus",
              "type": "string"
            },
            {
              "internalType": "uint256",
              "name": "CurrentPrincipalBal",
              "type": "uint256"
            },
            {
              "internalType": "uint256",
              "name": "RestrictedFunds",
              "type": "uint256"
            },
            {
              "internalType": "uint256",
              "name": "SuspenseBalance",
              "type": "uint256"
            },
            {
              "internalType": "uint256",
              "name": "EscrowBalance",
              "type": "uint256"
            },
            {
              "internalType": "uint256",
              "name": "TotalInTrust",
              "type": "uint256"
            },
            {
              "internalType": "uint256",
              "name": "NoteRate",
              "type": "uint256"
            },
            {
              "internalType": "uint256",
              "name": "SoldRate",
              "type": "uint256"
            },
            {
              "internalType": "uint256",
              "name": "DefaultRate",
              "type": "uint256"
            },
            {
              "internalType": "uint256",
              "name": "UnpaidInterest",
              "type": "uint256"
            },
            {
              "internalType": "uint256",
              "name": "UnpaidFees",
              "type": "uint256"
            },
            {
              "internalType": "uint256",
              "name": "LateFeesAmount",
              "type": "uint256"
            },
            {
              "internalType": "uint256",
              "name": "UnpaidLateFees",
              "type": "uint256"
            },
            {
              "internalType": "uint256",
              "name": "AccruedLateFees",
              "type": "uint256"
            },
            {
              "internalType": "uint256",
              "name": "UnpaidLoanCharges",
              "type": "uint256"
            },
            {
              "internalType": "uint256",
              "name": "DeferredPrincBalance",
              "type": "uint256"
            },
            {
              "internalType": "uint256",
              "name": "DeferredUnpCharges",
              "type": "uint256"
            },
            {
              "internalType": "uint256",
              "name": "OriginalLoanAmount",
              "type": "uint256"
            },
            {
              "internalType": "string",
              "name": "OriginationDate",
              "type": "string"
            },
            {
              "internalType": "string",
              "name": "NextPaymentDue",
              "type": "string"
            },
            {
              "internalType": "string",
              "name": "LoanMaturityDate",
              "type": "string"
            },
            {
              "internalType": "string",
              "name": "LastPaymentRec",
              "type": "string"
            },
            {
              "internalType": "string",
              "name": "InterestPaidTo",
              "type": "string"
            },
            {
              "internalType": "uint256",
              "name": "DeferredUnpaidInt",
              "type": "uint256"
            },
            {
              "internalType": "uint256",
              "name": "FCIRestrictedPrincipal",
              "type": "uint256"
            },
            {
              "internalType": "uint256",
              "name": "FCIRestrictedInterest",
              "type": "uint256"
            },
            {
              "internalType": "uint256",
              "name": "PymtGraceDays",
              "type": "uint256"
            },
            {
              "internalType": "uint256",
              "name": "DaysSinceLastPymt",
              "type": "uint256"
            },
            {
              "internalType": "uint256",
              "name": "NumOfPymtsDue",
              "type": "uint256"
            },
            {
              "internalType": "uint256",
              "name": "ScheduledPayment",
              "type": "uint256"
            },
            {
              "internalType": "uint256",
              "name": "PromisesToPay",
              "type": "uint256"
            },
            {
              "internalType": "uint256",
              "name": "NFSInLast12Months",
              "type": "uint256"
            },
            {
              "internalType": "uint256",
              "name": "DeferredLateFees",
              "type": "uint256"
            },
            {
              "internalType": "uint256",
              "name": "InvestorRestrictedPrincipal",
              "type": "uint256"
            },
            {
              "internalType": "uint256",
              "name": "InvestorRestrictedInterest",
              "type": "uint256"
            },
            {
              "internalType": "string",
              "name": "Status",
              "type": "string"
            },
            {
              "internalType": "string",
              "name": "LUid",
              "type": "string"
            },
            {
              "internalType": "bytes32",
              "name": "TxId",
              "type": "bytes32"
            },
            {
              "internalType": "uint256",
              "name": "BLOCKAUDITCreationAt",
              "type": "uint256"
            },
            {
              "internalType": "uint256",
              "name": "BLOCKAUDITUpdatedAt",
              "type": "uint256"
            },
            {
              "internalType": "bool",
              "name": "exists",
              "type": "bool"
            },
            {
              "internalType": "uint256",
              "name": "avalancheTokenId",
              "type": "uint256"
            },
            {
              "internalType": "uint256",
              "name": "lastSyncTimestamp",
              "type": "uint256"
            },
            {
              "internalType": "bool",
              "name": "isLocked",
              "type": "bool"
            }
          ],
          "internalType": "struct LoanRegistry.Loan[]",
          "name": "loans_",
          "type": "tuple[]"
        },
        {
          "internalType": "uint256",
          "name": "total",
          "type": "uint256"
        },
        {
          "internalType": "uint256",
          "name": "returned",
          "type": "uint256"
        }
      ],
      "stateMutability": "view",
      "type": "function"
    },
    {
      "inputs": [
        {
          "internalType": "string",
          "name": "loanId",
          "type": "string"
        }
      ],
      "name": "readLoan",
      "outputs": [
        {
          "components": [
            {
              "internalType": "string",
              "name": "ID",
              "type": "string"
            },
            {
              "internalType": "string",
              "name": "UserID",
              "type": "string"
            },
            {
              "internalType": "string",
              "name": "BorrowerFullName",
              "type": "string"
            },
            {
              "internalType": "string",
              "name": "BorrowerHomePhone",
              "type": "string"
            },
            {
              "internalType": "string",
              "name": "BorrowerPropertyAddress",
              "type": "string"
            },
            {
              "internalType": "string",
              "name": "BorrowerState",
              "type": "string"
            },
            {
              "internalType": "string",
              "name": "BorrowerZip",
              "type": "string"
            },
            {
              "internalType": "string",
              "name": "BorrowerCity",
              "type": "string"
            },
            {
              "internalType": "string",
              "name": "BorrowerEmail",
              "type": "string"
            },
            {
              "internalType": "string",
              "name": "BorrowerOccupancyStatus",
              "type": "string"
            },
            {
              "internalType": "uint256",
              "name": "CurrentPrincipalBal",
              "type": "uint256"
            },
            {
              "internalType": "uint256",
              "name": "RestrictedFunds",
              "type": "uint256"
            },
            {
              "internalType": "uint256",
              "name": "SuspenseBalance",
              "type": "uint256"
            },
            {
              "internalType": "uint256",
              "name": "EscrowBalance",
              "type": "uint256"
            },
            {
              "internalType": "uint256",
              "name": "TotalInTrust",
              "type": "uint256"
            },
            {
              "internalType": "uint256",
              "name": "NoteRate",
              "type": "uint256"
            },
            {
              "internalType": "uint256",
              "name": "SoldRate",
              "type": "uint256"
            },
            {
              "internalType": "uint256",
              "name": "DefaultRate",
              "type": "uint256"
            },
            {
              "internalType": "uint256",
              "name": "UnpaidInterest",
              "type": "uint256"
            },
            {
              "internalType": "uint256",
              "name": "UnpaidFees",
              "type": "uint256"
            },
            {
              "internalType": "uint256",
              "name": "LateFeesAmount",
              "type": "uint256"
            },
            {
              "internalType": "uint256",
              "name": "UnpaidLateFees",
              "type": "uint256"
            },
            {
              "internalType": "uint256",
              "name": "AccruedLateFees",
              "type": "uint256"
            },
            {
              "internalType": "uint256",
              "name": "UnpaidLoanCharges",
              "type": "uint256"
            },
            {
              "internalType": "uint256",
              "name": "DeferredPrincBalance",
              "type": "uint256"
            },
            {
              "internalType": "uint256",
              "name": "DeferredUnpCharges",
              "type": "uint256"
            },
            {
              "internalType": "uint256",
              "name": "OriginalLoanAmount",
              "type": "uint256"
            },
            {
              "internalType": "string",
              "name": "OriginationDate",
              "type": "string"
            },
            {
              "internalType": "string",
              "name": "NextPaymentDue",
              "type": "string"
            },
            {
              "internalType": "string",
              "name": "LoanMaturityDate",
              "type": "string"
            },
            {
              "internalType": "string",
              "name": "LastPaymentRec",
              "type": "string"
            },
            {
              "internalType": "string",
              "name": "InterestPaidTo",
              "type": "string"
            },
            {
              "internalType": "uint256",
              "name": "DeferredUnpaidInt",
              "type": "uint256"
            },
            {
              "internalType": "uint256",
              "name": "FCIRestrictedPrincipal",
              "type": "uint256"
            },
            {
              "internalType": "uint256",
              "name": "FCIRestrictedInterest",
              "type": "uint256"
            },
            {
              "internalType": "uint256",
              "name": "PymtGraceDays",
              "type": "uint256"
            },
            {
              "internalType": "uint256",
              "name": "DaysSinceLastPymt",
              "type": "uint256"
            },
            {
              "internalType": "uint256",
              "name": "NumOfPymtsDue",
              "type": "uint256"
            },
            {
              "internalType": "uint256",
              "name": "ScheduledPayment",
              "type": "uint256"
            },
            {
              "internalType": "uint256",
              "name": "PromisesToPay",
              "type": "uint256"
            },
            {
              "internalType": "uint256",
              "name": "NFSInLast12Months",
              "type": "uint256"
            },
            {
              "internalType": "uint256",
              "name": "DeferredLateFees",
              "type": "uint256"
            },
            {
              "internalType": "uint256",
              "name": "InvestorRestrictedPrincipal",
              "type": "uint256"
            },
            {
              "internalType": "uint256",
              "name": "InvestorRestrictedInterest",
              "type": "uint256"
            },
            {
              "internalType": "string",
              "name": "Status",
              "type": "string"
            },
            {
              "internalType": "string",
              "name": "LUid",
              "type": "string"
            },
            {
              "internalType": "bytes32",
              "name": "TxId",
              "type": "bytes32"
            },
            {
              "internalType": "uint256",
              "name": "BLOCKAUDITCreationAt",
              "type": "uint256"
            },
            {
              "internalType": "uint256",
              "name": "BLOCKAUDITUpdatedAt",
              "type": "uint256"
            },
            {
              "internalType": "bool",
              "name": "exists",
              "type": "bool"
            },
            {
              "internalType": "uint256",
              "name": "avalancheTokenId",
              "type": "uint256"
            },
            {
              "internalType": "uint256",
              "name": "lastSyncTimestamp",
              "type": "uint256"
            },
            {
              "internalType": "bool",
              "name": "isLocked",
              "type": "bool"
            }
          ],
          "internalType": "struct LoanRegistry.Loan",
          "name": "",
          "type": "tuple"
        }
      ],
      "stateMutability": "view",
      "type": "function"
    },
    {
      "inputs": [],
      "name": "renounceOwnership",
      "outputs": [],
      "stateMutability": "nonpayable",
      "type": "function"
    },
    {
      "inputs": [
        {
          "internalType": "string",
          "name": "loanId",
          "type": "string"
        },
        {
          "internalType": "uint256",
          "name": "tokenId",
          "type": "uint256"
        }
      ],
      "name": "setAvalancheTokenId",
      "outputs": [
        {
          "internalType": "bool",
          "name": "",
          "type": "bool"
        }
      ],
      "stateMutability": "nonpayable",
      "type": "function"
    },
    {
      "inputs": [
        {
          "internalType": "address",
          "name": "_bridge",
          "type": "address"
        }
      ],
      "name": "setMarketplaceBridge",
      "outputs": [],
      "stateMutability": "nonpayable",
      "type": "function"
    },
    {
      "inputs": [
        {
          "internalType": "address",
          "name": "newOwner",
          "type": "address"
        }
      ],
      "name": "transferOwnership",
      "outputs": [],
      "stateMutability": "nonpayable",
      "type": "function"
    },
    {
      "inputs": [
        {
          "internalType": "string",
          "name": "loanId",
          "type": "string"
        }
      ],
      "name": "unlockLoan",
      "outputs": [
        {
          "internalType": "bool",
          "name": "",
          "type": "bool"
        }
      ],
      "stateMutability": "nonpayable",
      "type": "function"
    },
    {
      "inputs": [
        {
          "internalType": "string",
          "name": "loanId",
          "type": "string"
        },
        {
          "internalType": "uint256",
          "name": "newBalance",
          "type": "uint256"
        },
        {
          "internalType": "uint256",
          "name": "newUnpaidInterest",
          "type": "uint256"
        },
        {
          "internalType": "string",
          "name": "newStatus",
          "type": "string"
        },
        {
          "internalType": "string",
          "name": "newLastPaymentRec",
          "type": "string"
        },
        {
          "internalType": "uint256",
          "name": "newDaysSinceLastPymt",
          "type": "uint256"
        }
      ],
      "name": "updateLockedLoan",
      "outputs": [
        {
          "internalType": "bytes32",
          "name": "",
          "type": "bytes32"
        }
      ],
      "stateMutability": "nonpayable",
      "type": "function"
    },
    {
      "inputs": [
        {
          "internalType": "string",
          "name": "loanId",
          "type": "string"
        }
      ],
      "name": "updateSyncTimestamp",
      "outputs": [
        {
          "internalType": "bool",
          "name": "",
          "type": "bool"
        }
      ],
      "stateMutability": "nonpayable",
      "type": "function"
    },
    {
      "inputs": [],
      "name": "userRegistry",
      "outputs": [
        {
          "internalType": "contract UserRegistry",
          "name": "",
          "type": "address"
        }
      ],
      "stateMutability": "view",
      "type": "function"
    }
  ],
  "bytecode": "0x6080346200012b57601f62005f6238819003918201601f19168301916001600160401b03831184841017620001305780849260409485528339810103126200012b576200005a6020620000528362000146565b920162000146565b906001600160a01b0390811690811562000112576000549260018060a01b03199280848616176000558260405195167f8be0079c531659141344cd1fd0a4f28419497f9722a3daafe3b4186f6b6457e0600080a316918215620000d057506001541617600155604051615e0690816200015c8239f35b62461bcd60e51b815260206004820152601d60248201527f55736572526567697374727920616464726573732072657175697265640000006044820152606490fd5b604051631e4fbdf760e01b815260006004820152602490fd5b600080fd5b634e487b7160e01b600052604160045260246000fd5b51906001600160a01b03821682036200012b5756fe6102c0604052600436101561001357600080fd5b60003560e01c80632afd3117146145db5780632b33d5e3146143895780632fe82e9414613f5d57806347cdddc314613d885780634dae3ab714613b365780635c1bf86514613a645780635c3c3fcf146139295780635c7460d614613900578063638ee9bc146138185780636d047cc6146137b9578063715018a61461376057806375fed82c146132b557806380695be81461327257806384f38df4146132265780638694056d14612ad157806386b15db61461278257806387f5edaf146122a45780638da5cb5b1461227b5780639226eaa5146121f3578063af1f6af0146120ad578063bcb197c914612073578063c4d0b64214610bd3578063ce89c08814610b82578063cfcdd80614610b21578063db272c7a14610a8b578063dd92ab4a14610859578063e01a9aea14610830578063e56904f4146103fd578063ece49dfe146101f45763f2fde38b1461016757600080fd5b346101ef5760203660031901126101ef576004356001600160a01b03818116918290036101ef57610196615b0f565b81156101d6576000548260018060a01b0319821617600055167f8be0079c531659141344cd1fd0a4f28419497f9722a3daafe3b4186f6b6457e0600080a3005b604051631e4fbdf760e01b815260006004820152602490fd5b600080fd5b346101ef5760403660031901126101ef576004356001600160401b0381116101ef57610224903690600401614ab2565b60243561023c60018060a01b03600254163314615a9d565b60405191805161026f60ff603160209687818188019661025d81838a614622565b81016003815203019020015416615881565b60ff603460405186818651610285818389614622565b81016003815203019020015416156103bc578215610384576032604051858185516102b1818388614622565b810160038152030190200154610348576103337fd9af9fe87cb0da3dea36fcb8d50a76961a23460b2422995a935515422b1fb05e9261031d603360409487603287518b818851610302818389614622565b81016003815203019020015585519283918551928391614622565b8201916003835288814294030190200155615a7d565b9281519081524285820152a260405160018152f35b60405162461bcd60e51b8152600481018590526014602482015273151bdad95b88125108185b1c9958591e481cd95d60621b6044820152606490fd5b60405162461bcd60e51b815260048101859052601060248201526f125b9d985b1a59081d1bdad95b88125160821b6044820152606490fd5b60405162461bcd60e51b8152600481018590526019602482015278131bd85b881b5d5cdd081899481b1bd8dad95908199a5c9cdd603a1b6044820152606490fd5b346101ef576020806003193601126101ef576004356001600160401b0381116101ef5761042e903690600401614ab2565b610436614bfe565b506040519060ff603182519385818186019661045381838a614622565b81016003815203019020015416156107f15761047c918391604051938492839251928391614622565b810160038152030190209060ff60346040519361049885614a24565b6040516104b0816104a98185614db2565b0382614a76565b85526040516104c6816104a98160018601614db2565b848601526040516104de816104a98160028601614db2565b60408601526040516104f7816104a98160038601614db2565b6060860152604051610510816104a98160048601614db2565b6080860152604051610529816104a98160058601614db2565b60a0860152604051610542816104a98160068601614db2565b60c086015260405161055b816104a98160078601614db2565b60e0860152604051610574816104a98160088601614db2565b61010086015260405161058e816104a98160098601614db2565b610120860152600a810154610140860152600b810154610160860152600c810154610180860152600d8101546101a0860152600e8101546101c0860152600f8101546101e08601526010810154610200860152601181015461022086015260128101546102408601526013810154610260860152601481015461028086015260158101546102a086015260168101546102c086015260178101546102e086015260188101546103008601526019810154610320860152601a810154610340860152604051610663816104a981601b8601614db2565b61036086015260405161067d816104a981601c8601614db2565b610380860152604051610697816104a981601d8601614db2565b6103a08601526040516106b1816104a981601e8601614db2565b6103c08601526040516106cb816104a981601f8601614db2565b6103e086015283810154610400860152602181015461042086015260228101546104408601526023810154610460860152602481015461048086015260258101546104a086015260268101546104c086015260278101546104e086015260288101546105008601526029810154610520860152602a810154610540860152602b810154610560860152604051610768816104a981602c8601614db2565b610580860152604051610782816104a981602d8601614db2565b6105a0860152602e8101546105c0860152602f8101546105e086015260308101546106008601528260318201541615156106208601526032810154610640860152603381015461066086015201541615156106808301526107ed60405192828493845283019061466a565b0390f35b60405162461bcd60e51b8152600481018490526017602482015276151a19481b1bd85b88191bd95cc81b9bdd08195e1a5cdd604a1b6044820152606490fd5b346101ef5760003660031901126101ef576002546040516001600160a01b039091168152602090f35b346101ef576020806003193601126101ef576004356001600160401b0381116101ef5761088a903690600401614ab2565b61089f60018060a01b03600254163314615a9d565b6040516108bd60ff603184519386818188019661025d81838a614622565b60ff6034604051858186516108d3818389614622565b81016003815203019020015416610a5557600a604051848185516108f8818388614622565b81016003815203019020015415610a15576104a961093a602c6040518681875161092381838a614622565b810160038152030190200160405192838092614db2565b83815191012060088460405161094f81614a5b565b82815201672830b4b21027b33360c11b815220146109d0579060346109838461099e94604051809381928751928391614622565b8101600381520301902001600160ff19825416179055615a7d565b7f91e865b9cff59eb189ba2a164ccb791dfa436f57ed08bc3c7c65d87c27089f2c82604051428152a260405160018152f35b60405162461bcd60e51b815260048101849052601d60248201527f43616e6e6f7420746f6b656e697a652070616964206f6666206c6f616e0000006044820152606490fd5b60405162461bcd60e51b815260048101849052601860248201527704c6f616e2062616c616e6365206d757374206265203e20360441b6044820152606490fd5b60405162461bcd60e51b815260048101849052600e60248201526d105b1c9958591e481b1bd8dad95960921b6044820152606490fd5b346101ef5760203660031901126101ef576004356001600160401b0381116101ef57610abb903690600401614ab2565b610ad060018060a01b03600254163314615a9d565b603360405191610af260ff60318351956020818187019861025d81838c614622565b610b0460405193849251928391614622565b820191600383526020814294030190200155602060405160018152f35b346101ef5760203660031901126101ef576004356001600160401b0381116101ef576032610b6c6020610b5981943690600401614ab2565b8160405193828580945193849201614622565b8101600381520301902001541515604051908152f35b346101ef5760203660031901126101ef576004356001600160401b0381116101ef5760ff6034610bbc6020610b5981953690600401614ab2565b810160038152030190200154166040519015158152f35b346101ef576105c03660031901126101ef576001600160401b036004358181116101ef57610c05903690600401614ab2565b610260526024358181116101ef57610c21903690600401614ab2565b6102a0526044358181116101ef57610c3d903690600401614ab2565b6101c0526064358181116101ef57610c59903690600401614ab2565b6084358281116101ef57610c71903690600401614ab2565b60a4358381116101ef57610c89903690600401614ab2565b6102005260c4358381116101ef57610ca5903690600401614ab2565b6102405260e4358381116101ef57610cc1903690600401614ab2565b610104358481116101ef57610cda903690600401614ab2565b61028052610124358481116101ef57610cf7903690600401614ab2565b610364358581116101ef57610d10903690600401614ab2565b91610384358681116101ef57610d2a903690600401614ab2565b936103a4358781116101ef57610d44903690600401614ab2565b956103c4358881116101ef57610d5e903690600401614ab2565b976103e4358181116101ef57610d78903690600401614ab2565b61012052610584358181116101ef57610d95903690600401614ab2565b610180526105a435116101ef57610db2366105a435600401614ab2565b6101e0526000546001600160a01b039081163303611fb6575b506102a051518015159081611f86575b5015611f4c57610260515115611f115760ff60316040516020816102605151610e0a8183856102605101614622565b600381830152810103019020015416611e8a575b6040516020810190428252436040820152610e676074826102605151610e4e816060840160206102605101614622565b81013360601b6060820152036054810184520182614a76565b51902060c052426101a05260ff60316040516020816102605151610e918183856102605101614622565b810160038152030190200154166102205261022051611e58575b6040516020816102605151610ec68183856102605101614622565b810160038152030190206101605260405161014052610ee761014051614a24565b604051610efb816104a98161016051614db2565b6101405152604051610f17816104a98160016101605101614db2565b6020610140510152604051610f36816104a98160026101605101614db2565b6040610140510152604051610f55816104a98160036101605101614db2565b6060610140510152604051610f74816104a98160046101605101614db2565b6080610140510152604051610f93816104a98160056101605101614db2565b60a0610140510152604051610fb2816104a98160066101605101614db2565b60c0610140510152604051610fd1816104a98160076101605101614db2565b60e0610140510152604051610ff0816104a98160086101605101614db2565b610100610140510152604051611010816104a98160096101605101614db2565b610120610140510152600a61016051015461014080510152600b610160510154610160610140510152600c610160510154610180610140510152600d6101605101546101a0610140510152600e6101605101546101c0610140510152600f6101605101546101e06101405101526010610160510154610200610140510152601161016051015461022061014051015260126101605101546102406101405101526013610160510154610260610140510152601461016051015461028061014051015260156101605101546102a061014051015260166101605101546102c061014051015260176101605101546102e061014051015260186101605101546103006101405101526019610160510154610320610140510152601a61016051015461034061014051015260405161114f816104a981601b6101605101614db2565b61036061014051015260405161116f816104a981601c6101605101614db2565b61038061014051015260405161118f816104a981601d6101605101614db2565b6103a06101405101526040516111af816104a981601e6101605101614db2565b6103c06101405101526040516111cf816104a981601f6101605101614db2565b6103e06101405101526020610160510154610400610140510152602161016051015461042061014051015260226101605101546104406101405101526023610160510154610460610140510152602461016051015461048061014051015260256101605101546104a061014051015260266101605101546104c061014051015260276101605101546104e061014051015260286101605101546105006101405101526029610160510154610520610140510152602a610160510154610540610140510152602b6101605101546105606101405101526040516112bb816104a981602c6101605101614db2565b6105806101405101526040516112db816104a981602d6101605101614db2565b6105a0610140510152602e6101605101546105c0610140510152602f6101605101546105e0610140510152603061016051015461060061014051015260ff603161016051015416151561062061014051015260326101605101548061064061014051015260336101605101548061066061014051015260ff6034610160510154169182151561068061014051015260006101005261022051600014611e4c57610100525b600060e0526102205115611e415760e0525b600060a0526102205115611e3657151560a0525b6040516080526113b6608051614a24565b61026051608051526102a051602060805101526101c05160406080510152606060805101526080805101526102005160a060805101526102405160c0608051015260e0608051015261028051610100608051015261012060805101526101443561014060805101526101643561016060805101526101843561018060805101526101a4356101a060805101526101c4356101c060805101526101e4356101e060805101526102043561020060805101526102243561022060805101526102443561024060805101526102643561026060805101526102843561028060805101526102a4356102a060805101526102c4356102c060805101526102e4356102e06080510152610304356103006080510152610324356103206080510152610344356103406080510152610360608051015261038060805101526103a060805101526103c06080510152610120516103e060805101526104043561040060805101526104243561042060805101526104443561044060805101526104643561046060805101526104843561048060805101526104a4356104a060805101526104c4356104c060805101526104e4356104e060805101526105043561050060805101526105243561052060805101526105443561054060805101526105643561056060805101526101805161058060805101526101e0516105a0608051015260c0516105c060805101526101a0516105e060805101524261060060805101526001610620608051015261010051610640608051015260e051610660608051015260a051151561068060805101526119b061160c42615cdb565b6119866116746020604051936116636021868481019361026051516116378187896102605101614622565b8201605f60f81b8782015261165482518093898785019101614622565b01036001810188520186614a76565b604051809381928751928391614622565b8101600581520301902061168b6080515182615921565b61169e6020608051015160018301615921565b6116b16040608051015160028301615921565b6116c46060608051015160038301615921565b6116d660808051015160048301615921565b6116e960a0608051015160058301615921565b6116fc60c0608051015160068301615921565b61170f60e0608051015160078301615921565b611723610100608051015160088301615921565b611737610120608051015160098301615921565b608051610140810151600a830155610160810151600b830155610180810151600c8301556101a0810151600d8301556101c0810151600e8301556101e0810151600f830155610200810151601083015561022081015160118301556102408101516012830155610260810151601383015561028081015160148301556102a081015160158301556102c081015160168301556102e0810151601783015561030081015160188301556103208101516019830155610340810151601a830155610360015161180790601b8301615921565b61181b6103806080510151601c8301615921565b61182f6103a06080510151601d8301615921565b6118436103c06080510151601e8301615921565b6118576103e06080510151601f8301615921565b608051610400810151602083015561042081015160218301556104408101516022830155610460810151602383015561048081015160248301556104a081015160258301556104c081015160268301556104e0810151602783015561050081015160288301556105208101516029830155610540810151602a830155610560810151602b83015561058001516118f090602c8301615921565b6119046105a06080510151602d8301615921565b6105c06080510151602e8201556105e06080510151602f8201556106006080510151603082015561194d61062060805101511515603183019060ff801983541691151516179055565b610640608051015160328201556106606080510151603382015560346106806080510151151591019060ff801983541691151516179055565b60405160208161026051516119a18183856102605101614622565b81016004815203019020615ae2565b60c0516000526006602052604060002060c05181556119d56102605160018301615921565b4260038201556102205115611d6e576002906040610140510151805160208201209060406080510151918251602084012003611d19575b505061058061014051015180516020820120906105806080510151918251602084012003611cce575b50506101408051015161014060805101518103611c5f575b5001547fd438615c2b2269e4b0b8b81dc5b2176a47eb3bc844a50b4324243114e303a6246040611a7f61026051615a7d565b9281519060c05182526020820152a25b6105a061014051015180519081151580611c44575b611c15575b50506101e0515180611bde575b506102205180611bcd575b80611ba9575b611b5c575b611b016040516020816102605151611aea8183856102605101614622565b8101600381520301902061168b6080515182615921565b611b346040516102605151611b1d818360206102605101614622565b8101906007825260208160c0519303019020615a48565b60c051600052600a602052611b50610260516040600020615921565b602060405160c0518152f35b611b70610260516020610140510151615c28565b611ba46040516102a05151611b8c818360206102a05101614622565b81019060088252602081610260519303019020615ae2565b611acc565b506020610140510151602081519101206102a0515160206102a05101201415611ac7565b506020610140510151511515611ac1565b611c0f9060405190611bf7818360206101e05101614622565b81019060098252602081610260519303019020615921565b80611ab6565b6020809183611c2e611c3d956040518096819501614622565b810160098152030190206159f0565b8080611aa9565b508160208201206101e0515160206101e05101201415611aa4565b611c6b611cc891615cdb565b611c7b6101406080510151615cdb565b60405191611c8883614a40565b604051611c9481614a5b565b601381527210dd5c9c995b9d141c9a5b98da5c185b10985b606a1b6020820152835260208301526040820152838301615da0565b82611a4d565b611d129160405191611cdf83614a40565b604051611ceb81614a5b565b600681526553746174757360d01b6020820152835260208301526040820152838301615da0565b8280611a35565b611d679160405191611d2a83614a40565b604051611d3681614a5b565b601081526f426f72726f77657246756c6c4e616d6560801b6020820152835260208301526040820152838301615da0565b8280611a0c565b50600b54600160401b811015611e2057806001611d8e9201600b55615491565b611e0a5761026051611d9f91615921565b611dbb6040516102a05151611b8c818360206102a05101614622565b611dc761026051615a7d565b611dd36102a051615a7d565b907fd795ecbbd6f651fb7197486a647ea4a0a8256846059ffb5abc5cda4943adafef6040805160c0518152426020820152a3611a8f565b634e487b7160e01b600052600060045260246000fd5b634e487b7160e01b600052604160045260246000fd5b50600060a0526113a5565b50600060e052611391565b5060006101005261137f565b602f6040516020816102605151611e758183856102605101614622565b8101600381520301902001546101a052610eab565b60ff60346040516020816102605151611ea98183856102605101614622565b8101600381520301902001541615610e1e5760405162461bcd60e51b815260206004820152602860248201527f43616e6e6f7420757064617465206c6f636b6564206c6f616e2076696120637260448201526732b0ba32a637b0b760c11b6064820152608490fd5b60405162461bcd60e51b8152602060048201526013602482015272131bd85b881251081a5cc81c995c5d5a5c9959606a1b6044820152606490fd5b60405162461bcd60e51b8152602060048201526012602482015271155cd95c9251081a5cc81c995c5d5a5c995960721b6044820152606490fd5b905060206102a051012060036020604051611fa081614a5b565b82815201622d2d2d60e81b815220141589610ddb565b60006024916001541660405192838092636f77926b60e01b82523360048301525afa9081156120675761202691606091600091612044575b50611ffe60c082015115156157a0565b01516020815191012061200f6157de565b60208151910120811490811561202c575b50615823565b88610dcb565b9050612036615802565b60208151910120148a612020565b61206191503d806000833e6120598183614a76565b8101906156ba565b8b611fee565b6040513d6000823e3d90fd5b346101ef5760203660031901126101ef576004356001600160401b0381116101ef5760ff6031610bbc6020610b5981953690600401614ab2565b346101ef576020806003193601126101ef576004356001600160401b0381116101ef576120de903690600401614ab2565b6120f360018060a01b03600254163314615a9d565b60405161211160ff603184519386818188019661025d81838a614622565b60ff603460405185818651612127818389614622565b81016003815203019020015416156121c157906000603261217e8561218f9560346040518381895161215a818388614622565b810160038152030190200160ff198154169055604051809381928851928391614622565b810160038152030190200155615a7d565b7f504665dddc6b716d04c8637579fed49725dfe039561c404f9fa0fac218e2b43a82604051428152a260405160018152f35b60405162461bcd60e51b815260048101849052600a602482015269139bdd081b1bd8dad95960b21b6044820152606490fd5b346101ef5760203660031901126101ef576004356001600160a01b038116908190036101ef57612221615b0f565b801561223d57600280546001600160a01b031916919091179055005b60405162461bcd60e51b8152602060048201526016602482015275496e76616c696420627269646765206164647265737360501b6044820152606490fd5b346101ef5760003660031901126101ef576000546040516001600160a01b039091168152602090f35b346101ef576020806003193601126101ef576004356001600160401b0381116101ef576122d5903690600401614ab2565b90806122ea6040519384815193849201614622565b8201918181600894600881520301902091825461230681614b8a565b936123146040519586614a76565b8185526000908152838120848087015b84841061275c578782600088815b84518110156123765760ff603161235261234c8489614e6e565b51614e48565b015416612362575b600101612332565b9161236e6001916155cf565b92905061235a565b509190612382906155de565b9260009060005b8151811015612749578360ff86603182816123a761234c888a614e6e565b0154166123bb575b50505050600101612389565b91603461273d9492828799956104a96124c06123dc61234c60019c8e614e6e565b94604051986123ea8a614a24565b6040516123fb816104a9818b614db2565b8a5260405190612419828f81612412918c01614db2565b0383614a76565b8a0152604051612430816104a98160028b01614db2565b60408a0152604051612449816104a98160038b01614db2565b60608a0152604051612462816104a98160048b01614db2565b60808a015260405161247b816104a98160058b01614db2565b60a08a0152604051612494816104a98160068b01614db2565b60c08a01526040516124ad816104a98160078b01614db2565b60e08a0152604051928380928801614db2565b6101008701526040516124da816104a98160098801614db2565b610120870152600a830154610140870152600b830154610160870152600c830154610180870152600d8301546101a0870152600e8301546101c0870152600f8301546101e08701526010830154610200870152601183015461022087015260128301546102408701526013830154610260870152601483015461028087015260158301546102a087015260168301546102c087015260178301546102e087015260188301546103008701526019830154610320870152601a8301546103408701526040516125af816104a981601b8801614db2565b6103608701526040516125c9816104a981601c8801614db2565b6103808701526040516125e3816104a981601d8801614db2565b6103a08701526040516125fd816104a981601e8801614db2565b6103c0870152604051612617816104a981601f8801614db2565b6103e08701528b830154610400870152602183015461042087015260228301546104408701526023830154610460870152602483015461048087015260258301546104a087015260268301546104c087015260278301546104e087015260288301546105008701526029830154610520870152602a830154610540870152602b8301546105608701526040516126b4816104a981602c8801614db2565b6105808701526040516126ce816104a981602d8801614db2565b6105a0870152602e8301546105c0870152602f8301546105e0870152603083015461060087015282015416151561062085015260328101546106408501526033810154610660850152015416151561068082015261272c828a614e6e565b526127378189614e6e565b506155cf565b929050838786816123af565b604051848152806107ed81870189614b2d565b6001918291604051612772816104a98189614db2565b8152019201920191908590612324565b346101ef5760c03660031901126101ef576001600160401b036004358181116101ef576127b3903690600401614ab2565b90602435906064358181116101ef576127d0903690600401614ab2565b906084359081116101ef576127e9903690600401614ab2565b6000549093906001600160a01b039081163303612a29575b506040519381519061282460ff603160209889818189019761025d81838b614622565b60ff60346040518881875161283a81838a614622565b81016003815203019020015416156129ec57603260405187818651612860818389614622565b810160038152030190200154156129b2577f1becde7ac0817e1e5bf0e4139dedb647c095a15357ced8b7f0977267d9530c7b9261296a61293a61295b8989989661298596602e604051848101904282524360408201526128f2606d828c516128cc81606084018b614622565b81016c4c4f434b45445f55504441544560981b606082015203604d810184520182614a76565b5190209c8d96879360405187818d5161290c81838c614622565b8101600381520301902092600a84015560443560128401556129318d602c8501615921565b601e8301615921565b60a43560248201554260308201550155604051809381928851928391614622565b81016007815203019020615a48565b85600052600a8752612980816040600020615921565b615a7d565b926129a160405192839283526060888401526060830190614645565b4260408301520390a2604051908152f35b60405162461bcd60e51b8152600481018790526012602482015271139195081b9bdd081b5a5b9d1959081e595d60721b6044820152606490fd5b60405162461bcd60e51b81526004810187905260156024820152744f6e6c7920666f72206c6f636b6564206c6f616e7360581b6044820152606490fd5b60006024916001541660405192838092636f77926b60e01b82523360048301525afa90811561206757612a9891606091600091612ab6575b50612a7160c082015115156157a0565b015160208151910120612a826157de565b602081519101208114908115612a9e5750615823565b84612801565b9050612aa8615802565b602081519101201486612020565b612acb91503d806000833e6120598183614a76565b87612a61565b346101ef5760203660031901126101ef576004356001600160401b0381116101ef57612b01903690600401614ab2565b6000546001600160a01b03908116330361317e575b50612b3360ff6031604051602081865161025d8183858b01614622565b60ff60346040516020818551612b4c8183858a01614622565b8101600381520301902001541661313d5760326040516020818451612b748183858901614622565b8101600381520301902001546130f8576040516020810190428252436040820152612bcd6066828551612bae816060840160208a01614622565b81016544454c45544560d01b6060820152036046810184520182614a76565b519020612f7f82602060405181818451612bea8183858901614622565b8101600381520301902060405190612c0182614a24565b604051612c12816104a98185614db2565b8252604051612c28816104a98160018601614db2565b83830152604051612c40816104a98160028601614db2565b6040830152604051612c59816104a98160038601614db2565b6060830152604051612c72816104a98160048601614db2565b6080830152604051612c8b816104a98160058601614db2565b60a0830152604051612ca4816104a98160068601614db2565b60c0830152604051612cbd816104a98160078601614db2565b60e0830152604051612cd6816104a98160088601614db2565b610100830152604051612cf0816104a98160098601614db2565b610120830152600a810154610140830152600b810154610160830152600c810154610180830152600d8101546101a0830152600e8101546101c0830152600f8101546101e08301526010810154610200830152601181015461022083015260128101546102408301526013810154610260830152601481015461028083015260158101546102a083015260168101546102c083015260178101546102e083015260188101546103008301526019810154610320830152601a810154610340830152604051612dc5816104a981601b8601614db2565b610360830152604051612ddf816104a981601c8601614db2565b610380830152604051612df9816104a981601d8601614db2565b6103a0830152604051612e13816104a981601e8601614db2565b6103c0830152604051612e2d816104a981601f8601614db2565b6103e083015282810154610400830152602181015461042083015260228101546104408301526023810154610460830152602481015461048083015260258101546104a083015260268101546104c083015260278101546104e083015260288101546105008301526029810154610520830152602a810154610540830152602b810154610560830152604051612eca816104a981602c8601614db2565b61058083015260ff603460405192612ef084612ee981602d8501614db2565b0385614a76565b6105a08501938452602e8101546105c0860152602f8101546105e0860152603081015461060086015282603182015416151561062086015260328101546106408601526033810154610660860152015416151561068083015285600052600683526040600020868155612f668560018301615921565b60034291015551805190816130d9575b50500151615c28565b60005b600b54808210156130cc576104a9612fa9612f9c84615491565b5060405192838092614db2565b602081519101208451602086012014612fc55750600101612f82565b60001993918185019182116130b657612fea612fe3612ff093615491565b5091615491565b90615c19565b600b549081156130a05760209361306f920161301461300e82615491565b90615a39565b600b555b60316040518581845161302e8183858901614622565b810160038152030190200160ff198154169055613059836040518681855161295b8183858a01614622565b82600052600a8452612980816040600020615921565b7f1f4b13e4dd15d25a92f66856e750d208468c8c7ce52eb2a6e880e95650ce41a783604051848152a2604051908152f35b634e487b7160e01b600052603160045260246000fd5b634e487b7160e01b600052601160045260246000fd5b505061306f602092613018565b83809183611c2e6130f1956040518096819501614622565b8680612f76565b60405162461bcd60e51b815260206004820152601c60248201527f43616e6e6f742064656c65746520746f6b656e697a6564206c6f616e000000006044820152606490fd5b60405162461bcd60e51b815260206004820152601960248201527821b0b73737ba103232b632ba32903637b1b5b2b2103637b0b760391b6044820152606490fd5b60006024916001541660405192838092636f77926b60e01b82523360048301525afa908115612067576131ed9160609160009161320b575b506131c660c082015115156157a0565b0151602081519101206131d76157de565b6020815191012081149081156131f35750615823565b81612b16565b90506131fd615802565b602081519101201483612020565b61322091503d806000833e6120598183614a76565b846131b6565b346101ef5760203660031901126101ef576004356001600160401b0381116101ef57603261325e6020610b5981943690600401614ab2565b810160038152030190200154604051908152f35b346101ef5760203660031901126101ef5760043560005260066020526107ed6132a16002604060002001614e98565b604051918291602083526020830190614979565b346101ef5760403660031901126101ef57600435602490600b805490818310156137245760243583018084116130b65782811161371d575b600091845b8281106136e95750613303836155de565b946000905b83811061333857613329878787604051938493606085526060850190614b2d565b91602084015260408301520390f35b8761334282615491565b5061335460ff80926031928391615558565b015416613367575b505050600101613308565b918160346136de94869794613386613380600199615491565b50615558565b916040519561339487614a24565b6040516133a5816104a98188614db2565b87526040516133ba816104a9818e8901614db2565b602090818901526040516133d5816104a98160028a01614db2565b60408901526040516133ee816104a98160038a01614db2565b6060890152604051613407816104a98160048a01614db2565b6080890152604051613420816104a98160058a01614db2565b60a0890152604051613439816104a98160068a01614db2565b60c0890152604051613452816104a98160078a01614db2565b60e089015260405161346b816104a98160088a01614db2565b610100890152604051613485816104a98160098a01614db2565b610120890152600a8501546101408901528c850154610160890152600c850154610180890152600d8501546101a0890152600e8501546101c0890152600f8501546101e08901526010850154610200890152601185015461022089015260128501546102408901526013850154610260890152601485015461028089015260158501546102a089015260168501546102c089015260178501546102e089015260188501546103008901526019850154610320890152601a850154610340890152604051613559816104a981601b8a01614db2565b610360890152604051613573816104a981601c8a01614db2565b61038089015260405161358d816104a981601d8a01614db2565b6103a08901526040516135a7816104a981601e8a01614db2565b6103c08901526040516135c1816104a981601f8a01614db2565b6103e089015284015461040088015260218401546104208801526022840154610440880152602384015461046088015283015461048087015260258301546104a087015260268301546104c087015260278301546104e087015260288301546105008701526029830154610520870152602a830154610540870152602b83015461056087015260405161365b816104a981602c8801614db2565b610580870152604051613675816104a981602d8801614db2565b6105a0870152602e8301546105c0870152602f8301546105e087015260308301546106008701528201541615156106208501526032810154610640850152603381015461066085015201541615156106808201526136d3828b614e6e565b52612737818a614e6e565b91905087898061335c565b60ff60316136f961338084615491565b015416613709575b6001016132f2565b926137156001916155cf565b939050613701565b50816132ed565b60405162461bcd60e51b81526020600482015260146024820152734f6666736574206f7574206f6620626f756e647360601b6044820152606490fd5b346101ef5760003660031901126101ef57613779615b0f565b600080546001600160a01b0319811682556001600160a01b03167f8be0079c531659141344cd1fd0a4f28419497f9722a3daafe3b4186f6b6457e08280a3005b346101ef5760003660031901126101ef57600080600b54905b8181106137e457602083604051908152f35b60ff60316137f461338084615491565b015416613804575b6001016137d2565b916138106001916155cf565b9290506137fc565b346101ef576020806003193601126101ef576004356001600160401b0381116101ef5781610b5961384d923690600401614ab2565b81016007815203019020604051808284829454938481520190600052846000209260005b868282106138ea578461388681860382614a76565b8051156138ad57805160001981019081116130b6576138a491614e6e565b51604051908152f35b60405162461bcd60e51b8152600481018390526015602482015274139bc81d1c985b9cd858dd1a5bdb9cc8199bdd5b99605a1b6044820152606490fd5b8554845260019586019587955093019201613871565b346101ef5760003660031901126101ef576001546040516001600160a01b039091168152602090f35b346101ef576020806003193601126101ef576004356001600160401b0381116101ef57613996613980836139646104a9943690600401614ab2565b61396c614bfe565b508160405193828580945193849201614622565b8101600981520301902060405192838092614db2565b805115613a1f576040519060ff60318251938581818601966139b981838a614622565b81016003815203019020015416156139e25761047c918391604051938492839251928391614622565b60405162461bcd60e51b8152600481018490526015602482015274131bd85b881a185cc81899595b8819195b195d1959605a1b6044820152606490fd5b60405162461bcd60e51b815260048101839052601c60248201527f4e6f206c6f616e20666f756e6420776974682074686973204c556964000000006044820152606490fd5b346101ef5760003660031901126101ef57600b546000805b828110613b025750613a8d9061562e565b906000805b828110613aaf57604051602080825281906107ed90820187614ba1565b60ff6031613abf61338084615491565b015416613acf575b600101613a92565b90613afa6001916104a9613ae5612f9c86615491565b613aef8288614e6e565b526127378187614e6e565b919050613ac7565b60ff6031613b1261338084615491565b015416613b22575b600101613a7c565b90613b2e6001916155cf565b919050613b1a565b346101ef576020806003193601126101ef576004356001600160401b0381116101ef57613b67903690600401614ab2565b613b7381511515615420565b604051815190838181850193613b8a818387614622565b8101600781520301902090604051808386829554938481520190600052866000209260005b88828210613d7257505050613bc692500383614a76565b815191613beb613bd584614b8a565b93613be36040519586614a76565b808552614b8a565b601f19018560005b828110613d475750505060005b8151811015613cf457613c138183614e6e565b5160005260068652604060002090604051613c2d81614a09565b82548152604051613c45816104a98160018801614db2565b88820152613c5560028401614e98565b60408201526060600380940154910190815260ff6031613c908a88613c7a878a614e6e565b519551978c604051948593849251928391614622565b8201908152030190200154161580613cdc575b60019360405192613cb384614a40565b83528983015215156040820152613cca8287614e6e565b52613cd58186614e6e565b5001613c00565b5083516000198101939084116130b657928214613ca3565b604080518781528551818901819052868901928201908960005b828110613d1b5784840385f35b855180518552808301518584015260409081015115159085015294810194606090930192600101613d0e565b604051613d5381614a40565b6000815260008382015260006040820152828288010152018690613bf3565b8554845260019586019588955093019201613baf565b346101ef576020806003193601126101ef57600435906001600160401b038083116101ef57366023840112156101ef576024926004810135613dc981614b8a565b92613dd76040519485614a76565b81845260248585019260051b840101923684116101ef5760248101925b848410613f3757878787613e08815161562e565b91613e13825161545f565b9160005b8151811015613f0d57613e2a8183614e6e565b51613e358287614e6e565b52613e408186614e6e565b50613e6383613e4f8385614e6e565b518160405193828580945193849201614622565b810160078152030190209060405180838682955493848152019060005286600020926000905b88818310613ef357505050613ea092500383614a76565b81519182613eb4575b506001915001613e17565b6000198301928311613ede57600192613ecc91614e6e565b51613ed78287614e6e565b5287613ea9565b87634e487b7160e01b60005260116004526000fd5b600192945082919386548152019401920185929391613e89565b613f2a856107ed8587604051948594604086526040860190614ba1565b9184830390850152614af9565b83358381116101ef578791613f5283928b3691870101614ab2565b815201930192613df4565b346101ef5760003660031901126101ef57600b80546000805b8281106143555750613f87906155de565b916000805b838110613fa957604051602080825281906107ed90820188614b2d565b613fc4613fb582615491565b5060ff809160319384916154c4565b015416613fd6575b5050600101613f8c565b9261434d9183946034613ff3613fed600197615491565b506154c4565b826040519461400186614a24565b604051614012816104a98187614db2565b8652604051614027816104a9818d8801614db2565b60209081880152604051614042816104a98160028901614db2565b604088015260405161405b816104a98160038901614db2565b6060880152604051614074816104a98160048901614db2565b608088015260405161408d816104a98160058901614db2565b60a08801526040516140a6816104a98160068901614db2565b60c08801526040516140bf816104a98160078901614db2565b60e08801526040516140d8816104a98160088901614db2565b6101008801526040516140f2816104a98160098901614db2565b610120880152600a8401546101408801528b840154610160880152600c840154610180880152600d8401546101a0880152600e8401546101c0880152600f8401546101e08801526010840154610200880152601184015461022088015260128401546102408801526013840154610260880152601484015461028088015260158401546102a088015260168401546102c088015260178401546102e088015260188401546103008801526019840154610320880152601a8401546103408801526040516141c6816104a981601b8901614db2565b6103608801526040516141e0816104a981601c8901614db2565b6103808801526040516141fa816104a981601d8901614db2565b6103a0880152604051614214816104a981601e8901614db2565b6103c088015260405161422e816104a981601f8901614db2565b6103e0880152830154610400870152602183015461042087015260228301546104408701526023830154610460870152602483015461048087015260258301546104a087015260268301546104c087015260278301546104e087015260288301546105008701526029830154610520870152602a830154610540870152602b8301546105608701526040516142ca816104a981602c8801614db2565b6105808701526040516142e4816104a981602d8801614db2565b6105a0870152602e8301546105c0870152602f8301546105e087015260308301546106008701528201541615156106208501526032810154610640850152603381015461066085015201541615156106808201526143428289614e6e565b526127378188614e6e565b919086613fcc565b60ff6031614365613fed84615491565b015416614375575b600101613f76565b906143816001916155cf565b91905061436d565b346101ef576020806003193601126101ef576004356001600160401b0381116101ef576143ba903690600401614ab2565b6143c681511515615420565b6040518151908381818501936143dd818387614622565b81016007815203019020604051808286829454938481520190600052866000209260005b888282106145c55750505061441892500382614a76565b614422815161545f565b9361442d825161545f565b9282519161443d613bd584614b8a565b8382019690601f1901368837614453855161545f565b9560005b865181101561454f578061446c889283614e6e565b516000526006855260ff603160406000208d6040519061448b82614a09565b825482526040516144a3816104a98160018801614db2565b8a8301526144dc866144d5816144bb60028801614e98565b9a604087019b8c5260606003809901549701968752614e6e565b5192614e6e565b52516144e88588614e6e565b52876040518092816144fe8d8c51928391614622565b8201908152030190200154161580614537575b9160019261451f838a614e6e565b90151590525151614530828b614e6e565b5201614457565b5087516000198101929083116130b657918114614511565b614570848b8b8b8a8461457d89604051988997608089526080890190614af9565b9087820384890152614af9565b918583036040870152519182815201929460005b8281106145ac5785806107ed87878382036060850152614af9565b8651151585529581019587955093810193600101614591565b8554845260019586019587955093019201614401565b346101ef5760203660031901126101ef576146146107ed6145fd600435614f39565b60409291925193849360408552604085019061466a565b908382036020850152614979565b60005b8381106146355750506000910152565b8181015183820152602001614625565b9060209161465e81518092818552858086019101614622565b601f01601f1916010190565b9061492561491161487961486561485161483d61482961475a61474661473261471f8c60c061470f8e6146fb6146e96146d76146c56146b36106a0895190808852870190614645565b60208901518682036020880152614645565b60408801518582036040870152614645565b60608701518482036060860152614645565b60808601518382036080850152614645565b9060a08501519060a0818403910152614645565b9101518d820360c08f0152614645565b60e08d01518c60e0818403910152614645565b610100808d0151908c8303908d0152614645565b610120808c0151908b8303908c0152614645565b610140808b0151908a0152610160808b0151908a0152610180808b0151908a01526101a0808b0151908a01526101c0808b0151908a01526101e0808b0151908a0152610200808b0151908a0152610220808b0151908a0152610240808b0151908a0152610260808b0151908a0152610280808b0151908a01526102a0808b0151908a01526102c0808b0151908a01526102e0808b0151908a0152610300808b0151908a0152610320808b0151908a0152610340808b0151908a0152610360808b0151908a8303908b0152614645565b610380808a015190898303908a0152614645565b6103a0808901519088830390890152614645565b6103c0808801519087830390880152614645565b6103e0808701519086830390870152614645565b610400808601519085015261042080860151908501526104408086015190850152610460808601519085015261048080860151908501526104a080860151908501526104c080860151908501526104e080860151908501526105008086015190850152610520808601519085015261054080860151908501526105608086015190850152610580808601519085830390860152614645565b6105a0808501519084830390850152614645565b916105c080820151908301526105e080820151908301526106008082015190830152610620808201511515908301526106408082015190830152610660808201519083015261068080910151151591015290565b908082519081815260208091019281808460051b8301019501936000915b8483106149a75750505050505090565b90919293949584806149f9600193601f198682030187528a516149e66149d66060835190808652850190614645565b8583015184820387860152614645565b9160408092015191818403910152614645565b9801930193019194939290614997565b608081019081106001600160401b03821117611e2057604052565b6106a081019081106001600160401b03821117611e2057604052565b606081019081106001600160401b03821117611e2057604052565b604081019081106001600160401b03821117611e2057604052565b90601f801991011681019081106001600160401b03821117611e2057604052565b6001600160401b038111611e2057601f01601f191660200190565b81601f820112156101ef57803590614ac982614a97565b92614ad76040519485614a76565b828452602083830101116101ef57816000926020809301838601378301015290565b90815180825260208080930193019160005b828110614b19575050505090565b835185529381019392810192600101614b0b565b90808251908181526020809101926020808460051b8301019501936000915b848310614b5c5750505050505090565b9091929394958480614b7a600193601f198682030187528a5161466a565b9801930193019194939290614b4c565b6001600160401b038111611e205760051b60200190565b90808251908181526020809101926020808460051b8301019501936000915b848310614bd05750505050505090565b9091929394958480614bee600193601f198682030187528a51614645565b9801930193019194939290614bc0565b60405190614c0b82614a24565b8161068060609182815282602082015282604082015282808201528260808201528260a08201528260c08201528260e08201528261010082015282610120820152600092836101408301528361016083015283610180830152836101a0830152836101c0830152836101e08301528361020083015283610220830152836102408301528361026083015283610280830152836102a0830152836102c0830152836102e08301528361030083015283610320830152836103408301528061036083015280610380830152806103a0830152806103c0830152806103e08301528361040083015283610420830152836104408301528361046083015283610480830152836104a0830152836104c0830152836104e083015283610500830152836105208301528361054083015283610560830152806105808301526105a0820152826105c0820152826105e0820152826106008201528261062082015282610640820152826106608201520152565b90600182811c92168015614da8575b6020831014614d9257565b634e487b7160e01b600052602260045260246000fd5b91607f1691614d87565b805460009392614dc182614d78565b91828252602093600191600181169081600014614e295750600114614de8575b5050505050565b90939495506000929192528360002092846000945b838610614e1557505050500101903880808080614de1565b805485870183015294019385908201614dfd565b60ff19168685015250505090151560051b010191503880808080614de1565b6020614e61918160405193828580945193849201614622565b8101600381520301902090565b8051821015614e825760209160051b010190565b634e487b7160e01b600052603260045260246000fd5b908154614ea481614b8a565b92604093614eb485519182614a76565b82815280946020809201926000526020600020906000935b858510614edb57505050505050565b6003846001928451614eec81614a40565b8551614efc816104a9818b614db2565b81528551614f10816104a981898c01614db2565b838201528551614f27816104a98160028c01614db2565b86820152815201930194019391614ecc565b614f6990614f45614bfe565b50600092818452600a602094600a8652604091614f70838320845197888092614db2565b0387614a76565b8551156153e45786614f8a84519788815193849201614622565b86019587816004986004815203019020968754614fa681614b8a565b98614fb386519a8b614a76565b818a528452818420849083808c015b8484106153bf575050505050825b885181101561537057614fe3818a614e6e565b518883614ff888519384815193849201614622565b8201918481600594858152030190206104a961509989519461501986614a24565b8a51615029816104a98188614db2565b86528a5161503e816104a98160018901614db2565b888701526104a96150876002968d80519061505f82612412818d8d01614db2565b8a01528d51615075816104a98160038c01614db2565b60608a01528d51928380928901614db2565b60808701528a51928380928601614db2565b60a08401528960069189516150b4816104a981878601614db2565b60c086015289516150cc816104a98160078601614db2565b60e086015289516150e4816104a98160088601614db2565b61010086015289516150fd816104a98160098601614db2565b61012086015287810154610140860152600b810154610160860152600c810154610180860152600d8101546101a0860152600e8101546101c0860152600f8101546101e08601526010810154610200860152601181015461022086015260128101546102408601526013810154610260860152601481015461028086015260158101546102a086015260168101546102c086015260178101546102e086015260188101546103008601526019810154610320860152601a81015461034086015289516151d0816104a981601b8601614db2565b61036086015289516151e9816104a981601c8601614db2565b6103808601528951615202816104a981601d8601614db2565b6103a0860152895161521b816104a981601e8601614db2565b6103c08601528951615234816104a981601f8601614db2565b6103e086015286810154610400860152602181015461042086015260228101546104408601526023810154610460860152602481015461048086015260258101546104a086015260268101546104c086015260278101546104e086015260288101546105008601526029810154610520860152602a810154610540860152602b81015461056086015289516152d0816104a981602c8601614db2565b61058086015289516152e9816104a981602d8601614db2565b6105a0860152602e81015490816105c0870152602f8101546105e08701526030810154610600870152603460ff918260318201541615156106208901526032810154610640890152603381015461066089015201541615156106808601521461535757505050600101614fd0565b945096985098505061536d958352522001614e98565b90565b845162461bcd60e51b815260048101839052602260248201527f4c6f616e207374617465206e6f7420666f756e6420666f722074686973205478604482015261125960f21b6064820152608490fd5b60019182918a516153d4816104a98189614db2565b8152019201920191908490614fc2565b825162461bcd60e51b8152600481018890526015602482015274151c985b9cd858dd1a5bdb881b9bdd08199bdd5b99605a1b6044820152606490fd5b1561542757565b60405162461bcd60e51b815260206004820152601060248201526f131bd85b881251081c995c5d5a5c995960821b6044820152606490fd5b9061546982614b8a565b6154766040519182614a76565b8281528092615487601f1991614b8a565b0190602036910137565b600b54811015614e8257600b60005260206000200190600090565b8054821015614e825760005260206000200190600090565b6040519081600082546154d681614d78565b9360019180831690811561553c57506001146154fe575b505060209250600381520301902090565b9091506000526020906020600020906000915b8583106155285750505050602091810138806154ed565b805487840152869450918301918101615511565b92505050602093915060ff1916825280151502810138806154ed565b60405190816000825461556a81614d78565b9360019180831690811561553c575060011461559157505060209250600381520301902090565b9091506000526020906020600020906000915b8583106155bb5750505050602091810138806154ed565b8054878401528694509183019181016155a4565b60001981146130b65760010190565b906155e882614b8a565b6155f56040519182614a76565b8281528092615606601f1991614b8a565b019060005b82811061561757505050565b602090615622614bfe565b8282850101520161560b565b9061563882614b8a565b6156456040519182614a76565b8281528092615656601f1991614b8a565b019060005b82811061566757505050565b80606060208093850101520161565b565b81601f820112156101ef57805161568e81614a97565b9261569c6040519485614a76565b818452602082840101116101ef5761536d9160208085019101614622565b6020818303126101ef5780516001600160401b03918282116101ef57019060e0828403126101ef576040519260e0840184811083821117611e205760405282518281116101ef578161570d918501615678565b845260208301518281116101ef5781615727918501615678565b602085015260408301518281116101ef5781615744918501615678565b604085015260608301519182116101ef57615760918301615678565b60608301526080810151906001600160a01b03821682036101ef5760c091608084015260a081015160a0840152015180151581036101ef5760c082015290565b156157a757565b60405162461bcd60e51b815260206004820152600f60248201526e55736572206e6f742061637469766560881b6044820152606490fd5b604051906157eb82614a5b565b600882526737b832b930ba37b960c11b6020830152565b6040519061580f82614a5b565b600582526430b236b4b760d91b6020830152565b1561582a57565b60405162461bcd60e51b815260206004820152602960248201527f4e6f7420617574686f72697a65643a206d757374206265206f70657261746f726044820152681037b91030b236b4b760b91b6064820152608490fd5b1561588857565b60405162461bcd60e51b8152602060048201526013602482015272131bd85b88191bd95cc81b9bdd08195e1a5cdd606a1b6044820152606490fd5b8181106158ce575050565b600081556001016158c3565b9190601f81116158e957505050565b615915926000526020600020906020601f840160051c83019310615917575b601f0160051c01906158c3565b565b9091508190615908565b91909182516001600160401b038111611e2057615948816159428454614d78565b846158da565b602080601f831160011461598b5750819061597c939495600092615980575b50508160011b916000199060031b1c19161790565b9055565b015190503880615967565b90601f19831695846000526020600020926000905b8882106159d8575050836001959697106159bf575b505050811b019055565b015160001960f88460031b161c191690553880806159b5565b806001859682949686015181550195019301906159a0565b6159fa8154614d78565b9081615a04575050565b81601f60009311600114615a16575055565b908083918252615a35601f60208420940160051c8401600185016158c3565b5555565b90611e0a576159fa8154614d78565b8054600160401b811015611e2057615a65916001820181556154ac565b819291549060031b91821b91600019901b1916179055565b615a9590602060405192828480945193849201614622565b810103902090565b15615aa457565b60405162461bcd60e51b81526020600482015260166024820152754f6e6c79204d61726b6574706c61636542726964676560501b6044820152606490fd5b8054600160401b811015611e2057615aff916001820181556154ac565b919091611e0a5761591591615921565b6000546001600160a01b03163303615b2357565b60405163118cdaa760e01b8152336004820152602490fd5b90808214615c1557615b4d8154614d78565b906001600160401b038211611e2057615b7082615b6a8554614d78565b856158da565b600090601f8311600114615bab5761597c929160009183615ba05750508160011b916000199060031b1c19161790565b015490503880615967565b815260208082208483528183209291601f1985169083905b828210615bfc575050908460019594939210615be357505050811b019055565b015460001960f88460031b161c191690553880806159b5565b8495819295850154815560018091019601940190615bc3565b5050565b9190611e0a5761591591615b3b565b604080516020818451615c3f818385809901614622565b810160088152030190209160005b835480821015615cd3576104a9615c73615c6784886154ac565b50865192838092614db2565b83815191012086518488012014615c8d5750600101615c4d565b925092935050600019918282019182116130b657612fea615cb1615cb993866154ac565b5091856154ac565b815480156130a0570190615cd061300e83836154ac565b55565b505050505050565b8015615d8257600081805b615d6e5750615cf481614a97565b90615d026040519283614a76565b808252601f19615d1182614a97565b013660208401375b80928015615d675760001982019182116130b6578193600a9260309084840682018092116130b65785511115614e825760f81b6001600160f81b03191660001a908401601f01530491615d19565b5050905090565b90615d7a600a916155cf565b910480615ce6565b50604051615d8f81614a5b565b60018152600360fc1b602082015290565b908154600160401b811015611e205760018101808455811015614e82576040600291615915946000526003602060002091020192615ddf815185615921565b615df0602082015160018601615921565b0151910161592156fea164736f6c6343000818000a",
  "linkReferences": {},
  "deployedLinkReferences": {}
}