{
  "_format": "hh-sol-artifact-1",
  "contractName": "MarketplaceBridge",
  "sourceName": "src/MarketplaceBridge.sol",
  "abi": [
    {
      "inputs": [
        {
          "internalType": "address",
          "name": "initialOwner",
          "type": "address"
        },
        {
          "internalType": "address",
          "name": "_loanRegistry",
          "type": "address"
        },
        {
          "internalType": "address",
          "name": "_userRegistry",
          "type": "address"
        }
      ],
      "stateMutability": "nonpayable",
      "type": "constructor"
    },
    {
      "inputs": [
        {
          "internalType": "address",
          "name": "owner",
          "type": "address"
        }
      ],
      "name": "OwnableInvalidOwner",
      "type": "error"
    },
    {
      "inputs": [
        {
          "internalType": "address",
          "name": "account",
          "type": "address"
        }
      ],
      "name": "OwnableUnauthorizedAccount",
      "type": "error"
    },
    {
      "anonymous": false,
      "inputs": [
        {
          "indexed": true,
          "internalType": "string",
          "name": "loanId",
          "type": "string"
        },
        {
          "indexed": false,
          "internalType": "uint256",
          "name": "tokenId",
          "type": "uint256"
        },
        {
          "indexed": false,
          "internalType": "uint256",
          "name": "timestamp",
          "type": "uint256"
        }
      ],
      "name": "AvalancheTokenIdSet",
      "type": "event"
    },
    {
      "anonymous": false,
      "inputs": [
        {
          "indexed": true,
          "internalType": "string",
          "name": "loanId",
          "type": "string"
        },
        {
          "indexed": true,
          "internalType": "uint256",
          "name": "tokenId",
          "type": "uint256"
        },
        {
          "indexed": false,
          "internalType": "uint256",
          "name": "timestamp",
          "type": "uint256"
        }
      ],
      "name": "EmergencyUnlockNeedsSync",
      "type": "event"
    },
    {
      "anonymous": false,
      "inputs": [
        {
          "indexed": true,
          "internalType": "string",
          "name": "loanId",
          "type": "string"
        },
        {
          "indexed": true,
          "internalType": "address",
          "name": "lenderAddress",
          "type": "address"
        },
        {
          "indexed": false,
          "internalType": "uint256",
          "name": "timestamp",
          "type": "uint256"
        }
      ],
      "name": "LoanApprovalCancelled",
      "type": "event"
    },
    {
      "anonymous": false,
      "inputs": [
        {
          "indexed": true,
          "internalType": "string",
          "name": "loanId",
          "type": "string"
        },
        {
          "indexed": true,
          "internalType": "address",
          "name": "lenderAddress",
          "type": "address"
        },
        {
          "indexed": false,
          "internalType": "uint256",
          "name": "askingPrice",
          "type": "uint256"
        },
        {
          "indexed": false,
          "internalType": "uint256",
          "name": "modifiedInterestRate",
          "type": "uint256"
        },
        {
          "indexed": false,
          "internalType": "uint256",
          "name": "timestamp",
          "type": "uint256"
        }
      ],
      "name": "LoanApprovedForSale",
      "type": "event"
    },
    {
      "anonymous": false,
      "inputs": [
        {
          "indexed": true,
          "internalType": "string",
          "name": "loanId",
          "type": "string"
        },
        {
          "indexed": false,
          "internalType": "uint256",
          "name": "timestamp",
          "type": "uint256"
        }
      ],
      "name": "LoanPaidOff",
      "type": "event"
    },
    {
      "anonymous": false,
      "inputs": [
        {
          "indexed": true,
          "internalType": "address",
          "name": "previousOwner",
          "type": "address"
        },
        {
          "indexed": true,
          "internalType": "address",
          "name": "newOwner",
          "type": "address"
        }
      ],
      "name": "OwnershipTransferred",
      "type": "event"
    },
    {
      "anonymous": false,
      "inputs": [
        {
          "indexed": true,
          "internalType": "string",
          "name": "loanId",
          "type": "string"
        },
        {
          "indexed": true,
          "internalType": "address",
          "name": "newOwner",
          "type": "address"
        },
        {
          "indexed": false,
          "internalType": "uint256",
          "name": "salePrice",
          "type": "uint256"
        },
        {
          "indexed": false,
          "internalType": "uint256",
          "name": "timestamp",
          "type": "uint256"
        }
      ],
      "name": "OwnershipTransferred",
      "type": "event"
    },
    {
      "anonymous": false,
      "inputs": [
        {
          "indexed": true,
          "internalType": "string",
          "name": "loanId",
          "type": "string"
        },
        {
          "indexed": false,
          "internalType": "uint256",
          "name": "amount",
          "type": "uint256"
        },
        {
          "indexed": false,
          "internalType": "uint256",
          "name": "timestamp",
          "type": "uint256"
        }
      ],
      "name": "PaymentRecorded",
      "type": "event"
    },
    {
      "inputs": [
        {
          "internalType": "string",
          "name": "loanId",
          "type": "string"
        },
        {
          "internalType": "uint256",
          "name": "askingPrice",
          "type": "uint256"
        },
        {
          "internalType": "uint256",
          "name": "modifiedInterestRate",
          "type": "uint256"
        }
      ],
      "name": "approveLoanForSale",
      "outputs": [
        {
          "internalType": "bool",
          "name": "",
          "type": "bool"
        }
      ],
      "stateMutability": "nonpayable",
      "type": "function"
    },
    {
      "inputs": [
        {
          "internalType": "string",
          "name": "loanId",
          "type": "string"
        }
      ],
      "name": "canBeMinted",
      "outputs": [
        {
          "internalType": "bool",
          "name": "",
          "type": "bool"
        }
      ],
      "stateMutability": "view",
      "type": "function"
    },
    {
      "inputs": [
        {
          "internalType": "string",
          "name": "loanId",
          "type": "string"
        }
      ],
      "name": "cancelSaleListing",
      "outputs": [
        {
          "internalType": "bool",
          "name": "",
          "type": "bool"
        }
      ],
      "stateMutability": "nonpayable",
      "type": "function"
    },
    {
      "inputs": [
        {
          "internalType": "string",
          "name": "loanId",
          "type": "string"
        }
      ],
      "name": "emergencyUnlock",
      "outputs": [
        {
          "internalType": "bool",
          "name": "",
          "type": "bool"
        }
      ],
      "stateMutability": "nonpayable",
      "type": "function"
    },
    {
      "inputs": [
        {
          "internalType": "string",
          "name": "loanId",
          "type": "string"
        }
      ],
      "name": "getApprovalData",
      "outputs": [
        {
          "components": [
            {
              "internalType": "bool",
              "name": "isApproved",
              "type": "bool"
            },
            {
              "internalType": "uint256",
              "name": "askingPrice",
              "type": "uint256"
            },
            {
              "internalType": "uint256",
              "name": "modifiedInterestRate",
              "type": "uint256"
            },
            {
              "internalType": "address",
              "name": "lenderAddress",
              "type": "address"
            },
            {
              "internalType": "uint256",
              "name": "approvalTimestamp",
              "type": "uint256"
            },
            {
              "internalType": "bool",
              "name": "isMinted",
              "type": "bool"
            },
            {
              "internalType": "bool",
              "name": "isCancelled",
              "type": "bool"
            }
          ],
          "internalType": "struct MarketplaceBridge.ApprovalData",
          "name": "",
          "type": "tuple"
        }
      ],
      "stateMutability": "view",
      "type": "function"
    },
    {
      "inputs": [
        {
          "internalType": "bytes32",
          "name": "txHash",
          "type": "bytes32"
        }
      ],
      "name": "getApprovalDataByTxHash",
      "outputs": [
        {
          "components": [
            {
              "internalType": "bool",
              "name": "isApproved",
              "type": "bool"
            },
            {
              "internalType": "uint256",
              "name": "askingPrice",
              "type": "uint256"
            },
            {
              "internalType": "uint256",
              "name": "modifiedInterestRate",
              "type": "uint256"
            },
            {
              "internalType": "address",
              "name": "lenderAddress",
              "type": "address"
            },
            {
              "internalType": "uint256",
              "name": "approvalTimestamp",
              "type": "uint256"
            },
            {
              "internalType": "bool",
              "name": "isMinted",
              "type": "bool"
            },
            {
              "internalType": "bool",
              "name": "isCancelled",
              "type": "bool"
            }
          ],
          "internalType": "struct MarketplaceBridge.ApprovalData",
          "name": "",
          "type": "tuple"
        },
        {
          "internalType": "string",
          "name": "",
          "type": "string"
        }
      ],
      "stateMutability": "view",
      "type": "function"
    },
    {
      "inputs": [
        {
          "internalType": "string",
          "name": "loanId",
          "type": "string"
        }
      ],
      "name": "getAvalancheTokenId",
      "outputs": [
        {
          "internalType": "uint256",
          "name": "",
          "type": "uint256"
        }
      ],
      "stateMutability": "view",
      "type": "function"
    },
    {
      "inputs": [
        {
          "internalType": "bytes32",
          "name": "txHash",
          "type": "bytes32"
        }
      ],
      "name": "getLoanIdByTxHash",
      "outputs": [
        {
          "internalType": "string",
          "name": "",
          "type": "string"
        }
      ],
      "stateMutability": "view",
      "type": "function"
    },
    {
      "inputs": [
        {
          "internalType": "string",
          "name": "loanId",
          "type": "string"
        }
      ],
      "name": "isLoanApprovedForSale",
      "outputs": [
        {
          "internalType": "bool",
          "name": "",
          "type": "bool"
        }
      ],
      "stateMutability": "view",
      "type": "function"
    },
    {
      "inputs": [
        {
          "internalType": "string",
          "name": "",
          "type": "string"
        }
      ],
      "name": "loanApprovals",
      "outputs": [
        {
          "internalType": "bool",
          "name": "isApproved",
          "type": "bool"
        },
        {
          "internalType": "uint256",
          "name": "askingPrice",
          "type": "uint256"
        },
        {
          "internalType": "uint256",
          "name": "modifiedInterestRate",
          "type": "uint256"
        },
        {
          "internalType": "address",
          "name": "lenderAddress",
          "type": "address"
        },
        {
          "internalType": "uint256",
          "name": "approvalTimestamp",
          "type": "uint256"
        },
        {
          "internalType": "bool",
          "name": "isMinted",
          "type": "bool"
        },
        {
          "internalType": "bool",
          "name": "isCancelled",
          "type": "bool"
        }
      ],
      "stateMutability": "view",
      "type": "function"
    },
    {
      "inputs": [],
      "name": "loanRegistry",
      "outputs": [
        {
          "internalType": "contract LoanRegistry",
          "name": "",
          "type": "address"
        }
      ],
      "stateMutability": "view",
      "type": "function"
    },
    {
      "inputs": [
        {
          "internalType": "string",
          "name": "",
          "type": "string"
        }
      ],
      "name": "loanToAvalancheTokenId",
      "outputs": [
        {
          "internalType": "uint256",
          "name": "",
          "type": "uint256"
        }
      ],
      "stateMutability": "view",
      "type": "function"
    },
    {
      "inputs": [
        {
          "internalType": "string",
          "name": "loanId",
          "type": "string"
        }
      ],
      "name": "markLoanAsPaidOff",
      "outputs": [
        {
          "internalType": "bool",
          "name": "",
          "type": "bool"
        }
      ],
      "stateMutability": "nonpayable",
      "type": "function"
    },
    {
      "inputs": [],
      "name": "owner",
      "outputs": [
        {
          "internalType": "address",
          "name": "",
          "type": "address"
        }
      ],
      "stateMutability": "view",
      "type": "function"
    },
    {
      "inputs": [
        {
          "internalType": "string",
          "name": "loanId",
          "type": "string"
        },
        {
          "internalType": "address",
          "name": "newOwnerAddress",
          "type": "address"
        },
        {
          "internalType": "uint256",
          "name": "salePrice",
          "type": "uint256"
        }
      ],
      "name": "recordOwnershipTransfer",
      "outputs": [
        {
          "internalType": "bool",
          "name": "",
          "type": "bool"
        }
      ],
      "stateMutability": "nonpayable",
      "type": "function"
    },
    {
      "inputs": [
        {
          "internalType": "string",
          "name": "loanId",
          "type": "string"
        },
        {
          "internalType": "uint256",
          "name": "amount",
          "type": "uint256"
        }
      ],
      "name": "recordPayment",
      "outputs": [
        {
          "internalType": "bool",
          "name": "",
          "type": "bool"
        }
      ],
      "stateMutability": "nonpayable",
      "type": "function"
    },
    {
      "inputs": [
        {
          "internalType": "string",
          "name": "loanId",
          "type": "string"
        },
        {
          "internalType": "bytes32",
          "name": "txHash",
          "type": "bytes32"
        }
      ],
      "name": "registerApprovalTxHash",
      "outputs": [
        {
          "internalType": "bool",
          "name": "",
          "type": "bool"
        }
      ],
      "stateMutability": "nonpayable",
      "type": "function"
    },
    {
      "inputs": [],
      "name": "relayerAddress",
      "outputs": [
        {
          "internalType": "address",
          "name": "",
          "type": "address"
        }
      ],
      "stateMutability": "view",
      "type": "function"
    },
    {
      "inputs": [],
      "name": "renounceOwnership",
      "outputs": [],
      "stateMutability": "nonpayable",
      "type": "function"
    },
    {
      "inputs": [
        {
          "internalType": "string",
          "name": "loanId",
          "type": "string"
        },
        {
          "internalType": "uint256",
          "name": "tokenId",
          "type": "uint256"
        }
      ],
      "name": "setAvalancheTokenId",
      "outputs": [
        {
          "internalType": "bool",
          "name": "",
          "type": "bool"
        }
      ],
      "stateMutability": "nonpayable",
      "type": "function"
    },
    {
      "inputs": [
        {
          "internalType": "address",
          "name": "_relayer",
          "type": "address"
        }
      ],
      "name": "setRelayerAddress",
      "outputs": [],
      "stateMutability": "nonpayable",
      "type": "function"
    },
    {
      "inputs": [
        {
          "internalType": "address",
          "name": "newOwner",
          "type": "address"
        }
      ],
      "name": "transferOwnership",
      "outputs": [],
      "stateMutability": "nonpayable",
      "type": "function"
    },
    {
      "inputs": [
        {
          "internalType": "bytes32",
          "name": "",
          "type": "bytes32"
        }
      ],
      "name": "txHashToLoanId",
      "outputs": [
        {
          "internalType": "string",
          "name": "",
          "type": "string"
        }
      ],
      "stateMutability": "view",
      "type": "function"
    },
    {
      "inputs": [],
      "name": "userRegistry",
      "outputs": [
        {
          "internalType": "contract UserRegistry",
          "name": "",
          "type": "address"
        }
      ],
      "stateMutability": "view",
      "type": "function"
    }
  ],
  "bytecode": "0x6080346200019057601f6200284338819003918201601f191683019291906001600160401b038411838510176200019557816060928492604096875283398101031262000190576200005181620001ab565b6200006c836200006460208501620001ab565b9301620001ab565b6001600160a01b03918216919082156200017857816000549460018060a01b031994808688161760005582885197167f8be0079c531659141344cd1fd0a4f28419497f9722a3daafe3b4186f6b6457e0600080a31693841562000136575016918215620000f2578160015416176001556002541617600255516126829081620001c18239f35b835162461bcd60e51b815260206004820152601460248201527f496e76616c6964205573657252656769737472790000000000000000000000006044820152606490fd5b62461bcd60e51b815260206004820152601460248201527f496e76616c6964204c6f616e52656769737472790000000000000000000000006044820152606490fd5b8451631e4fbdf760e01b815260006004820152602490fd5b600080fd5b634e487b7160e01b600052604160045260246000fd5b51906001600160a01b0382168203620001905756fe6040608081526004908136101561001557600080fd5b600091823560e01c806304bb393914611af55780630f762b89146119e757806310e6c64e146117d957806314df577e1461171957806318a7cca8146116f057806355cc57ae146115e157806356894c4714611518578063579c539e146112bf578063583ee2cf146112045780635c7460d6146111db57806367ff193414611137578063715018a61461118157806384f38df4146111375780638da5cb5b1461110f57806395508d3b14610df75780639f71afec14610dce578063a323b66d146107aa578063a77957ea1461077d578063cf29cfe1146105f7578063d384a0d7146105aa578063e641e886146104fb578063ece49dfe146101f2578063f2fde38b1461016c5763fcea79ae1461012957600080fd5b3461016857602036600319011261016857816101649361015192358152600660205220611e9a565b9051918291602083526020830190611e25565b0390f35b8280fd5b503461016857602036600319011261016857610186611e4a565b9061018f612649565b6001600160a01b039182169283156101dc57505082546001600160a01b0319811683178455167f8be0079c531659141344cd1fd0a4f28419497f9722a3daafe3b4186f6b6457e08380a380f35b51631e4fbdf760e01b8152908101849052602490fd5b50346101685761020136611d82565b9160018060a01b039461021986600354163314611f3f565b84519583516005602098898181890194610234818388611e02565b81018881520301902061024a60ff825416611f84565b01805460ff8160081c166104bf5760ff811661048b5787156104555783600154168a8a5180926319d1381160e31b8252828a830152818061028f8d6024830190611e25565b03915afa90811561044b578691610412575b50156103da5760ff191660011790558651855187928a9183916102c79082908490611e02565b81016005815203019020556001541686865180926376724eff60e11b825288868301528185816102fa604482018b611e25565b8b602483015203925af19182156103cf578092610394575b5050156103585750826103457fd9af9fe87cb0da3dea36fcb8d50a76961a23460b2422995a935515422b1fb05e92612013565b9281519081524286820152a25160018152f35b835162461bcd60e51b8152908101859052601660248201527511985a5b1959081d1bc81cd95d081d1bdad95b88125160521b6044820152606490fd5b9091508682813d83116103c8575b6103ac8183611cfa565b810103126103c557506103be90611fc4565b3880610312565b80fd5b503d6103a2565b8651903d90823e3d90fd5b885162461bcd60e51b81528087018b90526012602482015271131bd85b881a5cc81b9bdd081b1bd8dad95960721b6044820152606490fd5b90508a81813d8311610444575b6104298183611cfa565b810103126104405761043a90611fc4565b386102a1565b8580fd5b503d61041f565b8a513d88823e3d90fd5b885162461bcd60e51b81528087018b9052601060248201526f125b9d985b1a59081d1bdad95b88125160821b6044820152606490fd5b885162461bcd60e51b81528087018b9052600e60248201526d105b1c9958591e481b5a5b9d195960921b6044820152606490fd5b885162461bcd60e51b81528087018b90526016602482015275105c1c1c9bdd985b081dd85cc818d85b98d95b1b195960521b6044820152606490fd5b5082346103c55760203660031901126103c5578135906001600160401b0382116103c5575060e092610549602061053760ff9436908701611d36565b81845193828580945193849201611e02565b8101868152030190208281541693600182015492600283015490600560018060a01b03600386015416938501549401549481519715158852602088015286015260608501526080840152818116151560a084015260081c16151560c0820152f35b83346103c55760203660031901126103c5576105c4611e4a565b6105cc612649565b6001600160a01b03166105e081151561260b565b600380546001600160a01b03191691909117905580f35b50346101685760603660031901126101685780356001600160401b038111610779576106269036908301611d36565b6024356001600160a01b0381811693918490036104405761064c81600354163314611f3f565b60015416845195869163bcb197c960e01b8352602097889182868301528180610678602482018a611e25565b03915afa9081156103cf578091610740575b506106959150611fd1565b60ff60058551878186516106ac8183858b01611e02565b8101868152030190200154161561070857506106d2906106cd83151561260b565b612013565b7f1c74cd4d51d1c3291f2b5ccd11557f063f9e0a3882c465c0944c3f0e9b93bd8083805160443581524287820152a35160018152f35b835162461bcd60e51b81529081018590526012602482015271139195081b9bdd081b5a5b9d1959081e595d60721b6044820152606490fd5b90508682813d8311610772575b6107578183611cfa565b810103126103c5575061076c61069591611fc4565b3861068a565b503d61074d565b8380fd5b5050346107a657816003193601126107a65760015490516001600160a01b039091168152602090f35b5080fd5b5091346103c55760603660031901126103c55782356001600160401b0381116107a6576107da9036908501611d36565b600154835163395a413d60e21b808252602082880181905296602480359660448035979691956001600160a01b03959193928616919087818061081f8188018d611e25565b0381865afa908115610c26579084918991610db4575b50888d8960025416905193848092636f77926b60e01b8252338c8301525afa918215610daa57610893928f919260c0938c92610d84575b5082829361088a93518181519101209201519081519101201461258c565b015115156125cd565b8a5163bcb197c960e01b81528581018d90528c81806108b48782018d611e25565b0381865afa8015610c26578890610d4e575b6108d09150611fd1565b8a516319d1381160e31b81528581018d90528c81806108f18782018d611e25565b0381865afa908115610c26578891610d15575b50610cd957908b93929160ff8c518a519681818d019861092581838c611e02565b81018a8152030190205416610ca45760ff60058e8e5190818d5161094a81838d611e02565b81018b815203019020015460081c16610c62578a15610c30578b519081528c8682015287818061097c8682018d611e25565b0381855afa908115610c26578891610c04575b5061014081015115610bc75761058001518c81519101206109ae612445565b8d815191012014610b8a578a51636ec955a560e11b81528581018d9052908c908290818a816109df8882018f611e25565b03925af1908115610b80578791610b47575b5015610b11575050908888949392855193610a0b85611cc9565b600185528285018a8152878601908a8252606087019333855260808801954287528b60a08a019b8b8d5260c08b019b8c525180938192518092610a4d92611e02565b81018981520301902096511515610a7090889060ff801983541691151516179055565b51600187015551600286015560038501915116600160a01b6001900319825416179055519082015560050191511515610ab590839060ff801983541691151516179055565b51151581549060081b61ff00169061ff001916179055610ad490612013565b908351928352848301524283830152339160607fb4517b74eb0c604852f14621fac1d526aeefa2b7fc41bfc622242c1a0e8a5d7991a35160018152f35b722330b4b632b2103a37903637b1b5903637b0b760691b606492601386938e8e519562461bcd60e51b8752860152840152820152fd5b90508b81813d8311610b79575b610b5e8183611cfa565b81010312610b7557610b6f90611fc4565b386109f1565b8680fd5b503d610b54565b8b513d89823e3d90fd5b507821b0b73737ba1039b2b636103830b4b21037b333103637b0b760391b606492601986938e8e519562461bcd60e51b8752860152840152820152fd5b50507704c6f616e2062616c616e6365206d757374206265203e20360441b606492601886938e8e519562461bcd60e51b8752860152840152820152fd5b610c2091503d808a833e610c188183611cfa565b810190612078565b3861098f565b8c513d8a823e3d90fd5b50506c496e76616c696420707269636560981b606492600d86938e8e519562461bcd60e51b8752860152840152820152fd5b50507f5761732063616e63656c6c65642c20757365206e657720617070726f76616c00606492601f86938e8e519562461bcd60e51b8752860152840152820152fd5b50506f105b1c9958591e48185c1c1c9bdd995960821b606492601086938e8e519562461bcd60e51b8752860152840152820152fd5b5050885162461bcd60e51b81529283018a905260169083015275131bd85b88185b1c9958591e481d1bdad95b9a5e995960521b90820152606490fd5b90508c81813d8311610d47575b610d2c8183611cfa565b81010312610d4357610d3d90611fc4565b38610904565b8780fd5b503d610d22565b508c81813d8311610d7d575b610d648183611cfa565b81010312610d4357610d786108d091611fc4565b6108c6565b503d610d5a565b61088a9250610da4903d808f833e610d9c8183611cfa565b8101906124b1565b9161086c565b8d513d8b823e3d90fd5b610dc891503d808b833e610c188183611cfa565b38610835565b503461016857602036600319011261016857816101649361015192358152600660205220611e9a565b5091346103c557602092836003193601126107a65780356001600160401b03811161016857610e299036908301611d36565b9160018060a01b0390816001541691855163395a413d60e21b815282816024958a888301528180610e5c8982018c611e25565b03915afa9081156111055790849184916110eb575b50838360025416895193848092636f77926b60e01b8252338b8301525afa9182156110e1579160c091610ec29386926110c1575b5061088a908b83518181519101209101518c81519101201461258c565b855187818751610ed58183858c01611e02565b810187815203019020805460ff8116156110875760058201805460ff811661103b5760ff8160081c166110055761ff00191661010017905560ff191690556001548651630af1f6af60e41b8152858101899052918891839116818581610f3d8982018c611e25565b03925af19182156103cf578092610fcd575b505015610f93575050610f6190612013565b8151904282527f4629fe65bfcd953cde1235af12b8ecf68db748b97516223e47e42c6a4ec8628d843393a35160018152f35b835162461bcd60e51b8152918201859052601590820152742330b4b632b2103a37903ab73637b1b5903637b0b760591b6044820152606490fd5b9091508682813d8311610ffe575b610fe58183611cfa565b810103126103c55750610ff790611fc4565b3880610f4f565b503d610fdb565b895162461bcd60e51b81528089018c905260118189015270105b1c9958591e4818d85b98d95b1b1959607a1b6044820152606490fd5b895162461bcd60e51b81528089018c90526021818901527f4e465420616c7265616479206d696e7465642c2063616e6e6f742063616e63656044820152601b60fa1b6064820152608490fd5b875162461bcd60e51b81528087018a9052601581870152744e6f7420617070726f76656420666f722073616c6560581b6044820152606490fd5b61088a9192506110da903d8089833e610d9c8183611cfa565b9190610ea5565b88513d86823e3d90fd5b6110ff91503d8086833e610c188183611cfa565b38610e71565b87513d85823e3d90fd5b5050346107a657816003193601126107a657905490516001600160a01b039091168152602090f35b5091346103c55760203660031901126103c5578235906001600160401b0382116103c557506020610537819461116f93369101611d36565b81016005815203019020549051908152f35b83346103c557806003193601126103c55761119a612649565b80546001600160a01b03198116825581906001600160a01b03167f8be0079c531659141344cd1fd0a4f28419497f9722a3daafe3b4186f6b6457e08280a380f35b5050346107a657816003193601126107a65760025490516001600160a01b039091168152602090f35b509034610168576020366003190112610168578135926001600160401b0384116103c5575061123c6020610537819536908601611d36565b81018581520301902060ff600583519261125584611cc9565b80548316151580855260018201548886015260028201548686015260038201546001600160a01b031660608601529581015460808501520154808216151560a084015260081c1615801560c090920191909152826112b7575b50519015158152f35b9150386112ae565b503461016857602092836003193601126103c55781356001600160401b0381116107a6576112f09036908401611d36565b906112f9612649565b83519282519386818186019661131081838a611e02565b81018481520301902090815460ff8116156114e6576005830180549660ff88166114ae5761134c8a610100928b51809381928c51928391611e02565b6005908201908152030190205461ff001990981617905560ff191682556001548651630af1f6af60e41b81528281018990526001600160a01b03949189908290871681858161139e602482018d611e25565b03925af19182156114a357809261146b575b505015611435575060030154166113c682612013565b7f4629fe65bfcd953cde1235af12b8ecf68db748b97516223e47e42c6a4ec8628d868651428152a3816113fd575b50505160018152f35b61140690612013565b7f7a703a6c30188b4b647215dd1591e7d1611a16d8902fec752715563378da98ef848451428152a338806113f4565b855162461bcd60e51b8152908101879052601060248201526f4661696c656420746f20756e6c6f636b60801b6044820152606490fd5b9091508882813d831161149c575b6114838183611cfa565b810103126103c5575061149590611fc4565b38806113b0565b503d611479565b8851903d90823e3d90fd5b885162461bcd60e51b81528085018b9052601260248201527113919508185b1c9958591e481b5a5b9d195960721b6044820152606490fd5b865162461bcd60e51b8152808301899052600c60248201526b139bdd08185c1c1c9bdd995960a21b6044820152606490fd5b5082346103c55760203660031901126103c5578135906001600160401b0382116103c5575060e09260ff600561157460206115596115df9636908901611d36565b611561612479565b5081865193828580945193849201611e02565b81018881520301902083519561158987611cc9565b81548416151587526001820154602088015260028201548588015260038201546001600160a01b0316606088015281015460808701520154808216151560a086015260081c16151560c084015251918290611db3565bf35b509190346107a657602091826003193601126103c5578161161391611604612479565b50853581526006855220611e9a565b928351156116bc579060ff60056101649383518681816116398b83815193849201611e02565b8101848152030190209084519661164f88611cc9565b825485161515885260018301549088015260028201548588015260038201546001600160a01b0316606088015281015460808701520154808216151560a086015260081c16151560c084015251928392610100906116ae908590611db3565b8060e0850152830190611e25565b82606492519162461bcd60e51b8352820152601060248201526f151e12185cda081b9bdd08199bdd5b9960821b6044820152fd5b5050346107a657816003193601126107a65760035490516001600160a01b039091168152602090f35b509034610168576020366003190112610168578135926001600160401b0384116103c557506117516020610537819536908601611d36565b810185815203019020600582519161176883611cc9565b60ff81541615159485845260018201548785015260028201548585015260018060a01b0360038301541660608501528101546080840152015460ff8082161591821560a085015260081c16159160c08315910152836117d1575b50826112b75750519015158152f35b9250386117c2565b5091346103c557602092836003193601126107a65780356001600160401b0381116101685761180b9036908301611d36565b9160018060a01b0361182281600354163314611f3f565b60015416845163bcb197c960e01b815286848201528681806118476024820189611e25565b0381855afa80156119dd5783906119a7575b6118639150611fd1565b60ff600586518881885161187a8183858d01611e02565b8101888152030190200154161561197757818551809263395a413d60e21b8252888683015281806118ae602482018a611e25565b03915afa91821561196c57908161058093611951575b505001518481519101206118d6612445565b8581519101200361191a57506118eb90612013565b7f370688c1ce7ba926e3b3644cc0ae6546e4a6ec79ef5fcec5321c74877bf65235838351428152a25160018152f35b825162461bcd60e51b815290810184905260116024820152702637b0b7103737ba103830b4b21037b33360791b6044820152606490fd5b61196592503d8091833e610c188183611cfa565b38806118c4565b8551903d90823e3d90fd5b845162461bcd60e51b8152808401879052600a602482015269139bdd081b5a5b9d195960b21b6044820152606490fd5b508681813d83116119d6575b6119bd8183611cfa565b81010312610168576119d161186391611fc4565b611859565b503d6119b3565b86513d85823e3d90fd5b5034610168576119f636611d82565b9160018060a01b03611a0d81600354163314611f3f565b60015416845195869163bcb197c960e01b8352602097889182868301528180611a39602482018a611e25565b03915afa9081156103cf578091611abc575b50611a569150611fd1565b8215611a885750826103457f3c77e296c41583d812e080d710d1f10acaf27dd05c0b9038cf80b7d0fb96243f92612013565b835162461bcd60e51b8152908101859052600e60248201526d125b9d985b1a5908185b5bdd5b9d60921b6044820152606490fd5b90508682813d8311611aee575b611ad38183611cfa565b810103126103c55750611ae8611a5691611fc4565b38611a4b565b503d611ac9565b5090346101685780600319360112610168576001600160401b03918035838111611cc557611b269036908301611d36565b9260243594611b4060018060a01b03600354163314611f3f565b835195611b6d60ff8888818151611b5d8160209e8f809601611e02565b8101898152030190205416611f84565b8015611c9157815260068652838120928551928311611c7e5750611b918354611e60565b601f8111611c3b575b508590601f8311600114611bda57948293949592611bcf575b50508160011b916000199060031b1c19161790555b5160018152f35b015190503880611bb3565b90601f19831695848352878320925b88888210611c2557505083600195969710611c0c575b505050811b019055611bc8565b015160001960f88460031b161c19169055388080611bff565b6001849582939585015181550194019201611be9565b838252868220601f840160051c810191888510611c74575b601f0160051c01905b818110611c695750611b9a565b828155600101611c5c565b9091508190611c53565b634e487b7160e01b825260419052602490fd5b845162461bcd60e51b8152808501889052600e60248201526d092dcecc2d8d2c840e8f090c2e6d60931b6044820152606490fd5b8480fd5b60e081019081106001600160401b03821117611ce457604052565b634e487b7160e01b600052604160045260246000fd5b90601f801991011681019081106001600160401b03821117611ce457604052565b6001600160401b038111611ce457601f01601f191660200190565b81601f82011215611d7d57803590611d4d82611d1b565b92611d5b6040519485611cfa565b82845260208383010111611d7d57816000926020809301838601378301015290565b600080fd5b6040600319820112611d7d57600435906001600160401b038211611d7d57611dac91600401611d36565b9060243590565b60c08091805115158452602081015160208501526040810151604085015260018060a01b0360608201511660608501526080810151608085015260a0810151151560a085015201511515910152565b60005b838110611e155750506000910152565b8181015183820152602001611e05565b90602091611e3e81518092818552858086019101611e02565b601f01601f1916010190565b600435906001600160a01b0382168203611d7d57565b90600182811c92168015611e90575b6020831014611e7a57565b634e487b7160e01b600052602260045260246000fd5b91607f1691611e6f565b90604051918260008254611ead81611e60565b90818452602094600191600181169081600014611f1d5750600114611ede575b505050611edc92500383611cfa565b565b600090815285812095935091905b818310611f05575050611edc9350820101388080611ecd565b85548884018501529485019487945091830191611eec565b92505050611edc94925060ff191682840152151560051b820101388080611ecd565b15611f4657565b60405162461bcd60e51b81526020600482015260166024820152752737ba1030baba3437b934bd32b2103932b630bcb2b960511b6044820152606490fd5b15611f8b57565b60405162461bcd60e51b8152602060048201526011602482015270131bd85b881b9bdd08185c1c1c9bdd9959607a1b6044820152606490fd5b51908115158203611d7d57565b15611fd857565b60405162461bcd60e51b8152602060048201526013602482015272131bd85b88191bd95cc81b9bdd08195e1a5cdd606a1b6044820152606490fd5b61202b90602060405192828480945193849201611e02565b810103902090565b81601f82011215611d7d57805161204981611d1b565b926120576040519485611cfa565b81845260208284010111611d7d576120759160208085019101611e02565b90565b90602082820312611d7d5781516001600160401b0392838211611d7d5701906106a0928383830312611d7d5760405193840184811082821117611ce4576040528251818111611d7d57826120cd918501612033565b84526020830151818111611d7d57826120e7918501612033565b60208501526040830151818111611d7d5782612104918501612033565b60408501526060830151818111611d7d5782612121918501612033565b60608501526080830151818111611d7d578261213e918501612033565b608085015260a0830151818111611d7d578261215b918501612033565b60a085015260c0830151818111611d7d5782612178918501612033565b60c085015260e0830151818111611d7d5782612195918501612033565b60e085015261010080840151828111611d7d57836121b4918601612033565b9085015261012080840151828111611d7d57836121d2918601612033565b908501526101408084015190850152610160808401519085015261018080840151908501526101a080840151908501526101c080840151908501526101e08084015190850152610200808401519085015261022080840151908501526102408084015190850152610260808401519085015261028080840151908501526102a080840151908501526102c080840151908501526102e0808401519085015261030080840151908501526103208084015190850152610340808401519085015261036080840151828111611d7d57836122ab918601612033565b9085015261038080840151828111611d7d57836122c9918601612033565b908501526103a080840151828111611d7d57836122e7918601612033565b908501526103c080840151828111611d7d5783612305918601612033565b908501526103e080840151828111611d7d5783612323918601612033565b90850152610400808401519085015261042080840151908501526104408084015190850152610460808401519085015261048080840151908501526104a080840151908501526104c080840151908501526104e08084015190850152610500808401519085015261052080840151908501526105408084015190850152610560808401519085015261058080840151828111611d7d57836123c5918601612033565b908501526105a09182840151918211611d7d576123e3918401612033565b908301526105c080820151908301526105e080820151908301526106008082015190830152610620612416818301611fc4565b908301526106408082015190830152610660808201519083015261243e610680809201611fc4565b9082015290565b60405190604082018281106001600160401b03821117611ce45760405260088252672830b4b21027b33360c11b6020830152565b6040519061248682611cc9565b8160c06000918281528260208201528260408201528260608201528260808201528260a08201520152565b602081830312611d7d5780516001600160401b0391828211611d7d57019060e082840312611d7d57604051926124e684611cc9565b8251828111611d7d57816124fb918501612033565b84526020830151828111611d7d5781612515918501612033565b60208501526040830151828111611d7d5781612532918501612033565b60408501526060830151918211611d7d5761254e918301612033565b606083015260808101516001600160a01b0381168103611d7d576125849160c091608085015260a081015160a085015201611fc4565b60c082015290565b1561259357565b60405162461bcd60e51b81526020600482015260126024820152712737ba103a3432903637b0b71037bbb732b960711b6044820152606490fd5b156125d457565b60405162461bcd60e51b815260206004820152600f60248201526e55736572206e6f742061637469766560881b6044820152606490fd5b1561261257565b60405162461bcd60e51b815260206004820152600f60248201526e496e76616c6964206164647265737360881b6044820152606490fd5b6000546001600160a01b0316330361265d57565b60405163118cdaa760e01b8152336004820152602490fdfea164736f6c6343000818000a",
  "linkReferences": {},
  "deployedLinkReferences": {}
}