{
  "_format": "hh-sol-artifact-1",
  "contractName": "MarketplaceBridge",
  "sourceName": "src/MarketplaceBridge.sol",
  "abi": [
    {
      "inputs": [
        {
          "internalType": "address",
          "name": "initialOwner",
          "type": "address"
        },
        {
          "internalType": "address",
          "name": "_loanRegistry",
          "type": "address"
        },
        {
          "internalType": "address",
          "name": "_userRegistry",
          "type": "address"
        }
      ],
      "stateMutability": "nonpayable",
      "type": "constructor"
    },
    {
      "inputs": [
        {
          "internalType": "address",
          "name": "owner",
          "type": "address"
        }
      ],
      "name": "OwnableInvalidOwner",
      "type": "error"
    },
    {
      "inputs": [
        {
          "internalType": "address",
          "name": "account",
          "type": "address"
        }
      ],
      "name": "OwnableUnauthorizedAccount",
      "type": "error"
    },
    {
      "anonymous": false,
      "inputs": [
        {
          "indexed": true,
          "internalType": "string",
          "name": "loanId",
          "type": "string"
        },
        {
          "indexed": false,
          "internalType": "uint256",
          "name": "tokenId",
          "type": "uint256"
        },
        {
          "indexed": false,
          "internalType": "uint256",
          "name": "timestamp",
          "type": "uint256"
        }
      ],
      "name": "AvalancheTokenIdSet",
      "type": "event"
    },
    {
      "anonymous": false,
      "inputs": [
        {
          "indexed": true,
          "internalType": "string",
          "name": "loanId",
          "type": "string"
        },
        {
          "indexed": true,
          "internalType": "uint256",
          "name": "tokenId",
          "type": "uint256"
        },
        {
          "indexed": false,
          "internalType": "uint256",
          "name": "timestamp",
          "type": "uint256"
        }
      ],
      "name": "EmergencyUnlockNeedsSync",
      "type": "event"
    },
    {
      "anonymous": false,
      "inputs": [
        {
          "indexed": true,
          "internalType": "string",
          "name": "loanId",
          "type": "string"
        },
        {
          "indexed": true,
          "internalType": "address",
          "name": "lenderAddress",
          "type": "address"
        },
        {
          "indexed": false,
          "internalType": "uint256",
          "name": "timestamp",
          "type": "uint256"
        }
      ],
      "name": "LoanApprovalCancelled",
      "type": "event"
    },
    {
      "anonymous": false,
      "inputs": [
        {
          "indexed": true,
          "internalType": "string",
          "name": "loanId",
          "type": "string"
        },
        {
          "indexed": true,
          "internalType": "address",
          "name": "lenderAddress",
          "type": "address"
        },
        {
          "indexed": false,
          "internalType": "uint256",
          "name": "askingPrice",
          "type": "uint256"
        },
        {
          "indexed": false,
          "internalType": "uint256",
          "name": "modifiedInterestRate",
          "type": "uint256"
        },
        {
          "indexed": false,
          "internalType": "uint256",
          "name": "timestamp",
          "type": "uint256"
        }
      ],
      "name": "LoanApprovedForSale",
      "type": "event"
    },
    {
      "anonymous": false,
      "inputs": [
        {
          "indexed": true,
          "internalType": "string",
          "name": "loanId",
          "type": "string"
        },
        {
          "indexed": false,
          "internalType": "uint256",
          "name": "timestamp",
          "type": "uint256"
        }
      ],
      "name": "LoanPaidOff",
      "type": "event"
    },
    {
      "anonymous": false,
      "inputs": [
        {
          "indexed": true,
          "internalType": "address",
          "name": "previousOwner",
          "type": "address"
        },
        {
          "indexed": true,
          "internalType": "address",
          "name": "newOwner",
          "type": "address"
        }
      ],
      "name": "OwnershipTransferred",
      "type": "event"
    },
    {
      "anonymous": false,
      "inputs": [
        {
          "indexed": true,
          "internalType": "string",
          "name": "loanId",
          "type": "string"
        },
        {
          "indexed": true,
          "internalType": "address",
          "name": "newOwner",
          "type": "address"
        },
        {
          "indexed": false,
          "internalType": "uint256",
          "name": "salePrice",
          "type": "uint256"
        },
        {
          "indexed": false,
          "internalType": "uint256",
          "name": "timestamp",
          "type": "uint256"
        }
      ],
      "name": "OwnershipTransferred",
      "type": "event"
    },
    {
      "anonymous": false,
      "inputs": [
        {
          "indexed": true,
          "internalType": "string",
          "name": "loanId",
          "type": "string"
        },
        {
          "indexed": false,
          "internalType": "uint256",
          "name": "amount",
          "type": "uint256"
        },
        {
          "indexed": false,
          "internalType": "uint256",
          "name": "timestamp",
          "type": "uint256"
        }
      ],
      "name": "PaymentRecorded",
      "type": "event"
    },
    {
      "inputs": [
        {
          "internalType": "string",
          "name": "loanId",
          "type": "string"
        },
        {
          "internalType": "uint256",
          "name": "askingPrice",
          "type": "uint256"
        },
        {
          "internalType": "uint256",
          "name": "modifiedInterestRate",
          "type": "uint256"
        }
      ],
      "name": "approveLoanForSale",
      "outputs": [
        {
          "internalType": "bool",
          "name": "",
          "type": "bool"
        }
      ],
      "stateMutability": "nonpayable",
      "type": "function"
    },
    {
      "inputs": [
        {
          "internalType": "string",
          "name": "loanId",
          "type": "string"
        }
      ],
      "name": "canBeMinted",
      "outputs": [
        {
          "internalType": "bool",
          "name": "",
          "type": "bool"
        }
      ],
      "stateMutability": "view",
      "type": "function"
    },
    {
      "inputs": [
        {
          "internalType": "string",
          "name": "loanId",
          "type": "string"
        }
      ],
      "name": "cancelSaleListing",
      "outputs": [
        {
          "internalType": "bool",
          "name": "",
          "type": "bool"
        }
      ],
      "stateMutability": "nonpayable",
      "type": "function"
    },
    {
      "inputs": [
        {
          "internalType": "string",
          "name": "loanId",
          "type": "string"
        }
      ],
      "name": "emergencyUnlock",
      "outputs": [
        {
          "internalType": "bool",
          "name": "",
          "type": "bool"
        }
      ],
      "stateMutability": "nonpayable",
      "type": "function"
    },
    {
      "inputs": [
        {
          "internalType": "string",
          "name": "loanId",
          "type": "string"
        }
      ],
      "name": "getApprovalData",
      "outputs": [
        {
          "components": [
            {
              "internalType": "bool",
              "name": "isApproved",
              "type": "bool"
            },
            {
              "internalType": "uint256",
              "name": "askingPrice",
              "type": "uint256"
            },
            {
              "internalType": "uint256",
              "name": "modifiedInterestRate",
              "type": "uint256"
            },
            {
              "internalType": "address",
              "name": "lenderAddress",
              "type": "address"
            },
            {
              "internalType": "uint256",
              "name": "approvalTimestamp",
              "type": "uint256"
            },
            {
              "internalType": "bool",
              "name": "isMinted",
              "type": "bool"
            },
            {
              "internalType": "bool",
              "name": "isCancelled",
              "type": "bool"
            }
          ],
          "internalType": "struct MarketplaceBridge.ApprovalData",
          "name": "",
          "type": "tuple"
        }
      ],
      "stateMutability": "view",
      "type": "function"
    },
    {
      "inputs": [
        {
          "internalType": "string",
          "name": "loanId",
          "type": "string"
        }
      ],
      "name": "getAvalancheTokenId",
      "outputs": [
        {
          "internalType": "uint256",
          "name": "",
          "type": "uint256"
        }
      ],
      "stateMutability": "view",
      "type": "function"
    },
    {
      "inputs": [
        {
          "internalType": "string",
          "name": "loanId",
          "type": "string"
        }
      ],
      "name": "isLoanApprovedForSale",
      "outputs": [
        {
          "internalType": "bool",
          "name": "",
          "type": "bool"
        }
      ],
      "stateMutability": "view",
      "type": "function"
    },
    {
      "inputs": [
        {
          "internalType": "string",
          "name": "",
          "type": "string"
        }
      ],
      "name": "loanApprovals",
      "outputs": [
        {
          "internalType": "bool",
          "name": "isApproved",
          "type": "bool"
        },
        {
          "internalType": "uint256",
          "name": "askingPrice",
          "type": "uint256"
        },
        {
          "internalType": "uint256",
          "name": "modifiedInterestRate",
          "type": "uint256"
        },
        {
          "internalType": "address",
          "name": "lenderAddress",
          "type": "address"
        },
        {
          "internalType": "uint256",
          "name": "approvalTimestamp",
          "type": "uint256"
        },
        {
          "internalType": "bool",
          "name": "isMinted",
          "type": "bool"
        },
        {
          "internalType": "bool",
          "name": "isCancelled",
          "type": "bool"
        }
      ],
      "stateMutability": "view",
      "type": "function"
    },
    {
      "inputs": [],
      "name": "loanRegistry",
      "outputs": [
        {
          "internalType": "contract LoanRegistry",
          "name": "",
          "type": "address"
        }
      ],
      "stateMutability": "view",
      "type": "function"
    },
    {
      "inputs": [
        {
          "internalType": "string",
          "name": "",
          "type": "string"
        }
      ],
      "name": "loanToAvalancheTokenId",
      "outputs": [
        {
          "internalType": "uint256",
          "name": "",
          "type": "uint256"
        }
      ],
      "stateMutability": "view",
      "type": "function"
    },
    {
      "inputs": [
        {
          "internalType": "string",
          "name": "loanId",
          "type": "string"
        }
      ],
      "name": "markLoanAsPaidOff",
      "outputs": [
        {
          "internalType": "bool",
          "name": "",
          "type": "bool"
        }
      ],
      "stateMutability": "nonpayable",
      "type": "function"
    },
    {
      "inputs": [],
      "name": "owner",
      "outputs": [
        {
          "internalType": "address",
          "name": "",
          "type": "address"
        }
      ],
      "stateMutability": "view",
      "type": "function"
    },
    {
      "inputs": [
        {
          "internalType": "string",
          "name": "loanId",
          "type": "string"
        },
        {
          "internalType": "address",
          "name": "newOwnerAddress",
          "type": "address"
        },
        {
          "internalType": "uint256",
          "name": "salePrice",
          "type": "uint256"
        }
      ],
      "name": "recordOwnershipTransfer",
      "outputs": [
        {
          "internalType": "bool",
          "name": "",
          "type": "bool"
        }
      ],
      "stateMutability": "nonpayable",
      "type": "function"
    },
    {
      "inputs": [
        {
          "internalType": "string",
          "name": "loanId",
          "type": "string"
        },
        {
          "internalType": "uint256",
          "name": "amount",
          "type": "uint256"
        }
      ],
      "name": "recordPayment",
      "outputs": [
        {
          "internalType": "bool",
          "name": "",
          "type": "bool"
        }
      ],
      "stateMutability": "nonpayable",
      "type": "function"
    },
    {
      "inputs": [],
      "name": "relayerAddress",
      "outputs": [
        {
          "internalType": "address",
          "name": "",
          "type": "address"
        }
      ],
      "stateMutability": "view",
      "type": "function"
    },
    {
      "inputs": [],
      "name": "renounceOwnership",
      "outputs": [],
      "stateMutability": "nonpayable",
      "type": "function"
    },
    {
      "inputs": [
        {
          "internalType": "string",
          "name": "loanId",
          "type": "string"
        },
        {
          "internalType": "uint256",
          "name": "tokenId",
          "type": "uint256"
        }
      ],
      "name": "setAvalancheTokenId",
      "outputs": [
        {
          "internalType": "bool",
          "name": "",
          "type": "bool"
        }
      ],
      "stateMutability": "nonpayable",
      "type": "function"
    },
    {
      "inputs": [
        {
          "internalType": "address",
          "name": "_relayer",
          "type": "address"
        }
      ],
      "name": "setRelayerAddress",
      "outputs": [],
      "stateMutability": "nonpayable",
      "type": "function"
    },
    {
      "inputs": [
        {
          "internalType": "address",
          "name": "newOwner",
          "type": "address"
        }
      ],
      "name": "transferOwnership",
      "outputs": [],
      "stateMutability": "nonpayable",
      "type": "function"
    },
    {
      "inputs": [],
      "name": "userRegistry",
      "outputs": [
        {
          "internalType": "contract UserRegistry",
          "name": "",
          "type": "address"
        }
      ],
      "stateMutability": "view",
      "type": "function"
    }
  ],
  "bytecode": "0x6080346200019057601f620023b338819003918201601f191683019291906001600160401b038411838510176200019557816060928492604096875283398101031262000190576200005181620001ab565b6200006c836200006460208501620001ab565b9301620001ab565b6001600160a01b03918216919082156200017857816000549460018060a01b031994808688161760005582885197167f8be0079c531659141344cd1fd0a4f28419497f9722a3daafe3b4186f6b6457e0600080a31693841562000136575016918215620000f2578160015416176001556002541617600255516121f29081620001c18239f35b835162461bcd60e51b815260206004820152601460248201527f496e76616c6964205573657252656769737472790000000000000000000000006044820152606490fd5b62461bcd60e51b815260206004820152601460248201527f496e76616c6964204c6f616e52656769737472790000000000000000000000006044820152606490fd5b8451631e4fbdf760e01b815260006004820152602490fd5b600080fd5b634e487b7160e01b600052604160045260246000fd5b51906001600160a01b0382168203620001905756fe6040608081526004908136101561001557600080fd5b600091823560e01c80630f762b89146118d157806310e6c64e146116c357806314df577e1461160357806318a7cca8146115da57806356894c47146114b7578063579c539e1461125e578063583ee2cf146111a35780635c7460d61461117a57806367ff1934146110d6578063715018a61461112057806384f38df4146110d65780638da5cb5b146110ae57806395508d3b14610d96578063a323b66d14610772578063a77957ea14610745578063cf29cfe1146105bf578063d384a0d714610572578063e641e886146104c3578063ece49dfe146101865763f2fde38b146100fd57600080fd5b3461018257602036600319011261018257610116611aec565b9061011f6121b9565b6001600160a01b0391821692831561016c57505082546001600160a01b0319811683178455167f8be0079c531659141344cd1fd0a4f28419497f9722a3daafe3b4186f6b6457e08380a380f35b51631e4fbdf760e01b8152908101849052602490fd5b8280fd5b50346101825761019536611a98565b9160018060a01b03946101ad86600354163314611b02565b84519583516020978881818801936101c6818387611ac9565b81018781520301902060ff8154161561048c57600501805460ff8160081c166104505760ff811661041c5787156103e65783600154168a8a5180926319d1381160e31b8252828a83015281806102208d6024830190611b54565b03915afa9081156103dc5786916103a3575b501561036b5760ff191660011790558651855187928a9183916102589082908490611ac9565b81016005815203019020556001541686865180926376724eff60e11b8252888683015281858161028b604482018b611b54565b8b602483015203925af1918215610360578092610325575b5050156102e95750826102d67fd9af9fe87cb0da3dea36fcb8d50a76961a23460b2422995a935515422b1fb05e92611bbb565b9281519081524286820152a25160018152f35b835162461bcd60e51b8152908101859052601660248201527511985a5b1959081d1bc81cd95d081d1bdad95b88125160521b6044820152606490fd5b9091508682813d8311610359575b61033d8183611a10565b81010312610356575061034f90611b47565b38806102a3565b80fd5b503d610333565b8651903d90823e3d90fd5b885162461bcd60e51b81528087018b90526012602482015271131bd85b881a5cc81b9bdd081b1bd8dad95960721b6044820152606490fd5b90508a81813d83116103d5575b6103ba8183611a10565b810103126103d1576103cb90611b47565b38610232565b8580fd5b503d6103b0565b8a513d88823e3d90fd5b885162461bcd60e51b81528087018b9052601060248201526f125b9d985b1a59081d1bdad95b88125160821b6044820152606490fd5b885162461bcd60e51b81528087018b9052600e60248201526d105b1c9958591e481b5a5b9d195960921b6044820152606490fd5b885162461bcd60e51b81528087018b90526016602482015275105c1c1c9bdd985b081dd85cc818d85b98d95b1b195960521b6044820152606490fd5b875162461bcd60e51b81528086018a90526011602482015270131bd85b881b9bdd08185c1c1c9bdd9959607a1b6044820152606490fd5b508234610356576020366003190112610356578135906001600160401b038211610356575060e09261051160206104ff60ff9436908701611a4c565b81845193828580945193849201611ac9565b8101868152030190208281541693600182015492600283015490600560018060a01b03600386015416938501549401549481519715158852602088015286015260608501526080840152818116151560a084015260081c16151560c0820152f35b83346103565760203660031901126103565761058c611aec565b6105946121b9565b6001600160a01b03166105a881151561217b565b600380546001600160a01b03191691909117905580f35b50346101825760603660031901126101825780356001600160401b038111610741576105ee9036908301611a4c565b6024356001600160a01b0381811693918490036103d15761061481600354163314611b02565b60015416845195869163bcb197c960e01b8352602097889182868301528180610640602482018a611b54565b03915afa908115610360578091610708575b5061065d9150611b79565b60ff60058551878186516106748183858b01611ac9565b810186815203019020015416156106d0575061069a9061069583151561217b565b611bbb565b7f1c74cd4d51d1c3291f2b5ccd11557f063f9e0a3882c465c0944c3f0e9b93bd8083805160443581524287820152a35160018152f35b835162461bcd60e51b81529081018590526012602482015271139195081b9bdd081b5a5b9d1959081e595d60721b6044820152606490fd5b90508682813d831161073a575b61071f8183611a10565b81010312610356575061073461065d91611b47565b38610652565b503d610715565b8380fd5b50503461076e578160031936011261076e5760015490516001600160a01b039091168152602090f35b5080fd5b5091346103565760603660031901126103565782356001600160401b03811161076e576107a29036908501611a4c565b600154835163395a413d60e21b808252602082880181905296602480359660448035979691956001600160a01b0395919392861691908781806107e78188018d611b54565b0381865afa908115610bee579084918991610d7c575b50888d8960025416905193848092636f77926b60e01b8252338c8301525afa918215610d725761085b928f919260c0938c92610d4c575b508282936108529351818151910120920151908151910120146120fc565b0151151561213d565b8a5163bcb197c960e01b81528581018d90528c818061087c8782018d611b54565b0381865afa8015610bee578890610d16575b6108989150611b79565b8a516319d1381160e31b81528581018d90528c81806108b98782018d611b54565b0381865afa908115610bee578891610cdd575b50610ca157908b93929160ff8c518a519681818d01986108ed81838c611ac9565b81018a8152030190205416610c6c5760ff60058e8e5190818d5161091281838d611ac9565b81018b815203019020015460081c16610c2a578a15610bf8578b519081528c868201528781806109448682018d611b54565b0381855afa908115610bee578891610bcc575b5061014081015115610b8f5761058001518c8151910120610976611fed565b8d815191012014610b52578a51636ec955a560e11b81528581018d9052908c908290818a816109a78882018f611b54565b03925af1908115610b48578791610b0f575b5015610ad95750509088889493928551936109d3856119df565b600185528285018a8152878601908a8252606087019333855260808801954287528b60a08a019b8b8d5260c08b019b8c525180938192518092610a1592611ac9565b81018981520301902096511515610a3890889060ff801983541691151516179055565b51600187015551600286015560038501915116600160a01b6001900319825416179055519082015560050191511515610a7d90839060ff801983541691151516179055565b51151581549060081b61ff00169061ff001916179055610a9c90611bbb565b908351928352848301524283830152339160607fb4517b74eb0c604852f14621fac1d526aeefa2b7fc41bfc622242c1a0e8a5d7991a35160018152f35b722330b4b632b2103a37903637b1b5903637b0b760691b606492601386938e8e519562461bcd60e51b8752860152840152820152fd5b90508b81813d8311610b41575b610b268183611a10565b81010312610b3d57610b3790611b47565b386109b9565b8680fd5b503d610b1c565b8b513d89823e3d90fd5b507821b0b73737ba1039b2b636103830b4b21037b333103637b0b760391b606492601986938e8e519562461bcd60e51b8752860152840152820152fd5b50507704c6f616e2062616c616e6365206d757374206265203e20360441b606492601886938e8e519562461bcd60e51b8752860152840152820152fd5b610be891503d808a833e610be08183611a10565b810190611c20565b38610957565b8c513d8a823e3d90fd5b50506c496e76616c696420707269636560981b606492600d86938e8e519562461bcd60e51b8752860152840152820152fd5b50507f5761732063616e63656c6c65642c20757365206e657720617070726f76616c00606492601f86938e8e519562461bcd60e51b8752860152840152820152fd5b50506f105b1c9958591e48185c1c1c9bdd995960821b606492601086938e8e519562461bcd60e51b8752860152840152820152fd5b5050885162461bcd60e51b81529283018a905260169083015275131bd85b88185b1c9958591e481d1bdad95b9a5e995960521b90820152606490fd5b90508c81813d8311610d0f575b610cf48183611a10565b81010312610d0b57610d0590611b47565b386108cc565b8780fd5b503d610cea565b508c81813d8311610d45575b610d2c8183611a10565b81010312610d0b57610d4061089891611b47565b61088e565b503d610d22565b6108529250610d6c903d808f833e610d648183611a10565b810190612021565b91610834565b8d513d8b823e3d90fd5b610d9091503d808b833e610be08183611a10565b386107fd565b509134610356576020928360031936011261076e5780356001600160401b03811161018257610dc89036908301611a4c565b9160018060a01b0390816001541691855163395a413d60e21b815282816024958a888301528180610dfb8982018c611b54565b03915afa9081156110a457908491849161108a575b50838360025416895193848092636f77926b60e01b8252338b8301525afa918215611080579160c091610e61938692611060575b50610852908b83518181519101209101518c8151910120146120fc565b855187818751610e748183858c01611ac9565b810187815203019020805460ff8116156110265760058201805460ff8116610fda5760ff8160081c16610fa45761ff00191661010017905560ff191690556001548651630af1f6af60e41b8152858101899052918891839116818581610edc8982018c611b54565b03925af1918215610360578092610f6c575b505015610f32575050610f0090611bbb565b8151904282527f4629fe65bfcd953cde1235af12b8ecf68db748b97516223e47e42c6a4ec8628d843393a35160018152f35b835162461bcd60e51b8152918201859052601590820152742330b4b632b2103a37903ab73637b1b5903637b0b760591b6044820152606490fd5b9091508682813d8311610f9d575b610f848183611a10565b810103126103565750610f9690611b47565b3880610eee565b503d610f7a565b895162461bcd60e51b81528089018c905260118189015270105b1c9958591e4818d85b98d95b1b1959607a1b6044820152606490fd5b895162461bcd60e51b81528089018c90526021818901527f4e465420616c7265616479206d696e7465642c2063616e6e6f742063616e63656044820152601b60fa1b6064820152608490fd5b875162461bcd60e51b81528087018a9052601581870152744e6f7420617070726f76656420666f722073616c6560581b6044820152606490fd5b610852919250611079903d8089833e610d648183611a10565b9190610e44565b88513d86823e3d90fd5b61109e91503d8086833e610be08183611a10565b38610e10565b87513d85823e3d90fd5b50503461076e578160031936011261076e57905490516001600160a01b039091168152602090f35b509134610356576020366003190112610356578235906001600160401b038211610356575060206104ff819461110e93369101611a4c565b81016005815203019020549051908152f35b83346103565780600319360112610356576111396121b9565b80546001600160a01b03198116825581906001600160a01b03167f8be0079c531659141344cd1fd0a4f28419497f9722a3daafe3b4186f6b6457e08280a380f35b50503461076e578160031936011261076e5760025490516001600160a01b039091168152602090f35b509034610182576020366003190112610182578135926001600160401b03841161035657506111db60206104ff819536908601611a4c565b81018581520301902060ff60058351926111f4846119df565b80548316151580855260018201548886015260028201548686015260038201546001600160a01b031660608601529581015460808501520154808216151560a084015260081c1615801560c09092019190915282611256575b50519015158152f35b91503861124d565b503461018257602092836003193601126103565781356001600160401b03811161076e5761128f9036908401611a4c565b906112986121b9565b8351928251938681818601966112af81838a611ac9565b81018481520301902090815460ff811615611485576005830180549660ff881661144d576112eb8a610100928b51809381928c51928391611ac9565b6005908201908152030190205461ff001990981617905560ff191682556001548651630af1f6af60e41b81528281018990526001600160a01b03949189908290871681858161133d602482018d611b54565b03925af191821561144257809261140a575b5050156113d45750600301541661136582611bbb565b7f4629fe65bfcd953cde1235af12b8ecf68db748b97516223e47e42c6a4ec8628d868651428152a38161139c575b50505160018152f35b6113a590611bbb565b7f7a703a6c30188b4b647215dd1591e7d1611a16d8902fec752715563378da98ef848451428152a33880611393565b855162461bcd60e51b8152908101879052601060248201526f4661696c656420746f20756e6c6f636b60801b6044820152606490fd5b9091508882813d831161143b575b6114228183611a10565b81010312610356575061143490611b47565b388061134f565b503d611418565b8851903d90823e3d90fd5b885162461bcd60e51b81528085018b9052601260248201527113919508185b1c9958591e481b5a5b9d195960721b6044820152606490fd5b865162461bcd60e51b8152808301899052600c60248201526b139bdd08185c1c1c9bdd995960a21b6044820152606490fd5b509034610182576020806003193601126107415782356001600160401b0381116115d6578160e0956114ef6115309336908801611a4c565b9060c086516114fd816119df565b828152828582015282888201528260608201528260808201528260a0820152015281855193828580945193849201611ac9565b810186815203019020825191611545836119df565b60ff825416151594858452600183015494828501958652600284015481860190815260018060a01b03936005856003880154169460608901958652870154966080890197885201549760ff60c060a08a0199828c1615158b52019960081c16151589528351998a52519089015251908701525116606085015251608084015251151560a083015251151560c0820152f35b8480fd5b50503461076e578160031936011261076e5760035490516001600160a01b039091168152602090f35b509034610182576020366003190112610182578135926001600160401b038411610356575061163b60206104ff819536908601611a4c565b8101858152030190206005825191611652836119df565b60ff81541615159485845260018201548785015260028201548585015260018060a01b0360038301541660608501528101546080840152015460ff8082161591821560a085015260081c16159160c08315910152836116bb575b50826112565750519015158152f35b9250386116ac565b509134610356576020928360031936011261076e5780356001600160401b038111610182576116f59036908301611a4c565b9160018060a01b0361170c81600354163314611b02565b60015416845163bcb197c960e01b815286848201528681806117316024820189611b54565b0381855afa80156118c7578390611891575b61174d9150611b79565b60ff60058651888188516117648183858d01611ac9565b8101888152030190200154161561186157818551809263395a413d60e21b825288868301528180611798602482018a611b54565b03915afa9182156118565790816105809361183b575b505001518481519101206117c0611fed565b8581519101200361180457506117d590611bbb565b7f370688c1ce7ba926e3b3644cc0ae6546e4a6ec79ef5fcec5321c74877bf65235838351428152a25160018152f35b825162461bcd60e51b815290810184905260116024820152702637b0b7103737ba103830b4b21037b33360791b6044820152606490fd5b61184f92503d8091833e610be08183611a10565b38806117ae565b8551903d90823e3d90fd5b845162461bcd60e51b8152808401879052600a602482015269139bdd081b5a5b9d195960b21b6044820152606490fd5b508681813d83116118c0575b6118a78183611a10565b81010312610182576118bb61174d91611b47565b611743565b503d61189d565b86513d85823e3d90fd5b5034610182576118e036611a98565b9160018060a01b036118f781600354163314611b02565b60015416845195869163bcb197c960e01b8352602097889182868301528180611923602482018a611b54565b03915afa9081156103605780916119a6575b506119409150611b79565b82156119725750826102d67f3c77e296c41583d812e080d710d1f10acaf27dd05c0b9038cf80b7d0fb96243f92611bbb565b835162461bcd60e51b8152908101859052600e60248201526d125b9d985b1a5908185b5bdd5b9d60921b6044820152606490fd5b90508682813d83116119d8575b6119bd8183611a10565b8101031261035657506119d261194091611b47565b38611935565b503d6119b3565b60e081019081106001600160401b038211176119fa57604052565b634e487b7160e01b600052604160045260246000fd5b90601f801991011681019081106001600160401b038211176119fa57604052565b6001600160401b0381116119fa57601f01601f191660200190565b81601f82011215611a9357803590611a6382611a31565b92611a716040519485611a10565b82845260208383010111611a9357816000926020809301838601378301015290565b600080fd5b6040600319820112611a9357600435906001600160401b038211611a9357611ac291600401611a4c565b9060243590565b60005b838110611adc5750506000910152565b8181015183820152602001611acc565b600435906001600160a01b0382168203611a9357565b15611b0957565b60405162461bcd60e51b81526020600482015260166024820152752737ba1030baba3437b934bd32b2103932b630bcb2b960511b6044820152606490fd5b51908115158203611a9357565b90602091611b6d81518092818552858086019101611ac9565b601f01601f1916010190565b15611b8057565b60405162461bcd60e51b8152602060048201526013602482015272131bd85b88191bd95cc81b9bdd08195e1a5cdd606a1b6044820152606490fd5b611bd390602060405192828480945193849201611ac9565b810103902090565b81601f82011215611a93578051611bf181611a31565b92611bff6040519485611a10565b81845260208284010111611a9357611c1d9160208085019101611ac9565b90565b90602082820312611a935781516001600160401b0392838211611a935701906106a0928383830312611a9357604051938401848110828211176119fa576040528251818111611a935782611c75918501611bdb565b84526020830151818111611a935782611c8f918501611bdb565b60208501526040830151818111611a935782611cac918501611bdb565b60408501526060830151818111611a935782611cc9918501611bdb565b60608501526080830151818111611a935782611ce6918501611bdb565b608085015260a0830151818111611a935782611d03918501611bdb565b60a085015260c0830151818111611a935782611d20918501611bdb565b60c085015260e0830151818111611a935782611d3d918501611bdb565b60e085015261010080840151828111611a935783611d5c918601611bdb565b9085015261012080840151828111611a935783611d7a918601611bdb565b908501526101408084015190850152610160808401519085015261018080840151908501526101a080840151908501526101c080840151908501526101e08084015190850152610200808401519085015261022080840151908501526102408084015190850152610260808401519085015261028080840151908501526102a080840151908501526102c080840151908501526102e0808401519085015261030080840151908501526103208084015190850152610340808401519085015261036080840151828111611a935783611e53918601611bdb565b9085015261038080840151828111611a935783611e71918601611bdb565b908501526103a080840151828111611a935783611e8f918601611bdb565b908501526103c080840151828111611a935783611ead918601611bdb565b908501526103e080840151828111611a935783611ecb918601611bdb565b90850152610400808401519085015261042080840151908501526104408084015190850152610460808401519085015261048080840151908501526104a080840151908501526104c080840151908501526104e08084015190850152610500808401519085015261052080840151908501526105408084015190850152610560808401519085015261058080840151828111611a935783611f6d918601611bdb565b908501526105a09182840151918211611a9357611f8b918401611bdb565b908301526105c080820151908301526105e080820151908301526106008082015190830152610620611fbe818301611b47565b9083015261064080820151908301526106608082015190830152611fe6610680809201611b47565b9082015290565b60405190604082018281106001600160401b038211176119fa5760405260088252672830b4b21027b33360c11b6020830152565b602081830312611a935780516001600160401b0391828211611a9357019060e082840312611a935760405192612056846119df565b8251828111611a93578161206b918501611bdb565b84526020830151828111611a935781612085918501611bdb565b60208501526040830151828111611a9357816120a2918501611bdb565b60408501526060830151918211611a93576120be918301611bdb565b606083015260808101516001600160a01b0381168103611a93576120f49160c091608085015260a081015160a085015201611b47565b60c082015290565b1561210357565b60405162461bcd60e51b81526020600482015260126024820152712737ba103a3432903637b0b71037bbb732b960711b6044820152606490fd5b1561214457565b60405162461bcd60e51b815260206004820152600f60248201526e55736572206e6f742061637469766560881b6044820152606490fd5b1561218257565b60405162461bcd60e51b815260206004820152600f60248201526e496e76616c6964206164647265737360881b6044820152606490fd5b6000546001600160a01b031633036121cd57565b60405163118cdaa760e01b8152336004820152602490fdfea164736f6c6343000818000a",
  "linkReferences": {},
  "deployedLinkReferences": {}
}