{
  "_format": "hh-sol-artifact-1",
  "contractName": "LoanRegistry",
  "sourceName": "src/LoanRegistry.sol",
  "abi": [
    {
      "inputs": [
        {
          "internalType": "address",
          "name": "initialOwner",
          "type": "address"
        },
        {
          "internalType": "address",
          "name": "userRegistryAddress",
          "type": "address"
        }
      ],
      "stateMutability": "nonpayable",
      "type": "constructor"
    },
    {
      "inputs": [
        {
          "internalType": "address",
          "name": "owner",
          "type": "address"
        }
      ],
      "name": "OwnableInvalidOwner",
      "type": "error"
    },
    {
      "inputs": [
        {
          "internalType": "address",
          "name": "account",
          "type": "address"
        }
      ],
      "name": "OwnableUnauthorizedAccount",
      "type": "error"
    },
    {
      "anonymous": false,
      "inputs": [
        {
          "indexed": true,
          "internalType": "string",
          "name": "loanId",
          "type": "string"
        },
        {
          "indexed": true,
          "internalType": "string",
          "name": "userId",
          "type": "string"
        },
        {
          "indexed": false,
          "internalType": "bytes32",
          "name": "txId",
          "type": "bytes32"
        },
        {
          "indexed": false,
          "internalType": "uint256",
          "name": "timestamp",
          "type": "uint256"
        }
      ],
      "name": "LoanCreated",
      "type": "event"
    },
    {
      "anonymous": false,
      "inputs": [
        {
          "indexed": true,
          "internalType": "string",
          "name": "loanId",
          "type": "string"
        },
        {
          "indexed": false,
          "internalType": "bytes32",
          "name": "txId",
          "type": "bytes32"
        }
      ],
      "name": "LoanDeleted",
      "type": "event"
    },
    {
      "anonymous": false,
      "inputs": [
        {
          "indexed": true,
          "internalType": "string",
          "name": "loanId",
          "type": "string"
        },
        {
          "indexed": false,
          "internalType": "bytes32",
          "name": "txId",
          "type": "bytes32"
        },
        {
          "indexed": false,
          "internalType": "uint256",
          "name": "changeCount",
          "type": "uint256"
        }
      ],
      "name": "LoanUpdated",
      "type": "event"
    },
    {
      "anonymous": false,
      "inputs": [
        {
          "indexed": true,
          "internalType": "address",
          "name": "previousOwner",
          "type": "address"
        },
        {
          "indexed": true,
          "internalType": "address",
          "name": "newOwner",
          "type": "address"
        }
      ],
      "name": "OwnershipTransferred",
      "type": "event"
    },
    {
      "inputs": [
        {
          "internalType": "string",
          "name": "_ID",
          "type": "string"
        },
        {
          "internalType": "string",
          "name": "_UserID",
          "type": "string"
        },
        {
          "internalType": "string",
          "name": "_Borrower_FullName",
          "type": "string"
        },
        {
          "internalType": "string",
          "name": "_Borrower_Home_Phone",
          "type": "string"
        },
        {
          "internalType": "string",
          "name": "_Borrower_Property_Address",
          "type": "string"
        },
        {
          "internalType": "string",
          "name": "_Borrower_State",
          "type": "string"
        },
        {
          "internalType": "string",
          "name": "_Borrower_Zip",
          "type": "string"
        },
        {
          "internalType": "string",
          "name": "_Borrower_City",
          "type": "string"
        },
        {
          "internalType": "string",
          "name": "_Borrower_Email",
          "type": "string"
        },
        {
          "internalType": "string",
          "name": "_Borrower_Occupancy_Status",
          "type": "string"
        },
        {
          "internalType": "uint256",
          "name": "_Current_Principal_Bal",
          "type": "uint256"
        },
        {
          "internalType": "uint256",
          "name": "_Restricted_Funds",
          "type": "uint256"
        },
        {
          "internalType": "uint256",
          "name": "_Suspense_Balance",
          "type": "uint256"
        },
        {
          "internalType": "uint256",
          "name": "_Escrow_Balance",
          "type": "uint256"
        },
        {
          "internalType": "uint256",
          "name": "_Total_In_Trust",
          "type": "uint256"
        },
        {
          "internalType": "uint256",
          "name": "_Note_Rate",
          "type": "uint256"
        },
        {
          "internalType": "uint256",
          "name": "_Sold_Rate",
          "type": "uint256"
        },
        {
          "internalType": "uint256",
          "name": "_Default_Rate",
          "type": "uint256"
        },
        {
          "internalType": "uint256",
          "name": "_Unpaid_Interest",
          "type": "uint256"
        },
        {
          "internalType": "uint256",
          "name": "_Unpaid_Fees",
          "type": "uint256"
        },
        {
          "internalType": "uint256",
          "name": "_Late_Fees_Amount",
          "type": "uint256"
        },
        {
          "internalType": "uint256",
          "name": "_Unpaid_Late_Fees",
          "type": "uint256"
        },
        {
          "internalType": "uint256",
          "name": "_Accrued_Late_fees",
          "type": "uint256"
        },
        {
          "internalType": "uint256",
          "name": "_Unpaid_Loan_Charges",
          "type": "uint256"
        },
        {
          "internalType": "uint256",
          "name": "_Deferred_Princ_Balance",
          "type": "uint256"
        },
        {
          "internalType": "uint256",
          "name": "_Deferred_Unp_Charges",
          "type": "uint256"
        },
        {
          "internalType": "uint256",
          "name": "_Original_Loan_Amount",
          "type": "uint256"
        },
        {
          "internalType": "string",
          "name": "_Origination_Date",
          "type": "string"
        },
        {
          "internalType": "string",
          "name": "_Next_Payment_Due",
          "type": "string"
        },
        {
          "internalType": "string",
          "name": "_Loan_Maturity_Date",
          "type": "string"
        },
        {
          "internalType": "string",
          "name": "_Last_Payment_Rec",
          "type": "string"
        },
        {
          "internalType": "string",
          "name": "_Interest_Paid_To",
          "type": "string"
        },
        {
          "internalType": "uint256",
          "name": "_Deferred_Unpaid_Int",
          "type": "uint256"
        },
        {
          "internalType": "uint256",
          "name": "_FCI_Restricted_Principal",
          "type": "uint256"
        },
        {
          "internalType": "uint256",
          "name": "_FCI_Restricted_Interest",
          "type": "uint256"
        },
        {
          "internalType": "uint256",
          "name": "_Pymt_Grace_Days",
          "type": "uint256"
        },
        {
          "internalType": "uint256",
          "name": "_Days_Since_Last_Pymt",
          "type": "uint256"
        },
        {
          "internalType": "uint256",
          "name": "_Num_Of_Pymts_Due",
          "type": "uint256"
        },
        {
          "internalType": "uint256",
          "name": "_Scheduled_Payment",
          "type": "uint256"
        },
        {
          "internalType": "uint256",
          "name": "_Promises_To_Pay",
          "type": "uint256"
        },
        {
          "internalType": "uint256",
          "name": "_NFS_In_Last_12_Months",
          "type": "uint256"
        },
        {
          "internalType": "uint256",
          "name": "_Deferred_Late_Fees",
          "type": "uint256"
        },
        {
          "internalType": "uint256",
          "name": "_Investor_Restricted_Principal",
          "type": "uint256"
        },
        {
          "internalType": "uint256",
          "name": "_Investor_Restricted_Interest",
          "type": "uint256"
        },
        {
          "internalType": "string",
          "name": "_Status",
          "type": "string"
        },
        {
          "internalType": "string",
          "name": "_LUid",
          "type": "string"
        }
      ],
      "name": "createLoan",
      "outputs": [
        {
          "internalType": "bytes32",
          "name": "",
          "type": "bytes32"
        }
      ],
      "stateMutability": "nonpayable",
      "type": "function"
    },
    {
      "inputs": [
        {
          "internalType": "string",
          "name": "loanId",
          "type": "string"
        }
      ],
      "name": "deleteLoan",
      "outputs": [
        {
          "internalType": "bytes32",
          "name": "",
          "type": "bytes32"
        }
      ],
      "stateMutability": "nonpayable",
      "type": "function"
    },
    {
      "inputs": [
        {
          "internalType": "string",
          "name": "loanUid",
          "type": "string"
        }
      ],
      "name": "findLoanByLoanUid",
      "outputs": [
        {
          "components": [
            {
              "internalType": "string",
              "name": "ID",
              "type": "string"
            },
            {
              "internalType": "string",
              "name": "UserID",
              "type": "string"
            },
            {
              "internalType": "string",
              "name": "BorrowerFullName",
              "type": "string"
            },
            {
              "internalType": "string",
              "name": "BorrowerHomePhone",
              "type": "string"
            },
            {
              "internalType": "string",
              "name": "BorrowerPropertyAddress",
              "type": "string"
            },
            {
              "internalType": "string",
              "name": "BorrowerState",
              "type": "string"
            },
            {
              "internalType": "string",
              "name": "BorrowerZip",
              "type": "string"
            },
            {
              "internalType": "string",
              "name": "BorrowerCity",
              "type": "string"
            },
            {
              "internalType": "string",
              "name": "BorrowerEmail",
              "type": "string"
            },
            {
              "internalType": "string",
              "name": "BorrowerOccupancyStatus",
              "type": "string"
            },
            {
              "internalType": "uint256",
              "name": "CurrentPrincipalBal",
              "type": "uint256"
            },
            {
              "internalType": "uint256",
              "name": "RestrictedFunds",
              "type": "uint256"
            },
            {
              "internalType": "uint256",
              "name": "SuspenseBalance",
              "type": "uint256"
            },
            {
              "internalType": "uint256",
              "name": "EscrowBalance",
              "type": "uint256"
            },
            {
              "internalType": "uint256",
              "name": "TotalInTrust",
              "type": "uint256"
            },
            {
              "internalType": "uint256",
              "name": "NoteRate",
              "type": "uint256"
            },
            {
              "internalType": "uint256",
              "name": "SoldRate",
              "type": "uint256"
            },
            {
              "internalType": "uint256",
              "name": "DefaultRate",
              "type": "uint256"
            },
            {
              "internalType": "uint256",
              "name": "UnpaidInterest",
              "type": "uint256"
            },
            {
              "internalType": "uint256",
              "name": "UnpaidFees",
              "type": "uint256"
            },
            {
              "internalType": "uint256",
              "name": "LateFeesAmount",
              "type": "uint256"
            },
            {
              "internalType": "uint256",
              "name": "UnpaidLateFees",
              "type": "uint256"
            },
            {
              "internalType": "uint256",
              "name": "AccruedLateFees",
              "type": "uint256"
            },
            {
              "internalType": "uint256",
              "name": "UnpaidLoanCharges",
              "type": "uint256"
            },
            {
              "internalType": "uint256",
              "name": "DeferredPrincBalance",
              "type": "uint256"
            },
            {
              "internalType": "uint256",
              "name": "DeferredUnpCharges",
              "type": "uint256"
            },
            {
              "internalType": "uint256",
              "name": "OriginalLoanAmount",
              "type": "uint256"
            },
            {
              "internalType": "string",
              "name": "OriginationDate",
              "type": "string"
            },
            {
              "internalType": "string",
              "name": "NextPaymentDue",
              "type": "string"
            },
            {
              "internalType": "string",
              "name": "LoanMaturityDate",
              "type": "string"
            },
            {
              "internalType": "string",
              "name": "LastPaymentRec",
              "type": "string"
            },
            {
              "internalType": "string",
              "name": "InterestPaidTo",
              "type": "string"
            },
            {
              "internalType": "uint256",
              "name": "DeferredUnpaidInt",
              "type": "uint256"
            },
            {
              "internalType": "uint256",
              "name": "FCIRestrictedPrincipal",
              "type": "uint256"
            },
            {
              "internalType": "uint256",
              "name": "FCIRestrictedInterest",
              "type": "uint256"
            },
            {
              "internalType": "uint256",
              "name": "PymtGraceDays",
              "type": "uint256"
            },
            {
              "internalType": "uint256",
              "name": "DaysSinceLastPymt",
              "type": "uint256"
            },
            {
              "internalType": "uint256",
              "name": "NumOfPymtsDue",
              "type": "uint256"
            },
            {
              "internalType": "uint256",
              "name": "ScheduledPayment",
              "type": "uint256"
            },
            {
              "internalType": "uint256",
              "name": "PromisesToPay",
              "type": "uint256"
            },
            {
              "internalType": "uint256",
              "name": "NFSInLast12Months",
              "type": "uint256"
            },
            {
              "internalType": "uint256",
              "name": "DeferredLateFees",
              "type": "uint256"
            },
            {
              "internalType": "uint256",
              "name": "InvestorRestrictedPrincipal",
              "type": "uint256"
            },
            {
              "internalType": "uint256",
              "name": "InvestorRestrictedInterest",
              "type": "uint256"
            },
            {
              "internalType": "string",
              "name": "Status",
              "type": "string"
            },
            {
              "internalType": "string",
              "name": "LUid",
              "type": "string"
            },
            {
              "internalType": "bytes32",
              "name": "TxId",
              "type": "bytes32"
            },
            {
              "internalType": "uint256",
              "name": "BLOCKAUDITCreationAt",
              "type": "uint256"
            },
            {
              "internalType": "uint256",
              "name": "BLOCKAUDITUpdatedAt",
              "type": "uint256"
            },
            {
              "internalType": "bool",
              "name": "exists",
              "type": "bool"
            }
          ],
          "internalType": "struct LoanRegistry.Loan",
          "name": "",
          "type": "tuple"
        }
      ],
      "stateMutability": "view",
      "type": "function"
    },
    {
      "inputs": [
        {
          "internalType": "string",
          "name": "userId",
          "type": "string"
        }
      ],
      "name": "findLoansByUserId",
      "outputs": [
        {
          "components": [
            {
              "internalType": "string",
              "name": "ID",
              "type": "string"
            },
            {
              "internalType": "string",
              "name": "UserID",
              "type": "string"
            },
            {
              "internalType": "string",
              "name": "BorrowerFullName",
              "type": "string"
            },
            {
              "internalType": "string",
              "name": "BorrowerHomePhone",
              "type": "string"
            },
            {
              "internalType": "string",
              "name": "BorrowerPropertyAddress",
              "type": "string"
            },
            {
              "internalType": "string",
              "name": "BorrowerState",
              "type": "string"
            },
            {
              "internalType": "string",
              "name": "BorrowerZip",
              "type": "string"
            },
            {
              "internalType": "string",
              "name": "BorrowerCity",
              "type": "string"
            },
            {
              "internalType": "string",
              "name": "BorrowerEmail",
              "type": "string"
            },
            {
              "internalType": "string",
              "name": "BorrowerOccupancyStatus",
              "type": "string"
            },
            {
              "internalType": "uint256",
              "name": "CurrentPrincipalBal",
              "type": "uint256"
            },
            {
              "internalType": "uint256",
              "name": "RestrictedFunds",
              "type": "uint256"
            },
            {
              "internalType": "uint256",
              "name": "SuspenseBalance",
              "type": "uint256"
            },
            {
              "internalType": "uint256",
              "name": "EscrowBalance",
              "type": "uint256"
            },
            {
              "internalType": "uint256",
              "name": "TotalInTrust",
              "type": "uint256"
            },
            {
              "internalType": "uint256",
              "name": "NoteRate",
              "type": "uint256"
            },
            {
              "internalType": "uint256",
              "name": "SoldRate",
              "type": "uint256"
            },
            {
              "internalType": "uint256",
              "name": "DefaultRate",
              "type": "uint256"
            },
            {
              "internalType": "uint256",
              "name": "UnpaidInterest",
              "type": "uint256"
            },
            {
              "internalType": "uint256",
              "name": "UnpaidFees",
              "type": "uint256"
            },
            {
              "internalType": "uint256",
              "name": "LateFeesAmount",
              "type": "uint256"
            },
            {
              "internalType": "uint256",
              "name": "UnpaidLateFees",
              "type": "uint256"
            },
            {
              "internalType": "uint256",
              "name": "AccruedLateFees",
              "type": "uint256"
            },
            {
              "internalType": "uint256",
              "name": "UnpaidLoanCharges",
              "type": "uint256"
            },
            {
              "internalType": "uint256",
              "name": "DeferredPrincBalance",
              "type": "uint256"
            },
            {
              "internalType": "uint256",
              "name": "DeferredUnpCharges",
              "type": "uint256"
            },
            {
              "internalType": "uint256",
              "name": "OriginalLoanAmount",
              "type": "uint256"
            },
            {
              "internalType": "string",
              "name": "OriginationDate",
              "type": "string"
            },
            {
              "internalType": "string",
              "name": "NextPaymentDue",
              "type": "string"
            },
            {
              "internalType": "string",
              "name": "LoanMaturityDate",
              "type": "string"
            },
            {
              "internalType": "string",
              "name": "LastPaymentRec",
              "type": "string"
            },
            {
              "internalType": "string",
              "name": "InterestPaidTo",
              "type": "string"
            },
            {
              "internalType": "uint256",
              "name": "DeferredUnpaidInt",
              "type": "uint256"
            },
            {
              "internalType": "uint256",
              "name": "FCIRestrictedPrincipal",
              "type": "uint256"
            },
            {
              "internalType": "uint256",
              "name": "FCIRestrictedInterest",
              "type": "uint256"
            },
            {
              "internalType": "uint256",
              "name": "PymtGraceDays",
              "type": "uint256"
            },
            {
              "internalType": "uint256",
              "name": "DaysSinceLastPymt",
              "type": "uint256"
            },
            {
              "internalType": "uint256",
              "name": "NumOfPymtsDue",
              "type": "uint256"
            },
            {
              "internalType": "uint256",
              "name": "ScheduledPayment",
              "type": "uint256"
            },
            {
              "internalType": "uint256",
              "name": "PromisesToPay",
              "type": "uint256"
            },
            {
              "internalType": "uint256",
              "name": "NFSInLast12Months",
              "type": "uint256"
            },
            {
              "internalType": "uint256",
              "name": "DeferredLateFees",
              "type": "uint256"
            },
            {
              "internalType": "uint256",
              "name": "InvestorRestrictedPrincipal",
              "type": "uint256"
            },
            {
              "internalType": "uint256",
              "name": "InvestorRestrictedInterest",
              "type": "uint256"
            },
            {
              "internalType": "string",
              "name": "Status",
              "type": "string"
            },
            {
              "internalType": "string",
              "name": "LUid",
              "type": "string"
            },
            {
              "internalType": "bytes32",
              "name": "TxId",
              "type": "bytes32"
            },
            {
              "internalType": "uint256",
              "name": "BLOCKAUDITCreationAt",
              "type": "uint256"
            },
            {
              "internalType": "uint256",
              "name": "BLOCKAUDITUpdatedAt",
              "type": "uint256"
            },
            {
              "internalType": "bool",
              "name": "exists",
              "type": "bool"
            }
          ],
          "internalType": "struct LoanRegistry.Loan[]",
          "name": "",
          "type": "tuple[]"
        }
      ],
      "stateMutability": "view",
      "type": "function"
    },
    {
      "inputs": [
        {
          "internalType": "bytes32",
          "name": "txId",
          "type": "bytes32"
        }
      ],
      "name": "getActivityChanges",
      "outputs": [
        {
          "components": [
            {
              "internalType": "string",
              "name": "PropertyName",
              "type": "string"
            },
            {
              "internalType": "string",
              "name": "OldValue",
              "type": "string"
            },
            {
              "internalType": "string",
              "name": "NewValue",
              "type": "string"
            }
          ],
          "internalType": "struct LoanRegistry.Change[]",
          "name": "",
          "type": "tuple[]"
        }
      ],
      "stateMutability": "view",
      "type": "function"
    },
    {
      "inputs": [],
      "name": "getAllLoanIds",
      "outputs": [
        {
          "internalType": "string[]",
          "name": "",
          "type": "string[]"
        }
      ],
      "stateMutability": "view",
      "type": "function"
    },
    {
      "inputs": [
        {
          "internalType": "string",
          "name": "loanId",
          "type": "string"
        }
      ],
      "name": "getCurrentTransactionByLoan",
      "outputs": [
        {
          "internalType": "bytes32",
          "name": "",
          "type": "bytes32"
        }
      ],
      "stateMutability": "view",
      "type": "function"
    },
    {
      "inputs": [
        {
          "internalType": "string[]",
          "name": "loanIds",
          "type": "string[]"
        }
      ],
      "name": "getLastTransactionsByLoans",
      "outputs": [
        {
          "internalType": "string[]",
          "name": "ids",
          "type": "string[]"
        },
        {
          "internalType": "bytes32[]",
          "name": "txIds",
          "type": "bytes32[]"
        }
      ],
      "stateMutability": "view",
      "type": "function"
    },
    {
      "inputs": [
        {
          "internalType": "bytes32",
          "name": "txId",
          "type": "bytes32"
        }
      ],
      "name": "getLoanByTxId",
      "outputs": [
        {
          "components": [
            {
              "internalType": "string",
              "name": "ID",
              "type": "string"
            },
            {
              "internalType": "string",
              "name": "UserID",
              "type": "string"
            },
            {
              "internalType": "string",
              "name": "BorrowerFullName",
              "type": "string"
            },
            {
              "internalType": "string",
              "name": "BorrowerHomePhone",
              "type": "string"
            },
            {
              "internalType": "string",
              "name": "BorrowerPropertyAddress",
              "type": "string"
            },
            {
              "internalType": "string",
              "name": "BorrowerState",
              "type": "string"
            },
            {
              "internalType": "string",
              "name": "BorrowerZip",
              "type": "string"
            },
            {
              "internalType": "string",
              "name": "BorrowerCity",
              "type": "string"
            },
            {
              "internalType": "string",
              "name": "BorrowerEmail",
              "type": "string"
            },
            {
              "internalType": "string",
              "name": "BorrowerOccupancyStatus",
              "type": "string"
            },
            {
              "internalType": "uint256",
              "name": "CurrentPrincipalBal",
              "type": "uint256"
            },
            {
              "internalType": "uint256",
              "name": "RestrictedFunds",
              "type": "uint256"
            },
            {
              "internalType": "uint256",
              "name": "SuspenseBalance",
              "type": "uint256"
            },
            {
              "internalType": "uint256",
              "name": "EscrowBalance",
              "type": "uint256"
            },
            {
              "internalType": "uint256",
              "name": "TotalInTrust",
              "type": "uint256"
            },
            {
              "internalType": "uint256",
              "name": "NoteRate",
              "type": "uint256"
            },
            {
              "internalType": "uint256",
              "name": "SoldRate",
              "type": "uint256"
            },
            {
              "internalType": "uint256",
              "name": "DefaultRate",
              "type": "uint256"
            },
            {
              "internalType": "uint256",
              "name": "UnpaidInterest",
              "type": "uint256"
            },
            {
              "internalType": "uint256",
              "name": "UnpaidFees",
              "type": "uint256"
            },
            {
              "internalType": "uint256",
              "name": "LateFeesAmount",
              "type": "uint256"
            },
            {
              "internalType": "uint256",
              "name": "UnpaidLateFees",
              "type": "uint256"
            },
            {
              "internalType": "uint256",
              "name": "AccruedLateFees",
              "type": "uint256"
            },
            {
              "internalType": "uint256",
              "name": "UnpaidLoanCharges",
              "type": "uint256"
            },
            {
              "internalType": "uint256",
              "name": "DeferredPrincBalance",
              "type": "uint256"
            },
            {
              "internalType": "uint256",
              "name": "DeferredUnpCharges",
              "type": "uint256"
            },
            {
              "internalType": "uint256",
              "name": "OriginalLoanAmount",
              "type": "uint256"
            },
            {
              "internalType": "string",
              "name": "OriginationDate",
              "type": "string"
            },
            {
              "internalType": "string",
              "name": "NextPaymentDue",
              "type": "string"
            },
            {
              "internalType": "string",
              "name": "LoanMaturityDate",
              "type": "string"
            },
            {
              "internalType": "string",
              "name": "LastPaymentRec",
              "type": "string"
            },
            {
              "internalType": "string",
              "name": "InterestPaidTo",
              "type": "string"
            },
            {
              "internalType": "uint256",
              "name": "DeferredUnpaidInt",
              "type": "uint256"
            },
            {
              "internalType": "uint256",
              "name": "FCIRestrictedPrincipal",
              "type": "uint256"
            },
            {
              "internalType": "uint256",
              "name": "FCIRestrictedInterest",
              "type": "uint256"
            },
            {
              "internalType": "uint256",
              "name": "PymtGraceDays",
              "type": "uint256"
            },
            {
              "internalType": "uint256",
              "name": "DaysSinceLastPymt",
              "type": "uint256"
            },
            {
              "internalType": "uint256",
              "name": "NumOfPymtsDue",
              "type": "uint256"
            },
            {
              "internalType": "uint256",
              "name": "ScheduledPayment",
              "type": "uint256"
            },
            {
              "internalType": "uint256",
              "name": "PromisesToPay",
              "type": "uint256"
            },
            {
              "internalType": "uint256",
              "name": "NFSInLast12Months",
              "type": "uint256"
            },
            {
              "internalType": "uint256",
              "name": "DeferredLateFees",
              "type": "uint256"
            },
            {
              "internalType": "uint256",
              "name": "InvestorRestrictedPrincipal",
              "type": "uint256"
            },
            {
              "internalType": "uint256",
              "name": "InvestorRestrictedInterest",
              "type": "uint256"
            },
            {
              "internalType": "string",
              "name": "Status",
              "type": "string"
            },
            {
              "internalType": "string",
              "name": "LUid",
              "type": "string"
            },
            {
              "internalType": "bytes32",
              "name": "TxId",
              "type": "bytes32"
            },
            {
              "internalType": "uint256",
              "name": "BLOCKAUDITCreationAt",
              "type": "uint256"
            },
            {
              "internalType": "uint256",
              "name": "BLOCKAUDITUpdatedAt",
              "type": "uint256"
            },
            {
              "internalType": "bool",
              "name": "exists",
              "type": "bool"
            }
          ],
          "internalType": "struct LoanRegistry.Loan",
          "name": "loan",
          "type": "tuple"
        },
        {
          "components": [
            {
              "internalType": "string",
              "name": "PropertyName",
              "type": "string"
            },
            {
              "internalType": "string",
              "name": "OldValue",
              "type": "string"
            },
            {
              "internalType": "string",
              "name": "NewValue",
              "type": "string"
            }
          ],
          "internalType": "struct LoanRegistry.Change[]",
          "name": "changes",
          "type": "tuple[]"
        }
      ],
      "stateMutability": "view",
      "type": "function"
    },
    {
      "inputs": [
        {
          "internalType": "string",
          "name": "loanId",
          "type": "string"
        }
      ],
      "name": "getLoanHistory",
      "outputs": [
        {
          "components": [
            {
              "internalType": "bytes32",
              "name": "TxId",
              "type": "bytes32"
            },
            {
              "internalType": "uint256",
              "name": "Timestamp",
              "type": "uint256"
            },
            {
              "internalType": "bool",
              "name": "IsDelete",
              "type": "bool"
            }
          ],
          "internalType": "struct LoanRegistry.LoanHistoryEntry[]",
          "name": "",
          "type": "tuple[]"
        }
      ],
      "stateMutability": "view",
      "type": "function"
    },
    {
      "inputs": [
        {
          "internalType": "string",
          "name": "loanId",
          "type": "string"
        }
      ],
      "name": "getLoanHistoryWithChanges",
      "outputs": [
        {
          "internalType": "bytes32[]",
          "name": "txIds",
          "type": "bytes32[]"
        },
        {
          "internalType": "uint256[]",
          "name": "timestamps",
          "type": "uint256[]"
        },
        {
          "internalType": "bool[]",
          "name": "isDeletes",
          "type": "bool[]"
        },
        {
          "internalType": "uint256[]",
          "name": "changeCounts",
          "type": "uint256[]"
        }
      ],
      "stateMutability": "view",
      "type": "function"
    },
    {
      "inputs": [],
      "name": "getTotalLoansCount",
      "outputs": [
        {
          "internalType": "uint256",
          "name": "",
          "type": "uint256"
        }
      ],
      "stateMutability": "view",
      "type": "function"
    },
    {
      "inputs": [
        {
          "internalType": "string",
          "name": "loanId",
          "type": "string"
        }
      ],
      "name": "loanExists",
      "outputs": [
        {
          "internalType": "bool",
          "name": "",
          "type": "bool"
        }
      ],
      "stateMutability": "view",
      "type": "function"
    },
    {
      "inputs": [],
      "name": "owner",
      "outputs": [
        {
          "internalType": "address",
          "name": "",
          "type": "address"
        }
      ],
      "stateMutability": "view",
      "type": "function"
    },
    {
      "inputs": [],
      "name": "queryAllLoans",
      "outputs": [
        {
          "components": [
            {
              "internalType": "string",
              "name": "ID",
              "type": "string"
            },
            {
              "internalType": "string",
              "name": "UserID",
              "type": "string"
            },
            {
              "internalType": "string",
              "name": "BorrowerFullName",
              "type": "string"
            },
            {
              "internalType": "string",
              "name": "BorrowerHomePhone",
              "type": "string"
            },
            {
              "internalType": "string",
              "name": "BorrowerPropertyAddress",
              "type": "string"
            },
            {
              "internalType": "string",
              "name": "BorrowerState",
              "type": "string"
            },
            {
              "internalType": "string",
              "name": "BorrowerZip",
              "type": "string"
            },
            {
              "internalType": "string",
              "name": "BorrowerCity",
              "type": "string"
            },
            {
              "internalType": "string",
              "name": "BorrowerEmail",
              "type": "string"
            },
            {
              "internalType": "string",
              "name": "BorrowerOccupancyStatus",
              "type": "string"
            },
            {
              "internalType": "uint256",
              "name": "CurrentPrincipalBal",
              "type": "uint256"
            },
            {
              "internalType": "uint256",
              "name": "RestrictedFunds",
              "type": "uint256"
            },
            {
              "internalType": "uint256",
              "name": "SuspenseBalance",
              "type": "uint256"
            },
            {
              "internalType": "uint256",
              "name": "EscrowBalance",
              "type": "uint256"
            },
            {
              "internalType": "uint256",
              "name": "TotalInTrust",
              "type": "uint256"
            },
            {
              "internalType": "uint256",
              "name": "NoteRate",
              "type": "uint256"
            },
            {
              "internalType": "uint256",
              "name": "SoldRate",
              "type": "uint256"
            },
            {
              "internalType": "uint256",
              "name": "DefaultRate",
              "type": "uint256"
            },
            {
              "internalType": "uint256",
              "name": "UnpaidInterest",
              "type": "uint256"
            },
            {
              "internalType": "uint256",
              "name": "UnpaidFees",
              "type": "uint256"
            },
            {
              "internalType": "uint256",
              "name": "LateFeesAmount",
              "type": "uint256"
            },
            {
              "internalType": "uint256",
              "name": "UnpaidLateFees",
              "type": "uint256"
            },
            {
              "internalType": "uint256",
              "name": "AccruedLateFees",
              "type": "uint256"
            },
            {
              "internalType": "uint256",
              "name": "UnpaidLoanCharges",
              "type": "uint256"
            },
            {
              "internalType": "uint256",
              "name": "DeferredPrincBalance",
              "type": "uint256"
            },
            {
              "internalType": "uint256",
              "name": "DeferredUnpCharges",
              "type": "uint256"
            },
            {
              "internalType": "uint256",
              "name": "OriginalLoanAmount",
              "type": "uint256"
            },
            {
              "internalType": "string",
              "name": "OriginationDate",
              "type": "string"
            },
            {
              "internalType": "string",
              "name": "NextPaymentDue",
              "type": "string"
            },
            {
              "internalType": "string",
              "name": "LoanMaturityDate",
              "type": "string"
            },
            {
              "internalType": "string",
              "name": "LastPaymentRec",
              "type": "string"
            },
            {
              "internalType": "string",
              "name": "InterestPaidTo",
              "type": "string"
            },
            {
              "internalType": "uint256",
              "name": "DeferredUnpaidInt",
              "type": "uint256"
            },
            {
              "internalType": "uint256",
              "name": "FCIRestrictedPrincipal",
              "type": "uint256"
            },
            {
              "internalType": "uint256",
              "name": "FCIRestrictedInterest",
              "type": "uint256"
            },
            {
              "internalType": "uint256",
              "name": "PymtGraceDays",
              "type": "uint256"
            },
            {
              "internalType": "uint256",
              "name": "DaysSinceLastPymt",
              "type": "uint256"
            },
            {
              "internalType": "uint256",
              "name": "NumOfPymtsDue",
              "type": "uint256"
            },
            {
              "internalType": "uint256",
              "name": "ScheduledPayment",
              "type": "uint256"
            },
            {
              "internalType": "uint256",
              "name": "PromisesToPay",
              "type": "uint256"
            },
            {
              "internalType": "uint256",
              "name": "NFSInLast12Months",
              "type": "uint256"
            },
            {
              "internalType": "uint256",
              "name": "DeferredLateFees",
              "type": "uint256"
            },
            {
              "internalType": "uint256",
              "name": "InvestorRestrictedPrincipal",
              "type": "uint256"
            },
            {
              "internalType": "uint256",
              "name": "InvestorRestrictedInterest",
              "type": "uint256"
            },
            {
              "internalType": "string",
              "name": "Status",
              "type": "string"
            },
            {
              "internalType": "string",
              "name": "LUid",
              "type": "string"
            },
            {
              "internalType": "bytes32",
              "name": "TxId",
              "type": "bytes32"
            },
            {
              "internalType": "uint256",
              "name": "BLOCKAUDITCreationAt",
              "type": "uint256"
            },
            {
              "internalType": "uint256",
              "name": "BLOCKAUDITUpdatedAt",
              "type": "uint256"
            },
            {
              "internalType": "bool",
              "name": "exists",
              "type": "bool"
            }
          ],
          "internalType": "struct LoanRegistry.Loan[]",
          "name": "",
          "type": "tuple[]"
        }
      ],
      "stateMutability": "view",
      "type": "function"
    },
    {
      "inputs": [
        {
          "internalType": "uint256",
          "name": "offset",
          "type": "uint256"
        },
        {
          "internalType": "uint256",
          "name": "limit",
          "type": "uint256"
        }
      ],
      "name": "queryLoansPaginated",
      "outputs": [
        {
          "components": [
            {
              "internalType": "string",
              "name": "ID",
              "type": "string"
            },
            {
              "internalType": "string",
              "name": "UserID",
              "type": "string"
            },
            {
              "internalType": "string",
              "name": "BorrowerFullName",
              "type": "string"
            },
            {
              "internalType": "string",
              "name": "BorrowerHomePhone",
              "type": "string"
            },
            {
              "internalType": "string",
              "name": "BorrowerPropertyAddress",
              "type": "string"
            },
            {
              "internalType": "string",
              "name": "BorrowerState",
              "type": "string"
            },
            {
              "internalType": "string",
              "name": "BorrowerZip",
              "type": "string"
            },
            {
              "internalType": "string",
              "name": "BorrowerCity",
              "type": "string"
            },
            {
              "internalType": "string",
              "name": "BorrowerEmail",
              "type": "string"
            },
            {
              "internalType": "string",
              "name": "BorrowerOccupancyStatus",
              "type": "string"
            },
            {
              "internalType": "uint256",
              "name": "CurrentPrincipalBal",
              "type": "uint256"
            },
            {
              "internalType": "uint256",
              "name": "RestrictedFunds",
              "type": "uint256"
            },
            {
              "internalType": "uint256",
              "name": "SuspenseBalance",
              "type": "uint256"
            },
            {
              "internalType": "uint256",
              "name": "EscrowBalance",
              "type": "uint256"
            },
            {
              "internalType": "uint256",
              "name": "TotalInTrust",
              "type": "uint256"
            },
            {
              "internalType": "uint256",
              "name": "NoteRate",
              "type": "uint256"
            },
            {
              "internalType": "uint256",
              "name": "SoldRate",
              "type": "uint256"
            },
            {
              "internalType": "uint256",
              "name": "DefaultRate",
              "type": "uint256"
            },
            {
              "internalType": "uint256",
              "name": "UnpaidInterest",
              "type": "uint256"
            },
            {
              "internalType": "uint256",
              "name": "UnpaidFees",
              "type": "uint256"
            },
            {
              "internalType": "uint256",
              "name": "LateFeesAmount",
              "type": "uint256"
            },
            {
              "internalType": "uint256",
              "name": "UnpaidLateFees",
              "type": "uint256"
            },
            {
              "internalType": "uint256",
              "name": "AccruedLateFees",
              "type": "uint256"
            },
            {
              "internalType": "uint256",
              "name": "UnpaidLoanCharges",
              "type": "uint256"
            },
            {
              "internalType": "uint256",
              "name": "DeferredPrincBalance",
              "type": "uint256"
            },
            {
              "internalType": "uint256",
              "name": "DeferredUnpCharges",
              "type": "uint256"
            },
            {
              "internalType": "uint256",
              "name": "OriginalLoanAmount",
              "type": "uint256"
            },
            {
              "internalType": "string",
              "name": "OriginationDate",
              "type": "string"
            },
            {
              "internalType": "string",
              "name": "NextPaymentDue",
              "type": "string"
            },
            {
              "internalType": "string",
              "name": "LoanMaturityDate",
              "type": "string"
            },
            {
              "internalType": "string",
              "name": "LastPaymentRec",
              "type": "string"
            },
            {
              "internalType": "string",
              "name": "InterestPaidTo",
              "type": "string"
            },
            {
              "internalType": "uint256",
              "name": "DeferredUnpaidInt",
              "type": "uint256"
            },
            {
              "internalType": "uint256",
              "name": "FCIRestrictedPrincipal",
              "type": "uint256"
            },
            {
              "internalType": "uint256",
              "name": "FCIRestrictedInterest",
              "type": "uint256"
            },
            {
              "internalType": "uint256",
              "name": "PymtGraceDays",
              "type": "uint256"
            },
            {
              "internalType": "uint256",
              "name": "DaysSinceLastPymt",
              "type": "uint256"
            },
            {
              "internalType": "uint256",
              "name": "NumOfPymtsDue",
              "type": "uint256"
            },
            {
              "internalType": "uint256",
              "name": "ScheduledPayment",
              "type": "uint256"
            },
            {
              "internalType": "uint256",
              "name": "PromisesToPay",
              "type": "uint256"
            },
            {
              "internalType": "uint256",
              "name": "NFSInLast12Months",
              "type": "uint256"
            },
            {
              "internalType": "uint256",
              "name": "DeferredLateFees",
              "type": "uint256"
            },
            {
              "internalType": "uint256",
              "name": "InvestorRestrictedPrincipal",
              "type": "uint256"
            },
            {
              "internalType": "uint256",
              "name": "InvestorRestrictedInterest",
              "type": "uint256"
            },
            {
              "internalType": "string",
              "name": "Status",
              "type": "string"
            },
            {
              "internalType": "string",
              "name": "LUid",
              "type": "string"
            },
            {
              "internalType": "bytes32",
              "name": "TxId",
              "type": "bytes32"
            },
            {
              "internalType": "uint256",
              "name": "BLOCKAUDITCreationAt",
              "type": "uint256"
            },
            {
              "internalType": "uint256",
              "name": "BLOCKAUDITUpdatedAt",
              "type": "uint256"
            },
            {
              "internalType": "bool",
              "name": "exists",
              "type": "bool"
            }
          ],
          "internalType": "struct LoanRegistry.Loan[]",
          "name": "loans_",
          "type": "tuple[]"
        },
        {
          "internalType": "uint256",
          "name": "total",
          "type": "uint256"
        },
        {
          "internalType": "uint256",
          "name": "returned",
          "type": "uint256"
        }
      ],
      "stateMutability": "view",
      "type": "function"
    },
    {
      "inputs": [
        {
          "internalType": "string",
          "name": "loanId",
          "type": "string"
        }
      ],
      "name": "readLoan",
      "outputs": [
        {
          "components": [
            {
              "internalType": "string",
              "name": "ID",
              "type": "string"
            },
            {
              "internalType": "string",
              "name": "UserID",
              "type": "string"
            },
            {
              "internalType": "string",
              "name": "BorrowerFullName",
              "type": "string"
            },
            {
              "internalType": "string",
              "name": "BorrowerHomePhone",
              "type": "string"
            },
            {
              "internalType": "string",
              "name": "BorrowerPropertyAddress",
              "type": "string"
            },
            {
              "internalType": "string",
              "name": "BorrowerState",
              "type": "string"
            },
            {
              "internalType": "string",
              "name": "BorrowerZip",
              "type": "string"
            },
            {
              "internalType": "string",
              "name": "BorrowerCity",
              "type": "string"
            },
            {
              "internalType": "string",
              "name": "BorrowerEmail",
              "type": "string"
            },
            {
              "internalType": "string",
              "name": "BorrowerOccupancyStatus",
              "type": "string"
            },
            {
              "internalType": "uint256",
              "name": "CurrentPrincipalBal",
              "type": "uint256"
            },
            {
              "internalType": "uint256",
              "name": "RestrictedFunds",
              "type": "uint256"
            },
            {
              "internalType": "uint256",
              "name": "SuspenseBalance",
              "type": "uint256"
            },
            {
              "internalType": "uint256",
              "name": "EscrowBalance",
              "type": "uint256"
            },
            {
              "internalType": "uint256",
              "name": "TotalInTrust",
              "type": "uint256"
            },
            {
              "internalType": "uint256",
              "name": "NoteRate",
              "type": "uint256"
            },
            {
              "internalType": "uint256",
              "name": "SoldRate",
              "type": "uint256"
            },
            {
              "internalType": "uint256",
              "name": "DefaultRate",
              "type": "uint256"
            },
            {
              "internalType": "uint256",
              "name": "UnpaidInterest",
              "type": "uint256"
            },
            {
              "internalType": "uint256",
              "name": "UnpaidFees",
              "type": "uint256"
            },
            {
              "internalType": "uint256",
              "name": "LateFeesAmount",
              "type": "uint256"
            },
            {
              "internalType": "uint256",
              "name": "UnpaidLateFees",
              "type": "uint256"
            },
            {
              "internalType": "uint256",
              "name": "AccruedLateFees",
              "type": "uint256"
            },
            {
              "internalType": "uint256",
              "name": "UnpaidLoanCharges",
              "type": "uint256"
            },
            {
              "internalType": "uint256",
              "name": "DeferredPrincBalance",
              "type": "uint256"
            },
            {
              "internalType": "uint256",
              "name": "DeferredUnpCharges",
              "type": "uint256"
            },
            {
              "internalType": "uint256",
              "name": "OriginalLoanAmount",
              "type": "uint256"
            },
            {
              "internalType": "string",
              "name": "OriginationDate",
              "type": "string"
            },
            {
              "internalType": "string",
              "name": "NextPaymentDue",
              "type": "string"
            },
            {
              "internalType": "string",
              "name": "LoanMaturityDate",
              "type": "string"
            },
            {
              "internalType": "string",
              "name": "LastPaymentRec",
              "type": "string"
            },
            {
              "internalType": "string",
              "name": "InterestPaidTo",
              "type": "string"
            },
            {
              "internalType": "uint256",
              "name": "DeferredUnpaidInt",
              "type": "uint256"
            },
            {
              "internalType": "uint256",
              "name": "FCIRestrictedPrincipal",
              "type": "uint256"
            },
            {
              "internalType": "uint256",
              "name": "FCIRestrictedInterest",
              "type": "uint256"
            },
            {
              "internalType": "uint256",
              "name": "PymtGraceDays",
              "type": "uint256"
            },
            {
              "internalType": "uint256",
              "name": "DaysSinceLastPymt",
              "type": "uint256"
            },
            {
              "internalType": "uint256",
              "name": "NumOfPymtsDue",
              "type": "uint256"
            },
            {
              "internalType": "uint256",
              "name": "ScheduledPayment",
              "type": "uint256"
            },
            {
              "internalType": "uint256",
              "name": "PromisesToPay",
              "type": "uint256"
            },
            {
              "internalType": "uint256",
              "name": "NFSInLast12Months",
              "type": "uint256"
            },
            {
              "internalType": "uint256",
              "name": "DeferredLateFees",
              "type": "uint256"
            },
            {
              "internalType": "uint256",
              "name": "InvestorRestrictedPrincipal",
              "type": "uint256"
            },
            {
              "internalType": "uint256",
              "name": "InvestorRestrictedInterest",
              "type": "uint256"
            },
            {
              "internalType": "string",
              "name": "Status",
              "type": "string"
            },
            {
              "internalType": "string",
              "name": "LUid",
              "type": "string"
            },
            {
              "internalType": "bytes32",
              "name": "TxId",
              "type": "bytes32"
            },
            {
              "internalType": "uint256",
              "name": "BLOCKAUDITCreationAt",
              "type": "uint256"
            },
            {
              "internalType": "uint256",
              "name": "BLOCKAUDITUpdatedAt",
              "type": "uint256"
            },
            {
              "internalType": "bool",
              "name": "exists",
              "type": "bool"
            }
          ],
          "internalType": "struct LoanRegistry.Loan",
          "name": "",
          "type": "tuple"
        }
      ],
      "stateMutability": "view",
      "type": "function"
    },
    {
      "inputs": [],
      "name": "renounceOwnership",
      "outputs": [],
      "stateMutability": "nonpayable",
      "type": "function"
    },
    {
      "inputs": [
        {
          "internalType": "address",
          "name": "newOwner",
          "type": "address"
        }
      ],
      "name": "transferOwnership",
      "outputs": [],
      "stateMutability": "nonpayable",
      "type": "function"
    },
    {
      "inputs": [],
      "name": "userRegistry",
      "outputs": [
        {
          "internalType": "contract UserRegistry",
          "name": "",
          "type": "address"
        }
      ],
      "stateMutability": "view",
      "type": "function"
    }
  ],
  "bytecode": "0x6080346200012b57601f6200531e38819003918201601f19168301916001600160401b03831184841017620001305780849260409485528339810103126200012b576200005a6020620000528362000146565b920162000146565b906001600160a01b0390811690811562000112576000549260018060a01b03199280848616176000558260405195167f8be0079c531659141344cd1fd0a4f28419497f9722a3daafe3b4186f6b6457e0600080a316918215620000d0575060015416176001556040516151c290816200015c8239f35b62461bcd60e51b815260206004820152601d60248201527f55736572526567697374727920616464726573732072657175697265640000006044820152606490fd5b604051631e4fbdf760e01b815260006004820152602490fd5b600080fd5b634e487b7160e01b600052604160045260246000fd5b51906001600160a01b03821682036200012b5756fe610160604052600436101561001357600080fd5b60003560e01c80632afd311714613ae85780632b33d5e31461388a5780632fe82e941461349757806347cdddc3146132855780634dae3ab7146130335780635c1bf86514612f935780635c3c3fcf14612e585780635c7460d614612e2f578063638ee9bc14612d475780636d047cc614612d29578063715018a614612cd057806375fed82c1461283957806380695be8146127f65780638694056d1461211057806387f5edaf14611c685780638da5cb5b14611c3f578063bcb197c914611bdb578063c4d0b642146105a2578063e56904f41461018e5763f2fde38b146100f957600080fd5b34610189576020366003190112610189576004356001600160a01b038181169182900361018957610128614e92565b811561017057600054826bffffffffffffffffffffffff60a01b821617600055167f8be0079c531659141344cd1fd0a4f28419497f9722a3daafe3b4186f6b6457e0600080a3005b604051631e4fbdf760e01b815260006004820152602490fd5b600080fd5b3461018957602080600319360112610189576004356001600160401b038111610189576101bf903690600401613f9c565b6101c76140e8565b506040519060ff60318251938581818601966101e481838a613b2f565b810160028152030190200154161561055d5761020d918391604051938492839251928391613b2f565b810160028152030190209060ff60316040519361022985613f0e565b6040516102418161023a8185614287565b0382613f60565b85526040516102578161023a8160018601614287565b8486015260405161026f8161023a8160028601614287565b60408601526040516102888161023a8160038601614287565b60608601526040516102a18161023a8160048601614287565b60808601526040516102ba8161023a8160058601614287565b60a08601526040516102d38161023a8160068601614287565b60c08601526040516102ec8161023a8160078601614287565b60e08601526040516103058161023a8160088601614287565b61010086015260405161031f8161023a8160098601614287565b610120860152600a810154610140860152600b810154610160860152600c810154610180860152600d8101546101a0860152600e8101546101c0860152600f8101546101e08601526010810154610200860152601181015461022086015260128101546102408601526013810154610260860152601481015461028086015260158101546102a086015260168101546102c086015260178101546102e086015260188101546103008601526019810154610320860152601a8101546103408601526040516103f48161023a81601b8601614287565b61036086015260405161040e8161023a81601c8601614287565b6103808601526040516104288161023a81601d8601614287565b6103a08601526040516104428161023a81601e8601614287565b6103c086015260405161045c8161023a81601f8601614287565b6103e086015283810154610400860152602181015461042086015260228101546104408601526023810154610460860152602481015461048086015260258101546104a086015260268101546104c086015260278101546104e086015260288101546105008601526029810154610520860152602a810154610540860152602b8101546105608601526040516104f98161023a81602c8601614287565b6105808601526040516105138161023a81602d8601614287565b6105a0860152602e8101546105c0860152602f8101546105e086015260308101546106008601520154161515610620830152610559604051928284938452830190613b77565b0390f35b60405162461bcd60e51b815260048101849052601760248201527f546865206c6f616e20646f6573206e6f742065786973740000000000000000006044820152606490fd5b34610189576105c0366003190112610189576001600160401b03600435818111610189576105d4903690600401613f9c565b61012052602435818111610189576105f0903690600401613f9c565b60a0526044358181116101895761060b903690600401613f9c565b60643582811161018957610623903690600401613f9c565b916084358181116101895761063c903690600401613f9c565b6101405260a43581811161018957610658903690600401613f9c565b60c43582811161018957610670903690600401613f9c565b60e43583811161018957610688903690600401613f9c565b61010435848111610189576106a1903690600401613f9c565b61012435858111610189576106ba903690600401613f9c565b61036435868111610189576106d3903690600401613f9c565b9061038435878111610189576106ed903690600401613f9c565b926103a43588811161018957610707903690600401613f9c565b946103c43589811161018957610721903690600401613f9c565b966103e4358a81116101895761073b903690600401613f9c565b98610584358b811161018957610755903690600401613f9c565b9a6105a435116101895761076f366105a435600401613f9c565b600054909d906001600160a01b039081163303611b1e575b5060a051518015159081611ad1575b5015611a9757610120515115611a5c576040514260208201524360408201526107ed60748261012051516107d4816060840160206101205101613b2f565b81013360601b6060820152036054810184520182613f60565b602081519101209c4260c05260ff603160405160208161012051516108188183856101205101613b2f565b600281830152810103019020015416611a2b575b60405160208161012051516108478183856101205101613b2f565b810160028152030190206101005260405160e05261086660e051613f0e565b60405161087a8161023a8161010051614287565b60e051526040516108958161023a8160016101005101614287565b602060e05101526040516108b38161023a8160026101005101614287565b604060e05101526040516108d18161023a8160036101005101614287565b606060e05101526040516108ef8161023a8160046101005101614287565b608060e051015260405161090d8161023a8160056101005101614287565b60a060e051015260405161092b8161023a8160066101005101614287565b60c060e05101526040516109498161023a8160076101005101614287565b60e0805101526040516109668161023a8160086101005101614287565b61010060e05101526040516109858161023a8160096101005101614287565b61012060e0510152600a61010051015461014060e0510152600b61010051015461016060e0510152600c61010051015461018060e0510152600d6101005101546101a060e0510152600e6101005101546101c060e0510152600f6101005101546101e060e0510152601061010051015461020060e0510152601161010051015461022060e0510152601261010051015461024060e0510152601361010051015461026060e0510152601461010051015461028060e051015260156101005101546102a060e051015260166101005101546102c060e051015260176101005101546102e060e0510152601861010051015461030060e0510152601961010051015461032060e0510152601a61010051015461034060e0510152604051610ab48161023a81601b6101005101614287565b61036060e0510152604051610ad38161023a81601c6101005101614287565b61038060e0510152604051610af28161023a81601d6101005101614287565b6103a060e0510152604051610b118161023a81601e6101005101614287565b6103c060e0510152604051610b308161023a81601f6101005101614287565b6103e060e0510152602061010051015461040060e0510152602161010051015461042060e0510152602261010051015461044060e0510152602361010051015461046060e0510152602461010051015461048060e051015260256101005101546104a060e051015260266101005101546104c060e051015260276101005101546104e060e0510152602861010051015461050060e0510152602961010051015461052060e0510152602a61010051015461054060e0510152602b61010051015461056060e0510152604051610c0f8161023a81602c6101005101614287565b61058060e0510152604051610c2e8161023a81602d6101005101614287565b6105a060e0510152602e6101005101546105c060e0510152602f6101005101546105e060e0510152603061010051015461060060e051015260ff603161010051015416151561062060e0510152604051608052610c8c608051613f0e565b610120516080515260a0516020608051015260406080510152606060805101526101405160808051015260a0608051015260c0608051015260e06080510152610100608051015261012060805101526101443561014060805101526101643561016060805101526101843561018060805101526101a4356101a060805101526101c4356101c060805101526101e4356101e060805101526102043561020060805101526102243561022060805101526102443561024060805101526102643561026060805101526102843561028060805101526102a4356102a060805101526102c4356102c060805101526102e4356102e06080510152610304356103006080510152610324356103206080510152610344356103406080510152610360608051015261038060805101526103a060805101526103c060805101526103e060805101526104043561040060805101526104243561042060805101526104443561044060805101526104643561046060805101526104843561048060805101526104a4356104a060805101526104c4356104c060805101526104e4356104e060805101526105043561050060805101526105243561052060805101526105443561054060805101526105643561056060805101526105806080510152816105a06080510152806105c0608051015260c0516105e060805101524261060060805101526001610620608051015261120b610ea342615074565b6111e1610f0b602060405193610efa602186848101936101205151610ece8187896101205101613b2f565b8201605f60f81b87820152610eeb82518093898785019101613b2f565b01036001810188520186613f60565b604051809381928751928391613b2f565b81016004815203019020610f226080515182614ce9565b610f356020608051015160018301614ce9565b610f486040608051015160028301614ce9565b610f5b6060608051015160038301614ce9565b610f6d60808051015160048301614ce9565b610f8060a0608051015160058301614ce9565b610f9360c0608051015160068301614ce9565b610fa660e0608051015160078301614ce9565b610fba610100608051015160088301614ce9565b610fce610120608051015160098301614ce9565b608051610140810151600a830155610160810151600b830155610180810151600c8301556101a0810151600d8301556101c0810151600e8301556101e0810151600f830155610200810151601083015561022081015160118301556102408101516012830155610260810151601383015561028081015160148301556102a081015160158301556102c081015160168301556102e0810151601783015561030081015160188301556103208101516019830155610340810151601a830155610360015161109e90601b8301614ce9565b6110b26103806080510151601c8301614ce9565b6110c66103a06080510151601d8301614ce9565b6110da6103c06080510151601e8301614ce9565b6110ee6103e06080510151601f8301614ce9565b608051610400810151602083015561042081015160218301556104408101516022830155610460810151602383015561048081015160248301556104a081015160258301556104c081015160268301556104e0810151602783015561050081015160288301556105208101516029830155610540810151602a830155610560810151602b830155610580015161118790602c8301614ce9565b61119b6105a06080510151602d8301614ce9565b6105c06080510151602e8201556105e06080510151602f8201556106006080510151603082015560316106206080510151151591019060ff801983541691151516179055565b60405160208161012051516111fc8183856101205101613b2f565b81016003815203019020614e65565b806000526005602052604060002081815561122c6101205160018301614ce9565b42600382015560e05161062001511561194c57602092600261138d92604060e0510151805187820120906040608051015191825189840120036118f9575b5050606060e0510151805187820120906060608051015191825189840120036118a5575b5050608060e0510151805187820120906080805101519182518984012003611845575b505061058060e051015180518782012090610580608051015191825189840120036117fc575b505061014060e05101516101406080510151810361178f575b5061024060e051015161024060805101518103611727575b5001547fd438615c2b2269e4b0b8b81dc5b2176a47eb3bc844a50b4324243114e303a624604061133a61012051614e45565b9281519087825288820152a25b6105a060e051015180519081151580611714575b6116e6575b5050836113766040519283815193849201613b2f565b810190600882528481610120519303019020614ce9565b8160e0510151805180151590816116ce575b5061168b575b5061163d604051838161012051516113c38183856101205101613b2f565b810160028152030190206113da6080515182614ce9565b6113ec84608051015160018301614ce9565b6113ff6040608051015160028301614ce9565b6114126060608051015160038301614ce9565b61142460808051015160048301614ce9565b61143760a0608051015160058301614ce9565b61144a60c0608051015160068301614ce9565b61145d60e0608051015160078301614ce9565b611471610100608051015160088301614ce9565b611485610120608051015160098301614ce9565b608051610140810151600a830155610160810151600b830155610180810151600c8301556101a0810151600d8301556101c0810151600e8301556101e0810151600f830155610200810151601083015561022081015160118301556102408101516012830155610260810151601383015561028081015160148301556102a081015160158301556102c081015160168301556102e0810151601783015561030081015160188301556103208101516019830155610340810151601a830155610360015161155590601b8301614ce9565b6115696103806080510151601c8301614ce9565b61157d6103a06080510151601d8301614ce9565b6115916103c06080510151601e8301614ce9565b6115a56103e06080510151601f8301614ce9565b6080516104008101518286015561042081015160218301556104408101516022830155610460810151602383015561048081015160248301556104a081015160258301556104c081015160268301556104e0810151602783015561050081015160288301556105208101516029830155610540810151602a830155610560810151602b830155610580015161118790602c8301614ce9565b61166a816040518481610120515161165b8183856101205101613b2f565b81016006815203019020614e10565b8060005260098252611683610120516040600020614ce9565b604051908152f35b6101205161169891614fab565b6116c860405160a051516116b181838760a05101613b2f565b810190600782528481610120519303019020614e65565b826113a5565b90508382012060a051518460a051012014158461139f565b858091836116fe61170d956040518096819501613b2f565b81016008815203019020614db8565b8480611360565b508186820120835187850120141561135b565b61173361178991615074565b6117436102406080510151615074565b6040519161175083613f2a565b60405161175c81613f45565b600e81526d155b9c185a59125b9d195c995cdd60921b8b820152835289830152604082015283830161515c565b86611308565b61179b6117f691615074565b6117ab6101406080510151615074565b604051916117b883613f2a565b6040516117c481613f45565b601381527210dd5c9c995b9d141c9a5b98da5c185b10985b606a1b8b820152835289830152604082015283830161515c565b866112f0565b61183e916040519161180d83613f2a565b60405161181981613f45565b600681526553746174757360d01b8b820152835289830152604082015283830161515c565b86806112d7565b61189e916040519161185683613f2a565b60405161186281613f45565b601781527f426f72726f77657250726f7065727479416464726573730000000000000000008b820152835289830152604082015283830161515c565b86806112b1565b6118f291604051916118b683613f2a565b6040516118c281613f45565b6011815270426f72726f776572486f6d6550686f6e6560781b8b820152835289830152604082015283830161515c565b868061128e565b611945916040519161190a83613f2a565b60405161191681613f45565b601081526f426f72726f77657246756c6c4e616d6560801b8b820152835289830152604082015283830161515c565b868061126a565b50600a54600160401b811015611a155780600161196c9201600a55614940565b6119ff5760209261198461138d926101205190614ce9565b6119b460405160a0515161199d81838960a05101613b2f565b810190600782528681610120519303019020614e65565b6119c061012051614e45565b6119cb60a051614e45565b907fd795ecbbd6f651fb7197486a647ea4a0a8256846059ffb5abc5cda4943adafef604080518781524289820152a3611347565b634e487b7160e01b600052600060045260246000fd5b634e487b7160e01b600052604160045260246000fd5b602f6040516020816101205151611a488183856101205101613b2f565b81016002815203019020015460c05261082c565b60405162461bcd60e51b8152602060048201526013602482015272131bd85b881251081a5cc81c995c5d5a5c9959606a1b6044820152606490fd5b60405162461bcd60e51b8152602060048201526012602482015271155cd95c9251081a5cc81c995c5d5a5c995960721b6044820152606490fd5b7fd4754f0033ebe9c6a7ae620282e60c29370ce8b6140a15ccb3cf50f75eb3c1239150602060a0510120622d2d2d60e81b6020604051611b1081613f45565b60038152015214158f610796565b60006024916001541660405192838092636f77926b60e01b82523360048301525afa908115611bcf57611b8e91606091600091611bac575b50611b6660c08201511515614baa565b015160208151910120611b77614be8565b602081519101208114908115611b94575b50614c2d565b8e610787565b9050611b9e614c0c565b602081519101201438611b88565b611bc991503d806000833e611bc18183613f60565b810190614ac4565b38611b56565b6040513d6000823e3d90fd5b34610189576020366003190112610189576004356001600160401b0381116101895760ff6031611c286020611c1581953690600401613f9c565b8160405193828580945193849201613b2f565b810160028152030190200154166040519015158152f35b34610189576000366003190112610189576000546040516001600160a01b039091168152602090f35b3461018957602080600319360112610189576004356001600160401b03811161018957611c99903690600401613f9c565b9080611cae6040519384815193849201613b2f565b82019181816007946007815203019020918254611cca81614074565b93611cd86040519586613f60565b8185526000908152838120848087015b8484106120ea578782600088815b8451811015611d3a5760ff6031611d16611d108489614343565b5161431d565b015416611d26575b600101611cf6565b91611d32600191614a23565b929050611d1e565b509190611d4690614a32565b9260009060005b81518110156120d757603160ff8082611d69611d108688614343565b015416611d7b575b5050600101611d4d565b936120cf918395611d91611d1060019688614343565b9160405192611d9f84613f0e565b604051611db08161023a8185614287565b8452604051611dc58161023a818b8601614287565b8a850152604051611ddd8161023a8160028601614287565b6040850152604051611df68161023a8160038601614287565b6060850152604051611e0f8161023a8160048601614287565b6080850152604051611e288161023a8160058601614287565b60a0850152604051611e418161023a8160068601614287565b60c085015261023a611e5b8c604051928380928601614287565b60e0850152604051611e748161023a8160088601614287565b610100850152604051611e8e8161023a8160098601614287565b610120850152600a810154610140850152600b810154610160850152600c810154610180850152600d8101546101a0850152600e8101546101c0850152600f8101546101e08501526010810154610200850152601181015461022085015260128101546102408501526013810154610260850152601481015461028085015260158101546102a085015260168101546102c085015260178101546102e085015260188101546103008501526019810154610320850152601a810154610340850152604051611f638161023a81601b8601614287565b610360850152604051611f7d8161023a81601c8601614287565b610380850152604051611f978161023a81601d8601614287565b6103a0850152604051611fb18161023a81601e8601614287565b6103c0850152604051611fcb8161023a81601f8601614287565b6103e085015289810154610400850152602181015461042085015260228101546104408501526023810154610460850152602481015461048085015260258101546104a085015260268101546104c085015260278101546104e085015260288101546105008501526029810154610520850152602a810154610540850152602b8101546105608501526040516120688161023a81602c8601614287565b6105808501526040516120828161023a81602d8601614287565b6105a0850152602e8101546105c0850152602f8101546105e0850152603081015461060085015201541615156106208201526120be828a614343565b526120c98189614343565b50614a23565b929087611d71565b6040518481528061055981870189614017565b60019182916040516121008161023a8189614287565b8152019201920191908590611ce8565b3461018957602080600319360112610189576004356001600160401b03811161018957612141903690600401613f9c565b6000546001600160a01b039081163303612751575b5060405190805160ff603185840192612170818786613b2f565b85019460028652868183970301902001541615612716579183604051818101904282524360408201526121ce60668287516121af81606084018c613b2f565b81016544454c45544560d01b6060820152036046810184520182613f60565b519020938492604051838187516121e6818388613b2f565b8101600281520301902090604051916121fe83613f0e565b60405161220f8161023a8185614287565b8352856001926125858960405161222d8161023a8160018a01614287565b8988019081526040516122478161023a8160028b01614287565b60408901526040516122608161023a8160038b01614287565b60608901526040516122798161023a8160048b01614287565b60808901526040516122928161023a8160058b01614287565b60a08901526040516122ab8161023a8160068b01614287565b60c08901526040516122c48161023a8160078b01614287565b60e08901526040516122dd8161023a8160088b01614287565b6101008901526040516122f78161023a8160098b01614287565b610120890152600a868101546101408a0152600b8701546101608a0152600c8701546101808a0152600d8701546101a08a0152600e8701546101c08a0152600f8701546101e08a015260108701546102008a01526011808801546102208b015260128801546102408b015260138801546102608b015260148801546102808b015260158801546102a08b015260168801546102c08b015260178801546102e08b015260188801546103008b015260198801546103208b0152601a8801546103408b01526040519197909661257f926116fe928e9290916103608e6123e9836123e281601b8901614287565b0384613f60565b01526040516103808e612403836123e281601c8901614287565b01526040516103a08e61241d836123e281601d8901614287565b01526040516103c08e612437836123e281601e8901614287565b01526040516103e08e612451836123e281601f8901614287565b0152818301546104008e015260218201546104208e015260228201546104408e015260238201546104608e01526024808301546104808f015260258301546104a08f015260268301546104c08f015260278301546104e08f015260288301546105008f015260298301546105208f0152602a8301546105408f0152602b8301546105608f0152604051909d906124ee8161023a81602c8801614287565b61058082015261062060ff6031604051956125178761251081602d8501614287565b0388613f60565b6105a08501968752602e8101546105c0860152602f8101546105e086015260308101546106008601520154161515910152806000526005835260406000209081556125658760018301614ce9565b600342910155518160405193828580945193849201613b2f565b51614fab565b6000845b612621575b87896125f08c6125d58361165b868e6031604051838189516125b1818388613b2f565b810160028152030190200160ff198154169055604051809381928851928391613b2f565b82600052600984526125eb816040600020614ce9565b614e45565b7f1f4b13e4dd15d25a92f66856e750d208468c8c7ce52eb2a6e880e95650ce41a783604051848152a2604051908152f35b9193959750918094965054898b8284101561270d57505061023a61265461264784614940565b5060405192838092614287565b8b8151910120895189201461267857509484809601918a96939194928a9896612589565b90919395929450600019948582019182116126f95750906126a561269e6126ab93614940565b5091614940565b90614f9c565b83549182156126e7575050866125f095946125d594889461165b9401906126da6126d483614940565b90614e01565b5592949581948a8061258e565b634e487b7160e01b6000526004526000fd5b8390634e487b7160e01b6000526004526000fd5b9750979561258e565b60405162461bcd60e51b8152600481018590526013602482015272131bd85b88191bd95cc81b9bdd08195e1a5cdd606a1b6044820152606490fd5b60006024916001541660405192838092636f77926b60e01b82523360048301525afa908115611bcf576127be916060916000916127db575b5061279960c08201511515614baa565b01518381519101206127a9614be8565b84815191012081149081156127c45750614c2d565b82612156565b90506127ce614c0c565b8481519101201484611b88565b6127f091503d806000833e611bc18183613f60565b85612789565b34610189576020366003190112610189576004356000526005602052610559612825600260406000200161436d565b604051918291602083526020830190613e63565b3461018957604036600319011261018957600435602490600a80549081831015612c94576024358301808411612c7e57828111612c77575b600091845b828110612c43575061288783614a32565b946000905b8381106128bc576128ad878787604051938493606085526060850190614017565b91602084015260408301520390f35b6128d76128c882614940565b5060ff8091603193849161498f565b0154166128e9575b505060010161288c565b92612c3b9183946129046128fe600196614940565b5061498f565b916040519261291284613f0e565b6040516129238161023a8185614287565b84526040516129388161023a818b8601614287565b602090818601526040516129538161023a8160028701614287565b604086015260405161296c8161023a8160038701614287565b60608601526040516129858161023a8160048701614287565b608086015260405161299e8161023a8160058701614287565b60a08601526040516129b78161023a8160068701614287565b60c08601526040516129d08161023a8160078701614287565b60e08601526040516129e98161023a8160088701614287565b610100860152604051612a038161023a8160098701614287565b61012086015289820154610140860152600b820154610160860152600c820154610180860152600d8201546101a0860152600e8201546101c0860152600f8201546101e08601526010820154610200860152601182015461022086015260128201546102408601526013820154610260860152601482015461028086015260158201546102a086015260168201546102c086015260178201546102e086015260188201546103008601526019820154610320860152601a820154610340860152604051612ad78161023a81601b8701614287565b610360860152604051612af18161023a81601c8701614287565b610380860152604051612b0b8161023a81601d8701614287565b6103a0860152604051612b258161023a81601e8701614287565b6103c0860152604051612b3f8161023a81601f8701614287565b6103e08601528101546104008501526021810154610420850152602281015461044085015260238101546104608501528d81015461048085015260258101546104a085015260268101546104c085015260278101546104e085015260288101546105008501526029810154610520850152602a810154610540850152602b810154610560850152604051612bda8161023a81602c8601614287565b610580850152604051612bf48161023a81602d8601614287565b6105a0850152602e8101546105c0850152602f8101546105e085015260308101546106008501520154161515610620820152612c30828b614343565b526120c9818a614343565b9190896128df565b60ff6031612c536128fe84614940565b015416612c63575b600101612876565b92612c6f600191614a23565b939050612c5b565b5081612871565b634e487b7160e01b600052601160045260246000fd5b60405162461bcd60e51b81526020600482015260146024820152734f6666736574206f7574206f6620626f756e647360601b6044820152606490fd5b3461018957600036600319011261018957612ce9614e92565b600080546001600160a01b0319811682556001600160a01b03167f8be0079c531659141344cd1fd0a4f28419497f9722a3daafe3b4186f6b6457e08280a3005b34610189576000366003190112610189576020600a54604051908152f35b3461018957602080600319360112610189576004356001600160401b0381116101895781611c15612d7c923690600401613f9c565b81016006815203019020604051808284829454938481520190600052846000209260005b86828210612e195784612db581860382613f60565b805115612ddc5780516000198101908111612c7e57612dd391614343565b51604051908152f35b60405162461bcd60e51b8152600481018390526015602482015274139bc81d1c985b9cd858dd1a5bdb9cc8199bdd5b99605a1b6044820152606490fd5b8554845260019586019587955093019201612da0565b34610189576000366003190112610189576001546040516001600160a01b039091168152602090f35b3461018957602080600319360112610189576004356001600160401b03811161018957612ec5612eaf83612e9361023a943690600401613f9c565b612e9b6140e8565b508160405193828580945193849201613b2f565b8101600881520301902060405192838092614287565b805115612f4e576040519060ff6031825193858181860196612ee881838a613b2f565b8101600281520301902001541615612f115761020d918391604051938492839251928391613b2f565b60405162461bcd60e51b8152600481018490526015602482015274131bd85b881a185cc81899595b8819195b195d1959605a1b6044820152606490fd5b60405162461bcd60e51b815260048101839052601c60248201527f4e6f206c6f616e20666f756e6420776974682074686973204c556964000000006044820152606490fd5b3461018957600036600319011261018957600a54612fb081614074565b612fbd6040519182613f60565b81815260209160208201600a6000527fc65a7bb8d6351c1cf70c95a316cc6a92839c986682d98bc35f958f4883f9d2a8936000915b83831061300f57604051602080825281906105599082018861408b565b60018281926040516130258161023a818d614287565b815201960192019194612ff2565b3461018957602080600319360112610189576004356001600160401b03811161018957613064903690600401613f9c565b613070815115156148cf565b604051815190838181850193613087818387613b2f565b8101600681520301902090604051808386829554938481520190600052866000209260005b8882821061326f575050506130c392500383613f60565b8151916130e86130d284614074565b936130e06040519586613f60565b808552614074565b601f19018560005b8281106132445750505060005b81518110156131f1576131108183614343565b516000526005865260406000209060405161312a81613ef3565b825481526040516131428161023a8160018801614287565b888201526060600360029461315886820161436d565b60408501520154910190815260ff603161318d8a88613177878a614343565b519551978c604051948593849251928391613b2f565b82019081520301902001541615806131d9575b600193604051926131b084613f2a565b835289830152151560408201526131c78287614343565b526131d28186614343565b50016130fd565b508351600019810193908411612c7e579282146131a0565b604080518781528551818901819052868901928201908960005b8281106132185784840385f35b85518051855280830151858401526040908101511515908501529481019460609093019260010161320b565b60405161325081613f2a565b60008152600083820152600060408201528282880101520186906130f0565b85548452600195860195889550930192016130ac565b346101895760208060031936011261018957600435906001600160401b0380831161018957366023840112156101895760249260048101356132c681614074565b926132d46040519485613f60565b81845260248585019260051b840101923684116101895760248101925b8484106134715787878780519161330783614074565b926133156040519485613f60565b808452613324601f1991614074565b018160005b8281106134615750505061333d825161490e565b9160005b8151811015613437576133548183614343565b5161335f8287614343565b5261336a8186614343565b5061338d836133798385614343565b518160405193828580945193849201613b2f565b810160068152030190209060405180838682955493848152019060005286600020926000905b8881831061341d575050506133ca92500383613f60565b815191826133de575b506001915001613341565b6000198301928311613408576001926133f691614343565b516134018287614343565b52876133d3565b87634e487b7160e01b60005260116004526000fd5b6001929450829193865481520194019201859293916133b3565b61345485610559858760405194859460408652604086019061408b565b9184830390850152613fe3565b6060828288010152018290613329565b833583811161018957879161348c83928b3691870101613f9c565b8152019301926132f1565b3461018957600036600319011261018957600a80546000805b82811061385657506134c190614a32565b916000805b8381106134e3576040516020808252819061055990820188614017565b6134ef6128c882614940565b015416613501575b50506001016134c6565b9261384e9183946135166128fe600196614940565b916040519261352484613f0e565b6040516135358161023a8185614287565b845260405161354a8161023a818b8601614287565b602090818601526040516135658161023a8160028701614287565b604086015260405161357e8161023a8160038701614287565b60608601526040516135978161023a8160048701614287565b60808601526040516135b08161023a8160058701614287565b60a08601526040516135c98161023a8160068701614287565b60c08601526040516135e28161023a8160078701614287565b60e08601526040516135fb8161023a8160088701614287565b6101008601526040516136158161023a8160098701614287565b61012086015289820154610140860152600b820154610160860152600c820154610180860152600d8201546101a0860152600e8201546101c0860152600f8201546101e08601526010820154610200860152601182015461022086015260128201546102408601526013820154610260860152601482015461028086015260158201546102a086015260168201546102c086015260178201546102e086015260188201546103008601526019820154610320860152601a8201546103408601526040516136e98161023a81601b8701614287565b6103608601526040516137038161023a81601c8701614287565b61038086015260405161371d8161023a81601d8701614287565b6103a08601526040516137378161023a81601e8701614287565b6103c08601526040516137518161023a81601f8701614287565b6103e0860152810154610400850152602181015461042085015260228101546104408501526023810154610460850152602481015461048085015260258101546104a085015260268101546104c085015260278101546104e085015260288101546105008501526029810154610520850152602a810154610540850152602b8101546105608501526040516137ed8161023a81602c8601614287565b6105808501526040516138078161023a81602d8601614287565b6105a0850152602e8101546105c0850152602f8101546105e0850152603081015461060085015201541615156106208201526138438289614343565b526120c98188614343565b9190866134f7565b60ff60316138666128fe84614940565b015416613876575b6001016134b0565b90613882600191614a23565b91905061386e565b3461018957602080600319360112610189576004356001600160401b038111610189576138bb903690600401613f9c565b6138c7815115156148cf565b604051918151928181818501956138df818389613b2f565b81016006815203019020604051808284829454938481520190600052846000209260005b86828210613ad25750505061391a92500382613f60565b613924815161490e565b9161392f825161490e565b9482519161393f6130d284614074565b8382019690601f1901368837613955855161490e565b9560005b8651811015613a5b5761396c8188614343565b51600052600584528060ff6031898d6139f4858a6139e16040600020998a9660016040519461399a86613ef3565b895486526139b98a6139b26040518095819301614287565b0383613f60565b850152606060036139cd6002809b0161436d565b9d604087019e8f5201549401938452614343565b516139ec838c614343565b525192614343565b5287604051809281613a0a8d8c51928391613b2f565b8201908152030190200154161580613a43575b91600192613a2b838a614343565b90151590525151613a3c828b614343565b5201613959565b508751600019810192908311612c7e57918114613a1d565b5082613a7d9189898884613a8a8f604051988997608089526080890190613fe3565b9087820384890152613fe3565b918583036040870152519182815201929460005b828110613ab957858061055987878382036060850152613fe3565b8651151585529581019587955093810193600101613a9e565b8554845260019586019587955093019201613903565b3461018957602036600319011261018957613b21610559613b0a60043561440e565b604092919251938493604085526040850190613b77565b908382036020850152613e63565b60005b838110613b425750506000910152565b8181015183820152602001613b32565b90602091613b6b81518092818552858086019101613b2f565b601f01601f1916010190565b90613e32613e1e613d86613d72613d5e613d4a613d36613c67613c53613c3f613c2c8c60c0613c1c8e613c08613bf6613be4613bd2613bc0610640895190808852870190613b52565b60208901518682036020880152613b52565b60408801518582036040870152613b52565b60608701518482036060860152613b52565b60808601518382036080850152613b52565b9060a08501519060a0818403910152613b52565b9101518d820360c08f0152613b52565b60e08d01518c60e0818403910152613b52565b610100808d0151908c8303908d0152613b52565b610120808c0151908b8303908c0152613b52565b610140808b0151908a0152610160808b0151908a0152610180808b0151908a01526101a0808b0151908a01526101c0808b0151908a01526101e0808b0151908a0152610200808b0151908a0152610220808b0151908a0152610240808b0151908a0152610260808b0151908a0152610280808b0151908a01526102a0808b0151908a01526102c0808b0151908a01526102e0808b0151908a0152610300808b0151908a0152610320808b0151908a0152610340808b0151908a0152610360808b0151908a8303908b0152613b52565b610380808a015190898303908a0152613b52565b6103a0808901519088830390890152613b52565b6103c0808801519087830390880152613b52565b6103e0808701519086830390870152613b52565b610400808601519085015261042080860151908501526104408086015190850152610460808601519085015261048080860151908501526104a080860151908501526104c080860151908501526104e080860151908501526105008086015190850152610520808601519085015261054080860151908501526105608086015190850152610580808601519085830390860152613b52565b6105a0808501519084830390850152613b52565b916105c080820151908301526105e08082015190830152610600808201519083015261062080910151151591015290565b908082519081815260208091019281808460051b8301019501936000915b848310613e915750505050505090565b9091929394958480613ee3600193601f198682030187528a51613ed0613ec06060835190808652850190613b52565b8583015184820387860152613b52565b9160408092015191818403910152613b52565b9801930193019194939290613e81565b608081019081106001600160401b03821117611a1557604052565b61064081019081106001600160401b03821117611a1557604052565b606081019081106001600160401b03821117611a1557604052565b604081019081106001600160401b03821117611a1557604052565b90601f801991011681019081106001600160401b03821117611a1557604052565b6001600160401b038111611a1557601f01601f191660200190565b81601f8201121561018957803590613fb382613f81565b92613fc16040519485613f60565b8284526020838301011161018957816000926020809301838601378301015290565b90815180825260208080930193019160005b828110614003575050505090565b835185529381019392810192600101613ff5565b90808251908181526020809101926020808460051b8301019501936000915b8483106140465750505050505090565b9091929394958480614064600193601f198682030187528a51613b77565b9801930193019194939290614036565b6001600160401b038111611a155760051b60200190565b90808251908181526020809101926020808460051b8301019501936000915b8483106140ba5750505050505090565b90919293949584806140d8600193601f198682030187528a51613b52565b98019301930191949392906140aa565b604051906140f582613f0e565b8161062060609182815282602082015282604082015282808201528260808201528260a08201528260c08201528260e08201528261010082015282610120820152600092836101408301528361016083015283610180830152836101a0830152836101c0830152836101e08301528361020083015283610220830152836102408301528361026083015283610280830152836102a0830152836102c0830152836102e08301528361030083015283610320830152836103408301528061036083015280610380830152806103a0830152806103c0830152806103e08301528361040083015283610420830152836104408301528361046083015283610480830152836104a0830152836104c0830152836104e083015283610500830152836105208301528361054083015283610560830152806105808301526105a0820152826105c0820152826105e0820152826106008201520152565b90600182811c9216801561427d575b602083101461426757565b634e487b7160e01b600052602260045260246000fd5b91607f169161425c565b8054600093926142968261424d565b918282526020936001916001811690816000146142fe57506001146142bd575b5050505050565b90939495506000929192528360002092846000945b8386106142ea575050505001019038808080806142b6565b8054858701830152940193859082016142d2565b60ff19168685015250505090151560051b0101915038808080806142b6565b6020614336918160405193828580945193849201613b2f565b8101600281520301902090565b80518210156143575760209160051b010190565b634e487b7160e01b600052603260045260246000fd5b90815461437981614074565b9260409361438985519182613f60565b82815280946020809201926000526020600020906000935b8585106143b057505050505050565b60038460019284516143c181613f2a565b85516143d18161023a818b614287565b815285516143e58161023a81898c01614287565b8382015285516143fc8161023a8160028c01614287565b868201528152019301940193916143a1565b61443e9061441a6140e8565b50600092818452600960209460098652604091614445838320845197888092614287565b0387613f60565b855115614893578661445f84519788815193849201613b2f565b8601958781600398600381520301902096875461447b81614074565b9861448886519a8b613f60565b818a528452818420849083808c015b84841061486e575050505050825b885181101561481f576144b8818a614343565b5188836144cd88519384815193849201613b2f565b82019184816004948581520301902061023a6145568951946144ee86613f0e565b8a516144fe8161023a8188614287565b86528a516145138161023a8160018901614287565b8887015261023a6145446002968d805190614534826139b2818d8d01614287565b8a01528d51928380928901614287565b60608701528a51928380928601614287565b60808401528960059189516145718161023a81878601614287565b60a086015289516145898161023a8160068601614287565b60c086015289516145a18161023a8160078601614287565b60e086015289516145b98161023a8160088601614287565b61010086015289516145d18161023a818c8601614287565b610120860152600a810154610140860152600b810154610160860152600c810154610180860152600d8101546101a0860152600e8101546101c0860152600f8101546101e08601526010810154610200860152601181015461022086015260128101546102408601526013810154610260860152601481015461028086015260158101546102a086015260168101546102c086015260178101546102e086015260188101546103008601526019810154610320860152601a81015461034086015289516146a58161023a81601b8601614287565b61036086015289516146be8161023a81601c8601614287565b61038086015289516146d78161023a81601d8601614287565b6103a086015289516146f08161023a81601e8601614287565b6103c086015289516147098161023a81601f8601614287565b6103e086015286810154610400860152602181015461042086015260228101546104408601526023810154610460860152602481015461048086015260258101546104a086015260268101546104c086015260278101546104e086015260288101546105008601526029810154610520860152602a810154610540860152602b81015461056086015289516147a58161023a81602c8601614287565b61058086015289516147be8161023a81602d8601614287565b6105a086015260ff6031602e83015492836105c0890152602f8101546105e08901526030810154610600890152015416151561062086015214614806575050506001016144a5565b945096985098505061481c95835252200161436d565b90565b845162461bcd60e51b815260048101839052602260248201527f4c6f616e207374617465206e6f7420666f756e6420666f722074686973205478604482015261125960f21b6064820152608490fd5b60019182918a516148838161023a8189614287565b8152019201920191908490614497565b825162461bcd60e51b8152600481018890526015602482015274151c985b9cd858dd1a5bdb881b9bdd08199bdd5b99605a1b6044820152606490fd5b156148d657565b60405162461bcd60e51b815260206004820152601060248201526f131bd85b881251081c995c5d5a5c995960821b6044820152606490fd5b9061491882614074565b6149256040519182613f60565b8281528092614936601f1991614074565b0190602036910137565b600a5481101561435757600a6000527fc65a7bb8d6351c1cf70c95a316cc6a92839c986682d98bc35f958f4883f9d2a80190600090565b80548210156143575760005260206000200190600090565b6040519081600082546149a18161424d565b93600191808316908115614a0757506001146149c9575b505060209250600281520301902090565b9091506000526020906020600020906000915b8583106149f35750505050602091810138806149b8565b8054878401528694509183019181016149dc565b92505050602093915060ff1916825280151502810138806149b8565b6000198114612c7e5760010190565b90614a3c82614074565b614a496040519182613f60565b8281528092614a5a601f1991614074565b019060005b828110614a6b57505050565b602090614a766140e8565b82828501015201614a5f565b81601f82011215610189578051614a9881613f81565b92614aa66040519485613f60565b818452602082840101116101895761481c9160208085019101613b2f565b6020818303126101895780516001600160401b039182821161018957019060e082840312610189576040519260e0840184811083821117611a155760405282518281116101895781614b17918501614a82565b845260208301518281116101895781614b31918501614a82565b602085015260408301518281116101895781614b4e918501614a82565b6040850152606083015191821161018957614b6a918301614a82565b60608301526080810151906001600160a01b03821682036101895760c091608084015260a081015160a0840152015180151581036101895760c082015290565b15614bb157565b60405162461bcd60e51b815260206004820152600f60248201526e55736572206e6f742061637469766560881b6044820152606490fd5b60405190614bf582613f45565b600882526737b832b930ba37b960c11b6020830152565b60405190614c1982613f45565b600582526430b236b4b760d91b6020830152565b15614c3457565b60405162461bcd60e51b815260206004820152602960248201527f4e6f7420617574686f72697a65643a206d757374206265206f70657261746f726044820152681037b91030b236b4b760b91b6064820152608490fd5b818110614c96575050565b60008155600101614c8b565b9190601f8111614cb157505050565b614cdd926000526020600020906020601f840160051c83019310614cdf575b601f0160051c0190614c8b565b565b9091508190614cd0565b91909182516001600160401b038111611a1557614d1081614d0a845461424d565b84614ca2565b602080601f8311600114614d5357508190614d44939495600092614d48575b50508160011b916000199060031b1c19161790565b9055565b015190503880614d2f565b90601f19831695846000526020600020926000905b888210614da057505083600195969710614d87575b505050811b019055565b015160001960f88460031b161c19169055388080614d7d565b80600185968294968601518155019501930190614d68565b614dc2815461424d565b9081614dcc575050565b81601f60009311600114614dde575055565b908083918252614dfd601f60208420940160051c840160018501614c8b565b5555565b906119ff57614dc2815461424d565b8054600160401b811015611a1557614e2d91600182018155614977565b819291549060031b91821b91600019901b1916179055565b614e5d90602060405192828480945193849201613b2f565b810103902090565b8054600160401b811015611a1557614e8291600182018155614977565b9190916119ff57614cdd91614ce9565b6000546001600160a01b03163303614ea657565b60405163118cdaa760e01b8152336004820152602490fd5b90808214614f9857614ed0815461424d565b906001600160401b038211611a1557614ef382614eed855461424d565b85614ca2565b600090601f8311600114614f2e57614d44929160009183614f235750508160011b916000199060031b1c19161790565b015490503880614d2f565b815260208082208483528183209291601f1985169083905b828210614f7f575050908460019594939210614f6657505050811b019055565b015460001960f88460031b161c19169055388080614d7d565b8495819295850154815560018091019601940190614f46565b5050565b91906119ff57614cdd91614ebe565b604080516020818451614fc2818385809901613b2f565b810160078152030190209160005b83548082101561506c5761023a614ff6614fea8488614977565b50865192838092614287565b838151910120865184880120146150105750600101614fd0565b92509293505060001991828201918211612c7e576126a561503461503c9386614977565b509185614977565b815480156150565701906150536126d48383614977565b55565b634e487b7160e01b600052603160045260246000fd5b505050505050565b801561513e579060009082805b615124575061508f82613f81565b9161509d6040519384613f60565b808352601f196150ac82613f81565b013660208501375b80841561511d576000198201918211612c7e578194600a9283820493808502908582041485151715612c7e578203918211612c7e5760ff809216603001918211612c7e57855111156143575760f81b6001600160f81b03191660001a908401601f0153926150b4565b5050915090565b91615133600a91949294614a23565b920480939193615081565b5060405161514b81613f45565b60018152600360fc1b602082015290565b908154600160401b811015611a155760018101808455811015614357576040600291614cdd94600052600360206000209102019261519b815185614ce9565b6151ac602082015160018601614ce9565b01519101614ce956fea164736f6c6343000818000a",
  "linkReferences": {},
  "deployedLinkReferences": {}
}