{
  "_format": "hh-sol-artifact-1",
  "contractName": "LoanRegistry",
  "sourceName": "src/LoanRegistry.sol",
  "abi": [
    {
      "inputs": [
        {
          "internalType": "address",
          "name": "initialOwner",
          "type": "address"
        },
        {
          "internalType": "address",
          "name": "userRegistryAddress",
          "type": "address"
        }
      ],
      "stateMutability": "nonpayable",
      "type": "constructor"
    },
    {
      "inputs": [
        {
          "internalType": "address",
          "name": "owner",
          "type": "address"
        }
      ],
      "name": "OwnableInvalidOwner",
      "type": "error"
    },
    {
      "inputs": [
        {
          "internalType": "address",
          "name": "account",
          "type": "address"
        }
      ],
      "name": "OwnableUnauthorizedAccount",
      "type": "error"
    },
    {
      "anonymous": false,
      "inputs": [
        {
          "indexed": true,
          "internalType": "string",
          "name": "loanId",
          "type": "string"
        },
        {
          "indexed": false,
          "internalType": "uint256",
          "name": "tokenId",
          "type": "uint256"
        },
        {
          "indexed": false,
          "internalType": "uint256",
          "name": "timestamp",
          "type": "uint256"
        }
      ],
      "name": "AvalancheTokenIdSet",
      "type": "event"
    },
    {
      "anonymous": false,
      "inputs": [
        {
          "indexed": true,
          "internalType": "string",
          "name": "loanId",
          "type": "string"
        },
        {
          "indexed": true,
          "internalType": "string",
          "name": "userId",
          "type": "string"
        },
        {
          "indexed": false,
          "internalType": "bytes32",
          "name": "txId",
          "type": "bytes32"
        },
        {
          "indexed": false,
          "internalType": "uint256",
          "name": "timestamp",
          "type": "uint256"
        }
      ],
      "name": "LoanCreated",
      "type": "event"
    },
    {
      "anonymous": false,
      "inputs": [
        {
          "indexed": true,
          "internalType": "string",
          "name": "loanId",
          "type": "string"
        },
        {
          "indexed": false,
          "internalType": "bytes32",
          "name": "txId",
          "type": "bytes32"
        }
      ],
      "name": "LoanDeleted",
      "type": "event"
    },
    {
      "anonymous": false,
      "inputs": [
        {
          "indexed": true,
          "internalType": "string",
          "name": "loanId",
          "type": "string"
        },
        {
          "indexed": false,
          "internalType": "uint256",
          "name": "timestamp",
          "type": "uint256"
        }
      ],
      "name": "LoanLocked",
      "type": "event"
    },
    {
      "anonymous": false,
      "inputs": [
        {
          "indexed": true,
          "internalType": "string",
          "name": "loanId",
          "type": "string"
        },
        {
          "indexed": false,
          "internalType": "uint256",
          "name": "timestamp",
          "type": "uint256"
        }
      ],
      "name": "LoanUnlocked",
      "type": "event"
    },
    {
      "anonymous": false,
      "inputs": [
        {
          "indexed": true,
          "internalType": "string",
          "name": "loanId",
          "type": "string"
        },
        {
          "indexed": false,
          "internalType": "bytes32",
          "name": "txId",
          "type": "bytes32"
        },
        {
          "indexed": false,
          "internalType": "uint256",
          "name": "changeCount",
          "type": "uint256"
        }
      ],
      "name": "LoanUpdated",
      "type": "event"
    },
    {
      "anonymous": false,
      "inputs": [
        {
          "indexed": true,
          "internalType": "string",
          "name": "loanId",
          "type": "string"
        },
        {
          "indexed": false,
          "internalType": "uint256",
          "name": "newBalance",
          "type": "uint256"
        },
        {
          "indexed": false,
          "internalType": "string",
          "name": "newStatus",
          "type": "string"
        },
        {
          "indexed": false,
          "internalType": "uint256",
          "name": "timestamp",
          "type": "uint256"
        }
      ],
      "name": "LockedLoanUpdated",
      "type": "event"
    },
    {
      "anonymous": false,
      "inputs": [
        {
          "indexed": true,
          "internalType": "address",
          "name": "previousOwner",
          "type": "address"
        },
        {
          "indexed": true,
          "internalType": "address",
          "name": "newOwner",
          "type": "address"
        }
      ],
      "name": "OwnershipTransferred",
      "type": "event"
    },
    {
      "inputs": [
        {
          "internalType": "string",
          "name": "_ID",
          "type": "string"
        },
        {
          "internalType": "string",
          "name": "_UserID",
          "type": "string"
        },
        {
          "internalType": "string",
          "name": "_Borrower_FullName",
          "type": "string"
        },
        {
          "internalType": "string",
          "name": "_Borrower_Home_Phone",
          "type": "string"
        },
        {
          "internalType": "string",
          "name": "_Borrower_Property_Address",
          "type": "string"
        },
        {
          "internalType": "string",
          "name": "_Borrower_State",
          "type": "string"
        },
        {
          "internalType": "string",
          "name": "_Borrower_Zip",
          "type": "string"
        },
        {
          "internalType": "string",
          "name": "_Borrower_City",
          "type": "string"
        },
        {
          "internalType": "string",
          "name": "_Borrower_Email",
          "type": "string"
        },
        {
          "internalType": "string",
          "name": "_Borrower_Occupancy_Status",
          "type": "string"
        },
        {
          "internalType": "uint256",
          "name": "_Current_Principal_Bal",
          "type": "uint256"
        },
        {
          "internalType": "uint256",
          "name": "_Restricted_Funds",
          "type": "uint256"
        },
        {
          "internalType": "uint256",
          "name": "_Suspense_Balance",
          "type": "uint256"
        },
        {
          "internalType": "uint256",
          "name": "_Escrow_Balance",
          "type": "uint256"
        },
        {
          "internalType": "uint256",
          "name": "_Total_In_Trust",
          "type": "uint256"
        },
        {
          "internalType": "uint256",
          "name": "_Note_Rate",
          "type": "uint256"
        },
        {
          "internalType": "uint256",
          "name": "_Sold_Rate",
          "type": "uint256"
        },
        {
          "internalType": "uint256",
          "name": "_Default_Rate",
          "type": "uint256"
        },
        {
          "internalType": "uint256",
          "name": "_Unpaid_Interest",
          "type": "uint256"
        },
        {
          "internalType": "uint256",
          "name": "_Unpaid_Fees",
          "type": "uint256"
        },
        {
          "internalType": "uint256",
          "name": "_Late_Fees_Amount",
          "type": "uint256"
        },
        {
          "internalType": "uint256",
          "name": "_Unpaid_Late_Fees",
          "type": "uint256"
        },
        {
          "internalType": "uint256",
          "name": "_Accrued_Late_fees",
          "type": "uint256"
        },
        {
          "internalType": "uint256",
          "name": "_Unpaid_Loan_Charges",
          "type": "uint256"
        },
        {
          "internalType": "uint256",
          "name": "_Deferred_Princ_Balance",
          "type": "uint256"
        },
        {
          "internalType": "uint256",
          "name": "_Deferred_Unp_Charges",
          "type": "uint256"
        },
        {
          "internalType": "uint256",
          "name": "_Original_Loan_Amount",
          "type": "uint256"
        },
        {
          "internalType": "string",
          "name": "_Origination_Date",
          "type": "string"
        },
        {
          "internalType": "string",
          "name": "_Next_Payment_Due",
          "type": "string"
        },
        {
          "internalType": "string",
          "name": "_Loan_Maturity_Date",
          "type": "string"
        },
        {
          "internalType": "string",
          "name": "_Last_Payment_Rec",
          "type": "string"
        },
        {
          "internalType": "string",
          "name": "_Interest_Paid_To",
          "type": "string"
        },
        {
          "internalType": "uint256",
          "name": "_Deferred_Unpaid_Int",
          "type": "uint256"
        },
        {
          "internalType": "uint256",
          "name": "_FCI_Restricted_Principal",
          "type": "uint256"
        },
        {
          "internalType": "uint256",
          "name": "_FCI_Restricted_Interest",
          "type": "uint256"
        },
        {
          "internalType": "uint256",
          "name": "_Pymt_Grace_Days",
          "type": "uint256"
        },
        {
          "internalType": "uint256",
          "name": "_Days_Since_Last_Pymt",
          "type": "uint256"
        },
        {
          "internalType": "uint256",
          "name": "_Num_Of_Pymts_Due",
          "type": "uint256"
        },
        {
          "internalType": "uint256",
          "name": "_Scheduled_Payment",
          "type": "uint256"
        },
        {
          "internalType": "uint256",
          "name": "_Promises_To_Pay",
          "type": "uint256"
        },
        {
          "internalType": "uint256",
          "name": "_NFS_In_Last_12_Months",
          "type": "uint256"
        },
        {
          "internalType": "uint256",
          "name": "_Deferred_Late_Fees",
          "type": "uint256"
        },
        {
          "internalType": "uint256",
          "name": "_Investor_Restricted_Principal",
          "type": "uint256"
        },
        {
          "internalType": "uint256",
          "name": "_Investor_Restricted_Interest",
          "type": "uint256"
        },
        {
          "internalType": "string",
          "name": "_Status",
          "type": "string"
        },
        {
          "internalType": "string",
          "name": "_LUid",
          "type": "string"
        }
      ],
      "name": "createLoan",
      "outputs": [
        {
          "internalType": "bytes32",
          "name": "",
          "type": "bytes32"
        }
      ],
      "stateMutability": "nonpayable",
      "type": "function"
    },
    {
      "inputs": [
        {
          "internalType": "string",
          "name": "loanId",
          "type": "string"
        }
      ],
      "name": "deleteLoan",
      "outputs": [
        {
          "internalType": "bytes32",
          "name": "",
          "type": "bytes32"
        }
      ],
      "stateMutability": "nonpayable",
      "type": "function"
    },
    {
      "inputs": [
        {
          "internalType": "string",
          "name": "loanUid",
          "type": "string"
        }
      ],
      "name": "findLoanByLoanUid",
      "outputs": [
        {
          "components": [
            {
              "internalType": "string",
              "name": "ID",
              "type": "string"
            },
            {
              "internalType": "string",
              "name": "UserID",
              "type": "string"
            },
            {
              "internalType": "string",
              "name": "BorrowerFullName",
              "type": "string"
            },
            {
              "internalType": "string",
              "name": "BorrowerHomePhone",
              "type": "string"
            },
            {
              "internalType": "string",
              "name": "BorrowerPropertyAddress",
              "type": "string"
            },
            {
              "internalType": "string",
              "name": "BorrowerState",
              "type": "string"
            },
            {
              "internalType": "string",
              "name": "BorrowerZip",
              "type": "string"
            },
            {
              "internalType": "string",
              "name": "BorrowerCity",
              "type": "string"
            },
            {
              "internalType": "string",
              "name": "BorrowerEmail",
              "type": "string"
            },
            {
              "internalType": "string",
              "name": "BorrowerOccupancyStatus",
              "type": "string"
            },
            {
              "internalType": "uint256",
              "name": "CurrentPrincipalBal",
              "type": "uint256"
            },
            {
              "internalType": "uint256",
              "name": "RestrictedFunds",
              "type": "uint256"
            },
            {
              "internalType": "uint256",
              "name": "SuspenseBalance",
              "type": "uint256"
            },
            {
              "internalType": "uint256",
              "name": "EscrowBalance",
              "type": "uint256"
            },
            {
              "internalType": "uint256",
              "name": "TotalInTrust",
              "type": "uint256"
            },
            {
              "internalType": "uint256",
              "name": "NoteRate",
              "type": "uint256"
            },
            {
              "internalType": "uint256",
              "name": "SoldRate",
              "type": "uint256"
            },
            {
              "internalType": "uint256",
              "name": "DefaultRate",
              "type": "uint256"
            },
            {
              "internalType": "uint256",
              "name": "UnpaidInterest",
              "type": "uint256"
            },
            {
              "internalType": "uint256",
              "name": "UnpaidFees",
              "type": "uint256"
            },
            {
              "internalType": "uint256",
              "name": "LateFeesAmount",
              "type": "uint256"
            },
            {
              "internalType": "uint256",
              "name": "UnpaidLateFees",
              "type": "uint256"
            },
            {
              "internalType": "uint256",
              "name": "AccruedLateFees",
              "type": "uint256"
            },
            {
              "internalType": "uint256",
              "name": "UnpaidLoanCharges",
              "type": "uint256"
            },
            {
              "internalType": "uint256",
              "name": "DeferredPrincBalance",
              "type": "uint256"
            },
            {
              "internalType": "uint256",
              "name": "DeferredUnpCharges",
              "type": "uint256"
            },
            {
              "internalType": "uint256",
              "name": "OriginalLoanAmount",
              "type": "uint256"
            },
            {
              "internalType": "string",
              "name": "OriginationDate",
              "type": "string"
            },
            {
              "internalType": "string",
              "name": "NextPaymentDue",
              "type": "string"
            },
            {
              "internalType": "string",
              "name": "LoanMaturityDate",
              "type": "string"
            },
            {
              "internalType": "string",
              "name": "LastPaymentRec",
              "type": "string"
            },
            {
              "internalType": "string",
              "name": "InterestPaidTo",
              "type": "string"
            },
            {
              "internalType": "uint256",
              "name": "DeferredUnpaidInt",
              "type": "uint256"
            },
            {
              "internalType": "uint256",
              "name": "FCIRestrictedPrincipal",
              "type": "uint256"
            },
            {
              "internalType": "uint256",
              "name": "FCIRestrictedInterest",
              "type": "uint256"
            },
            {
              "internalType": "uint256",
              "name": "PymtGraceDays",
              "type": "uint256"
            },
            {
              "internalType": "uint256",
              "name": "DaysSinceLastPymt",
              "type": "uint256"
            },
            {
              "internalType": "uint256",
              "name": "NumOfPymtsDue",
              "type": "uint256"
            },
            {
              "internalType": "uint256",
              "name": "ScheduledPayment",
              "type": "uint256"
            },
            {
              "internalType": "uint256",
              "name": "PromisesToPay",
              "type": "uint256"
            },
            {
              "internalType": "uint256",
              "name": "NFSInLast12Months",
              "type": "uint256"
            },
            {
              "internalType": "uint256",
              "name": "DeferredLateFees",
              "type": "uint256"
            },
            {
              "internalType": "uint256",
              "name": "InvestorRestrictedPrincipal",
              "type": "uint256"
            },
            {
              "internalType": "uint256",
              "name": "InvestorRestrictedInterest",
              "type": "uint256"
            },
            {
              "internalType": "string",
              "name": "Status",
              "type": "string"
            },
            {
              "internalType": "string",
              "name": "LUid",
              "type": "string"
            },
            {
              "internalType": "bytes32",
              "name": "TxId",
              "type": "bytes32"
            },
            {
              "internalType": "uint256",
              "name": "BLOCKAUDITCreationAt",
              "type": "uint256"
            },
            {
              "internalType": "uint256",
              "name": "BLOCKAUDITUpdatedAt",
              "type": "uint256"
            },
            {
              "internalType": "bool",
              "name": "exists",
              "type": "bool"
            },
            {
              "internalType": "uint256",
              "name": "avalancheTokenId",
              "type": "uint256"
            },
            {
              "internalType": "uint256",
              "name": "lastSyncTimestamp",
              "type": "uint256"
            },
            {
              "internalType": "bool",
              "name": "isLocked",
              "type": "bool"
            }
          ],
          "internalType": "struct LoanRegistry.Loan",
          "name": "",
          "type": "tuple"
        }
      ],
      "stateMutability": "view",
      "type": "function"
    },
    {
      "inputs": [
        {
          "internalType": "string",
          "name": "userId",
          "type": "string"
        }
      ],
      "name": "findLoansByUserId",
      "outputs": [
        {
          "components": [
            {
              "internalType": "string",
              "name": "ID",
              "type": "string"
            },
            {
              "internalType": "string",
              "name": "UserID",
              "type": "string"
            },
            {
              "internalType": "string",
              "name": "BorrowerFullName",
              "type": "string"
            },
            {
              "internalType": "string",
              "name": "BorrowerHomePhone",
              "type": "string"
            },
            {
              "internalType": "string",
              "name": "BorrowerPropertyAddress",
              "type": "string"
            },
            {
              "internalType": "string",
              "name": "BorrowerState",
              "type": "string"
            },
            {
              "internalType": "string",
              "name": "BorrowerZip",
              "type": "string"
            },
            {
              "internalType": "string",
              "name": "BorrowerCity",
              "type": "string"
            },
            {
              "internalType": "string",
              "name": "BorrowerEmail",
              "type": "string"
            },
            {
              "internalType": "string",
              "name": "BorrowerOccupancyStatus",
              "type": "string"
            },
            {
              "internalType": "uint256",
              "name": "CurrentPrincipalBal",
              "type": "uint256"
            },
            {
              "internalType": "uint256",
              "name": "RestrictedFunds",
              "type": "uint256"
            },
            {
              "internalType": "uint256",
              "name": "SuspenseBalance",
              "type": "uint256"
            },
            {
              "internalType": "uint256",
              "name": "EscrowBalance",
              "type": "uint256"
            },
            {
              "internalType": "uint256",
              "name": "TotalInTrust",
              "type": "uint256"
            },
            {
              "internalType": "uint256",
              "name": "NoteRate",
              "type": "uint256"
            },
            {
              "internalType": "uint256",
              "name": "SoldRate",
              "type": "uint256"
            },
            {
              "internalType": "uint256",
              "name": "DefaultRate",
              "type": "uint256"
            },
            {
              "internalType": "uint256",
              "name": "UnpaidInterest",
              "type": "uint256"
            },
            {
              "internalType": "uint256",
              "name": "UnpaidFees",
              "type": "uint256"
            },
            {
              "internalType": "uint256",
              "name": "LateFeesAmount",
              "type": "uint256"
            },
            {
              "internalType": "uint256",
              "name": "UnpaidLateFees",
              "type": "uint256"
            },
            {
              "internalType": "uint256",
              "name": "AccruedLateFees",
              "type": "uint256"
            },
            {
              "internalType": "uint256",
              "name": "UnpaidLoanCharges",
              "type": "uint256"
            },
            {
              "internalType": "uint256",
              "name": "DeferredPrincBalance",
              "type": "uint256"
            },
            {
              "internalType": "uint256",
              "name": "DeferredUnpCharges",
              "type": "uint256"
            },
            {
              "internalType": "uint256",
              "name": "OriginalLoanAmount",
              "type": "uint256"
            },
            {
              "internalType": "string",
              "name": "OriginationDate",
              "type": "string"
            },
            {
              "internalType": "string",
              "name": "NextPaymentDue",
              "type": "string"
            },
            {
              "internalType": "string",
              "name": "LoanMaturityDate",
              "type": "string"
            },
            {
              "internalType": "string",
              "name": "LastPaymentRec",
              "type": "string"
            },
            {
              "internalType": "string",
              "name": "InterestPaidTo",
              "type": "string"
            },
            {
              "internalType": "uint256",
              "name": "DeferredUnpaidInt",
              "type": "uint256"
            },
            {
              "internalType": "uint256",
              "name": "FCIRestrictedPrincipal",
              "type": "uint256"
            },
            {
              "internalType": "uint256",
              "name": "FCIRestrictedInterest",
              "type": "uint256"
            },
            {
              "internalType": "uint256",
              "name": "PymtGraceDays",
              "type": "uint256"
            },
            {
              "internalType": "uint256",
              "name": "DaysSinceLastPymt",
              "type": "uint256"
            },
            {
              "internalType": "uint256",
              "name": "NumOfPymtsDue",
              "type": "uint256"
            },
            {
              "internalType": "uint256",
              "name": "ScheduledPayment",
              "type": "uint256"
            },
            {
              "internalType": "uint256",
              "name": "PromisesToPay",
              "type": "uint256"
            },
            {
              "internalType": "uint256",
              "name": "NFSInLast12Months",
              "type": "uint256"
            },
            {
              "internalType": "uint256",
              "name": "DeferredLateFees",
              "type": "uint256"
            },
            {
              "internalType": "uint256",
              "name": "InvestorRestrictedPrincipal",
              "type": "uint256"
            },
            {
              "internalType": "uint256",
              "name": "InvestorRestrictedInterest",
              "type": "uint256"
            },
            {
              "internalType": "string",
              "name": "Status",
              "type": "string"
            },
            {
              "internalType": "string",
              "name": "LUid",
              "type": "string"
            },
            {
              "internalType": "bytes32",
              "name": "TxId",
              "type": "bytes32"
            },
            {
              "internalType": "uint256",
              "name": "BLOCKAUDITCreationAt",
              "type": "uint256"
            },
            {
              "internalType": "uint256",
              "name": "BLOCKAUDITUpdatedAt",
              "type": "uint256"
            },
            {
              "internalType": "bool",
              "name": "exists",
              "type": "bool"
            },
            {
              "internalType": "uint256",
              "name": "avalancheTokenId",
              "type": "uint256"
            },
            {
              "internalType": "uint256",
              "name": "lastSyncTimestamp",
              "type": "uint256"
            },
            {
              "internalType": "bool",
              "name": "isLocked",
              "type": "bool"
            }
          ],
          "internalType": "struct LoanRegistry.Loan[]",
          "name": "",
          "type": "tuple[]"
        }
      ],
      "stateMutability": "view",
      "type": "function"
    },
    {
      "inputs": [
        {
          "internalType": "bytes32",
          "name": "txId",
          "type": "bytes32"
        }
      ],
      "name": "getActivityChanges",
      "outputs": [
        {
          "components": [
            {
              "internalType": "string",
              "name": "PropertyName",
              "type": "string"
            },
            {
              "internalType": "string",
              "name": "OldValue",
              "type": "string"
            },
            {
              "internalType": "string",
              "name": "NewValue",
              "type": "string"
            }
          ],
          "internalType": "struct LoanRegistry.Change[]",
          "name": "",
          "type": "tuple[]"
        }
      ],
      "stateMutability": "view",
      "type": "function"
    },
    {
      "inputs": [],
      "name": "getAllLoanIds",
      "outputs": [
        {
          "internalType": "string[]",
          "name": "",
          "type": "string[]"
        }
      ],
      "stateMutability": "view",
      "type": "function"
    },
    {
      "inputs": [
        {
          "internalType": "string",
          "name": "loanId",
          "type": "string"
        }
      ],
      "name": "getAvalancheTokenId",
      "outputs": [
        {
          "internalType": "uint256",
          "name": "",
          "type": "uint256"
        }
      ],
      "stateMutability": "view",
      "type": "function"
    },
    {
      "inputs": [
        {
          "internalType": "string",
          "name": "loanId",
          "type": "string"
        }
      ],
      "name": "getCurrentTransactionByLoan",
      "outputs": [
        {
          "internalType": "bytes32",
          "name": "",
          "type": "bytes32"
        }
      ],
      "stateMutability": "view",
      "type": "function"
    },
    {
      "inputs": [
        {
          "internalType": "string[]",
          "name": "loanIds",
          "type": "string[]"
        }
      ],
      "name": "getLastTransactionsByLoans",
      "outputs": [
        {
          "internalType": "string[]",
          "name": "ids",
          "type": "string[]"
        },
        {
          "internalType": "bytes32[]",
          "name": "txIds",
          "type": "bytes32[]"
        }
      ],
      "stateMutability": "view",
      "type": "function"
    },
    {
      "inputs": [
        {
          "internalType": "bytes32",
          "name": "txId",
          "type": "bytes32"
        }
      ],
      "name": "getLoanByTxId",
      "outputs": [
        {
          "components": [
            {
              "internalType": "string",
              "name": "ID",
              "type": "string"
            },
            {
              "internalType": "string",
              "name": "UserID",
              "type": "string"
            },
            {
              "internalType": "string",
              "name": "BorrowerFullName",
              "type": "string"
            },
            {
              "internalType": "string",
              "name": "BorrowerHomePhone",
              "type": "string"
            },
            {
              "internalType": "string",
              "name": "BorrowerPropertyAddress",
              "type": "string"
            },
            {
              "internalType": "string",
              "name": "BorrowerState",
              "type": "string"
            },
            {
              "internalType": "string",
              "name": "BorrowerZip",
              "type": "string"
            },
            {
              "internalType": "string",
              "name": "BorrowerCity",
              "type": "string"
            },
            {
              "internalType": "string",
              "name": "BorrowerEmail",
              "type": "string"
            },
            {
              "internalType": "string",
              "name": "BorrowerOccupancyStatus",
              "type": "string"
            },
            {
              "internalType": "uint256",
              "name": "CurrentPrincipalBal",
              "type": "uint256"
            },
            {
              "internalType": "uint256",
              "name": "RestrictedFunds",
              "type": "uint256"
            },
            {
              "internalType": "uint256",
              "name": "SuspenseBalance",
              "type": "uint256"
            },
            {
              "internalType": "uint256",
              "name": "EscrowBalance",
              "type": "uint256"
            },
            {
              "internalType": "uint256",
              "name": "TotalInTrust",
              "type": "uint256"
            },
            {
              "internalType": "uint256",
              "name": "NoteRate",
              "type": "uint256"
            },
            {
              "internalType": "uint256",
              "name": "SoldRate",
              "type": "uint256"
            },
            {
              "internalType": "uint256",
              "name": "DefaultRate",
              "type": "uint256"
            },
            {
              "internalType": "uint256",
              "name": "UnpaidInterest",
              "type": "uint256"
            },
            {
              "internalType": "uint256",
              "name": "UnpaidFees",
              "type": "uint256"
            },
            {
              "internalType": "uint256",
              "name": "LateFeesAmount",
              "type": "uint256"
            },
            {
              "internalType": "uint256",
              "name": "UnpaidLateFees",
              "type": "uint256"
            },
            {
              "internalType": "uint256",
              "name": "AccruedLateFees",
              "type": "uint256"
            },
            {
              "internalType": "uint256",
              "name": "UnpaidLoanCharges",
              "type": "uint256"
            },
            {
              "internalType": "uint256",
              "name": "DeferredPrincBalance",
              "type": "uint256"
            },
            {
              "internalType": "uint256",
              "name": "DeferredUnpCharges",
              "type": "uint256"
            },
            {
              "internalType": "uint256",
              "name": "OriginalLoanAmount",
              "type": "uint256"
            },
            {
              "internalType": "string",
              "name": "OriginationDate",
              "type": "string"
            },
            {
              "internalType": "string",
              "name": "NextPaymentDue",
              "type": "string"
            },
            {
              "internalType": "string",
              "name": "LoanMaturityDate",
              "type": "string"
            },
            {
              "internalType": "string",
              "name": "LastPaymentRec",
              "type": "string"
            },
            {
              "internalType": "string",
              "name": "InterestPaidTo",
              "type": "string"
            },
            {
              "internalType": "uint256",
              "name": "DeferredUnpaidInt",
              "type": "uint256"
            },
            {
              "internalType": "uint256",
              "name": "FCIRestrictedPrincipal",
              "type": "uint256"
            },
            {
              "internalType": "uint256",
              "name": "FCIRestrictedInterest",
              "type": "uint256"
            },
            {
              "internalType": "uint256",
              "name": "PymtGraceDays",
              "type": "uint256"
            },
            {
              "internalType": "uint256",
              "name": "DaysSinceLastPymt",
              "type": "uint256"
            },
            {
              "internalType": "uint256",
              "name": "NumOfPymtsDue",
              "type": "uint256"
            },
            {
              "internalType": "uint256",
              "name": "ScheduledPayment",
              "type": "uint256"
            },
            {
              "internalType": "uint256",
              "name": "PromisesToPay",
              "type": "uint256"
            },
            {
              "internalType": "uint256",
              "name": "NFSInLast12Months",
              "type": "uint256"
            },
            {
              "internalType": "uint256",
              "name": "DeferredLateFees",
              "type": "uint256"
            },
            {
              "internalType": "uint256",
              "name": "InvestorRestrictedPrincipal",
              "type": "uint256"
            },
            {
              "internalType": "uint256",
              "name": "InvestorRestrictedInterest",
              "type": "uint256"
            },
            {
              "internalType": "string",
              "name": "Status",
              "type": "string"
            },
            {
              "internalType": "string",
              "name": "LUid",
              "type": "string"
            },
            {
              "internalType": "bytes32",
              "name": "TxId",
              "type": "bytes32"
            },
            {
              "internalType": "uint256",
              "name": "BLOCKAUDITCreationAt",
              "type": "uint256"
            },
            {
              "internalType": "uint256",
              "name": "BLOCKAUDITUpdatedAt",
              "type": "uint256"
            },
            {
              "internalType": "bool",
              "name": "exists",
              "type": "bool"
            },
            {
              "internalType": "uint256",
              "name": "avalancheTokenId",
              "type": "uint256"
            },
            {
              "internalType": "uint256",
              "name": "lastSyncTimestamp",
              "type": "uint256"
            },
            {
              "internalType": "bool",
              "name": "isLocked",
              "type": "bool"
            }
          ],
          "internalType": "struct LoanRegistry.Loan",
          "name": "loan",
          "type": "tuple"
        },
        {
          "components": [
            {
              "internalType": "string",
              "name": "PropertyName",
              "type": "string"
            },
            {
              "internalType": "string",
              "name": "OldValue",
              "type": "string"
            },
            {
              "internalType": "string",
              "name": "NewValue",
              "type": "string"
            }
          ],
          "internalType": "struct LoanRegistry.Change[]",
          "name": "changes",
          "type": "tuple[]"
        }
      ],
      "stateMutability": "view",
      "type": "function"
    },
    {
      "inputs": [
        {
          "internalType": "string",
          "name": "loanId",
          "type": "string"
        }
      ],
      "name": "getLoanHistory",
      "outputs": [
        {
          "components": [
            {
              "internalType": "bytes32",
              "name": "TxId",
              "type": "bytes32"
            },
            {
              "internalType": "uint256",
              "name": "Timestamp",
              "type": "uint256"
            },
            {
              "internalType": "bool",
              "name": "IsDelete",
              "type": "bool"
            }
          ],
          "internalType": "struct LoanRegistry.LoanHistoryEntry[]",
          "name": "",
          "type": "tuple[]"
        }
      ],
      "stateMutability": "view",
      "type": "function"
    },
    {
      "inputs": [
        {
          "internalType": "string",
          "name": "loanId",
          "type": "string"
        }
      ],
      "name": "getLoanHistoryWithChanges",
      "outputs": [
        {
          "internalType": "bytes32[]",
          "name": "txIds",
          "type": "bytes32[]"
        },
        {
          "internalType": "uint256[]",
          "name": "timestamps",
          "type": "uint256[]"
        },
        {
          "internalType": "bool[]",
          "name": "isDeletes",
          "type": "bool[]"
        },
        {
          "internalType": "uint256[]",
          "name": "changeCounts",
          "type": "uint256[]"
        }
      ],
      "stateMutability": "view",
      "type": "function"
    },
    {
      "inputs": [],
      "name": "getTotalLoansCount",
      "outputs": [
        {
          "internalType": "uint256",
          "name": "",
          "type": "uint256"
        }
      ],
      "stateMutability": "view",
      "type": "function"
    },
    {
      "inputs": [
        {
          "internalType": "string",
          "name": "loanId",
          "type": "string"
        }
      ],
      "name": "isLoanLocked",
      "outputs": [
        {
          "internalType": "bool",
          "name": "",
          "type": "bool"
        }
      ],
      "stateMutability": "view",
      "type": "function"
    },
    {
      "inputs": [
        {
          "internalType": "string",
          "name": "loanId",
          "type": "string"
        }
      ],
      "name": "isLoanTokenized",
      "outputs": [
        {
          "internalType": "bool",
          "name": "",
          "type": "bool"
        }
      ],
      "stateMutability": "view",
      "type": "function"
    },
    {
      "inputs": [
        {
          "internalType": "string",
          "name": "loanId",
          "type": "string"
        }
      ],
      "name": "loanExists",
      "outputs": [
        {
          "internalType": "bool",
          "name": "",
          "type": "bool"
        }
      ],
      "stateMutability": "view",
      "type": "function"
    },
    {
      "inputs": [
        {
          "internalType": "string",
          "name": "loanId",
          "type": "string"
        }
      ],
      "name": "lockLoan",
      "outputs": [
        {
          "internalType": "bool",
          "name": "",
          "type": "bool"
        }
      ],
      "stateMutability": "nonpayable",
      "type": "function"
    },
    {
      "inputs": [],
      "name": "marketplaceBridge",
      "outputs": [
        {
          "internalType": "address",
          "name": "",
          "type": "address"
        }
      ],
      "stateMutability": "view",
      "type": "function"
    },
    {
      "inputs": [],
      "name": "owner",
      "outputs": [
        {
          "internalType": "address",
          "name": "",
          "type": "address"
        }
      ],
      "stateMutability": "view",
      "type": "function"
    },
    {
      "inputs": [],
      "name": "queryAllLoans",
      "outputs": [
        {
          "components": [
            {
              "internalType": "string",
              "name": "ID",
              "type": "string"
            },
            {
              "internalType": "string",
              "name": "UserID",
              "type": "string"
            },
            {
              "internalType": "string",
              "name": "BorrowerFullName",
              "type": "string"
            },
            {
              "internalType": "string",
              "name": "BorrowerHomePhone",
              "type": "string"
            },
            {
              "internalType": "string",
              "name": "BorrowerPropertyAddress",
              "type": "string"
            },
            {
              "internalType": "string",
              "name": "BorrowerState",
              "type": "string"
            },
            {
              "internalType": "string",
              "name": "BorrowerZip",
              "type": "string"
            },
            {
              "internalType": "string",
              "name": "BorrowerCity",
              "type": "string"
            },
            {
              "internalType": "string",
              "name": "BorrowerEmail",
              "type": "string"
            },
            {
              "internalType": "string",
              "name": "BorrowerOccupancyStatus",
              "type": "string"
            },
            {
              "internalType": "uint256",
              "name": "CurrentPrincipalBal",
              "type": "uint256"
            },
            {
              "internalType": "uint256",
              "name": "RestrictedFunds",
              "type": "uint256"
            },
            {
              "internalType": "uint256",
              "name": "SuspenseBalance",
              "type": "uint256"
            },
            {
              "internalType": "uint256",
              "name": "EscrowBalance",
              "type": "uint256"
            },
            {
              "internalType": "uint256",
              "name": "TotalInTrust",
              "type": "uint256"
            },
            {
              "internalType": "uint256",
              "name": "NoteRate",
              "type": "uint256"
            },
            {
              "internalType": "uint256",
              "name": "SoldRate",
              "type": "uint256"
            },
            {
              "internalType": "uint256",
              "name": "DefaultRate",
              "type": "uint256"
            },
            {
              "internalType": "uint256",
              "name": "UnpaidInterest",
              "type": "uint256"
            },
            {
              "internalType": "uint256",
              "name": "UnpaidFees",
              "type": "uint256"
            },
            {
              "internalType": "uint256",
              "name": "LateFeesAmount",
              "type": "uint256"
            },
            {
              "internalType": "uint256",
              "name": "UnpaidLateFees",
              "type": "uint256"
            },
            {
              "internalType": "uint256",
              "name": "AccruedLateFees",
              "type": "uint256"
            },
            {
              "internalType": "uint256",
              "name": "UnpaidLoanCharges",
              "type": "uint256"
            },
            {
              "internalType": "uint256",
              "name": "DeferredPrincBalance",
              "type": "uint256"
            },
            {
              "internalType": "uint256",
              "name": "DeferredUnpCharges",
              "type": "uint256"
            },
            {
              "internalType": "uint256",
              "name": "OriginalLoanAmount",
              "type": "uint256"
            },
            {
              "internalType": "string",
              "name": "OriginationDate",
              "type": "string"
            },
            {
              "internalType": "string",
              "name": "NextPaymentDue",
              "type": "string"
            },
            {
              "internalType": "string",
              "name": "LoanMaturityDate",
              "type": "string"
            },
            {
              "internalType": "string",
              "name": "LastPaymentRec",
              "type": "string"
            },
            {
              "internalType": "string",
              "name": "InterestPaidTo",
              "type": "string"
            },
            {
              "internalType": "uint256",
              "name": "DeferredUnpaidInt",
              "type": "uint256"
            },
            {
              "internalType": "uint256",
              "name": "FCIRestrictedPrincipal",
              "type": "uint256"
            },
            {
              "internalType": "uint256",
              "name": "FCIRestrictedInterest",
              "type": "uint256"
            },
            {
              "internalType": "uint256",
              "name": "PymtGraceDays",
              "type": "uint256"
            },
            {
              "internalType": "uint256",
              "name": "DaysSinceLastPymt",
              "type": "uint256"
            },
            {
              "internalType": "uint256",
              "name": "NumOfPymtsDue",
              "type": "uint256"
            },
            {
              "internalType": "uint256",
              "name": "ScheduledPayment",
              "type": "uint256"
            },
            {
              "internalType": "uint256",
              "name": "PromisesToPay",
              "type": "uint256"
            },
            {
              "internalType": "uint256",
              "name": "NFSInLast12Months",
              "type": "uint256"
            },
            {
              "internalType": "uint256",
              "name": "DeferredLateFees",
              "type": "uint256"
            },
            {
              "internalType": "uint256",
              "name": "InvestorRestrictedPrincipal",
              "type": "uint256"
            },
            {
              "internalType": "uint256",
              "name": "InvestorRestrictedInterest",
              "type": "uint256"
            },
            {
              "internalType": "string",
              "name": "Status",
              "type": "string"
            },
            {
              "internalType": "string",
              "name": "LUid",
              "type": "string"
            },
            {
              "internalType": "bytes32",
              "name": "TxId",
              "type": "bytes32"
            },
            {
              "internalType": "uint256",
              "name": "BLOCKAUDITCreationAt",
              "type": "uint256"
            },
            {
              "internalType": "uint256",
              "name": "BLOCKAUDITUpdatedAt",
              "type": "uint256"
            },
            {
              "internalType": "bool",
              "name": "exists",
              "type": "bool"
            },
            {
              "internalType": "uint256",
              "name": "avalancheTokenId",
              "type": "uint256"
            },
            {
              "internalType": "uint256",
              "name": "lastSyncTimestamp",
              "type": "uint256"
            },
            {
              "internalType": "bool",
              "name": "isLocked",
              "type": "bool"
            }
          ],
          "internalType": "struct LoanRegistry.Loan[]",
          "name": "",
          "type": "tuple[]"
        }
      ],
      "stateMutability": "view",
      "type": "function"
    },
    {
      "inputs": [
        {
          "internalType": "uint256",
          "name": "offset",
          "type": "uint256"
        },
        {
          "internalType": "uint256",
          "name": "limit",
          "type": "uint256"
        }
      ],
      "name": "queryLoansPaginated",
      "outputs": [
        {
          "components": [
            {
              "internalType": "string",
              "name": "ID",
              "type": "string"
            },
            {
              "internalType": "string",
              "name": "UserID",
              "type": "string"
            },
            {
              "internalType": "string",
              "name": "BorrowerFullName",
              "type": "string"
            },
            {
              "internalType": "string",
              "name": "BorrowerHomePhone",
              "type": "string"
            },
            {
              "internalType": "string",
              "name": "BorrowerPropertyAddress",
              "type": "string"
            },
            {
              "internalType": "string",
              "name": "BorrowerState",
              "type": "string"
            },
            {
              "internalType": "string",
              "name": "BorrowerZip",
              "type": "string"
            },
            {
              "internalType": "string",
              "name": "BorrowerCity",
              "type": "string"
            },
            {
              "internalType": "string",
              "name": "BorrowerEmail",
              "type": "string"
            },
            {
              "internalType": "string",
              "name": "BorrowerOccupancyStatus",
              "type": "string"
            },
            {
              "internalType": "uint256",
              "name": "CurrentPrincipalBal",
              "type": "uint256"
            },
            {
              "internalType": "uint256",
              "name": "RestrictedFunds",
              "type": "uint256"
            },
            {
              "internalType": "uint256",
              "name": "SuspenseBalance",
              "type": "uint256"
            },
            {
              "internalType": "uint256",
              "name": "EscrowBalance",
              "type": "uint256"
            },
            {
              "internalType": "uint256",
              "name": "TotalInTrust",
              "type": "uint256"
            },
            {
              "internalType": "uint256",
              "name": "NoteRate",
              "type": "uint256"
            },
            {
              "internalType": "uint256",
              "name": "SoldRate",
              "type": "uint256"
            },
            {
              "internalType": "uint256",
              "name": "DefaultRate",
              "type": "uint256"
            },
            {
              "internalType": "uint256",
              "name": "UnpaidInterest",
              "type": "uint256"
            },
            {
              "internalType": "uint256",
              "name": "UnpaidFees",
              "type": "uint256"
            },
            {
              "internalType": "uint256",
              "name": "LateFeesAmount",
              "type": "uint256"
            },
            {
              "internalType": "uint256",
              "name": "UnpaidLateFees",
              "type": "uint256"
            },
            {
              "internalType": "uint256",
              "name": "AccruedLateFees",
              "type": "uint256"
            },
            {
              "internalType": "uint256",
              "name": "UnpaidLoanCharges",
              "type": "uint256"
            },
            {
              "internalType": "uint256",
              "name": "DeferredPrincBalance",
              "type": "uint256"
            },
            {
              "internalType": "uint256",
              "name": "DeferredUnpCharges",
              "type": "uint256"
            },
            {
              "internalType": "uint256",
              "name": "OriginalLoanAmount",
              "type": "uint256"
            },
            {
              "internalType": "string",
              "name": "OriginationDate",
              "type": "string"
            },
            {
              "internalType": "string",
              "name": "NextPaymentDue",
              "type": "string"
            },
            {
              "internalType": "string",
              "name": "LoanMaturityDate",
              "type": "string"
            },
            {
              "internalType": "string",
              "name": "LastPaymentRec",
              "type": "string"
            },
            {
              "internalType": "string",
              "name": "InterestPaidTo",
              "type": "string"
            },
            {
              "internalType": "uint256",
              "name": "DeferredUnpaidInt",
              "type": "uint256"
            },
            {
              "internalType": "uint256",
              "name": "FCIRestrictedPrincipal",
              "type": "uint256"
            },
            {
              "internalType": "uint256",
              "name": "FCIRestrictedInterest",
              "type": "uint256"
            },
            {
              "internalType": "uint256",
              "name": "PymtGraceDays",
              "type": "uint256"
            },
            {
              "internalType": "uint256",
              "name": "DaysSinceLastPymt",
              "type": "uint256"
            },
            {
              "internalType": "uint256",
              "name": "NumOfPymtsDue",
              "type": "uint256"
            },
            {
              "internalType": "uint256",
              "name": "ScheduledPayment",
              "type": "uint256"
            },
            {
              "internalType": "uint256",
              "name": "PromisesToPay",
              "type": "uint256"
            },
            {
              "internalType": "uint256",
              "name": "NFSInLast12Months",
              "type": "uint256"
            },
            {
              "internalType": "uint256",
              "name": "DeferredLateFees",
              "type": "uint256"
            },
            {
              "internalType": "uint256",
              "name": "InvestorRestrictedPrincipal",
              "type": "uint256"
            },
            {
              "internalType": "uint256",
              "name": "InvestorRestrictedInterest",
              "type": "uint256"
            },
            {
              "internalType": "string",
              "name": "Status",
              "type": "string"
            },
            {
              "internalType": "string",
              "name": "LUid",
              "type": "string"
            },
            {
              "internalType": "bytes32",
              "name": "TxId",
              "type": "bytes32"
            },
            {
              "internalType": "uint256",
              "name": "BLOCKAUDITCreationAt",
              "type": "uint256"
            },
            {
              "internalType": "uint256",
              "name": "BLOCKAUDITUpdatedAt",
              "type": "uint256"
            },
            {
              "internalType": "bool",
              "name": "exists",
              "type": "bool"
            },
            {
              "internalType": "uint256",
              "name": "avalancheTokenId",
              "type": "uint256"
            },
            {
              "internalType": "uint256",
              "name": "lastSyncTimestamp",
              "type": "uint256"
            },
            {
              "internalType": "bool",
              "name": "isLocked",
              "type": "bool"
            }
          ],
          "internalType": "struct LoanRegistry.Loan[]",
          "name": "loans_",
          "type": "tuple[]"
        },
        {
          "internalType": "uint256",
          "name": "total",
          "type": "uint256"
        },
        {
          "internalType": "uint256",
          "name": "returned",
          "type": "uint256"
        }
      ],
      "stateMutability": "view",
      "type": "function"
    },
    {
      "inputs": [
        {
          "internalType": "string",
          "name": "loanId",
          "type": "string"
        }
      ],
      "name": "readLoan",
      "outputs": [
        {
          "components": [
            {
              "internalType": "string",
              "name": "ID",
              "type": "string"
            },
            {
              "internalType": "string",
              "name": "UserID",
              "type": "string"
            },
            {
              "internalType": "string",
              "name": "BorrowerFullName",
              "type": "string"
            },
            {
              "internalType": "string",
              "name": "BorrowerHomePhone",
              "type": "string"
            },
            {
              "internalType": "string",
              "name": "BorrowerPropertyAddress",
              "type": "string"
            },
            {
              "internalType": "string",
              "name": "BorrowerState",
              "type": "string"
            },
            {
              "internalType": "string",
              "name": "BorrowerZip",
              "type": "string"
            },
            {
              "internalType": "string",
              "name": "BorrowerCity",
              "type": "string"
            },
            {
              "internalType": "string",
              "name": "BorrowerEmail",
              "type": "string"
            },
            {
              "internalType": "string",
              "name": "BorrowerOccupancyStatus",
              "type": "string"
            },
            {
              "internalType": "uint256",
              "name": "CurrentPrincipalBal",
              "type": "uint256"
            },
            {
              "internalType": "uint256",
              "name": "RestrictedFunds",
              "type": "uint256"
            },
            {
              "internalType": "uint256",
              "name": "SuspenseBalance",
              "type": "uint256"
            },
            {
              "internalType": "uint256",
              "name": "EscrowBalance",
              "type": "uint256"
            },
            {
              "internalType": "uint256",
              "name": "TotalInTrust",
              "type": "uint256"
            },
            {
              "internalType": "uint256",
              "name": "NoteRate",
              "type": "uint256"
            },
            {
              "internalType": "uint256",
              "name": "SoldRate",
              "type": "uint256"
            },
            {
              "internalType": "uint256",
              "name": "DefaultRate",
              "type": "uint256"
            },
            {
              "internalType": "uint256",
              "name": "UnpaidInterest",
              "type": "uint256"
            },
            {
              "internalType": "uint256",
              "name": "UnpaidFees",
              "type": "uint256"
            },
            {
              "internalType": "uint256",
              "name": "LateFeesAmount",
              "type": "uint256"
            },
            {
              "internalType": "uint256",
              "name": "UnpaidLateFees",
              "type": "uint256"
            },
            {
              "internalType": "uint256",
              "name": "AccruedLateFees",
              "type": "uint256"
            },
            {
              "internalType": "uint256",
              "name": "UnpaidLoanCharges",
              "type": "uint256"
            },
            {
              "internalType": "uint256",
              "name": "DeferredPrincBalance",
              "type": "uint256"
            },
            {
              "internalType": "uint256",
              "name": "DeferredUnpCharges",
              "type": "uint256"
            },
            {
              "internalType": "uint256",
              "name": "OriginalLoanAmount",
              "type": "uint256"
            },
            {
              "internalType": "string",
              "name": "OriginationDate",
              "type": "string"
            },
            {
              "internalType": "string",
              "name": "NextPaymentDue",
              "type": "string"
            },
            {
              "internalType": "string",
              "name": "LoanMaturityDate",
              "type": "string"
            },
            {
              "internalType": "string",
              "name": "LastPaymentRec",
              "type": "string"
            },
            {
              "internalType": "string",
              "name": "InterestPaidTo",
              "type": "string"
            },
            {
              "internalType": "uint256",
              "name": "DeferredUnpaidInt",
              "type": "uint256"
            },
            {
              "internalType": "uint256",
              "name": "FCIRestrictedPrincipal",
              "type": "uint256"
            },
            {
              "internalType": "uint256",
              "name": "FCIRestrictedInterest",
              "type": "uint256"
            },
            {
              "internalType": "uint256",
              "name": "PymtGraceDays",
              "type": "uint256"
            },
            {
              "internalType": "uint256",
              "name": "DaysSinceLastPymt",
              "type": "uint256"
            },
            {
              "internalType": "uint256",
              "name": "NumOfPymtsDue",
              "type": "uint256"
            },
            {
              "internalType": "uint256",
              "name": "ScheduledPayment",
              "type": "uint256"
            },
            {
              "internalType": "uint256",
              "name": "PromisesToPay",
              "type": "uint256"
            },
            {
              "internalType": "uint256",
              "name": "NFSInLast12Months",
              "type": "uint256"
            },
            {
              "internalType": "uint256",
              "name": "DeferredLateFees",
              "type": "uint256"
            },
            {
              "internalType": "uint256",
              "name": "InvestorRestrictedPrincipal",
              "type": "uint256"
            },
            {
              "internalType": "uint256",
              "name": "InvestorRestrictedInterest",
              "type": "uint256"
            },
            {
              "internalType": "string",
              "name": "Status",
              "type": "string"
            },
            {
              "internalType": "string",
              "name": "LUid",
              "type": "string"
            },
            {
              "internalType": "bytes32",
              "name": "TxId",
              "type": "bytes32"
            },
            {
              "internalType": "uint256",
              "name": "BLOCKAUDITCreationAt",
              "type": "uint256"
            },
            {
              "internalType": "uint256",
              "name": "BLOCKAUDITUpdatedAt",
              "type": "uint256"
            },
            {
              "internalType": "bool",
              "name": "exists",
              "type": "bool"
            },
            {
              "internalType": "uint256",
              "name": "avalancheTokenId",
              "type": "uint256"
            },
            {
              "internalType": "uint256",
              "name": "lastSyncTimestamp",
              "type": "uint256"
            },
            {
              "internalType": "bool",
              "name": "isLocked",
              "type": "bool"
            }
          ],
          "internalType": "struct LoanRegistry.Loan",
          "name": "",
          "type": "tuple"
        }
      ],
      "stateMutability": "view",
      "type": "function"
    },
    {
      "inputs": [],
      "name": "renounceOwnership",
      "outputs": [],
      "stateMutability": "nonpayable",
      "type": "function"
    },
    {
      "inputs": [
        {
          "internalType": "string",
          "name": "loanId",
          "type": "string"
        },
        {
          "internalType": "uint256",
          "name": "tokenId",
          "type": "uint256"
        }
      ],
      "name": "setAvalancheTokenId",
      "outputs": [
        {
          "internalType": "bool",
          "name": "",
          "type": "bool"
        }
      ],
      "stateMutability": "nonpayable",
      "type": "function"
    },
    {
      "inputs": [
        {
          "internalType": "address",
          "name": "_bridge",
          "type": "address"
        }
      ],
      "name": "setMarketplaceBridge",
      "outputs": [],
      "stateMutability": "nonpayable",
      "type": "function"
    },
    {
      "inputs": [
        {
          "internalType": "address",
          "name": "newOwner",
          "type": "address"
        }
      ],
      "name": "transferOwnership",
      "outputs": [],
      "stateMutability": "nonpayable",
      "type": "function"
    },
    {
      "inputs": [
        {
          "internalType": "string",
          "name": "loanId",
          "type": "string"
        }
      ],
      "name": "unlockLoan",
      "outputs": [
        {
          "internalType": "bool",
          "name": "",
          "type": "bool"
        }
      ],
      "stateMutability": "nonpayable",
      "type": "function"
    },
    {
      "inputs": [
        {
          "internalType": "string",
          "name": "loanId",
          "type": "string"
        },
        {
          "components": [
            {
              "internalType": "bool",
              "name": "updateCurrentPrincipalBal",
              "type": "bool"
            },
            {
              "internalType": "uint256",
              "name": "CurrentPrincipalBal",
              "type": "uint256"
            },
            {
              "internalType": "bool",
              "name": "updateUnpaidInterest",
              "type": "bool"
            },
            {
              "internalType": "uint256",
              "name": "UnpaidInterest",
              "type": "uint256"
            },
            {
              "internalType": "bool",
              "name": "updateStatus",
              "type": "bool"
            },
            {
              "internalType": "string",
              "name": "Status",
              "type": "string"
            },
            {
              "internalType": "bool",
              "name": "updateLastPaymentRec",
              "type": "bool"
            },
            {
              "internalType": "string",
              "name": "LastPaymentRec",
              "type": "string"
            },
            {
              "internalType": "bool",
              "name": "updateDaysSinceLastPymt",
              "type": "bool"
            },
            {
              "internalType": "uint256",
              "name": "DaysSinceLastPymt",
              "type": "uint256"
            },
            {
              "internalType": "bool",
              "name": "updateNumOfPymtsDue",
              "type": "bool"
            },
            {
              "internalType": "uint256",
              "name": "NumOfPymtsDue",
              "type": "uint256"
            },
            {
              "internalType": "bool",
              "name": "updateNextPaymentDue",
              "type": "bool"
            },
            {
              "internalType": "string",
              "name": "NextPaymentDue",
              "type": "string"
            },
            {
              "internalType": "bool",
              "name": "updateUnpaidFees",
              "type": "bool"
            },
            {
              "internalType": "uint256",
              "name": "UnpaidFees",
              "type": "uint256"
            },
            {
              "internalType": "bool",
              "name": "updateLateFeesAmount",
              "type": "bool"
            },
            {
              "internalType": "uint256",
              "name": "LateFeesAmount",
              "type": "uint256"
            },
            {
              "internalType": "bool",
              "name": "updateNoteRate",
              "type": "bool"
            },
            {
              "internalType": "uint256",
              "name": "NoteRate",
              "type": "uint256"
            },
            {
              "internalType": "bool",
              "name": "updateBorrowerFullName",
              "type": "bool"
            },
            {
              "internalType": "string",
              "name": "BorrowerFullName",
              "type": "string"
            },
            {
              "internalType": "bool",
              "name": "updateBorrowerPropertyAddress",
              "type": "bool"
            },
            {
              "internalType": "string",
              "name": "BorrowerPropertyAddress",
              "type": "string"
            },
            {
              "internalType": "bool",
              "name": "updateBorrowerEmail",
              "type": "bool"
            },
            {
              "internalType": "string",
              "name": "BorrowerEmail",
              "type": "string"
            },
            {
              "internalType": "bool",
              "name": "updateBorrowerHomePhone",
              "type": "bool"
            },
            {
              "internalType": "string",
              "name": "BorrowerHomePhone",
              "type": "string"
            },
            {
              "internalType": "bool",
              "name": "updateBorrowerCity",
              "type": "bool"
            },
            {
              "internalType": "string",
              "name": "BorrowerCity",
              "type": "string"
            },
            {
              "internalType": "bool",
              "name": "updateBorrowerState",
              "type": "bool"
            },
            {
              "internalType": "string",
              "name": "BorrowerState",
              "type": "string"
            },
            {
              "internalType": "bool",
              "name": "updateBorrowerZip",
              "type": "bool"
            },
            {
              "internalType": "string",
              "name": "BorrowerZip",
              "type": "string"
            }
          ],
          "internalType": "struct LoanRegistry.LoanUpdateFields",
          "name": "fields",
          "type": "tuple"
        }
      ],
      "name": "updateLoanPartial",
      "outputs": [
        {
          "internalType": "bytes32",
          "name": "",
          "type": "bytes32"
        }
      ],
      "stateMutability": "nonpayable",
      "type": "function"
    },
    {
      "inputs": [
        {
          "internalType": "string",
          "name": "loanId",
          "type": "string"
        },
        {
          "internalType": "uint256",
          "name": "newBalance",
          "type": "uint256"
        },
        {
          "internalType": "uint256",
          "name": "newUnpaidInterest",
          "type": "uint256"
        },
        {
          "internalType": "string",
          "name": "newStatus",
          "type": "string"
        },
        {
          "internalType": "string",
          "name": "newLastPaymentRec",
          "type": "string"
        },
        {
          "internalType": "uint256",
          "name": "newDaysSinceLastPymt",
          "type": "uint256"
        }
      ],
      "name": "updateLockedLoan",
      "outputs": [
        {
          "internalType": "bytes32",
          "name": "",
          "type": "bytes32"
        }
      ],
      "stateMutability": "nonpayable",
      "type": "function"
    },
    {
      "inputs": [
        {
          "internalType": "string",
          "name": "loanId",
          "type": "string"
        }
      ],
      "name": "updateSyncTimestamp",
      "outputs": [
        {
          "internalType": "bool",
          "name": "",
          "type": "bool"
        }
      ],
      "stateMutability": "nonpayable",
      "type": "function"
    },
    {
      "inputs": [],
      "name": "userRegistry",
      "outputs": [
        {
          "internalType": "contract UserRegistry",
          "name": "",
          "type": "address"
        }
      ],
      "stateMutability": "view",
      "type": "function"
    }
  ],
  "bytecode": "0x6080346200012b57601f62005a3638819003918201601f19168301916001600160401b03831184841017620001305780849260409485528339810103126200012b576200005a6020620000528362000146565b920162000146565b906001600160a01b0390811690811562000112576000549260018060a01b03199280848616176000558260405195167f8be0079c531659141344cd1fd0a4f28419497f9722a3daafe3b4186f6b6457e0600080a316918215620000d0575060015416176001556040516158da90816200015c8239f35b62461bcd60e51b815260206004820152601d60248201527f55736572526567697374727920616464726573732072657175697265640000006044820152606490fd5b604051631e4fbdf760e01b815260006004820152602490fd5b600080fd5b634e487b7160e01b600052604160045260246000fd5b51906001600160a01b03821682036200012b5756fe610280604052600436101561001357600080fd5b60003560e01c80632afd311714613bb15780632b33d5e31461395f5780632fe82e94146138a257806347cdddc3146136cd5780634dae3ab71461347b5780635c1bf865146133a95780635c3c3fcf1461326b5780635c7460d614613242578063638ee9bc1461315a5780636d047cc6146130fb578063715018a6146130a257806375fed82c14612f5257806380695be814612f0f57806384f38df414612ec35780638694056d14612a8757806386b15db61461274757806387f5edaf146125dd5780638da5cb5b146125b45780639226eaa51461252c578063ae2569671461193a578063af1f6af0146117f4578063bcb197c9146117ba578063c4d0b6421461089b578063ce89c0881461084a578063cfcdd806146107e9578063db272c7a14610753578063dd92ab4a1461051a578063e01a9aea146104f1578063e56904f414610408578063ece49dfe146101ff5763f2fde38b1461017257600080fd5b346101fa5760203660031901126101fa576004356001600160a01b03818116918290036101fa576101a1615159565b81156101e1576000548260018060a01b0319821617600055167f8be0079c531659141344cd1fd0a4f28419497f9722a3daafe3b4186f6b6457e0600080a3005b604051631e4fbdf760e01b815260006004820152602490fd5b600080fd5b346101fa5760403660031901126101fa576004356001600160401b0381116101fa5761022f903690600401614088565b60243561024760018060a01b03600254163314615114565b60405191805161027a60ff603160209687818188019661026881838a613bf8565b81016003815203019020015416614ded565b60ff603460405186818651610290818389613bf8565b81016003815203019020015416156103c757821561038f576032604051858185516102bc818388613bf8565b8101600381520301902001546103535761033e7fd9af9fe87cb0da3dea36fcb8d50a76961a23460b2422995a935515422b1fb05e92610328603360409487603287518b81885161030d818389613bf8565b81016003815203019020015585519283918551928391613bf8565b8201916003835288814294030190200155614fe9565b9281519081524285820152a260405160018152f35b60405162461bcd60e51b8152600481018590526014602482015273151bdad95b88125108185b1c9958591e481cd95d60621b6044820152606490fd5b60405162461bcd60e51b815260048101859052601060248201526f125b9d985b1a59081d1bdad95b88125160821b6044820152606490fd5b60405162461bcd60e51b8152600481018590526019602482015278131bd85b881b5d5cdd081899481b1bd8dad95908199a5c9cdd603a1b6044820152606490fd5b346101fa576020806003193601126101fa576004356001600160401b0381116101fa57610439903690600401614088565b6104416141e1565b506040519060ff603182519385818186019661045e81838a613bf8565b81016003815203019020015416156104b257826104999261048a92604051938492839251928391613bf8565b8101600381520301902061447b565b906104ae604051928284938452830190613c40565b0390f35b60405162461bcd60e51b8152600481018490526017602482015276151a19481b1bd85b88191bd95cc81b9bdd08195e1a5cdd604a1b6044820152606490fd5b346101fa5760003660031901126101fa576002546040516001600160a01b039091168152602090f35b346101fa576020806003193601126101fa576004356001600160401b0381116101fa5761054b903690600401614088565b61056060018060a01b03600254163314615114565b60405161057e60ff603184519386818188019661026881838a613bf8565b60ff603460405185818651610594818389613bf8565b8101600381520301902001541661071d57600a604051848185516105b9818388613bf8565b810160038152030190200154156106dd576105fb610602602c604051868187516105e481838a613bf8565b810160038152030190200160405192838092614395565b038261404c565b83815191012060088460405161061781614031565b82815201672830b4b21027b33360c11b815220146106985790603461064b8461066694604051809381928751928391613bf8565b8101600381520301902001600160ff19825416179055614fe9565b7f91e865b9cff59eb189ba2a164ccb791dfa436f57ed08bc3c7c65d87c27089f2c82604051428152a260405160018152f35b60405162461bcd60e51b815260048101849052601d60248201527f43616e6e6f7420746f6b656e697a652070616964206f6666206c6f616e0000006044820152606490fd5b60405162461bcd60e51b815260048101849052601860248201527704c6f616e2062616c616e6365206d757374206265203e20360441b6044820152606490fd5b60405162461bcd60e51b815260048101849052600e60248201526d105b1c9958591e481b1bd8dad95960921b6044820152606490fd5b346101fa5760203660031901126101fa576004356001600160401b0381116101fa57610783903690600401614088565b61079860018060a01b03600254163314615114565b6033604051916107ba60ff60318351956020818187019861026881838c613bf8565b6107cc60405193849251928391613bf8565b820191600383526020814294030190200155602060405160018152f35b346101fa5760203660031901126101fa576004356001600160401b0381116101fa576032610834602061082181943690600401614088565b8160405193828580945193849201613bf8565b8101600381520301902001541515604051908152f35b346101fa5760203660031901126101fa576004356001600160401b0381116101fa5760ff6034610884602061082181953690600401614088565b810160038152030190200154166040519015158152f35b346101fa576105c03660031901126101fa576004356001600160401b0381116101fa576108cc903690600401614088565b610220526024356001600160401b0381116101fa576108ef903690600401614088565b610260526044356001600160401b0381116101fa57610912903690600401614088565b610180526064356001600160401b0381116101fa57610935903690600401614088565b6084356001600160401b0381116101fa57610954903690600401614088565b60a4356001600160401b0381116101fa57610973903690600401614088565b6101c05260c4356001600160401b0381116101fa57610996903690600401614088565b6102005260e4356001600160401b0381116101fa576109b9903690600401614088565b610104356001600160401b0381116101fa576109d9903690600401614088565b61024052610124356001600160401b0381116101fa576109fd903690600401614088565b6001600160401b0361036435116101fa57610a1e3661036435600401614088565b6001600160401b0361038435116101fa57610a3f3661038435600401614088565b916001600160401b036103a435116101fa57610a61366103a435600401614088565b936001600160401b036103c435116101fa57610a83366103c435600401614088565b956001600160401b036103e435116101fa57610aa5366103e435600401614088565b97610584356001600160401b0381116101fa57610ac6903690600401614088565b610140526001600160401b036105a435116101fa57610aeb366105a435600401614088565b6101a0526000546001600160a01b0390811633036116fd575b50610260515180151590816116cd575b5015611693576102205151156116585760ff60316040516020816102205151610b438183856102205101613bf8565b810160038152030190200154166115d1575b6040516020810190428252436040820152610b9e6074826102205151610b85816060840160206102205101613bf8565b81013360601b606082015203605481018452018261404c565b51902060c052426101605260ff60316040516020816102205151610bc88183856102205101613bf8565b810160038152030190200154166101e0526101e05161159f575b610c00604051602081610220515161048a8183856102205101613bf8565b610120526000610100526101e0511561159457610640610120510151610100525b600060e0526101e0511561158a5761066061012051015160e0525b600060a0526101e0511561158057610680610120510151151560a0525b604051608052610c6a608051614015565b610220516080515261026051602060805101526101805160406080510152606060805101526080805101526101c05160a060805101526102005160c0608051015260e0608051015261024051610100608051015261012060805101526101443561014060805101526101643561016060805101526101843561018060805101526101a4356101a060805101526101c4356101c060805101526101e4356101e060805101526102043561020060805101526102243561022060805101526102443561024060805101526102643561026060805101526102843561028060805101526102a4356102a060805101526102c4356102c060805101526102e4356102e06080510152610304356103006080510152610324356103206080510152610344356103406080510152610360608051015261038060805101526103a060805101526103c060805101526103e060805101526104043561040060805101526104243561042060805101526104443561044060805101526104643561046060805101526104843561048060805101526104a4356104a060805101526104c4356104c060805101526104e4356104e060805101526105043561050060805101526105243561052060805101526105443561054060805101526105643561056060805101526101405161058060805101526101a0516105a0608051015260c0516105c06080510152610160516105e060805101524261060060805101526001610620608051015261010051610640608051015260e051610660608051015260a05115156106806080510152611260610ebc42615247565b611236610f24602060405193610f13602186848101936102205151610ee78187896102205101613bf8565b8201605f60f81b87820152610f0482518093898785019101613bf8565b0103600181018852018661404c565b604051809381928751928391613bf8565b81016005815203019020610f3b6080515182614e8d565b610f4e6020608051015160018301614e8d565b610f616040608051015160028301614e8d565b610f746060608051015160038301614e8d565b610f8660808051015160048301614e8d565b610f9960a0608051015160058301614e8d565b610fac60c0608051015160068301614e8d565b610fbf60e0608051015160078301614e8d565b610fd3610100608051015160088301614e8d565b610fe7610120608051015160098301614e8d565b608051610140810151600a830155610160810151600b830155610180810151600c8301556101a0810151600d8301556101c0810151600e8301556101e0810151600f830155610200810151601083015561022081015160118301556102408101516012830155610260810151601383015561028081015160148301556102a081015160158301556102c081015160168301556102e0810151601783015561030081015160188301556103208101516019830155610340810151601a83015561036001516110b790601b8301614e8d565b6110cb6103806080510151601c8301614e8d565b6110df6103a06080510151601d8301614e8d565b6110f36103c06080510151601e8301614e8d565b6111076103e06080510151601f8301614e8d565b608051610400810151602083015561042081015160218301556104408101516022830155610460810151602383015561048081015160248301556104a081015160258301556104c081015160268301556104e0810151602783015561050081015160288301556105208101516029830155610540810151602a830155610560810151602b83015561058001516111a090602c8301614e8d565b6111b46105a06080510151602d8301614e8d565b6105c06080510151602e8201556105e06080510151602f820155610600608051015160308201556111fd61062060805101511515603183019060ff801983541691151516179055565b610640608051015160328201556106606080510151603382015560346106806080510151151591019060ff801983541691151516179055565b60405160208161022051516112518183856102205101613bf8565b810160048152030190206150e7565b60c0516000526006602052604060002060c05181556112856102205160018301614e8d565b4260038201556101e051156114b857806112a760029260805161012051615365565b01547fd438615c2b2269e4b0b8b81dc5b2176a47eb3bc844a50b4324243114e303a62460406112d861022051614fe9565b9281519060c05182526020820152a25b6105a06101205101518051908115158061149d575b61146e575b50506101a0515180611437575b506101e05180611426575b80611402575b6113b5575b61135a60405160208161022051516113438183856102205101613bf8565b81016003815203019020610f3b6080515182614e8d565b61138d6040516102205151611376818360206102205101613bf8565b8101906007825260208160c0519303019020614fb4565b60c051600052600a6020526113a9610220516040600020614e8d565b602060405160c0518152f35b6113c9610220516020610120510151615194565b6113fd60405161026051516113e5818360206102605101613bf8565b810190600882526020816102205193030190206150e7565b611325565b50602061012051015160208151910120610260515160206102605101201415611320565b50602061012051015151151561131a565b6114689060405190611450818360206101a05101613bf8565b81019060098252602081610220519303019020614e8d565b8061130f565b6020809183611487611496956040518096819501613bf8565b81016009815203019020614f5c565b8080611302565b508160208201206101a0515160206101a051012014156112fd565b50600b54600160401b81101561156a578060016114d89201600b55614a74565b61155457610220516114e991614e8d565b61150560405161026051516113e5818360206102605101613bf8565b61151161022051614fe9565b61151d61026051614fe9565b907fd795ecbbd6f651fb7197486a647ea4a0a8256846059ffb5abc5cda4943adafef6040805160c0518152426020820152a36112e8565b634e487b7160e01b600052600060045260246000fd5b634e487b7160e01b600052604160045260246000fd5b600060a052610c59565b600060e052610c3c565b600061010052610c21565b602f60405160208161022051516115bc8183856102205101613bf8565b81016003815203019020015461016052610be2565b60ff603460405160208161022051516115f08183856102205101613bf8565b8101600381520301902001541615610b555760405162461bcd60e51b815260206004820152602860248201527f43616e6e6f7420757064617465206c6f636b6564206c6f616e2076696120637260448201526732b0ba32a637b0b760c11b6064820152608490fd5b60405162461bcd60e51b8152602060048201526013602482015272131bd85b881251081a5cc81c995c5d5a5c9959606a1b6044820152606490fd5b60405162461bcd60e51b8152602060048201526012602482015271155cd95c9251081a5cc81c995c5d5a5c995960721b6044820152606490fd5b90506020610260510120600360206040516116e781614031565b82815201622d2d2d60e81b81522014158a610b14565b60006024916001541660405192838092636f77926b60e01b82523360048301525afa9081156117ae5761176d9160609160009161178b575b5061174560c08201511515614d0c565b015160208151910120611756614d4a565b602081519101208114908115611773575b50614d8f565b89610b04565b905061177d614d6e565b60208151910120148b611767565b6117a891503d806000833e6117a0818361404c565b810190614c26565b8c611735565b6040513d6000823e3d90fd5b346101fa5760203660031901126101fa576004356001600160401b0381116101fa5760ff6031610884602061082181953690600401614088565b346101fa576020806003193601126101fa576004356001600160401b0381116101fa57611825903690600401614088565b61183a60018060a01b03600254163314615114565b60405161185860ff603184519386818188019661026881838a613bf8565b60ff60346040518581865161186e818389613bf8565b81016003815203019020015416156119085790600060326118c5856118d6956034604051838189516118a1818388613bf8565b810160038152030190200160ff198154169055604051809381928851928391613bf8565b810160038152030190200155614fe9565b7f504665dddc6b716d04c8637579fed49725dfe039561c404f9fa0fac218e2b43a82604051428152a260405160018152f35b60405162461bcd60e51b815260048101849052600a602482015269139bdd081b1bd8dad95960b21b6044820152606490fd5b346101fa576003196040368201126101fa576004356001600160401b0381116101fa5761196b903690600401614088565b906001600160401b03602435116101fa576104408091602435360301126101fa576040519081018181106001600160401b0382111761156a576040526119b56024356004016141d4565b815260248035013560208201526119d06044602435016141d4565b60408201526064602435013560608201526119ef6084602435016141d4565b608082015260a460243501356001600160401b0381116101fa57611a1b90600436916024350101614088565b60a0820152611a2e60c4602435016141d4565b60c082015260e460243501356001600160401b0381116101fa57611a5a90600436916024350101614088565b60e0820152611a6e610104602435016141d4565b6101008201526101246024350135610120820152611a91610144602435016141d4565b6101408201526101646024350135610160820152611ab4610184602435016141d4565b6101808201526001600160401b036101a46024350135116101fa57611ae5366024356101a481013501600401614088565b6101a0820152611afa6101c4602435016141d4565b6101c08201526101e460243501356101e0820152611b1d610204602435016141d4565b6102008201526102246024350135610220820152611b40610244602435016141d4565b6102408201526102646024350135610260820152611b63610284602435016141d4565b6102808201526001600160401b036102a46024350135116101fa57611b94366024356102a481013501600401614088565b6102a0820152611ba96102c4602435016141d4565b6102c08201526001600160401b036102e46024350135116101fa57611bda366024356102e481013501600401614088565b6102e0820152611bef610304602435016141d4565b6103008201526001600160401b036103246024350135116101fa57611c203660243561032481013501600401614088565b610320820152611c35610344602435016141d4565b6103408201526001600160401b036103646024350135116101fa57611c663660243561036481013501600401614088565b610360820152611c7b610384602435016141d4565b6103808201526001600160401b036103a46024350135116101fa57611cac366024356103a481013501600401614088565b6103a0820152611cc16103c4602435016141d4565b6103c08201526001600160401b036103e46024350135116101fa57611cf2366024356103e481013501600401614088565b6103e0820152611d07610404602435016141d4565b6104008201526001600160401b036104246024350135116101fa57611d383660243561042481013501600401614088565b6104208201526000546001600160a01b0316330361247b575b611d8160ff60316040516020818751611d6d8183858c01613bf8565b600381830152810103019020015416614ded565b60ff60346040516020818651611d9a8183858b01613bf8565b8101600381520301902001541661243a576020917fd438615c2b2269e4b0b8b81dc5b2176a47eb3bc844a50b4324243114e303a62460406120396002611fee611ff48451898101904282524387820152611e2d606e828b611e0681516020928193606086019101613bf8565b81016d5041525449414c5f55504441544560901b606082015203604e81018452018261404c565b51902097611e4986518b818161048a8d83815193849201613bf8565b86518b8181611e5e8d83815193849201613bf8565b8101600381520301902091805161242c575b8781015161241d575b6080810151612407575b60c08101516123f1575b6101008101516123e1575b6101408101516123d1575b6101808101516123ba575b6101c08101516123aa575b61020081015161239a575b61024081015161238a575b610280810151612374575b6102c081015161235d575b610300810151612346575b61034081015161232f575b610380810151612318575b6103c0810151612301575b6104008101516122e9575b50611fc48960308401428155602e8501908d8255611f978f611f3d42615247565b94611f8760218f51809885611f5b8184019687815193849201613bf8565b8201605f60f81b87820152611f7882518093898785019101613bf8565b0103600181018952018761404c565b8d51809381928851928391613bf8565b810160058152030190209086820361204d575b5050506112518d8c818c5193828580945193849201613bf8565b8960005260068b52866000209384928b8455611fe38b60018601614e8d565b42600385015561447b565b90615365565b61201c8785518a818161200d8c83815193849201613bf8565b81016007815203019020614fb4565b86600052600a88526120318685600020614e8d565b015493614fe9565b9281519085825286820152a2604051908152f35b6122e19261205b8884615009565b61206b6001890160018501615009565b6120798b89018c8501615009565b6120896003890160038501615009565b6120996004890160048501615009565b6120a96005890160058501615009565b6120b96006890160068501615009565b6120c96007890160078501615009565b6120d96008890160088501615009565b6120e96009890160098501615009565b600a880154600a840155600b880154600b840155600c880154600c840155600d880154600d840155600e880154600e840155600f880154600f84015560108801546010840155601188015460118401556012880154601284015560138801546013840155601488015460148401556015880154601584015560168801546016840155601788015460178401556018880154601884015560198801546019840155601a880154601a8401556121a3601b8901601b8501615009565b6121b3601c8901601c8501615009565b6121c3601d8901601d8501615009565b6121d3601e8901601e8501615009565b6121e3601f8901601f8501615009565b60208801546020840155602188015460218401556022880154602284015560238801546023840155602488015460248401556025880154602584015560268801546026840155602788015460278401556028880154602884015560298801546029840155602a880154602a840155602b880154602b84015561226b602c8901602c8501615009565b61227b602d8901602d8501615009565b54602e830155602f870154602f8301555460308201556122b160ff603188015416603183019060ff801983541691151516179055565b6032860154603282015560338601546033820155603460ff818801541691019060ff801983541691151516179055565b8d8080611faa565b6104206122fb91015160068401614e8d565b8b611f1c565b6123136103e082015160058501614e8d565b611f11565b61232a6103a082015160078501614e8d565b611f06565b61234161036082015160038501614e8d565b611efb565b61235861032082015160088501614e8d565b611ef0565b61236f6102e082015160048501614e8d565b611ee5565b6123856102a0820151878501614e8d565b611eda565b610260810151600f840155611ecf565b6102208101516014840155611ec4565b6101e08101516013840155611eb9565b6123cc6101a0820151601c8501614e8d565b611eae565b6101608101516025840155611ea3565b6101208101516024840155611e98565b61240260e0820151601e8501614e8d565b611e8d565b61241860a0820151602c8501614e8d565b611e83565b60608101516012840155611e79565b8b810151600a840155611e70565b60405162461bcd60e51b815260206004820152601960248201527821b0b73737ba103ab83230ba32903637b1b5b2b2103637b0b760391b6044820152606490fd5b600154604051636f77926b60e01b815233600482015290600090829060249082906001600160a01b03165afa9081156117ae576124f491606091600091612511575b506124cd60c08201511515614d0c565b0151602081519101206124de614d4a565b6020815191012081149081156124f95750614d8f565b611d51565b9050612503614d6e565b602081519101201484611767565b61252691503d806000833e6117a0818361404c565b856124bd565b346101fa5760203660031901126101fa576004356001600160a01b038116908190036101fa5761255a615159565b801561257657600280546001600160a01b031916919091179055005b60405162461bcd60e51b8152602060048201526016602482015275496e76616c696420627269646765206164647265737360501b6044820152606490fd5b346101fa5760003660031901126101fa576000546040516001600160a01b039091168152602090f35b346101fa576020806003193601126101fa576004356001600160401b0381116101fa5781610821612612923690600401614088565b8101600881520301902090815461262881614160565b92612636604051948561404c565b8184526000908152828120838086015b8484106127215786826000805b83518110156126975760ff603161267361266d8488614451565b5161442b565b015416612683575b600101612653565b9061268f600191614b3b565b91905061267b565b506126a190614b4a565b6000805b845181101561270e5760ff60316126bf61266d8489614451565b0154166126cf575b6001016126a5565b906127066001916126eb6126e661266d868a614451565b61447b565b6126f58287614451565b526127008186614451565b50614b3b565b9190506126c7565b604051848152806104ae81870186614103565b6001918291604051612737816105fb8189614395565b8152019201920191908490612646565b346101fa5760c03660031901126101fa576001600160401b036004358181116101fa57612778903690600401614088565b90602435906064358181116101fa57612795903690600401614088565b906084359081116101fa576127ae903690600401614088565b6000549093906001600160a01b0390811633036129df575b50604051938151906127e960ff603160209889818189019761026881838b613bf8565b60ff6034604051888187516127ff81838a613bf8565b81016003815203019020015416156129a257603260405187818651612825818389613bf8565b81016003815203019020015415612968577f1becde7ac0817e1e5bf0e4139dedb647c095a15357ced8b7f0977267d9530c7b926129206128ff61200d8989989661293b96602e604051848101904282524360408201526128b7606d828c5161289181606084018b613bf8565b81016c4c4f434b45445f55504441544560981b606082015203604d81018452018261404c565b5190209c8d96879360405187818d516128d181838c613bf8565b8101600381520301902092600a84015560443560128401556128f68d602c8501614e8d565b601e8301614e8d565b60a43560248201554260308201550155604051809381928851928391613bf8565b85600052600a8752612936816040600020614e8d565b614fe9565b9261295760405192839283526060888401526060830190613c1b565b4260408301520390a2604051908152f35b60405162461bcd60e51b8152600481018790526012602482015271139195081b9bdd081b5a5b9d1959081e595d60721b6044820152606490fd5b60405162461bcd60e51b81526004810187905260156024820152744f6e6c7920666f72206c6f636b6564206c6f616e7360581b6044820152606490fd5b60006024916001541660405192838092636f77926b60e01b82523360048301525afa9081156117ae57612a4e91606091600091612a6c575b50612a2760c08201511515614d0c565b015160208151910120612a38614d4a565b602081519101208114908115612a545750614d8f565b846127c6565b9050612a5e614d6e565b602081519101201486611767565b612a8191503d806000833e6117a0818361404c565b87612a17565b346101fa576020806003193601126101fa576004356001600160401b0381116101fa57612ab8903690600401614088565b6000549091906001600160a01b039081163303612e1e575b5060405191805190612b0560ff603185840194612aee818988613bf8565b87019686816003998a815203019020015416614ded565b60ff603460405185818551612b1b81838a613bf8565b810189815203019020015416612ddd57603260405184818451612b3f818389613bf8565b8101888152030190200154612d985760405183810190428252436040820152612b936066828551612b7481606084018a613bf8565b81016544454c45544560d01b606082015203604681018452018261404c565b51902091612bba60405185818551612bac818388613bf8565b81018981520301902061447b565b8360005260068552612bfe8386604060002093878555600194612be08460018301614e8d565b8a429101556105a081015182815180612d79575b5050500151615194565b6000815b612c96575b505090612c4f8361200d86612c659560318a8360405180928a51612c2c818489613bf8565b8201908152030190200160ff198154169055604051809381928851928391613bf8565b82600052600a8452612936816040600020614e8d565b7f1f4b13e4dd15d25a92f66856e750d208468c8c7ce52eb2a6e880e95650ce41a783604051848152a2604051908152f35b600b805480831015612d72576105fb612cbe612cb185614a74565b5060405192838092614395565b8881519101208651862014612cd7575050810181612c02565b909193959697925060001993848201918211612d5c57612d03612cfc612d0993614a74565b5091614a74565b90615185565b8054928315612d4657612c65956031889461200d948b94612c4f980190612d38612d3283614a74565b90614fa5565b559950509350959450612c07565b634e487b7160e01b600052603160045260246000fd5b634e487b7160e01b600052601160045260246000fd5b5050612c07565b612d90928161148784936040518096819501613bf8565b8a8281612bf4565b60405162461bcd60e51b815260048101849052601c60248201527f43616e6e6f742064656c65746520746f6b656e697a6564206c6f616e000000006044820152606490fd5b60405162461bcd60e51b815260048101849052601960248201527821b0b73737ba103232b632ba32903637b1b5b2b2103637b0b760391b6044820152606490fd5b60006024916001541660405192838092636f77926b60e01b82523360048301525afa9081156117ae57612e8b91606091600091612ea8575b50612e6660c08201511515614d0c565b0151828151910120612e76614d4a565b8381519101208114908115612e915750614d8f565b82612ad0565b9050612e9b614d6e565b8381519101201484611767565b612ebd91503d806000833e6117a0818361404c565b85612e56565b346101fa5760203660031901126101fa576004356001600160401b0381116101fa576032612efb602061082181943690600401614088565b810160038152030190200154604051908152f35b346101fa5760203660031901126101fa5760043560005260066020526104ae612f3e60026040600020016147bc565b604051918291602083526020830190613f4f565b346101fa5760403660031901126101fa57600435600b548082101561306657602435820190818311612d5c5780821161305e575b6000835b83811061302a5750612f9b81614b4a565b926000945b818110612fd1575050612fc29350604051938493606085526060850190614103565b91602084015260408301520390f35b60ff6031612fe7612fe184614a74565b50614aa7565b015416612ff7575b600101612fa0565b9461302260019161300d6126e6612fe18a614a74565b6130178289614451565b526127008188614451565b959050612fef565b60ff603161303a612fe184614a74565b01541661304a575b600101612f8a565b90613056600191614b3b565b919050613042565b905080612f86565b60405162461bcd60e51b81526020600482015260146024820152734f6666736574206f7574206f6620626f756e647360601b6044820152606490fd5b346101fa5760003660031901126101fa576130bb615159565b600080546001600160a01b0319811682556001600160a01b03167f8be0079c531659141344cd1fd0a4f28419497f9722a3daafe3b4186f6b6457e08280a3005b346101fa5760003660031901126101fa57600080600b54905b81811061312657602083604051908152f35b60ff6031613136612fe184614a74565b015416613146575b600101613114565b91613152600191614b3b565b92905061313e565b346101fa576020806003193601126101fa576004356001600160401b0381116101fa578161082161318f923690600401614088565b81016007815203019020604051808284829454938481520190600052846000209260005b8682821061322c57846131c88186038261404c565b8051156131ef5780516000198101908111612d5c576131e691614451565b51604051908152f35b60405162461bcd60e51b8152600481018390526015602482015274139bc81d1c985b9cd858dd1a5bdb9cc8199bdd5b99605a1b6044820152606490fd5b85548452600195860195879550930192016131b3565b346101fa5760003660031901126101fa576001546040516001600160a01b039091168152602090f35b346101fa576020806003193601126101fa576004356001600160401b0381116101fa576132d86132c2836132a66105fb943690600401614088565b6132ae6141e1565b508160405193828580945193849201613bf8565b8101600981520301902060405192838092614395565b805115613364576040519060ff60318251938581818601966132fb81838a613bf8565b810160038152030190200154161561332757826104999261048a92604051938492839251928391613bf8565b60405162461bcd60e51b8152600481018490526015602482015274131bd85b881a185cc81899595b8819195b195d1959605a1b6044820152606490fd5b60405162461bcd60e51b815260048101839052601c60248201527f4e6f206c6f616e20666f756e6420776974682074686973204c556964000000006044820152606490fd5b346101fa5760003660031901126101fa57600b546000805b82811061344757506133d290614b9a565b906000805b8281106133f457604051602080825281906104ae90820187614177565b60ff6031613404612fe184614a74565b015416613414575b6001016133d7565b9061343f6001916105fb61342a612cb186614a74565b6134348288614451565b526127008187614451565b91905061340c565b60ff6031613457612fe184614a74565b015416613467575b6001016133c1565b90613473600191614b3b565b91905061345f565b346101fa576020806003193601126101fa576004356001600160401b0381116101fa576134ac903690600401614088565b6134b881511515614a03565b6040518151908381818501936134cf818387613bf8565b8101600781520301902090604051808386829554938481520190600052866000209260005b888282106136b75750505061350b9250038361404c565b81519161353061351a84614160565b93613528604051958661404c565b808552614160565b601f19018560005b82811061368c5750505060005b8151811015613639576135588183614451565b516000526006865260406000209060405161357281613fdf565b8254815260405161358a816105fb8160018801614395565b8882015261359a600284016147bc565b60408201526060600380940154910190815260ff60316135d58a886135bf878a614451565b519551978c604051948593849251928391613bf8565b8201908152030190200154161580613621575b600193604051926135f884613ffa565b8352898301521515604082015261360f8287614451565b5261361a8186614451565b5001613545565b508351600019810193908411612d5c579282146135e8565b604080518781528551818901819052868901928201908960005b8281106136605784840385f35b855180518552808301518584015260409081015115159085015294810194606090930192600101613653565b60405161369881613ffa565b6000815260008382015260006040820152828288010152018690613538565b85548452600195860195889550930192016134f4565b346101fa576020806003193601126101fa57600435906001600160401b038083116101fa57366023840112156101fa57602492600481013561370e81614160565b9261371c604051948561404c565b81845260248585019260051b840101923684116101fa5760248101925b84841061387c5787878761374d8151614b9a565b916137588251614a42565b9160005b81518110156138525761376f8183614451565b5161377a8287614451565b526137858186614451565b506137a8836137948385614451565b518160405193828580945193849201613bf8565b810160078152030190209060405180838682955493848152019060005286600020926000905b88818310613838575050506137e59250038361404c565b815191826137f9575b50600191500161375c565b60001983019283116138235760019261381191614451565b5161381c8287614451565b52876137ee565b87634e487b7160e01b60005260116004526000fd5b6001929450829193865481520194019201859293916137ce565b61386f856104ae8587604051948594604086526040860190614177565b91848303908501526140cf565b83358381116101fa57879161389783928b3691870101614088565b815201930192613739565b346101fa5760003660031901126101fa57600b546000805b82811061392b57506138cb90614b4a565b906000805b8281106138ed57604051602080825281906104ae90820187614103565b60ff60316138fd612fe184614a74565b01541661390d575b6001016138d0565b9061392360019161342a6126e6612fe186614a74565b919050613905565b60ff603161393b612fe184614a74565b01541661394b575b6001016138ba565b90613957600191614b3b565b919050613943565b346101fa576020806003193601126101fa576004356001600160401b0381116101fa57613990903690600401614088565b61399c81511515614a03565b6040518151908381818501936139b3818387613bf8565b81016007815203019020604051808286829454938481520190600052866000209260005b88828210613b9b575050506139ee9250038261404c565b6139f88151614a42565b93613a038251614a42565b92825191613a1361351a84614160565b8382019690601f1901368837613a298551614a42565b9560005b8651811015613b255780613a42889283614451565b516000526006855260ff603160406000208d60405190613a6182613fdf565b82548252604051613a79816105fb8160018801614395565b8a830152613ab286613aab81613a91600288016147bc565b9a604087019b8c5260606003809901549701968752614451565b5192614451565b5251613abe8588614451565b5287604051809281613ad48d8c51928391613bf8565b8201908152030190200154161580613b0d575b91600192613af5838a614451565b90151590525151613b06828b614451565b5201613a2d565b508751600019810192908311612d5c57918114613ae7565b613b46848b8b8b8a84613b53896040519889976080895260808901906140cf565b90878203848901526140cf565b918583036040870152519182815201929460005b828110613b825785806104ae878783820360608501526140cf565b8651151585529581019587955093810193600101613b67565b85548452600195860195879550930192016139d7565b346101fa5760203660031901126101fa57613bea6104ae613bd360043561485d565b604092919251938493604085526040850190613c40565b908382036020850152613f4f565b60005b838110613c0b5750506000910152565b8181015183820152602001613bfb565b90602091613c3481518092818552858086019101613bf8565b601f01601f1916010190565b90613efb613ee7613e4f613e3b613e27613e13613dff613d30613d1c613d08613cf58c60c0613ce58e613cd1613cbf613cad613c9b613c896106a0895190808852870190613c1b565b60208901518682036020880152613c1b565b60408801518582036040870152613c1b565b60608701518482036060860152613c1b565b60808601518382036080850152613c1b565b9060a08501519060a0818403910152613c1b565b9101518d820360c08f0152613c1b565b60e08d01518c60e0818403910152613c1b565b610100808d0151908c8303908d0152613c1b565b610120808c0151908b8303908c0152613c1b565b610140808b0151908a0152610160808b0151908a0152610180808b0151908a01526101a0808b0151908a01526101c0808b0151908a01526101e0808b0151908a0152610200808b0151908a0152610220808b0151908a0152610240808b0151908a0152610260808b0151908a0152610280808b0151908a01526102a0808b0151908a01526102c0808b0151908a01526102e0808b0151908a0152610300808b0151908a0152610320808b0151908a0152610340808b0151908a0152610360808b0151908a8303908b0152613c1b565b610380808a015190898303908a0152613c1b565b6103a0808901519088830390890152613c1b565b6103c0808801519087830390880152613c1b565b6103e0808701519086830390870152613c1b565b610400808601519085015261042080860151908501526104408086015190850152610460808601519085015261048080860151908501526104a080860151908501526104c080860151908501526104e080860151908501526105008086015190850152610520808601519085015261054080860151908501526105608086015190850152610580808601519085830390860152613c1b565b6105a0808501519084830390850152613c1b565b916105c080820151908301526105e080820151908301526106008082015190830152610620808201511515908301526106408082015190830152610660808201519083015261068080910151151591015290565b908082519081815260208091019281808460051b8301019501936000915b848310613f7d5750505050505090565b9091929394958480613fcf600193601f198682030187528a51613fbc613fac6060835190808652850190613c1b565b8583015184820387860152613c1b565b9160408092015191818403910152613c1b565b9801930193019194939290613f6d565b608081019081106001600160401b0382111761156a57604052565b606081019081106001600160401b0382111761156a57604052565b6106a081019081106001600160401b0382111761156a57604052565b604081019081106001600160401b0382111761156a57604052565b90601f801991011681019081106001600160401b0382111761156a57604052565b6001600160401b03811161156a57601f01601f191660200190565b81601f820112156101fa5780359061409f8261406d565b926140ad604051948561404c565b828452602083830101116101fa57816000926020809301838601378301015290565b90815180825260208080930193019160005b8281106140ef575050505090565b8351855293810193928101926001016140e1565b90808251908181526020809101926020808460051b8301019501936000915b8483106141325750505050505090565b9091929394958480614150600193601f198682030187528a51613c40565b9801930193019194939290614122565b6001600160401b03811161156a5760051b60200190565b90808251908181526020809101926020808460051b8301019501936000915b8483106141a65750505050505090565b90919293949584806141c4600193601f198682030187528a51613c1b565b9801930193019194939290614196565b359081151582036101fa57565b604051906141ee82614015565b8161068060609182815282602082015282604082015282808201528260808201528260a08201528260c08201528260e08201528261010082015282610120820152600092836101408301528361016083015283610180830152836101a0830152836101c0830152836101e08301528361020083015283610220830152836102408301528361026083015283610280830152836102a0830152836102c0830152836102e08301528361030083015283610320830152836103408301528061036083015280610380830152806103a0830152806103c0830152806103e08301528361040083015283610420830152836104408301528361046083015283610480830152836104a0830152836104c0830152836104e083015283610500830152836105208301528361054083015283610560830152806105808301526105a0820152826105c0820152826105e0820152826106008201528261062082015282610640820152826106608201520152565b90600182811c9216801561438b575b602083101461437557565b634e487b7160e01b600052602260045260246000fd5b91607f169161436a565b8054600093926143a48261435b565b9182825260209360019160018116908160001461440c57506001146143cb575b5050505050565b90939495506000929192528360002092846000945b8386106143f8575050505001019038808080806143c4565b8054858701830152940193859082016143e0565b60ff19168685015250505090151560051b0101915038808080806143c4565b6020614444918160405193828580945193849201613bf8565b8101600381520301902090565b80518210156144655760209160051b010190565b634e487b7160e01b600052603260045260246000fd5b9060409161068060ff603485519361449285614015565b849680516144a4816105fb8186614395565b865280516144b9816105fb8160018701614395565b602087015280516144d1816105fb8160028701614395565b8187015280516144e8816105fb8160038701614395565b60608701528051614500816105fb8160048701614395565b60808701528051614518816105fb8160058701614395565b60a08701528051614530816105fb8160068701614395565b60c08701528051614548816105fb8160078701614395565b60e08701528051614560816105fb8160088701614395565b6101008701528051614579816105fb8160098701614395565b610120870152600a820154610140870152600b820154610160870152600c820154610180870152600d8201546101a0870152600e8201546101c0870152600f8201546101e08701526010820154610200870152601182015461022087015260128201546102408701526013820154610260870152601482015461028087015260158201546102a087015260168201546102c087015260178201546102e087015260188201546103008701526019820154610320870152601a820154610340870152805161464d816105fb81601b8701614395565b6103608701528051614666816105fb81601c8701614395565b610380870152805161467f816105fb81601d8701614395565b6103a08701528051614698816105fb81601e8701614395565b6103c087015280516146b1816105fb81601f8701614395565b6103e08701526020820154610400870152602182015461042087015260228201546104408701526023820154610460870152602482015461048087015260258201546104a087015260268201546104c087015260278201546104e087015260288201546105008701526029820154610520870152602a820154610540870152602b820154610560870152805161474e816105fb81602c8701614395565b61058087015251614766816105fb81602d8601614395565b6105a0860152602e8101546105c0860152602f8101546105e08601526030810154610600860152826031820154161515610620860152603281015461064086015260338101546106608601520154161515910152565b9081546147c881614160565b926040936147d88551918261404c565b82815280946020809201926000526020600020906000935b8585106147ff57505050505050565b600384600192845161481081613ffa565b8551614820816105fb818b614395565b81528551614834816105fb81898c01614395565b83820152855161484b816105fb8160028c01614395565b868201528152019301940193916147f0565b6148656141e1565b50600090808252602092600a845260406105fb614889828620835192838092614395565b8051156149c757856148a79181845193828580945193849201613bf8565b810160048152030190209384546148bd81614160565b956148ca8451978861404c565b81875282528682208290888089015b8484106149a2575050505050805b85518110156149535761492361491488614901848a614451565b5181875193828580945193849201613bf8565b8101600581520301902061447b565b856105c08201511461493857506001016148e7565b966002949650600691506149509583525220016147bc565b90565b825162461bcd60e51b815260048101889052602260248201527f4c6f616e207374617465206e6f7420666f756e6420666f722074686973205478604482015261125960f21b6064820152608490fd5b600191829188516149b7816105fb8189614395565b81520192019201919089906148d9565b815162461bcd60e51b8152600481018790526015602482015274151c985b9cd858dd1a5bdb881b9bdd08199bdd5b99605a1b6044820152606490fd5b15614a0a57565b60405162461bcd60e51b815260206004820152601060248201526f131bd85b881251081c995c5d5a5c995960821b6044820152606490fd5b90614a4c82614160565b614a59604051918261404c565b8281528092614a6a601f1991614160565b0190602036910137565b600b5481101561446557600b60005260206000200190600090565b80548210156144655760005260206000200190600090565b604051908160008254614ab98161435b565b93600191808316908115614b1f5750600114614ae1575b505060209250600381520301902090565b9091506000526020906020600020906000915b858310614b0b575050505060209181013880614ad0565b805487840152869450918301918101614af4565b92505050602093915060ff191682528015150281013880614ad0565b6000198114612d5c5760010190565b90614b5482614160565b614b61604051918261404c565b8281528092614b72601f1991614160565b019060005b828110614b8357505050565b602090614b8e6141e1565b82828501015201614b77565b90614ba482614160565b614bb1604051918261404c565b8281528092614bc2601f1991614160565b019060005b828110614bd357505050565b806060602080938501015201614bc7565b81601f820112156101fa578051614bfa8161406d565b92614c08604051948561404c565b818452602082840101116101fa576149509160208085019101613bf8565b6020818303126101fa5780516001600160401b03918282116101fa57019060e0828403126101fa576040519260e084018481108382111761156a5760405282518281116101fa5781614c79918501614be4565b845260208301518281116101fa5781614c93918501614be4565b602085015260408301518281116101fa5781614cb0918501614be4565b604085015260608301519182116101fa57614ccc918301614be4565b60608301526080810151906001600160a01b03821682036101fa5760c091608084015260a081015160a0840152015180151581036101fa5760c082015290565b15614d1357565b60405162461bcd60e51b815260206004820152600f60248201526e55736572206e6f742061637469766560881b6044820152606490fd5b60405190614d5782614031565b600882526737b832b930ba37b960c11b6020830152565b60405190614d7b82614031565b600582526430b236b4b760d91b6020830152565b15614d9657565b60405162461bcd60e51b815260206004820152602960248201527f4e6f7420617574686f72697a65643a206d757374206265206f70657261746f726044820152681037b91030b236b4b760b91b6064820152608490fd5b15614df457565b60405162461bcd60e51b8152602060048201526013602482015272131bd85b88191bd95cc81b9bdd08195e1a5cdd606a1b6044820152606490fd5b818110614e3a575050565b60008155600101614e2f565b9190601f8111614e5557505050565b614e81926000526020600020906020601f840160051c83019310614e83575b601f0160051c0190614e2f565b565b9091508190614e74565b91909182516001600160401b03811161156a57614eb481614eae845461435b565b84614e46565b602080601f8311600114614ef757508190614ee8939495600092614eec575b50508160011b916000199060031b1c19161790565b9055565b015190503880614ed3565b90601f19831695846000526020600020926000905b888210614f4457505083600195969710614f2b575b505050811b019055565b015160001960f88460031b161c19169055388080614f21565b80600185968294968601518155019501930190614f0c565b614f66815461435b565b9081614f70575050565b81601f60009311600114614f82575055565b908083918252614fa1601f60208420940160051c840160018501614e2f565b5555565b9061155457614f66815461435b565b8054600160401b81101561156a57614fd191600182018155614a8f565b819291549060031b91821b91600019901b1916179055565b61500190602060405192828480945193849201613bf8565b810103902090565b908082146150e35761501b815461435b565b906001600160401b03821161156a5761503e82615038855461435b565b85614e46565b600090601f831160011461507957614ee892916000918361506e5750508160011b916000199060031b1c19161790565b015490503880614ed3565b815260208082208483528183209291601f1985169083905b8282106150ca5750509084600195949392106150b157505050811b019055565b015460001960f88460031b161c19169055388080614f21565b8495819295850154815560018091019601940190615091565b5050565b8054600160401b81101561156a5761510491600182018155614a8f565b91909161155457614e8191614e8d565b1561511b57565b60405162461bcd60e51b81526020600482015260166024820152754f6e6c79204d61726b6574706c61636542726964676560501b6044820152606490fd5b6000546001600160a01b0316330361516d57565b60405163118cdaa760e01b8152336004820152602490fd5b919061155457614e8191615009565b6040805160208184516151ab818385809901613bf8565b810160088152030190209160005b83548082101561523f576105fb6151df6151d38488614a8f565b50865192838092614395565b838151910120865184880120146151f957506001016151b9565b92509293505060001991828201918211612d5c57612d0361521d6152259386614a8f565b509185614a8f565b81548015612d4657019061523c612d328383614a8f565b55565b505050505050565b80156152ee57600081805b6152da57506152608161406d565b9061526e604051928361404c565b808252601f1961527d8261406d565b013660208401375b809280156152d3576000198201918211612d5c578193600a926030908484068201809211612d5c57855111156144655760f81b6001600160f81b03191660001a908401601f01530491615285565b5050905090565b906152e6600a91614b3b565b910480615252565b506040516152fb81614031565b60018152600360fc1b602082015290565b908154600160401b81101561156a5760018101808455811015614465576040600291614e8194600052600360206000209102019261534b815185614e8d565b61535c602082015160018601614e8d565b01519101614e8d565b91906101408084015190820180518203615869575b50506105809182840151928351936020948582012091840151918251868401200361581f575b505061024080850151908301805182036157c2575b50506103c080850151805185820120918401519182518684012003615770575b50506104808085015190830180518203615710575b50506104a080850151908301805182036156b4575b505061038080850151805185820120918401519182518684012003615662575b50506102608085015190830180518203615609575b505061028080850151908301805182036155ac575b50506101e0808501519083018051820361554e575b5050608060409485810151805186820120908786015191825188840120036154fd575b5050015191608083518585012091015190815185830120036154a4575050505050565b846002936154f39651956154b787613ffa565b82516154c281614031565b6017815276426f72726f77657250726f70657274794164647265737360481b8282015287528601528401520161530c565b38808080806143c4565b6155479188519161550d83613ffa565b895161551881614031565b601081526f426f72726f77657246756c6c4e616d6560801b8a820152835288830152888201526002850161530c565b3880615481565b61556461555d6155a593615247565b9151615247565b6040519161557183613ffa565b60405161557d81614031565b60088152674e6f74655261746560c01b8882015283528683015260408201526002830161530c565b388061545e565b6155bb61555d61560293615247565b604051916155c883613ffa565b6040516155d481614031565b600e81526d13185d195199595cd05b5bdd5b9d60921b8882015283528683015260408201526002830161530c565b3880615449565b61561861555d61565b93615247565b6040519161562583613ffa565b60405161563181614031565b600a815269556e706169644665657360b01b8882015283528683015260408201526002830161530c565b3880615434565b6156ad916040519161567383613ffa565b60405161567f81614031565b600e81526d4e6578745061796d656e7444756560901b8882015283528683015260408201526002830161530c565b388061541f565b6156c361555d61570993615247565b604051916156d083613ffa565b6040516156dc81614031565b600d81526c4e756d4f6650796d747344756560981b8882015283528683015260408201526002830161530c565b38806153ff565b61571f61555d61576993615247565b6040519161572c83613ffa565b60405161573881614031565b601181527011185e5cd4da5b98d953185cdd141e5b5d607a1b8882015283528683015260408201526002830161530c565b38806153ea565b6157bb916040519161578183613ffa565b60405161578d81614031565b600e81526d4c6173745061796d656e7452656360901b8882015283528683015260408201526002830161530c565b38806153d5565b6157d161555d61581893615247565b604051916157de83613ffa565b6040516157ea81614031565b600e81526d155b9c185a59125b9d195c995cdd60921b8882015283528683015260408201526002830161530c565b38806153b5565b615862916040519161583083613ffa565b60405161583c81614031565b600681526553746174757360d01b8882015283528683015260408201526002830161530c565b38806153a0565b61587861555d6158c693615247565b6040519161588583613ffa565b60405161589181614031565b601381527210dd5c9c995b9d141c9a5b98da5c185b10985b606a1b60208201528352602083015260408201526002840161530c565b388061537a56fea164736f6c6343000818000a",
  "linkReferences": {},
  "deployedLinkReferences": {}
}