{
  "_format": "hh-sol-artifact-1",
  "contractName": "LoanRegistry",
  "sourceName": "src/LoanRegistry.sol",
  "abi": [
    {
      "inputs": [
        {
          "internalType": "address",
          "name": "initialOwner",
          "type": "address"
        }
      ],
      "stateMutability": "nonpayable",
      "type": "constructor"
    },
    {
      "inputs": [
        {
          "internalType": "address",
          "name": "owner",
          "type": "address"
        }
      ],
      "name": "OwnableInvalidOwner",
      "type": "error"
    },
    {
      "inputs": [
        {
          "internalType": "address",
          "name": "account",
          "type": "address"
        }
      ],
      "name": "OwnableUnauthorizedAccount",
      "type": "error"
    },
    {
      "anonymous": false,
      "inputs": [
        {
          "indexed": true,
          "internalType": "string",
          "name": "loanId",
          "type": "string"
        },
        {
          "indexed": true,
          "internalType": "string",
          "name": "userId",
          "type": "string"
        },
        {
          "indexed": false,
          "internalType": "bytes32",
          "name": "txId",
          "type": "bytes32"
        },
        {
          "indexed": false,
          "internalType": "uint256",
          "name": "timestamp",
          "type": "uint256"
        }
      ],
      "name": "LoanCreated",
      "type": "event"
    },
    {
      "anonymous": false,
      "inputs": [
        {
          "indexed": true,
          "internalType": "string",
          "name": "loanId",
          "type": "string"
        },
        {
          "indexed": false,
          "internalType": "bytes32",
          "name": "txId",
          "type": "bytes32"
        }
      ],
      "name": "LoanDeleted",
      "type": "event"
    },
    {
      "anonymous": false,
      "inputs": [
        {
          "indexed": true,
          "internalType": "string",
          "name": "loanId",
          "type": "string"
        },
        {
          "indexed": false,
          "internalType": "bytes32",
          "name": "txId",
          "type": "bytes32"
        },
        {
          "indexed": false,
          "internalType": "uint256",
          "name": "changeCount",
          "type": "uint256"
        }
      ],
      "name": "LoanUpdated",
      "type": "event"
    },
    {
      "anonymous": false,
      "inputs": [
        {
          "indexed": true,
          "internalType": "address",
          "name": "previousOwner",
          "type": "address"
        },
        {
          "indexed": true,
          "internalType": "address",
          "name": "newOwner",
          "type": "address"
        }
      ],
      "name": "OwnershipTransferred",
      "type": "event"
    },
    {
      "inputs": [
        {
          "internalType": "string",
          "name": "_ID",
          "type": "string"
        },
        {
          "internalType": "string",
          "name": "_UserID",
          "type": "string"
        },
        {
          "internalType": "string",
          "name": "_Borrower_FullName",
          "type": "string"
        },
        {
          "internalType": "string",
          "name": "_Borrower_Home_Phone",
          "type": "string"
        },
        {
          "internalType": "string",
          "name": "_Borrower_Property_Address",
          "type": "string"
        },
        {
          "internalType": "string",
          "name": "_Borrower_State",
          "type": "string"
        },
        {
          "internalType": "string",
          "name": "_Borrower_Zip",
          "type": "string"
        },
        {
          "internalType": "string",
          "name": "_Borrower_City",
          "type": "string"
        },
        {
          "internalType": "string",
          "name": "_Borrower_Email",
          "type": "string"
        },
        {
          "internalType": "string",
          "name": "_Borrower_Occupancy_Status",
          "type": "string"
        },
        {
          "internalType": "uint256",
          "name": "_Current_Principal_Bal",
          "type": "uint256"
        },
        {
          "internalType": "uint256",
          "name": "_Restricted_Funds",
          "type": "uint256"
        },
        {
          "internalType": "uint256",
          "name": "_Suspense_Balance",
          "type": "uint256"
        },
        {
          "internalType": "uint256",
          "name": "_Escrow_Balance",
          "type": "uint256"
        },
        {
          "internalType": "uint256",
          "name": "_Total_In_Trust",
          "type": "uint256"
        },
        {
          "internalType": "uint256",
          "name": "_Note_Rate",
          "type": "uint256"
        },
        {
          "internalType": "uint256",
          "name": "_Sold_Rate",
          "type": "uint256"
        },
        {
          "internalType": "uint256",
          "name": "_Default_Rate",
          "type": "uint256"
        },
        {
          "internalType": "uint256",
          "name": "_Unpaid_Interest",
          "type": "uint256"
        },
        {
          "internalType": "uint256",
          "name": "_Unpaid_Fees",
          "type": "uint256"
        },
        {
          "internalType": "uint256",
          "name": "_Late_Fees_Amount",
          "type": "uint256"
        },
        {
          "internalType": "uint256",
          "name": "_Unpaid_Late_Fees",
          "type": "uint256"
        },
        {
          "internalType": "uint256",
          "name": "_Accrued_Late_fees",
          "type": "uint256"
        },
        {
          "internalType": "uint256",
          "name": "_Unpaid_Loan_Charges",
          "type": "uint256"
        },
        {
          "internalType": "uint256",
          "name": "_Deferred_Princ_Balance",
          "type": "uint256"
        },
        {
          "internalType": "uint256",
          "name": "_Deferred_Unp_Charges",
          "type": "uint256"
        },
        {
          "internalType": "uint256",
          "name": "_Original_Loan_Amount",
          "type": "uint256"
        },
        {
          "internalType": "string",
          "name": "_Origination_Date",
          "type": "string"
        },
        {
          "internalType": "string",
          "name": "_Next_Payment_Due",
          "type": "string"
        },
        {
          "internalType": "string",
          "name": "_Loan_Maturity_Date",
          "type": "string"
        },
        {
          "internalType": "string",
          "name": "_Last_Payment_Rec",
          "type": "string"
        },
        {
          "internalType": "string",
          "name": "_Interest_Paid_To",
          "type": "string"
        },
        {
          "internalType": "uint256",
          "name": "_Deferred_Unpaid_Int",
          "type": "uint256"
        },
        {
          "internalType": "uint256",
          "name": "_FCI_Restricted_Principal",
          "type": "uint256"
        },
        {
          "internalType": "uint256",
          "name": "_FCI_Restricted_Interest",
          "type": "uint256"
        },
        {
          "internalType": "uint256",
          "name": "_Pymt_Grace_Days",
          "type": "uint256"
        },
        {
          "internalType": "uint256",
          "name": "_Days_Since_Last_Pymt",
          "type": "uint256"
        },
        {
          "internalType": "uint256",
          "name": "_Num_Of_Pymts_Due",
          "type": "uint256"
        },
        {
          "internalType": "uint256",
          "name": "_Scheduled_Payment",
          "type": "uint256"
        },
        {
          "internalType": "uint256",
          "name": "_Promises_To_Pay",
          "type": "uint256"
        },
        {
          "internalType": "uint256",
          "name": "_NFS_In_Last_12_Months",
          "type": "uint256"
        },
        {
          "internalType": "uint256",
          "name": "_Deferred_Late_Fees",
          "type": "uint256"
        },
        {
          "internalType": "uint256",
          "name": "_Investor_Restricted_Principal",
          "type": "uint256"
        },
        {
          "internalType": "uint256",
          "name": "_Investor_Restricted_Interest",
          "type": "uint256"
        },
        {
          "internalType": "string",
          "name": "_Status",
          "type": "string"
        },
        {
          "internalType": "string",
          "name": "_LUid",
          "type": "string"
        }
      ],
      "name": "createLoan",
      "outputs": [
        {
          "internalType": "bytes32",
          "name": "",
          "type": "bytes32"
        }
      ],
      "stateMutability": "nonpayable",
      "type": "function"
    },
    {
      "inputs": [
        {
          "internalType": "string",
          "name": "loanId",
          "type": "string"
        }
      ],
      "name": "deleteLoan",
      "outputs": [
        {
          "internalType": "bytes32",
          "name": "",
          "type": "bytes32"
        }
      ],
      "stateMutability": "nonpayable",
      "type": "function"
    },
    {
      "inputs": [
        {
          "internalType": "string",
          "name": "loanUid",
          "type": "string"
        }
      ],
      "name": "findLoanByLoanUid",
      "outputs": [
        {
          "components": [
            {
              "internalType": "string",
              "name": "ID",
              "type": "string"
            },
            {
              "internalType": "string",
              "name": "UserID",
              "type": "string"
            },
            {
              "internalType": "string",
              "name": "BorrowerFullName",
              "type": "string"
            },
            {
              "internalType": "string",
              "name": "BorrowerHomePhone",
              "type": "string"
            },
            {
              "internalType": "string",
              "name": "BorrowerPropertyAddress",
              "type": "string"
            },
            {
              "internalType": "string",
              "name": "BorrowerState",
              "type": "string"
            },
            {
              "internalType": "string",
              "name": "BorrowerZip",
              "type": "string"
            },
            {
              "internalType": "string",
              "name": "BorrowerCity",
              "type": "string"
            },
            {
              "internalType": "string",
              "name": "BorrowerEmail",
              "type": "string"
            },
            {
              "internalType": "string",
              "name": "BorrowerOccupancyStatus",
              "type": "string"
            },
            {
              "internalType": "uint256",
              "name": "CurrentPrincipalBal",
              "type": "uint256"
            },
            {
              "internalType": "uint256",
              "name": "RestrictedFunds",
              "type": "uint256"
            },
            {
              "internalType": "uint256",
              "name": "SuspenseBalance",
              "type": "uint256"
            },
            {
              "internalType": "uint256",
              "name": "EscrowBalance",
              "type": "uint256"
            },
            {
              "internalType": "uint256",
              "name": "TotalInTrust",
              "type": "uint256"
            },
            {
              "internalType": "uint256",
              "name": "NoteRate",
              "type": "uint256"
            },
            {
              "internalType": "uint256",
              "name": "SoldRate",
              "type": "uint256"
            },
            {
              "internalType": "uint256",
              "name": "DefaultRate",
              "type": "uint256"
            },
            {
              "internalType": "uint256",
              "name": "UnpaidInterest",
              "type": "uint256"
            },
            {
              "internalType": "uint256",
              "name": "UnpaidFees",
              "type": "uint256"
            },
            {
              "internalType": "uint256",
              "name": "LateFeesAmount",
              "type": "uint256"
            },
            {
              "internalType": "uint256",
              "name": "UnpaidLateFees",
              "type": "uint256"
            },
            {
              "internalType": "uint256",
              "name": "AccruedLateFees",
              "type": "uint256"
            },
            {
              "internalType": "uint256",
              "name": "UnpaidLoanCharges",
              "type": "uint256"
            },
            {
              "internalType": "uint256",
              "name": "DeferredPrincBalance",
              "type": "uint256"
            },
            {
              "internalType": "uint256",
              "name": "DeferredUnpCharges",
              "type": "uint256"
            },
            {
              "internalType": "uint256",
              "name": "OriginalLoanAmount",
              "type": "uint256"
            },
            {
              "internalType": "string",
              "name": "OriginationDate",
              "type": "string"
            },
            {
              "internalType": "string",
              "name": "NextPaymentDue",
              "type": "string"
            },
            {
              "internalType": "string",
              "name": "LoanMaturityDate",
              "type": "string"
            },
            {
              "internalType": "string",
              "name": "LastPaymentRec",
              "type": "string"
            },
            {
              "internalType": "string",
              "name": "InterestPaidTo",
              "type": "string"
            },
            {
              "internalType": "uint256",
              "name": "DeferredUnpaidInt",
              "type": "uint256"
            },
            {
              "internalType": "uint256",
              "name": "FCIRestrictedPrincipal",
              "type": "uint256"
            },
            {
              "internalType": "uint256",
              "name": "FCIRestrictedInterest",
              "type": "uint256"
            },
            {
              "internalType": "uint256",
              "name": "PymtGraceDays",
              "type": "uint256"
            },
            {
              "internalType": "uint256",
              "name": "DaysSinceLastPymt",
              "type": "uint256"
            },
            {
              "internalType": "uint256",
              "name": "NumOfPymtsDue",
              "type": "uint256"
            },
            {
              "internalType": "uint256",
              "name": "ScheduledPayment",
              "type": "uint256"
            },
            {
              "internalType": "uint256",
              "name": "PromisesToPay",
              "type": "uint256"
            },
            {
              "internalType": "uint256",
              "name": "NFSInLast12Months",
              "type": "uint256"
            },
            {
              "internalType": "uint256",
              "name": "DeferredLateFees",
              "type": "uint256"
            },
            {
              "internalType": "uint256",
              "name": "InvestorRestrictedPrincipal",
              "type": "uint256"
            },
            {
              "internalType": "uint256",
              "name": "InvestorRestrictedInterest",
              "type": "uint256"
            },
            {
              "internalType": "string",
              "name": "Status",
              "type": "string"
            },
            {
              "internalType": "string",
              "name": "LUid",
              "type": "string"
            },
            {
              "internalType": "bytes32",
              "name": "TxId",
              "type": "bytes32"
            },
            {
              "internalType": "uint256",
              "name": "BLOCKAUDITCreationAt",
              "type": "uint256"
            },
            {
              "internalType": "uint256",
              "name": "BLOCKAUDITUpdatedAt",
              "type": "uint256"
            },
            {
              "internalType": "bool",
              "name": "exists",
              "type": "bool"
            }
          ],
          "internalType": "struct LoanRegistry.Loan",
          "name": "",
          "type": "tuple"
        }
      ],
      "stateMutability": "view",
      "type": "function"
    },
    {
      "inputs": [
        {
          "internalType": "string",
          "name": "userId",
          "type": "string"
        }
      ],
      "name": "findLoansByUserId",
      "outputs": [
        {
          "components": [
            {
              "internalType": "string",
              "name": "ID",
              "type": "string"
            },
            {
              "internalType": "string",
              "name": "UserID",
              "type": "string"
            },
            {
              "internalType": "string",
              "name": "BorrowerFullName",
              "type": "string"
            },
            {
              "internalType": "string",
              "name": "BorrowerHomePhone",
              "type": "string"
            },
            {
              "internalType": "string",
              "name": "BorrowerPropertyAddress",
              "type": "string"
            },
            {
              "internalType": "string",
              "name": "BorrowerState",
              "type": "string"
            },
            {
              "internalType": "string",
              "name": "BorrowerZip",
              "type": "string"
            },
            {
              "internalType": "string",
              "name": "BorrowerCity",
              "type": "string"
            },
            {
              "internalType": "string",
              "name": "BorrowerEmail",
              "type": "string"
            },
            {
              "internalType": "string",
              "name": "BorrowerOccupancyStatus",
              "type": "string"
            },
            {
              "internalType": "uint256",
              "name": "CurrentPrincipalBal",
              "type": "uint256"
            },
            {
              "internalType": "uint256",
              "name": "RestrictedFunds",
              "type": "uint256"
            },
            {
              "internalType": "uint256",
              "name": "SuspenseBalance",
              "type": "uint256"
            },
            {
              "internalType": "uint256",
              "name": "EscrowBalance",
              "type": "uint256"
            },
            {
              "internalType": "uint256",
              "name": "TotalInTrust",
              "type": "uint256"
            },
            {
              "internalType": "uint256",
              "name": "NoteRate",
              "type": "uint256"
            },
            {
              "internalType": "uint256",
              "name": "SoldRate",
              "type": "uint256"
            },
            {
              "internalType": "uint256",
              "name": "DefaultRate",
              "type": "uint256"
            },
            {
              "internalType": "uint256",
              "name": "UnpaidInterest",
              "type": "uint256"
            },
            {
              "internalType": "uint256",
              "name": "UnpaidFees",
              "type": "uint256"
            },
            {
              "internalType": "uint256",
              "name": "LateFeesAmount",
              "type": "uint256"
            },
            {
              "internalType": "uint256",
              "name": "UnpaidLateFees",
              "type": "uint256"
            },
            {
              "internalType": "uint256",
              "name": "AccruedLateFees",
              "type": "uint256"
            },
            {
              "internalType": "uint256",
              "name": "UnpaidLoanCharges",
              "type": "uint256"
            },
            {
              "internalType": "uint256",
              "name": "DeferredPrincBalance",
              "type": "uint256"
            },
            {
              "internalType": "uint256",
              "name": "DeferredUnpCharges",
              "type": "uint256"
            },
            {
              "internalType": "uint256",
              "name": "OriginalLoanAmount",
              "type": "uint256"
            },
            {
              "internalType": "string",
              "name": "OriginationDate",
              "type": "string"
            },
            {
              "internalType": "string",
              "name": "NextPaymentDue",
              "type": "string"
            },
            {
              "internalType": "string",
              "name": "LoanMaturityDate",
              "type": "string"
            },
            {
              "internalType": "string",
              "name": "LastPaymentRec",
              "type": "string"
            },
            {
              "internalType": "string",
              "name": "InterestPaidTo",
              "type": "string"
            },
            {
              "internalType": "uint256",
              "name": "DeferredUnpaidInt",
              "type": "uint256"
            },
            {
              "internalType": "uint256",
              "name": "FCIRestrictedPrincipal",
              "type": "uint256"
            },
            {
              "internalType": "uint256",
              "name": "FCIRestrictedInterest",
              "type": "uint256"
            },
            {
              "internalType": "uint256",
              "name": "PymtGraceDays",
              "type": "uint256"
            },
            {
              "internalType": "uint256",
              "name": "DaysSinceLastPymt",
              "type": "uint256"
            },
            {
              "internalType": "uint256",
              "name": "NumOfPymtsDue",
              "type": "uint256"
            },
            {
              "internalType": "uint256",
              "name": "ScheduledPayment",
              "type": "uint256"
            },
            {
              "internalType": "uint256",
              "name": "PromisesToPay",
              "type": "uint256"
            },
            {
              "internalType": "uint256",
              "name": "NFSInLast12Months",
              "type": "uint256"
            },
            {
              "internalType": "uint256",
              "name": "DeferredLateFees",
              "type": "uint256"
            },
            {
              "internalType": "uint256",
              "name": "InvestorRestrictedPrincipal",
              "type": "uint256"
            },
            {
              "internalType": "uint256",
              "name": "InvestorRestrictedInterest",
              "type": "uint256"
            },
            {
              "internalType": "string",
              "name": "Status",
              "type": "string"
            },
            {
              "internalType": "string",
              "name": "LUid",
              "type": "string"
            },
            {
              "internalType": "bytes32",
              "name": "TxId",
              "type": "bytes32"
            },
            {
              "internalType": "uint256",
              "name": "BLOCKAUDITCreationAt",
              "type": "uint256"
            },
            {
              "internalType": "uint256",
              "name": "BLOCKAUDITUpdatedAt",
              "type": "uint256"
            },
            {
              "internalType": "bool",
              "name": "exists",
              "type": "bool"
            }
          ],
          "internalType": "struct LoanRegistry.Loan[]",
          "name": "",
          "type": "tuple[]"
        }
      ],
      "stateMutability": "view",
      "type": "function"
    },
    {
      "inputs": [
        {
          "internalType": "bytes32",
          "name": "txId",
          "type": "bytes32"
        }
      ],
      "name": "getActivityChanges",
      "outputs": [
        {
          "components": [
            {
              "internalType": "string",
              "name": "PropertyName",
              "type": "string"
            },
            {
              "internalType": "string",
              "name": "OldValue",
              "type": "string"
            },
            {
              "internalType": "string",
              "name": "NewValue",
              "type": "string"
            }
          ],
          "internalType": "struct LoanRegistry.Change[]",
          "name": "",
          "type": "tuple[]"
        }
      ],
      "stateMutability": "view",
      "type": "function"
    },
    {
      "inputs": [],
      "name": "getAllLoanIds",
      "outputs": [
        {
          "internalType": "string[]",
          "name": "",
          "type": "string[]"
        }
      ],
      "stateMutability": "view",
      "type": "function"
    },
    {
      "inputs": [
        {
          "internalType": "string",
          "name": "loanId",
          "type": "string"
        }
      ],
      "name": "getCurrentTransactionByLoan",
      "outputs": [
        {
          "internalType": "bytes32",
          "name": "",
          "type": "bytes32"
        }
      ],
      "stateMutability": "view",
      "type": "function"
    },
    {
      "inputs": [
        {
          "internalType": "string[]",
          "name": "loanIds",
          "type": "string[]"
        }
      ],
      "name": "getLastTransactionsByLoans",
      "outputs": [
        {
          "internalType": "string[]",
          "name": "ids",
          "type": "string[]"
        },
        {
          "internalType": "bytes32[]",
          "name": "txIds",
          "type": "bytes32[]"
        }
      ],
      "stateMutability": "view",
      "type": "function"
    },
    {
      "inputs": [
        {
          "internalType": "bytes32",
          "name": "txId",
          "type": "bytes32"
        }
      ],
      "name": "getLoanByTxId",
      "outputs": [
        {
          "components": [
            {
              "internalType": "string",
              "name": "ID",
              "type": "string"
            },
            {
              "internalType": "string",
              "name": "UserID",
              "type": "string"
            },
            {
              "internalType": "string",
              "name": "BorrowerFullName",
              "type": "string"
            },
            {
              "internalType": "string",
              "name": "BorrowerHomePhone",
              "type": "string"
            },
            {
              "internalType": "string",
              "name": "BorrowerPropertyAddress",
              "type": "string"
            },
            {
              "internalType": "string",
              "name": "BorrowerState",
              "type": "string"
            },
            {
              "internalType": "string",
              "name": "BorrowerZip",
              "type": "string"
            },
            {
              "internalType": "string",
              "name": "BorrowerCity",
              "type": "string"
            },
            {
              "internalType": "string",
              "name": "BorrowerEmail",
              "type": "string"
            },
            {
              "internalType": "string",
              "name": "BorrowerOccupancyStatus",
              "type": "string"
            },
            {
              "internalType": "uint256",
              "name": "CurrentPrincipalBal",
              "type": "uint256"
            },
            {
              "internalType": "uint256",
              "name": "RestrictedFunds",
              "type": "uint256"
            },
            {
              "internalType": "uint256",
              "name": "SuspenseBalance",
              "type": "uint256"
            },
            {
              "internalType": "uint256",
              "name": "EscrowBalance",
              "type": "uint256"
            },
            {
              "internalType": "uint256",
              "name": "TotalInTrust",
              "type": "uint256"
            },
            {
              "internalType": "uint256",
              "name": "NoteRate",
              "type": "uint256"
            },
            {
              "internalType": "uint256",
              "name": "SoldRate",
              "type": "uint256"
            },
            {
              "internalType": "uint256",
              "name": "DefaultRate",
              "type": "uint256"
            },
            {
              "internalType": "uint256",
              "name": "UnpaidInterest",
              "type": "uint256"
            },
            {
              "internalType": "uint256",
              "name": "UnpaidFees",
              "type": "uint256"
            },
            {
              "internalType": "uint256",
              "name": "LateFeesAmount",
              "type": "uint256"
            },
            {
              "internalType": "uint256",
              "name": "UnpaidLateFees",
              "type": "uint256"
            },
            {
              "internalType": "uint256",
              "name": "AccruedLateFees",
              "type": "uint256"
            },
            {
              "internalType": "uint256",
              "name": "UnpaidLoanCharges",
              "type": "uint256"
            },
            {
              "internalType": "uint256",
              "name": "DeferredPrincBalance",
              "type": "uint256"
            },
            {
              "internalType": "uint256",
              "name": "DeferredUnpCharges",
              "type": "uint256"
            },
            {
              "internalType": "uint256",
              "name": "OriginalLoanAmount",
              "type": "uint256"
            },
            {
              "internalType": "string",
              "name": "OriginationDate",
              "type": "string"
            },
            {
              "internalType": "string",
              "name": "NextPaymentDue",
              "type": "string"
            },
            {
              "internalType": "string",
              "name": "LoanMaturityDate",
              "type": "string"
            },
            {
              "internalType": "string",
              "name": "LastPaymentRec",
              "type": "string"
            },
            {
              "internalType": "string",
              "name": "InterestPaidTo",
              "type": "string"
            },
            {
              "internalType": "uint256",
              "name": "DeferredUnpaidInt",
              "type": "uint256"
            },
            {
              "internalType": "uint256",
              "name": "FCIRestrictedPrincipal",
              "type": "uint256"
            },
            {
              "internalType": "uint256",
              "name": "FCIRestrictedInterest",
              "type": "uint256"
            },
            {
              "internalType": "uint256",
              "name": "PymtGraceDays",
              "type": "uint256"
            },
            {
              "internalType": "uint256",
              "name": "DaysSinceLastPymt",
              "type": "uint256"
            },
            {
              "internalType": "uint256",
              "name": "NumOfPymtsDue",
              "type": "uint256"
            },
            {
              "internalType": "uint256",
              "name": "ScheduledPayment",
              "type": "uint256"
            },
            {
              "internalType": "uint256",
              "name": "PromisesToPay",
              "type": "uint256"
            },
            {
              "internalType": "uint256",
              "name": "NFSInLast12Months",
              "type": "uint256"
            },
            {
              "internalType": "uint256",
              "name": "DeferredLateFees",
              "type": "uint256"
            },
            {
              "internalType": "uint256",
              "name": "InvestorRestrictedPrincipal",
              "type": "uint256"
            },
            {
              "internalType": "uint256",
              "name": "InvestorRestrictedInterest",
              "type": "uint256"
            },
            {
              "internalType": "string",
              "name": "Status",
              "type": "string"
            },
            {
              "internalType": "string",
              "name": "LUid",
              "type": "string"
            },
            {
              "internalType": "bytes32",
              "name": "TxId",
              "type": "bytes32"
            },
            {
              "internalType": "uint256",
              "name": "BLOCKAUDITCreationAt",
              "type": "uint256"
            },
            {
              "internalType": "uint256",
              "name": "BLOCKAUDITUpdatedAt",
              "type": "uint256"
            },
            {
              "internalType": "bool",
              "name": "exists",
              "type": "bool"
            }
          ],
          "internalType": "struct LoanRegistry.Loan",
          "name": "loan",
          "type": "tuple"
        },
        {
          "components": [
            {
              "internalType": "string",
              "name": "PropertyName",
              "type": "string"
            },
            {
              "internalType": "string",
              "name": "OldValue",
              "type": "string"
            },
            {
              "internalType": "string",
              "name": "NewValue",
              "type": "string"
            }
          ],
          "internalType": "struct LoanRegistry.Change[]",
          "name": "changes",
          "type": "tuple[]"
        }
      ],
      "stateMutability": "view",
      "type": "function"
    },
    {
      "inputs": [
        {
          "internalType": "string",
          "name": "loanId",
          "type": "string"
        }
      ],
      "name": "getLoanHistory",
      "outputs": [
        {
          "components": [
            {
              "internalType": "bytes32",
              "name": "TxId",
              "type": "bytes32"
            },
            {
              "internalType": "uint256",
              "name": "Timestamp",
              "type": "uint256"
            },
            {
              "internalType": "bool",
              "name": "IsDelete",
              "type": "bool"
            }
          ],
          "internalType": "struct LoanRegistry.LoanHistoryEntry[]",
          "name": "",
          "type": "tuple[]"
        }
      ],
      "stateMutability": "view",
      "type": "function"
    },
    {
      "inputs": [
        {
          "internalType": "string",
          "name": "loanId",
          "type": "string"
        }
      ],
      "name": "getLoanHistoryWithChanges",
      "outputs": [
        {
          "internalType": "bytes32[]",
          "name": "txIds",
          "type": "bytes32[]"
        },
        {
          "internalType": "uint256[]",
          "name": "timestamps",
          "type": "uint256[]"
        },
        {
          "internalType": "bool[]",
          "name": "isDeletes",
          "type": "bool[]"
        },
        {
          "internalType": "uint256[]",
          "name": "changeCounts",
          "type": "uint256[]"
        }
      ],
      "stateMutability": "view",
      "type": "function"
    },
    {
      "inputs": [],
      "name": "getTotalLoansCount",
      "outputs": [
        {
          "internalType": "uint256",
          "name": "",
          "type": "uint256"
        }
      ],
      "stateMutability": "view",
      "type": "function"
    },
    {
      "inputs": [
        {
          "internalType": "string",
          "name": "loanId",
          "type": "string"
        }
      ],
      "name": "loanExists",
      "outputs": [
        {
          "internalType": "bool",
          "name": "",
          "type": "bool"
        }
      ],
      "stateMutability": "view",
      "type": "function"
    },
    {
      "inputs": [],
      "name": "owner",
      "outputs": [
        {
          "internalType": "address",
          "name": "",
          "type": "address"
        }
      ],
      "stateMutability": "view",
      "type": "function"
    },
    {
      "inputs": [],
      "name": "queryAllLoans",
      "outputs": [
        {
          "components": [
            {
              "internalType": "string",
              "name": "ID",
              "type": "string"
            },
            {
              "internalType": "string",
              "name": "UserID",
              "type": "string"
            },
            {
              "internalType": "string",
              "name": "BorrowerFullName",
              "type": "string"
            },
            {
              "internalType": "string",
              "name": "BorrowerHomePhone",
              "type": "string"
            },
            {
              "internalType": "string",
              "name": "BorrowerPropertyAddress",
              "type": "string"
            },
            {
              "internalType": "string",
              "name": "BorrowerState",
              "type": "string"
            },
            {
              "internalType": "string",
              "name": "BorrowerZip",
              "type": "string"
            },
            {
              "internalType": "string",
              "name": "BorrowerCity",
              "type": "string"
            },
            {
              "internalType": "string",
              "name": "BorrowerEmail",
              "type": "string"
            },
            {
              "internalType": "string",
              "name": "BorrowerOccupancyStatus",
              "type": "string"
            },
            {
              "internalType": "uint256",
              "name": "CurrentPrincipalBal",
              "type": "uint256"
            },
            {
              "internalType": "uint256",
              "name": "RestrictedFunds",
              "type": "uint256"
            },
            {
              "internalType": "uint256",
              "name": "SuspenseBalance",
              "type": "uint256"
            },
            {
              "internalType": "uint256",
              "name": "EscrowBalance",
              "type": "uint256"
            },
            {
              "internalType": "uint256",
              "name": "TotalInTrust",
              "type": "uint256"
            },
            {
              "internalType": "uint256",
              "name": "NoteRate",
              "type": "uint256"
            },
            {
              "internalType": "uint256",
              "name": "SoldRate",
              "type": "uint256"
            },
            {
              "internalType": "uint256",
              "name": "DefaultRate",
              "type": "uint256"
            },
            {
              "internalType": "uint256",
              "name": "UnpaidInterest",
              "type": "uint256"
            },
            {
              "internalType": "uint256",
              "name": "UnpaidFees",
              "type": "uint256"
            },
            {
              "internalType": "uint256",
              "name": "LateFeesAmount",
              "type": "uint256"
            },
            {
              "internalType": "uint256",
              "name": "UnpaidLateFees",
              "type": "uint256"
            },
            {
              "internalType": "uint256",
              "name": "AccruedLateFees",
              "type": "uint256"
            },
            {
              "internalType": "uint256",
              "name": "UnpaidLoanCharges",
              "type": "uint256"
            },
            {
              "internalType": "uint256",
              "name": "DeferredPrincBalance",
              "type": "uint256"
            },
            {
              "internalType": "uint256",
              "name": "DeferredUnpCharges",
              "type": "uint256"
            },
            {
              "internalType": "uint256",
              "name": "OriginalLoanAmount",
              "type": "uint256"
            },
            {
              "internalType": "string",
              "name": "OriginationDate",
              "type": "string"
            },
            {
              "internalType": "string",
              "name": "NextPaymentDue",
              "type": "string"
            },
            {
              "internalType": "string",
              "name": "LoanMaturityDate",
              "type": "string"
            },
            {
              "internalType": "string",
              "name": "LastPaymentRec",
              "type": "string"
            },
            {
              "internalType": "string",
              "name": "InterestPaidTo",
              "type": "string"
            },
            {
              "internalType": "uint256",
              "name": "DeferredUnpaidInt",
              "type": "uint256"
            },
            {
              "internalType": "uint256",
              "name": "FCIRestrictedPrincipal",
              "type": "uint256"
            },
            {
              "internalType": "uint256",
              "name": "FCIRestrictedInterest",
              "type": "uint256"
            },
            {
              "internalType": "uint256",
              "name": "PymtGraceDays",
              "type": "uint256"
            },
            {
              "internalType": "uint256",
              "name": "DaysSinceLastPymt",
              "type": "uint256"
            },
            {
              "internalType": "uint256",
              "name": "NumOfPymtsDue",
              "type": "uint256"
            },
            {
              "internalType": "uint256",
              "name": "ScheduledPayment",
              "type": "uint256"
            },
            {
              "internalType": "uint256",
              "name": "PromisesToPay",
              "type": "uint256"
            },
            {
              "internalType": "uint256",
              "name": "NFSInLast12Months",
              "type": "uint256"
            },
            {
              "internalType": "uint256",
              "name": "DeferredLateFees",
              "type": "uint256"
            },
            {
              "internalType": "uint256",
              "name": "InvestorRestrictedPrincipal",
              "type": "uint256"
            },
            {
              "internalType": "uint256",
              "name": "InvestorRestrictedInterest",
              "type": "uint256"
            },
            {
              "internalType": "string",
              "name": "Status",
              "type": "string"
            },
            {
              "internalType": "string",
              "name": "LUid",
              "type": "string"
            },
            {
              "internalType": "bytes32",
              "name": "TxId",
              "type": "bytes32"
            },
            {
              "internalType": "uint256",
              "name": "BLOCKAUDITCreationAt",
              "type": "uint256"
            },
            {
              "internalType": "uint256",
              "name": "BLOCKAUDITUpdatedAt",
              "type": "uint256"
            },
            {
              "internalType": "bool",
              "name": "exists",
              "type": "bool"
            }
          ],
          "internalType": "struct LoanRegistry.Loan[]",
          "name": "",
          "type": "tuple[]"
        }
      ],
      "stateMutability": "view",
      "type": "function"
    },
    {
      "inputs": [
        {
          "internalType": "string",
          "name": "loanId",
          "type": "string"
        }
      ],
      "name": "readLoan",
      "outputs": [
        {
          "components": [
            {
              "internalType": "string",
              "name": "ID",
              "type": "string"
            },
            {
              "internalType": "string",
              "name": "UserID",
              "type": "string"
            },
            {
              "internalType": "string",
              "name": "BorrowerFullName",
              "type": "string"
            },
            {
              "internalType": "string",
              "name": "BorrowerHomePhone",
              "type": "string"
            },
            {
              "internalType": "string",
              "name": "BorrowerPropertyAddress",
              "type": "string"
            },
            {
              "internalType": "string",
              "name": "BorrowerState",
              "type": "string"
            },
            {
              "internalType": "string",
              "name": "BorrowerZip",
              "type": "string"
            },
            {
              "internalType": "string",
              "name": "BorrowerCity",
              "type": "string"
            },
            {
              "internalType": "string",
              "name": "BorrowerEmail",
              "type": "string"
            },
            {
              "internalType": "string",
              "name": "BorrowerOccupancyStatus",
              "type": "string"
            },
            {
              "internalType": "uint256",
              "name": "CurrentPrincipalBal",
              "type": "uint256"
            },
            {
              "internalType": "uint256",
              "name": "RestrictedFunds",
              "type": "uint256"
            },
            {
              "internalType": "uint256",
              "name": "SuspenseBalance",
              "type": "uint256"
            },
            {
              "internalType": "uint256",
              "name": "EscrowBalance",
              "type": "uint256"
            },
            {
              "internalType": "uint256",
              "name": "TotalInTrust",
              "type": "uint256"
            },
            {
              "internalType": "uint256",
              "name": "NoteRate",
              "type": "uint256"
            },
            {
              "internalType": "uint256",
              "name": "SoldRate",
              "type": "uint256"
            },
            {
              "internalType": "uint256",
              "name": "DefaultRate",
              "type": "uint256"
            },
            {
              "internalType": "uint256",
              "name": "UnpaidInterest",
              "type": "uint256"
            },
            {
              "internalType": "uint256",
              "name": "UnpaidFees",
              "type": "uint256"
            },
            {
              "internalType": "uint256",
              "name": "LateFeesAmount",
              "type": "uint256"
            },
            {
              "internalType": "uint256",
              "name": "UnpaidLateFees",
              "type": "uint256"
            },
            {
              "internalType": "uint256",
              "name": "AccruedLateFees",
              "type": "uint256"
            },
            {
              "internalType": "uint256",
              "name": "UnpaidLoanCharges",
              "type": "uint256"
            },
            {
              "internalType": "uint256",
              "name": "DeferredPrincBalance",
              "type": "uint256"
            },
            {
              "internalType": "uint256",
              "name": "DeferredUnpCharges",
              "type": "uint256"
            },
            {
              "internalType": "uint256",
              "name": "OriginalLoanAmount",
              "type": "uint256"
            },
            {
              "internalType": "string",
              "name": "OriginationDate",
              "type": "string"
            },
            {
              "internalType": "string",
              "name": "NextPaymentDue",
              "type": "string"
            },
            {
              "internalType": "string",
              "name": "LoanMaturityDate",
              "type": "string"
            },
            {
              "internalType": "string",
              "name": "LastPaymentRec",
              "type": "string"
            },
            {
              "internalType": "string",
              "name": "InterestPaidTo",
              "type": "string"
            },
            {
              "internalType": "uint256",
              "name": "DeferredUnpaidInt",
              "type": "uint256"
            },
            {
              "internalType": "uint256",
              "name": "FCIRestrictedPrincipal",
              "type": "uint256"
            },
            {
              "internalType": "uint256",
              "name": "FCIRestrictedInterest",
              "type": "uint256"
            },
            {
              "internalType": "uint256",
              "name": "PymtGraceDays",
              "type": "uint256"
            },
            {
              "internalType": "uint256",
              "name": "DaysSinceLastPymt",
              "type": "uint256"
            },
            {
              "internalType": "uint256",
              "name": "NumOfPymtsDue",
              "type": "uint256"
            },
            {
              "internalType": "uint256",
              "name": "ScheduledPayment",
              "type": "uint256"
            },
            {
              "internalType": "uint256",
              "name": "PromisesToPay",
              "type": "uint256"
            },
            {
              "internalType": "uint256",
              "name": "NFSInLast12Months",
              "type": "uint256"
            },
            {
              "internalType": "uint256",
              "name": "DeferredLateFees",
              "type": "uint256"
            },
            {
              "internalType": "uint256",
              "name": "InvestorRestrictedPrincipal",
              "type": "uint256"
            },
            {
              "internalType": "uint256",
              "name": "InvestorRestrictedInterest",
              "type": "uint256"
            },
            {
              "internalType": "string",
              "name": "Status",
              "type": "string"
            },
            {
              "internalType": "string",
              "name": "LUid",
              "type": "string"
            },
            {
              "internalType": "bytes32",
              "name": "TxId",
              "type": "bytes32"
            },
            {
              "internalType": "uint256",
              "name": "BLOCKAUDITCreationAt",
              "type": "uint256"
            },
            {
              "internalType": "uint256",
              "name": "BLOCKAUDITUpdatedAt",
              "type": "uint256"
            },
            {
              "internalType": "bool",
              "name": "exists",
              "type": "bool"
            }
          ],
          "internalType": "struct LoanRegistry.Loan",
          "name": "",
          "type": "tuple"
        }
      ],
      "stateMutability": "view",
      "type": "function"
    },
    {
      "inputs": [],
      "name": "renounceOwnership",
      "outputs": [],
      "stateMutability": "nonpayable",
      "type": "function"
    },
    {
      "inputs": [
        {
          "internalType": "address",
          "name": "newOwner",
          "type": "address"
        }
      ],
      "name": "transferOwnership",
      "outputs": [],
      "stateMutability": "nonpayable",
      "type": "function"
    }
  ],
  "bytecode": "0x608034620000c257601f62004a5738819003918201601f19168301916001600160401b03831184841017620000c757808492602094604052833981010312620000c257516001600160a01b039081811690819003620000c2578015620000a957600080546001600160a01b03198116831782556040519316907f8be0079c531659141344cd1fd0a4f28419497f9722a3daafe3b4186f6b6457e09080a36149799081620000de8239f35b604051631e4fbdf760e01b815260006004820152602490fd5b600080fd5b634e487b7160e01b600052604160045260246000fdfe610160604052600436101561001357600080fd5b60003560e01c80632afd3117146134a05780632b33d5e3146132415780632fe82e9414612e4157806347cdddc314612c2a5780634dae3ab7146129d85780635c1bf8651461293a5780635c3c3fcf14612800578063638ee9bc146127025780636d047cc6146126e4578063715018a61461269d57806380695be81461265a5780638694056d1461205557806387f5edaf14611bb25780638da5cb5b14611b89578063bcb197c914611b25578063c4d0b6421461056c578063e56904f41461015e5763f2fde38b146100e357600080fd5b34610159576020366003190112610159576004356001600160a01b038181169182900361015957610112614629565b8115610140576000548260018060a01b03198216176000551660008051602061494d833981519152600080a3005b604051631e4fbdf760e01b815260006004820152602490fd5b600080fd5b3461015957602080600319360112610159576004356001600160401b0381116101595761018f903690600401613956565b610197613aa9565b506040519060ff60318251938581818601966101b481838a6134e7565b810160018152030190200154161561052d576101dd9183916040519384928392519283916134e7565b810160018152030190209060ff6031604051936101f9856138c6565b6040516102118161020a8185613c48565b0382613918565b85526040516102278161020a8160018601613c48565b8486015260405161023f8161020a8160028601613c48565b60408601526040516102588161020a8160038601613c48565b60608601526040516102718161020a8160048601613c48565b608086015260405161028a8161020a8160058601613c48565b60a08601526040516102a38161020a8160068601613c48565b60c08601526040516102bc8161020a8160078601613c48565b60e08601526040516102d58161020a8160088601613c48565b6101008601526040516102ef8161020a8160098601613c48565b610120860152600a810154610140860152600b810154610160860152600c810154610180860152600d8101546101a0860152600e8101546101c0860152600f8101546101e08601526010810154610200860152601181015461022086015260128101546102408601526013810154610260860152601481015461028086015260158101546102a086015260168101546102c086015260178101546102e086015260188101546103008601526019810154610320860152601a8101546103408601526040516103c48161020a81601b8601613c48565b6103608601526040516103de8161020a81601c8601613c48565b6103808601526040516103f88161020a81601d8601613c48565b6103a08601526040516104128161020a81601e8601613c48565b6103c086015260405161042c8161020a81601f8601613c48565b6103e086015283810154610400860152602181015461042086015260228101546104408601526023810154610460860152602481015461048086015260258101546104a086015260268101546104c086015260278101546104e086015260288101546105008601526029810154610520860152602a810154610540860152602b8101546105608601526040516104c98161020a81602c8601613c48565b6105808601526040516104e38161020a81602d8601613c48565b6105a0860152602e8101546105c0860152602f8101546105e08601526030810154610600860152015416151561062083015261052960405192828493845283019061352f565b0390f35b60405162461bcd60e51b8152600481018490526017602482015276151a19481b1bd85b88191bd95cc81b9bdd08195e1a5cdd604a1b6044820152606490fd5b34610159576105c0366003190112610159576004356001600160401b0381116101595761059d903690600401613956565b610120526024356001600160401b038111610159576105c0903690600401613956565b60a0526044356001600160401b038111610159576105e2903690600401613956565b6064356001600160401b03811161015957610601903690600401613956565b906084356001600160401b03811161015957610621903690600401613956565b6101405260a4356001600160401b03811161015957610644903690600401613956565b60c4356001600160401b03811161015957610663903690600401613956565b60e4356001600160401b03811161015957610682903690600401613956565b610104356001600160401b038111610159576106a2903690600401613956565b610124356001600160401b038111610159576106c2903690600401613956565b610364356001600160401b038111610159576106e2903690600401613956565b610384356001600160401b03811161015957610702903690600401613956565b916103a4356001600160401b03811161015957610723903690600401613956565b936103c4356001600160401b03811161015957610744903690600401613956565b956001600160401b036103e4351161015957610766366103e435600401613956565b976001600160401b036105843511610159576107883661058435600401613956565b996001600160401b036105a43511610159576107aa366105a435600401613956565b9c6107b3614629565b60a051518015159081611af6575b5015611abc57610120515115611a815760405142602082015243604082015261081860748261012051516107ff8160608401602061012051016134e7565b81013360601b6060820152036054810184520182613918565b602081519101209c4260c05260ff6031604051602081610120515161084381838561012051016134e7565b600181830152810103019020015416611a50575b604051602081610120515161087281838561012051016134e7565b810160018152030190206101005260405160e05261089160e0516138c6565b6040516108a58161020a8161010051613c48565b60e051526040516108c08161020a8160016101005101613c48565b602060e05101526040516108de8161020a8160026101005101613c48565b604060e05101526040516108fc8161020a8160036101005101613c48565b606060e051015260405161091a8161020a8160046101005101613c48565b608060e05101526040516109388161020a8160056101005101613c48565b60a060e05101526040516109568161020a8160066101005101613c48565b60c060e05101526040516109748161020a8160076101005101613c48565b60e0805101526040516109918161020a8160086101005101613c48565b61010060e05101526040516109b08161020a8160096101005101613c48565b61012060e0510152600a61010051015461014060e0510152600b61010051015461016060e0510152600c61010051015461018060e0510152600d6101005101546101a060e0510152600e6101005101546101c060e0510152600f6101005101546101e060e0510152601061010051015461020060e0510152601161010051015461022060e0510152601261010051015461024060e0510152601361010051015461026060e0510152601461010051015461028060e051015260156101005101546102a060e051015260166101005101546102c060e051015260176101005101546102e060e0510152601861010051015461030060e0510152601961010051015461032060e0510152601a61010051015461034060e0510152604051610adf8161020a81601b6101005101613c48565b61036060e0510152604051610afe8161020a81601c6101005101613c48565b61038060e0510152604051610b1d8161020a81601d6101005101613c48565b6103a060e0510152604051610b3c8161020a81601e6101005101613c48565b6103c060e0510152604051610b5b8161020a81601f6101005101613c48565b6103e060e0510152602061010051015461040060e0510152602161010051015461042060e0510152602261010051015461044060e0510152602361010051015461046060e0510152602461010051015461048060e051015260256101005101546104a060e051015260266101005101546104c060e051015260276101005101546104e060e0510152602861010051015461050060e0510152602961010051015461052060e0510152602a61010051015461054060e0510152602b61010051015461056060e0510152604051610c3a8161020a81602c6101005101613c48565b61058060e0510152604051610c598161020a81602d6101005101613c48565b6105a060e0510152602e6101005101546105c060e0510152602f6101005101546105e060e0510152603061010051015461060060e051015260ff603161010051015416151561062060e0510152604051608052610cb76080516138c6565b610120516080515260a0516020608051015260406080510152606060805101526101405160808051015260a0608051015260c0608051015260e06080510152610100608051015261012060805101526101443561014060805101526101643561016060805101526101843561018060805101526101a4356101a060805101526101c4356101c060805101526101e4356101e060805101526102043561020060805101526102243561022060805101526102443561024060805101526102643561026060805101526102843561028060805101526102a4356102a060805101526102c4356102c060805101526102e4356102e06080510152610304356103006080510152610324356103206080510152610344356103406080510152610360608051015261038060805101526103a060805101526103c060805101526103e060805101526104043561040060805101526104243561042060805101526104443561044060805101526104643561046060805101526104843561048060805101526104a4356104a060805101526104c4356104c060805101526104e4356104e060805101526105043561050060805101526105243561052060805101526105443561054060805101526105643561056060805101526105806080510152816105a06080510152806105c0608051015260c0516105e0608051015242610600608051015260016106206080510152611236610ece4261480b565b61120c610f36602060405193610f25602186848101936101205151610ef981878961012051016134e7565b8201605f60f81b87820152610f16825180938987850191016134e7565b01036001810188520186613918565b6040518093819287519283916134e7565b81016003815203019020610f4d6080515182614480565b610f606020608051015160018301614480565b610f736040608051015160028301614480565b610f866060608051015160038301614480565b610f9860808051015160048301614480565b610fab60a0608051015160058301614480565b610fbe60c0608051015160068301614480565b610fd160e0608051015160078301614480565b610fe5610100608051015160088301614480565b610ff9610120608051015160098301614480565b608051610140810151600a830155610160810151600b830155610180810151600c8301556101a0810151600d8301556101c0810151600e8301556101e0810151600f830155610200810151601083015561022081015160118301556102408101516012830155610260810151601383015561028081015160148301556102a081015160158301556102c081015160168301556102e0810151601783015561030081015160188301556103208101516019830155610340810151601a83015561036001516110c990601b8301614480565b6110dd6103806080510151601c8301614480565b6110f16103a06080510151601d8301614480565b6111056103c06080510151601e8301614480565b6111196103e06080510151601f8301614480565b608051610400810151602083015561042081015160218301556104408101516022830155610460810151602383015561048081015160248301556104a081015160258301556104c081015160268301556104e0810151602783015561050081015160288301556105208101516029830155610540810151602a830155610560810151602b83015561058001516111b290602c8301614480565b6111c66105a06080510151602d8301614480565b6105c06080510151602e8201556105e06080510151602f8201556106006080510151603082015560316106206080510151151591019060ff801983541691151516179055565b604051602081610120515161122781838561012051016134e7565b810160028152030190206145fc565b80600052600460205260406000208181556112576101205160018301614480565b42600382015560e0516106200151156119715760209260026113b892604060e05101518051878201209060406080510151918251898401200361191e575b5050606060e0510151805187820120906060608051015191825189840120036118ca575b5050608060e0510151805187820120906080805101519182518984012003611870575b505061058060e05101518051878201209061058060805101519182518984012003611827575b505061014060e0510151610140608051015181036117ba575b5061024060e051015161024060805101518103611752575b5001547fd438615c2b2269e4b0b8b81dc5b2176a47eb3bc844a50b4324243114e303a6246040611365610120516145dc565b9281519087825288820152a25b6105a060e05101518051908115158061173f575b611711575b5050836113a160405192838151938492016134e7565b810190600782528481610120519303019020614480565b8160e0510151805180151590816116f9575b506116b6575b50611668604051838161012051516113ee81838561012051016134e7565b810160018152030190206114056080515182614480565b61141784608051015160018301614480565b61142a6040608051015160028301614480565b61143d6060608051015160038301614480565b61144f60808051015160048301614480565b61146260a0608051015160058301614480565b61147560c0608051015160068301614480565b61148860e0608051015160078301614480565b61149c610100608051015160088301614480565b6114b0610120608051015160098301614480565b608051610140810151600a830155610160810151600b830155610180810151600c8301556101a0810151600d8301556101c0810151600e8301556101e0810151600f830155610200810151601083015561022081015160118301556102408101516012830155610260810151601383015561028081015160148301556102a081015160158301556102c081015160168301556102e0810151601783015561030081015160188301556103208101516019830155610340810151601a830155610360015161158090601b8301614480565b6115946103806080510151601c8301614480565b6115a86103a06080510151601d8301614480565b6115bc6103c06080510151601e8301614480565b6115d06103e06080510151601f8301614480565b6080516104008101518286015561042081015160218301556104408101516022830155610460810151602383015561048081015160248301556104a081015160258301556104c081015160268301556104e0810151602783015561050081015160288301556105208101516029830155610540810151602a830155610560810151602b83015561058001516111b290602c8301614480565b611695816040518481610120515161168681838561012051016134e7565b810160058152030190206145a7565b80600052600882526116ae610120516040600020614480565b604051908152f35b610120516116c391614742565b6116f360405160a051516116dc81838760a051016134e7565b8101906006825284816101205193030190206145fc565b826113d0565b90508382012060a051518460a05101201415846113ca565b858091836117296117389560405180968195016134e7565b8101600781520301902061454f565b848061138b565b5081868201208351878501201415611386565b61175e6117b49161480b565b61176e610240608051015161480b565b6040519161177b836138e2565b604051611787816138fd565b600e81526d155b9c185a59125b9d195c995cdd60921b8b82015283528983015260408201528383016148f3565b86611333565b6117c66118219161480b565b6117d6610140608051015161480b565b604051916117e3836138e2565b6040516117ef816138fd565b601381527210dd5c9c995b9d141c9a5b98da5c185b10985b606a1b8b82015283528983015260408201528383016148f3565b8661131b565b6118699160405191611838836138e2565b604051611844816138fd565b600681526553746174757360d01b8b82015283528983015260408201528383016148f3565b8680611302565b6118c39160405191611881836138e2565b60405161188d816138fd565b6017815276426f72726f77657250726f70657274794164647265737360481b8b82015283528983015260408201528383016148f3565b86806112dc565b61191791604051916118db836138e2565b6040516118e7816138fd565b6011815270426f72726f776572486f6d6550686f6e6560781b8b82015283528983015260408201528383016148f3565b86806112b9565b61196a916040519161192f836138e2565b60405161193b816138fd565b601081526f426f72726f77657246756c6c4e616d6560801b8b82015283528983015260408201528383016148f3565b8680611295565b50600954600160401b811015611a3a5780600161199192016009556142fc565b611a24576020926119a96113b8926101205190614480565b6119d960405160a051516119c281838960a051016134e7565b8101906006825286816101205193030190206145fc565b6119e5610120516145dc565b6119f060a0516145dc565b907fd795ecbbd6f651fb7197486a647ea4a0a8256846059ffb5abc5cda4943adafef604080518781524289820152a3611372565b634e487b7160e01b600052600060045260246000fd5b634e487b7160e01b600052604160045260246000fd5b602f6040516020816101205151611a6d81838561012051016134e7565b81016001815203019020015460c052610857565b60405162461bcd60e51b8152602060048201526013602482015272131bd85b881251081a5cc81c995c5d5a5c9959606a1b6044820152606490fd5b60405162461bcd60e51b8152602060048201526012602482015271155cd95c9251081a5cc81c995c5d5a5c995960721b6044820152606490fd5b9050602060a051012060036020604051611b0f816138fd565b82815201622d2d2d60e81b81522014158f6107c1565b34610159576020366003190112610159576004356001600160401b0381116101595760ff6031611b726020611b5f81953690600401613956565b81604051938285809451938492016134e7565b810160018152030190200154166040519015158152f35b34610159576000366003190112610159576000546040516001600160a01b039091168152602090f35b3461015957602080600319360112610159576004356001600160401b03811161015957611be3903690600401613956565b9080611bf860405193848151938492016134e7565b82019181816006946006815203019020918254611c1481613a35565b93611c226040519586613918565b8185526000908152838120848087015b84841061202f578782600088815b8451811015611c845760ff6031611c60611c5a8489613d04565b51613cde565b015416611c70575b600101611c40565b91611c7c6001916143c3565b929050611c68565b509190611c90906143d2565b9260009060005b815181101561202157603160ff8082611cb3611c5a8688613d04565b015416611cc5575b5050600101611c97565b93612019918395611cdb611c5a60019688613d04565b9160405192611ce9846138c6565b604051611cfa8161020a8185613c48565b8452604051611d0f8161020a818b8601613c48565b8a850152604051611d278161020a8160028601613c48565b6040850152604051611d408161020a8160038601613c48565b6060850152604051611d598161020a8160048601613c48565b6080850152604051611d728161020a8160058601613c48565b60a085015261020a611d8c8c604051928380928601613c48565b60c0850152604051611da58161020a8160078601613c48565b60e0850152604051611dbe8161020a8160088601613c48565b610100850152604051611dd88161020a8160098601613c48565b610120850152600a810154610140850152600b810154610160850152600c810154610180850152600d8101546101a0850152600e8101546101c0850152600f8101546101e08501526010810154610200850152601181015461022085015260128101546102408501526013810154610260850152601481015461028085015260158101546102a085015260168101546102c085015260178101546102e085015260188101546103008501526019810154610320850152601a810154610340850152604051611ead8161020a81601b8601613c48565b610360850152604051611ec78161020a81601c8601613c48565b610380850152604051611ee18161020a81601d8601613c48565b6103a0850152604051611efb8161020a81601e8601613c48565b6103c0850152604051611f158161020a81601f8601613c48565b6103e085015289810154610400850152602181015461042085015260228101546104408501526023810154610460850152602481015461048085015260258101546104a085015260268101546104c085015260278101546104e085015260288101546105008501526029810154610520850152602a810154610540850152602b810154610560850152604051611fb28161020a81602c8601613c48565b610580850152604051611fcc8161020a81602d8601613c48565b6105a0850152602e8101546105c0850152602f8101546105e085015260308101546106008501520154161515610620820152612008828a613d04565b526120138189613d04565b506143c3565b929087611cbb565b6040518061052988826139d1565b60019182916040516120458161020a8189613c48565b8152019201920191908590611c32565b3461015957602080600319360112610159576004356001600160401b03811161015957612086903690600401613956565b9061208f614629565b6040519180519060ff6031848301936120a98188876134e7565b8601958581600198898152030190200154161561261f576040518381019042825243604082015261210560668285516120e681606084018a6134e7565b81016544454c45544560d01b6060820152036046810184520182613918565b519020916040518481845161211b8183876134e7565b81018881520301902085604051612131816138c6565b6040516121428161020a8187613c48565b81526124a58560405161215b8161020a81888a01613c48565b8984019081526040516121758161020a8160028b01613c48565b604085015260405161218e8161020a8160038b01613c48565b60608501526040516121a78161020a8160048b01613c48565b60808501526040516121c08161020a8160058b01613c48565b60a08501526040516121d98161020a8160068b01613c48565b60c08501526040516121f28161020a8160078b01613c48565b60e085015260405161220b8161020a8160088b01613c48565b61010085015261249f6117298b60099860405161222f8161020a8160098601613c48565b610120890152600a810154610140890152600b810154610160890152600c810154610180890152600d8101546101a0890152600e8101546101c0890152600f8101546101e089015260108101546102008901528c6124858760119b60118501546102208d015260128501546102408d015260138501546102608d015260148501546102808d015260158501546102a08d015260168501546102c08d015260178501546102e08d015260188501546103008d015260198501546103208d0152601a8501546103408d015260405161230c8161020a81601b8a01613c48565b6103608d01526040516123268161020a81601c8a01613c48565b6103808d01526040516123408161020a81601d8a01613c48565b6103a08d015260405161235a8161020a81601e8a01613c48565b6103c08d01526040516123748161020a81601f8a01613c48565b6103e08d0152858501546104008d015260218501546104208d015260228501546104408d015260238501546104608d015260249b602486015461048082015260258601546104a082015260268601546104c082015260278601546104e082015260288601546105008201526029860154610520820152602a860154610540820152602b8601546105608201526040516124148161020a81602c8b01613c48565b61058082015261062060ff60316040519861243d8a61243681602d8501613c48565b038b613918565b6105a08501998a52602e8101546105c0860152602f8101546105e086015260308101546106008601520154161515910152836000526004865260406000209384558301614480565b6003429101555181604051938285809451938492016134e7565b51614742565b6000885b612544575b50505050906124f883611686866125139560318a8360405180928a516124d58184896134e7565b8201908152030190200160ff1981541690556040518093819288519283916134e7565b826000526008845261250e816040600020614480565b6145dc565b7f1f4b13e4dd15d25a92f66856e750d208468c8c7ce52eb2a6e880e95650ce41a783604051848152a2604051908152f35b8354808210156126195761020a61256a61255d846142fc565b5060405192838092613c48565b898151910120875187201461258257508801886124a9565b600099959697989919938482019182116126055750906125ae6125a76125b4936142fc565b50916142fc565b90614733565b82549081156125f15750612513959460316124f8958995611686958c9501906125e56125df836142fc565b90614598565b559998975050936124ae565b634e487b7160e01b60009081526031600452fd5b8390634e487b7160e01b6000526004526000fd5b506124ae565b60405162461bcd60e51b8152600481018490526013602482015272131bd85b88191bd95cc81b9bdd08195e1a5cdd606a1b6044820152606490fd5b346101595760203660031901126101595760043560005260046020526105296126896002604060002001613d2e565b60405191829160208352602083019061381b565b34610159576000366003190112610159576126b6614629565b600080546001600160a01b0319811682556001600160a01b031660008051602061494d8339815191528280a3005b34610159576000366003190112610159576020600954604051908152f35b3461015957602080600319360112610159576004356001600160401b0381116101595781611b5f612737923690600401613956565b81016005815203019020604051808284829454938481520190600052846000209260005b868282106127ea578461277081860382613918565b8051156127ad57805160001981019081116127975761278e91613d04565b51604051908152f35b634e487b7160e01b600052601160045260246000fd5b60405162461bcd60e51b8152600481018390526015602482015274139bc81d1c985b9cd858dd1a5bdb9cc8199bdd5b99605a1b6044820152606490fd5b855484526001958601958795509301920161275b565b3461015957602080600319360112610159576004356001600160401b0381116101595761286d6128578361283b61020a943690600401613956565b612843613aa9565b5081604051938285809451938492016134e7565b8101600781520301902060405192838092613c48565b8051156128f6576040519060ff603182519385818186019661289081838a6134e7565b81016001815203019020015416156128b9576101dd9183916040519384928392519283916134e7565b60405162461bcd60e51b8152600481018490526015602482015274131bd85b881a185cc81899595b8819195b195d1959605a1b6044820152606490fd5b60405162461bcd60e51b815260048101839052601c60248201527b139bc81b1bd85b88199bdd5b99081dda5d1a081d1a1a5cc813155a5960221b6044820152606490fd5b346101595760003660031901126101595760095461295781613a35565b6129646040519182613918565b818152600960009081527f6e1540171b6c0c960b71a7020d9f60077f6af931a8bbf590da0223dacf75c7af929060208084015b8383106129b4576040516020808252819061052990820188613a4c565b60018281926040516129ca8161020a818d613c48565b815201960192019194612997565b3461015957602080600319360112610159576004356001600160401b03811161015957612a09903690600401613956565b612a158151151561428b565b604051815190838181850193612a2c8183876134e7565b8101600581520301902090604051808386829554938481520190600052866000209260005b88828210612c1457505050612a6892500383613918565b815191612a8d612a7784613a35565b93612a856040519586613918565b808552613a35565b601f19018560005b828110612be95750505060005b8151811015612b9657612ab58183613d04565b5160005260048652604060002090604051612acf816138ab565b8254815260606003600194604051612aed8161020a818a8601613c48565b8b850152612afd60028201613d2e565b60408501520154910190815260ff6031612b328a88612b1c878a613d04565b519551978c6040519485938492519283916134e7565b8201908152030190200154161580612b7e575b60019360405192612b55846138e2565b83528983015215156040820152612b6c8287613d04565b52612b778186613d04565b5001612aa2565b50835160001981019390841161279757928214612b45565b604080518781528551818901819052868901928201908960005b828110612bbd5784840385f35b855180518552808301518584015260409081015115159085015294810194606090930192600101612bb0565b604051612bf5816138e2565b6000815260008382015260006040820152828288010152018690612a95565b8554845260019586019588955093019201612a51565b346101595760208060031936011261015957600435906001600160401b03808311610159573660238401121561015957826004013591602493612c6c84613a35565b92612c7a6040519485613918565b84845282840190602460059660051b840101923684116101595760248101925b848410612e1b575050505050815192612cb284613a35565b93612cc06040519586613918565b808552612ccf601f1991613a35565b018260005b828110612e0b57505050612ce883516142ca565b9260005b8151811015612de157612cff8183613d04565b51612d0a8288613d04565b52612d158187613d04565b50612d3884612d248385613d04565b5181604051938285809451938492016134e7565b8101868152030190209060405180838782955493848152019060005287600020926000905b89818310612dc757505050612d7492500383613918565b81519182612d88575b506001915001612cec565b6000198301928311612db257600192612da091613d04565b51612dab8288613d04565b5288612d7d565b88634e487b7160e01b60005260116004526000fd5b600192945082919386548152019401920185929391612d5d565b612dfe866105298688604051948594604086526040860190613a4c565b918483039085015261399d565b6060828289010152018390612cd4565b8335838111610159578691612e3683928c3691870101613956565b815201930192612c9a565b3461015957600036600319011261015957600980546000805b82811061320d5750612e6b906143d2565b916000805b838110612e85576040518061052987826139d1565b612ea0612e91826142fc565b5060ff8091603193849161432f565b015416612eb2575b5050600101612e70565b92613205918394612ecd612ec76001966142fc565b5061432f565b9160405192612edb846138c6565b604051612eec8161020a8185613c48565b8452604051612f018161020a818b8601613c48565b60209081860152604051612f1c8161020a8160028701613c48565b6040860152604051612f358161020a8160038701613c48565b6060860152604051612f4e8161020a8160048701613c48565b6080860152604051612f678161020a8160058701613c48565b60a0860152604051612f808161020a8160068701613c48565b60c0860152604051612f998161020a8160078701613c48565b60e0860152604051612fb28161020a8160088701613c48565b610100860152604051612fcb8161020a81868f01613c48565b610120860152600a820154610140860152600b820154610160860152600c820154610180860152600d8201546101a0860152600e8201546101c0860152600f8201546101e08601526010820154610200860152601182015461022086015260128201546102408601526013820154610260860152601482015461028086015260158201546102a086015260168201546102c086015260178201546102e086015260188201546103008601526019820154610320860152601a8201546103408601526040516130a08161020a81601b8701613c48565b6103608601526040516130ba8161020a81601c8701613c48565b6103808601526040516130d48161020a81601d8701613c48565b6103a08601526040516130ee8161020a81601e8701613c48565b6103c08601526040516131088161020a81601f8701613c48565b6103e0860152810154610400850152602181015461042085015260228101546104408501526023810154610460850152602481015461048085015260258101546104a085015260268101546104c085015260278101546104e085015260288101546105008501526029810154610520850152602a810154610540850152602b8101546105608501526040516131a48161020a81602c8601613c48565b6105808501526040516131be8161020a81602d8601613c48565b6105a0850152602e8101546105c0850152602f8101546105e0850152603081015461060085015201541615156106208201526131fa8289613d04565b526120138188613d04565b919086612ea8565b60ff603161321d612ec7846142fc565b01541661322d575b600101612e5a565b906132396001916143c3565b919050613225565b3461015957602080600319360112610159576004356001600160401b03811161015957613272903690600401613956565b61327e8151151561428b565b604051918151928181818501956132968183896134e7565b81016005815203019020604051808284829454938481520190600052846000209260005b8682821061348a575050506132d192500382613918565b6132db81516142ca565b916132e682516142ca565b948251916132f6612a7784613a35565b8382019690601f190136883761330c85516142ca565b9560005b8651811015613413578060ff603161337c8d6133ac858a6133998f998a6133398260029d613d04565b51600052600484526060600361338560406000209e8f6133756040519961335f8b6138ab565b82548b5260019e8f604051938480928701613c48565b0383613918565b8a015201613d2e565b9d604087019e8f5201549401938452613d04565b516133a4838c613d04565b525192613d04565b52876040518092816133c28d8c519283916134e7565b82019081520301902001541615806133fb575b916001926133e3838a613d04565b901515905251516133f4828b613d04565b5201613310565b508751600019810192908311612797579181146133d5565b508261343591898988846134428f60405198899760808952608089019061399d565b908782038489015261399d565b918583036040870152519182815201929460005b8281106134715785806105298787838203606085015261399d565b8651151585529581019587955093810193600101613456565b85548452600195860195879550930192016132ba565b34610159576020366003190112610159576134d96105296134c2600435613dcf565b60409291925193849360408552604085019061352f565b90838203602085015261381b565b60005b8381106134fa5750506000910152565b81810151838201526020016134ea565b90602091613523815180928185528580860191016134e7565b601f01601f1916010190565b906137ea6137d661373e61372a6137166137026136ee61361f61360b6135f76135e48c60c06135d48e6135c06135ae61359c61358a61357861064089519080885287019061350a565b6020890151868203602088015261350a565b6040880151858203604087015261350a565b6060870151848203606086015261350a565b6080860151838203608085015261350a565b9060a08501519060a081840391015261350a565b9101518d820360c08f015261350a565b60e08d01518c60e081840391015261350a565b610100808d0151908c8303908d015261350a565b610120808c0151908b8303908c015261350a565b610140808b0151908a0152610160808b0151908a0152610180808b0151908a01526101a0808b0151908a01526101c0808b0151908a01526101e0808b0151908a0152610200808b0151908a0152610220808b0151908a0152610240808b0151908a0152610260808b0151908a0152610280808b0151908a01526102a0808b0151908a01526102c0808b0151908a01526102e0808b0151908a0152610300808b0151908a0152610320808b0151908a0152610340808b0151908a0152610360808b0151908a8303908b015261350a565b610380808a015190898303908a015261350a565b6103a080890151908883039089015261350a565b6103c080880151908783039088015261350a565b6103e080870151908683039087015261350a565b610400808601519085015261042080860151908501526104408086015190850152610460808601519085015261048080860151908501526104a080860151908501526104c080860151908501526104e08086015190850152610500808601519085015261052080860151908501526105408086015190850152610560808601519085015261058080860151908583039086015261350a565b6105a080850151908483039085015261350a565b916105c080820151908301526105e08082015190830152610600808201519083015261062080910151151591015290565b908082519081815260208091019281808460051b8301019501936000915b8483106138495750505050505090565b909192939495848061389b600193601f198682030187528a51613888613878606083519080865285019061350a565b858301518482038786015261350a565b916040809201519181840391015261350a565b9801930193019194939290613839565b608081019081106001600160401b03821117611a3a57604052565b61064081019081106001600160401b03821117611a3a57604052565b606081019081106001600160401b03821117611a3a57604052565b604081019081106001600160401b03821117611a3a57604052565b601f909101601f19168101906001600160401b03821190821017611a3a57604052565b6001600160401b038111611a3a57601f01601f191660200190565b81601f820112156101595780359061396d8261393b565b9261397b6040519485613918565b8284526020838301011161015957816000926020809301838601378301015290565b90815180825260208080930193019160005b8281106139bd575050505090565b8351855293810193928101926001016139af565b6020808201906020835283518092526040830192602060408460051b8301019501936000915b848310613a075750505050505090565b9091929394958480613a25600193603f198682030187528a5161352f565b98019301930191949392906139f7565b6001600160401b038111611a3a5760051b60200190565b90808251908181526020809101926020808460051b8301019501936000915b848310613a7b5750505050505090565b9091929394958480613a99600193601f198682030187528a5161350a565b9801930193019194939290613a6b565b60405190613ab6826138c6565b8161062060609182815282602082015282604082015282808201528260808201528260a08201528260c08201528260e08201528261010082015282610120820152600092836101408301528361016083015283610180830152836101a0830152836101c0830152836101e08301528361020083015283610220830152836102408301528361026083015283610280830152836102a0830152836102c0830152836102e08301528361030083015283610320830152836103408301528061036083015280610380830152806103a0830152806103c0830152806103e08301528361040083015283610420830152836104408301528361046083015283610480830152836104a0830152836104c0830152836104e083015283610500830152836105208301528361054083015283610560830152806105808301526105a0820152826105c0820152826105e0820152826106008201520152565b90600182811c92168015613c3e575b6020831014613c2857565b634e487b7160e01b600052602260045260246000fd5b91607f1691613c1d565b805460009392613c5782613c0e565b91828252602093600191600181169081600014613cbf5750600114613c7e575b5050505050565b90939495506000929192528360002092846000945b838610613cab57505050500101903880808080613c77565b805485870183015294019385908201613c93565b60ff19168685015250505090151560051b010191503880808080613c77565b6020613cf79181604051938285809451938492016134e7565b8101600181520301902090565b8051821015613d185760209160051b010190565b634e487b7160e01b600052603260045260246000fd5b908154613d3a81613a35565b92604093613d4a85519182613918565b82815280946020809201926000526020600020906000935b858510613d7157505050505050565b6003846001928451613d82816138e2565b8551613d928161020a818b613c48565b81528551613da68161020a81898c01613c48565b838201528551613dbd8161020a8160028c01613c48565b86820152815201930194019391613d62565b90613dd8613aa9565b50600090828252613dff600860209360088552604091613e06838320845195868092613c48565b0385613918565b83511561424f5785613e20845195868151938492016134e7565b84019386816002966002815203019020958654613e3c81613a35565b97613e498651998a613918565b8189528452818420849083808b015b84841061422a575050505050825b87518110156141db57613e798189613d04565b5182613e8d875192838151938492016134e7565b81019083816003938481520301902061020a613efc885193613eae856138c6565b8951613ebe8161020a8188613c48565b85528951613ed38161020a8160018901613c48565b8786015261020a613eeb8c8c51928380928901613c48565b8a8601528951928380928601613c48565b60608301528a6004918851613f178161020a81878601613c48565b60808501528851613f2f8161020a8160058601613c48565b60a08501528851613f478161020a8160068601613c48565b60c08501528851613f5f8161020a8160078601613c48565b60e08501528851613f768161020a818b8601613c48565b6101008501528851613f8f8161020a8160098601613c48565b610120850152600a810154610140850152600b810154610160850152600c810154610180850152600d8101546101a0850152600e8101546101c0850152600f8101546101e08501526010810154610200850152601181015461022085015260128101546102408501526013810154610260850152601481015461028085015260158101546102a085015260168101546102c085015260178101546102e085015260188101546103008501526019810154610320850152601a81015461034085015288516140638161020a81601b8601613c48565b610360850152885161407c8161020a81601c8601613c48565b61038085015288516140958161020a81601d8601613c48565b6103a085015288516140ae8161020a81601e8601613c48565b6103c085015288516140c78161020a81601f8601613c48565b6103e085015285810154610400850152602181015461042085015260228101546104408501526023810154610460850152602481015461048085015260258101546104a085015260268101546104c085015260278101546104e085015260288101546105008501526029810154610520850152602a810154610540850152602b81015461056085015288516141638161020a81602c8601613c48565b610580850152885161417c8161020a81602d8601613c48565b6105a085015260ff6031602e83015492836105c0880152602f8101546105e088015260308101546106008801520154161515610620850152146141c3575050600101613e66565b93509890506141d89697508352522001613d2e565b90565b845162461bcd60e51b815260048101839052602260248201527f4c6f616e207374617465206e6f7420666f756e6420666f722074686973205478604482015261125960f21b6064820152608490fd5b60019182918a5161423f8161020a8189613c48565b8152019201920191908490613e58565b825162461bcd60e51b8152600481018790526015602482015274151c985b9cd858dd1a5bdb881b9bdd08199bdd5b99605a1b6044820152606490fd5b1561429257565b60405162461bcd60e51b815260206004820152601060248201526f131bd85b881251081c995c5d5a5c995960821b6044820152606490fd5b906142d482613a35565b6142e16040519182613918565b82815280926142f2601f1991613a35565b0190602036910137565b600954811015613d1857600960005260206000200190600090565b8054821015613d185760005260206000200190600090565b60405190816000825461434181613c0e565b936001918083169081156143a75750600114614369575b505060209250600181520301902090565b9091506000526020906020600020906000915b858310614393575050505060209181013880614358565b80548784015286945091830191810161437c565b92505050602093915060ff191682528015150281013880614358565b60001981146127975760010190565b906143dc82613a35565b6143e96040519182613918565b82815280926143fa601f1991613a35565b019060005b82811061440b57505050565b602090614416613aa9565b828285010152016143ff565b81811061442d575050565b60008155600101614422565b9190601f811161444857505050565b614474926000526020600020906020601f840160051c83019310614476575b601f0160051c0190614422565b565b9091508190614467565b81519192916001600160401b038111611a3a576144a7816144a18454613c0e565b84614439565b602080601f83116001146144ea575081906144db9394956000926144df575b50508160011b916000199060031b1c19161790565b9055565b0151905038806144c6565b90601f19831695846000526020600020926000905b8882106145375750508360019596971061451e575b505050811b019055565b015160001960f88460031b161c19169055388080614514565b806001859682949686015181550195019301906144ff565b6145598154613c0e565b9081614563575050565b81601f60009311600114614575575055565b908083918252614594601f60208420940160051c840160018501614422565b5555565b90611a24576145598154613c0e565b8054600160401b811015611a3a576145c491600182018155614317565b819291549060031b91821b91600019901b1916179055565b6145f4906020604051928284809451938492016134e7565b810103902090565b8054600160401b811015611a3a5761461991600182018155614317565b919091611a245761447491614480565b6000546001600160a01b0316330361463d57565b60405163118cdaa760e01b8152336004820152602490fd5b9080821461472f576146678154613c0e565b906001600160401b038211611a3a5761468a826146848554613c0e565b85614439565b600090601f83116001146146c5576144db9291600091836146ba5750508160011b916000199060031b1c19161790565b0154905038806144c6565b815260208082208483528183209291601f1985169083905b8282106147165750509084600195949392106146fd57505050811b019055565b015460001960f88460031b161c19169055388080614514565b84958192958501548155600180910196019401906146dd565b5050565b9190611a245761447491614655565b6040805160208184516147598183858099016134e7565b810160068152030190209160005b8354808210156148035761020a61478d6147818488614317565b50865192838092613c48565b838151910120865184880120146147a75750600101614767565b92509293505060001991828201918211612797576125ae6147cb6147d39386614317565b509185614317565b815480156147ed5701906147ea6125df8383614317565b55565b634e487b7160e01b600052603160045260246000fd5b505050505050565b80156148d5579060009082805b6148bb57506148268261393b565b916148346040519384613918565b808352601f196148438261393b565b013660208501375b8084156148b4576000198201918211612797578194600a92838204938085029085820414851517156127975782039182116127975760ff8092166030019182116127975785511115613d185760f81b6001600160f81b03191660001a908401601f01539261484b565b5050915090565b916148ca600a919492946143c3565b920480939193614818565b506040516148e2816138fd565b60018152600360fc1b602082015290565b908154600160401b811015611a3a5760018101808455811015613d18576040600291614474946000526003602060002091020192614932815185614480565b614943602082015160018601614480565b0151910161448056fe8be0079c531659141344cd1fd0a4f28419497f9722a3daafe3b4186f6b6457e0a164736f6c6343000818000a",
  "linkReferences": {},
  "deployedLinkReferences": {}
}