{
  "_format": "hh-sol-artifact-1",
  "contractName": "Portfolio",
  "sourceName": "src/Portfolio.sol",
  "abi": [
    {
      "inputs": [
        {
          "internalType": "address",
          "name": "initialOwner",
          "type": "address"
        }
      ],
      "stateMutability": "nonpayable",
      "type": "constructor"
    },
    {
      "inputs": [
        {
          "internalType": "address",
          "name": "owner",
          "type": "address"
        }
      ],
      "name": "OwnableInvalidOwner",
      "type": "error"
    },
    {
      "inputs": [
        {
          "internalType": "address",
          "name": "account",
          "type": "address"
        }
      ],
      "name": "OwnableUnauthorizedAccount",
      "type": "error"
    },
    {
      "anonymous": false,
      "inputs": [
        {
          "indexed": true,
          "internalType": "string",
          "name": "userId",
          "type": "string"
        },
        {
          "indexed": true,
          "internalType": "address",
          "name": "userAddress",
          "type": "address"
        },
        {
          "indexed": false,
          "internalType": "uint256",
          "name": "loansCount",
          "type": "uint256"
        },
        {
          "indexed": false,
          "internalType": "uint256",
          "name": "totalPrincipal",
          "type": "uint256"
        },
        {
          "indexed": false,
          "internalType": "uint256",
          "name": "timestamp",
          "type": "uint256"
        }
      ],
      "name": "CertificateCreated",
      "type": "event"
    },
    {
      "anonymous": false,
      "inputs": [
        {
          "indexed": true,
          "internalType": "string",
          "name": "userId",
          "type": "string"
        },
        {
          "indexed": true,
          "internalType": "address",
          "name": "userAddress",
          "type": "address"
        },
        {
          "indexed": false,
          "internalType": "uint256",
          "name": "loansCount",
          "type": "uint256"
        },
        {
          "indexed": false,
          "internalType": "uint256",
          "name": "totalPrincipal",
          "type": "uint256"
        },
        {
          "indexed": false,
          "internalType": "uint256",
          "name": "version",
          "type": "uint256"
        },
        {
          "indexed": false,
          "internalType": "uint256",
          "name": "timestamp",
          "type": "uint256"
        }
      ],
      "name": "CertificateUpdated",
      "type": "event"
    },
    {
      "anonymous": false,
      "inputs": [
        {
          "indexed": true,
          "internalType": "address",
          "name": "previousOwner",
          "type": "address"
        },
        {
          "indexed": true,
          "internalType": "address",
          "name": "newOwner",
          "type": "address"
        }
      ],
      "name": "OwnershipTransferred",
      "type": "event"
    },
    {
      "inputs": [
        {
          "internalType": "string",
          "name": "userId",
          "type": "string"
        },
        {
          "internalType": "address",
          "name": "userAddress",
          "type": "address"
        },
        {
          "internalType": "string[]",
          "name": "loanIds",
          "type": "string[]"
        },
        {
          "internalType": "uint256",
          "name": "totalPrincipal",
          "type": "uint256"
        }
      ],
      "name": "createPortfolioCertificate",
      "outputs": [
        {
          "internalType": "bool",
          "name": "",
          "type": "bool"
        }
      ],
      "stateMutability": "nonpayable",
      "type": "function"
    },
    {
      "inputs": [],
      "name": "getAllCertificates",
      "outputs": [
        {
          "components": [
            {
              "internalType": "string",
              "name": "id",
              "type": "string"
            },
            {
              "internalType": "string",
              "name": "userId",
              "type": "string"
            },
            {
              "internalType": "address",
              "name": "userAddress",
              "type": "address"
            },
            {
              "internalType": "string",
              "name": "txId",
              "type": "string"
            },
            {
              "internalType": "string[]",
              "name": "loanIds",
              "type": "string[]"
            },
            {
              "internalType": "uint256",
              "name": "loansCount",
              "type": "uint256"
            },
            {
              "internalType": "uint256",
              "name": "totalPrincipal",
              "type": "uint256"
            },
            {
              "internalType": "uint256",
              "name": "createdAt",
              "type": "uint256"
            },
            {
              "internalType": "uint256",
              "name": "lastUpdatedAt",
              "type": "uint256"
            },
            {
              "internalType": "uint256",
              "name": "version",
              "type": "uint256"
            },
            {
              "internalType": "bool",
              "name": "exists",
              "type": "bool"
            }
          ],
          "internalType": "struct Portfolio.PortfolioCertificate[]",
          "name": "",
          "type": "tuple[]"
        }
      ],
      "stateMutability": "view",
      "type": "function"
    },
    {
      "inputs": [
        {
          "internalType": "string",
          "name": "userId",
          "type": "string"
        }
      ],
      "name": "getCertificateStats",
      "outputs": [
        {
          "internalType": "uint256",
          "name": "loansCount",
          "type": "uint256"
        },
        {
          "internalType": "uint256",
          "name": "totalPrincipal",
          "type": "uint256"
        },
        {
          "internalType": "uint256",
          "name": "version",
          "type": "uint256"
        },
        {
          "internalType": "uint256",
          "name": "lastUpdated",
          "type": "uint256"
        }
      ],
      "stateMutability": "view",
      "type": "function"
    },
    {
      "inputs": [
        {
          "internalType": "string",
          "name": "userId",
          "type": "string"
        }
      ],
      "name": "getPortfolioCertificate",
      "outputs": [
        {
          "components": [
            {
              "internalType": "string",
              "name": "id",
              "type": "string"
            },
            {
              "internalType": "string",
              "name": "userId",
              "type": "string"
            },
            {
              "internalType": "address",
              "name": "userAddress",
              "type": "address"
            },
            {
              "internalType": "string",
              "name": "txId",
              "type": "string"
            },
            {
              "internalType": "string[]",
              "name": "loanIds",
              "type": "string[]"
            },
            {
              "internalType": "uint256",
              "name": "loansCount",
              "type": "uint256"
            },
            {
              "internalType": "uint256",
              "name": "totalPrincipal",
              "type": "uint256"
            },
            {
              "internalType": "uint256",
              "name": "createdAt",
              "type": "uint256"
            },
            {
              "internalType": "uint256",
              "name": "lastUpdatedAt",
              "type": "uint256"
            },
            {
              "internalType": "uint256",
              "name": "version",
              "type": "uint256"
            },
            {
              "internalType": "bool",
              "name": "exists",
              "type": "bool"
            }
          ],
          "internalType": "struct Portfolio.PortfolioCertificate",
          "name": "",
          "type": "tuple"
        }
      ],
      "stateMutability": "view",
      "type": "function"
    },
    {
      "inputs": [
        {
          "internalType": "address",
          "name": "userAddress",
          "type": "address"
        }
      ],
      "name": "getPortfolioCertificateByAddress",
      "outputs": [
        {
          "components": [
            {
              "internalType": "string",
              "name": "id",
              "type": "string"
            },
            {
              "internalType": "string",
              "name": "userId",
              "type": "string"
            },
            {
              "internalType": "address",
              "name": "userAddress",
              "type": "address"
            },
            {
              "internalType": "string",
              "name": "txId",
              "type": "string"
            },
            {
              "internalType": "string[]",
              "name": "loanIds",
              "type": "string[]"
            },
            {
              "internalType": "uint256",
              "name": "loansCount",
              "type": "uint256"
            },
            {
              "internalType": "uint256",
              "name": "totalPrincipal",
              "type": "uint256"
            },
            {
              "internalType": "uint256",
              "name": "createdAt",
              "type": "uint256"
            },
            {
              "internalType": "uint256",
              "name": "lastUpdatedAt",
              "type": "uint256"
            },
            {
              "internalType": "uint256",
              "name": "version",
              "type": "uint256"
            },
            {
              "internalType": "bool",
              "name": "exists",
              "type": "bool"
            }
          ],
          "internalType": "struct Portfolio.PortfolioCertificate",
          "name": "",
          "type": "tuple"
        }
      ],
      "stateMutability": "view",
      "type": "function"
    },
    {
      "inputs": [
        {
          "internalType": "string",
          "name": "userId",
          "type": "string"
        }
      ],
      "name": "getPortfolioCertificateTxId",
      "outputs": [
        {
          "internalType": "string",
          "name": "",
          "type": "string"
        }
      ],
      "stateMutability": "view",
      "type": "function"
    },
    {
      "inputs": [],
      "name": "owner",
      "outputs": [
        {
          "internalType": "address",
          "name": "",
          "type": "address"
        }
      ],
      "stateMutability": "view",
      "type": "function"
    },
    {
      "inputs": [
        {
          "internalType": "string",
          "name": "userId",
          "type": "string"
        }
      ],
      "name": "portfolioCertificateExists",
      "outputs": [
        {
          "internalType": "bool",
          "name": "",
          "type": "bool"
        }
      ],
      "stateMutability": "view",
      "type": "function"
    },
    {
      "inputs": [],
      "name": "renounceOwnership",
      "outputs": [],
      "stateMutability": "nonpayable",
      "type": "function"
    },
    {
      "inputs": [
        {
          "internalType": "address",
          "name": "newOwner",
          "type": "address"
        }
      ],
      "name": "transferOwnership",
      "outputs": [],
      "stateMutability": "nonpayable",
      "type": "function"
    },
    {
      "inputs": [
        {
          "internalType": "string",
          "name": "userId",
          "type": "string"
        },
        {
          "internalType": "string[]",
          "name": "loanIds",
          "type": "string[]"
        },
        {
          "internalType": "uint256",
          "name": "totalPrincipal",
          "type": "uint256"
        }
      ],
      "name": "updatePortfolioCertificate",
      "outputs": [
        {
          "internalType": "bool",
          "name": "",
          "type": "bool"
        }
      ],
      "stateMutability": "nonpayable",
      "type": "function"
    }
  ],
  "bytecode": "0x6080346100bb57601f6117de38819003918201601f19168301916001600160401b038311848410176100c0578084926020946040528339810103126100bb57516001600160a01b0390818116908190036100bb5780156100a257600080546001600160a01b03198116831782556040519316907f8be0079c531659141344cd1fd0a4f28419497f9722a3daafe3b4186f6b6457e09080a361170790816100d78239f35b604051631e4fbdf760e01b815260006004820152602490fd5b600080fd5b634e487b7160e01b600052604160045260246000fdfe6080604052600436101561001257600080fd5b60e060003560e01c90816313fcfe8014610d35575080631fd8379614610cd45780633d583c2c1461091857806340193415146107aa57806348244c8714610634578063715018a6146105ed5780638ab12f2b146105505780638da5cb5b14610527578063afea16a91461035e578063d9fb2809146101125763f2fde38b1461009957600080fd5b3461010d57602036600319011261010d576100b2611176565b6100ba6115c4565b6001600160a01b039081169081156100f4576000548260018060a01b0319821617600055166000805160206116db833981519152600080a3005b604051631e4fbdf760e01b815260006004820152602490fd5b600080fd5b3461010d57606036600319011261010d576001600160401b0360043581811161010d57610143903690600401611120565b9060243590811161010d5761015f6101c39136906004016111a3565b6044359261016b6115c4565b610177815115156113b8565b610183825115156113f6565b6040519381516101b360ff6020978881818801956101a2818389610fa0565b81016003815203019020541661157b565b6040519485918451928391610fa0565b8401938581600196878152030190206101e76101de336115f0565b60038301611456565b835160048201600160401b82116103485780548282558083106102d1575b50600090815287812087878a015b8a8585106102b6575050505050508351600582015581600682015542600882015560098101918254918683018093116102a05761028661029591847fd185641b72b69ff1658c12211348a980a24790c4171c0732f949de9db4f136149655600260018060a01b039101541696519561155b565b94604051938493429285611222565b0390a3604051908152f35b634e487b7160e01b600052601160045260246000fd5b816102c384935186611456565b019201920191908890610213565b8160005287838a60002092830192015b8281106102ef575050610205565b6102f981546112c5565b80610308575b500188906102e1565b601f908c82821160011461032457505050600081555b8b6102ff565b60009261033f918585528420920160051c820185830161143f565b8183555561031e565b634e487b7160e01b600052604160045260246000fd5b3461010d5760208060031936011261010d57610378611176565b9061038161123e565b506001600160a01b03918216600090815260028252604090206103a390611313565b8051156104e257604051906103c760ff8251938581818601966101a281838a610fa0565b6103d960405192839251928391610fa0565b8101908281600193600181520301902090604051936103f7856110e1565b61040083611313565b855261040e60018401611313565b84860152600283015416604085015261042960038301611313565b60608501526004820190815461043e8161118c565b9261044c60405194856110fd565b8184526000908152858120868086015b8484106104c55760808a01879052600588015460a08b0152600688015460c08b0152600788015460e08b015260088801546101008b015260098801546101208b0152600a88015460ff1615156101408b0152604051828152806104c18185018d610fe8565b0390f35b859182916104d285611313565b815201920192019190879061045c565b60405162461bcd60e51b815260048101839052601f60248201527f4e6f20636572746966696361746520666f7220746869732061646472657373006044820152606490fd5b3461010d57600036600319011261010d576000546040516001600160a01b039091168152602090f35b3461010d5760208060031936011261010d576004356001600160401b03811161010d5760036105c88361058a6105d8943690600401611120565b604051906105b760ff8251938581818601966105a781838a610fa0565b81018a815203019020541661157b565b604051938492839251928391610fa0565b8101600181520301902001611313565b906104c1604051928284938452830190610fc3565b3461010d57600036600319011261010d576106066115c4565b600080546001600160a01b0319811682556001600160a01b03166000805160206116db8339815191528280a3005b3461010d5760208060031936011261010d576004356001600160401b03811161010d57610665903690600401611120565b9061066e61123e565b506040519161068c60ff8251948481818601976101a281838b610fa0565b61069e60405193849251928391610fa0565b82019181816001946001815203019020604051926106bb846110e1565b6106c482611313565b84526106d260018301611313565b8484015260028201546001600160a01b031660408501526106f560038301611313565b60608501526004820190815461070a8161118c565b9261071860405194856110fd565b8184526000908152858120868086015b84841061078d5760808a01879052600588015460a08b0152600688015460c08b0152600788015460e08b015260088801546101008b015260098801546101208b0152600a88015460ff1615156101408b0152604051828152806104c18185018d610fe8565b8591829161079a85611313565b8152019201920191908790610728565b3461010d5760208060031936011261010d576004356001600160401b03811161010d576107db903690600401611120565b604051906107f860ff8251938581818601966101a281838a610fa0565b61080a60405192839251928391610fa0565b810190828160019360018152030190209160405191610828836110e1565b61083184611313565b835261083f60018501611313565b8383015260028401546001600160a01b0316604084015261086260038501611313565b6060840152600484018054906108778261118c565b9361088560405195866110fd565b82855260009182528082208186015b8484106108fd5788888860808201526104c16005830154918260a08201526006840154938460c0830152600781015460e08301526008810154918261010082015261014060ff600a60098501549485610120860152015416151591015260405194859485611222565b8583819261090a85611313565b815201920193019290610894565b3461010d57608036600319011261010d576001600160401b0360043581811161010d57610949903690600401611120565b90602435906001600160a01b038216820361010d5760443590811161010d576109769036906004016111a3565b61097e6115c4565b61098a835115156113b8565b6001600160a01b03821615610c96576109a5815115156113f6565b60ff60405160208186516109bc8183858b01610fa0565b810160038152030190205416610c545760405164636572742d60d81b6020820152610a0560258286516109f58184840160208b01610fa0565b81010360058101845201826110fd565b610a2e6040516020818751610a1d8183858c01610fa0565b810160018152030190209182611456565b610a3b8460018301611456565b6002810180546001600160a01b0319166001600160a01b038516179055610a646101de336115f0565b8151600160401b8111610348576004820154816004840155808210610bdb575b50602083016004830160005260206000206000915b838310610bbe5750505050600a90825160058201556064356006820155426007820155426008820155600160098201550160ff199060018282541617905560016040516020818751610aee8183858c01610fa0565b810160038152030190209182541617905560018060a01b0382166000526002602052610b1e836040600020611456565b600454600160401b81101561034857806001610b3d9201600455611294565b919091610ba857610b7c606091610b75867fe7b836a5dd7679319ccf7fdf9d8aa87a0ecfec428483e45c406d19cc195b3b3595611456565b519461155b565b60408051958652606435602087015242908601526001600160a01b0390931693a3602060405160018152f35b634e487b7160e01b600052600060045260246000fd5b6001602082610bcf83945186611456565b01920192019190610a99565b600483016000526020600020908282015b8183018110610bfc575050610a84565b80610c09600192546112c5565b80610c16575b5001610bec565b601f908181118414610c2f575050600081555b89610c0f565b610c4b60009284845260208420920160051c820185830161143f565b81835555610c29565b60405162461bcd60e51b815260206004820152601a602482015279436572746966696361746520616c72656164792065786973747360301b6044820152606490fd5b60405162461bcd60e51b815260206004820152601660248201527515985b1a59081859191c995cdcc81c995c5d5a5c995960521b6044820152606490fd5b3461010d57602036600319011261010d576004356001600160401b03811161010d5760ff610d1f6020610d0c81943690600401611120565b8160405193828580945193849201610fa0565b8101600381520301902054166040519015158152f35b3461010d57600036600319011261010d57600454610d528161118c565b90610d6060405192836110fd565b808252610d6c8161118c565b60209390601f19018460005b828110610f8a5750505060005b828110610dee575050506040519082820192808352815180945260408301938160408260051b8601019301916000955b828710610dc25785850386f35b909192938280610dde600193603f198a82030186528851610fe8565b9601920196019592919092610db5565b610df781611294565b5060405186816000845494610e0b866112c5565b906001968781169081600014610f735750600114610f3a575b50508481520301902060405191610e3a836110e1565b610e4382611313565b8352610e50818301611313565b8389015260028201546001600160a01b03166040840152610e7360038301611313565b606084015260048201908154610e888161118c565b92610e9660405194856110fd565b81845260009081528a8120908b8086015b848310610f1d57505050505050600a839260ff926080600197960152600581015460a0850152600681015460c0850152600781015487850152600881015461010085015260098101546101208501520154161515610140820152610f0b82876112ff565b52610f1681866112ff565b5001610d85565b85918291610f2a86611313565b8152019301910190918c90610ea7565b90915060005282600020856000915b838310610f5c5750505081018a80610e24565b8054878401528c9587955090920191879101610f49565b60ff19168552505080151502820190508a80610e24565b610f9261123e565b828288010152018590610d78565b60005b838110610fb35750506000910152565b8181015183820152602001610fa3565b90602091610fdc81518092818552858086019101610fa0565b601f01601f1916010190565b90610ffd610160835190808452830190610fc3565b9161103b6110176020948584015185820387870152610fc3565b60018060a01b03604084015116604085015260608301518482036060860152610fc3565b60808201519383820360808501528451908183528083019281808460051b8301019701936000915b8483106110b35750505050505060a081015160a083015260c081015160c083015260e081015160e08301526101008082015190830152610120808201519083015261014080910151151591015290565b90919293949784806110d1600193601f198682030187528c51610fc3565b9a01930193019194939290611063565b61016081019081106001600160401b0382111761034857604052565b601f909101601f19168101906001600160401b0382119082101761034857604052565b81601f8201121561010d578035906001600160401b0382116103485760405192611154601f8401601f1916602001856110fd565b8284526020838301011161010d57816000926020809301838601378301015290565b600435906001600160a01b038216820361010d57565b6001600160401b0381116103485760051b60200190565b81601f8201121561010d578035916020916111bd8461118c565b936111cb60405195866110fd565b808552838086019160051b8301019280841161010d57848301915b8483106111f65750505050505090565b82356001600160401b03811161010d57869161121784848094890101611120565b8152019201916111e6565b9094939260609260808301968352602083015260408201520152565b6040519061124b826110e1565b816060815260606020820152610140600091826040820152606080820152606060808201528260a08201528260c08201528260e082015282610100820152826101208201520152565b6004548110156112af57600460005260206000200190600090565b634e487b7160e01b600052603260045260246000fd5b90600182811c921680156112f5575b60208310146112df57565b634e487b7160e01b600052602260045260246000fd5b91607f16916112d4565b80518210156112af5760209160051b010190565b90604051918260008254611326816112c5565b908184526020946001916001811690816000146113965750600114611357575b505050611355925003836110fd565b565b600090815285812095935091905b81831061137e5750506113559350820101388080611346565b85548884018501529485019487945091830191611365565b9250505061135594925060ff191682840152151560051b820101388080611346565b156113bf57565b60405162461bcd60e51b815260206004820152600f60248201526e155cd95c9259081c995c5d5a5c9959608a1b6044820152606490fd5b156113fd57565b60405162461bcd60e51b815260206004820152601a602482015279105d081b19585cdd081bdb99481b1bd85b881c995c5d5a5c995960321b6044820152606490fd5b81811061144a575050565b6000815560010161143f565b81519192916001600160401b0381116103485761147382546112c5565b601f811161151e575b50602080601f83116001146114b95750819293946000926114ae575b50508160011b916000199060031b1c1916179055565b015190503880611498565b90601f19831695846000526020600020926000905b888210611506575050836001959697106114ed575b505050811b019055565b015160001960f88460031b161c191690553880806114e3565b806001859682949686015181550195019301906114ce565b61154b90836000526020600020601f840160051c81019160208510611551575b601f0160051c019061143f565b3861147c565b909150819061153e565b61157390602060405192828480945193849201610fa0565b810103902090565b1561158257565b60405162461bcd60e51b815260206004820152601a60248201527910d95c9d1a599a58d85d1948191bd95cc81b9bdd08195e1a5cdd60321b6044820152606490fd5b6000546001600160a01b031633036115d857565b60405163118cdaa760e01b8152336004820152602490fd5b60405190606082016001600160401b0381118382101761034857604052602a8252602090602083019160403684378351156112af576030809353835192600193600110156112af57607860218601536029925b84841161165257505050505090565b600f81166000600a8210156116b4575082018083116102a0575b86518510156112af5760f81b6001600160f81b03191660001a86850184015360041c92801561169f576000190192611643565b60246000634e487b7160e01b81526011600452fd5b60579182018092116116c6575061166c565b634e487b7160e01b81526011600452602490fdfe8be0079c531659141344cd1fd0a4f28419497f9722a3daafe3b4186f6b6457e0a164736f6c6343000818000a",
  "linkReferences": {},
  "deployedLinkReferences": {}
}