{
  "_format": "hh-sol-artifact-1",
  "contractName": "Portfolio",
  "sourceName": "src/Portfolio.sol",
  "abi": [
    {
      "inputs": [
        {
          "internalType": "address",
          "name": "initialOwner",
          "type": "address"
        }
      ],
      "stateMutability": "nonpayable",
      "type": "constructor"
    },
    {
      "inputs": [
        {
          "internalType": "address",
          "name": "owner",
          "type": "address"
        }
      ],
      "name": "OwnableInvalidOwner",
      "type": "error"
    },
    {
      "inputs": [
        {
          "internalType": "address",
          "name": "account",
          "type": "address"
        }
      ],
      "name": "OwnableUnauthorizedAccount",
      "type": "error"
    },
    {
      "anonymous": false,
      "inputs": [
        {
          "indexed": true,
          "internalType": "string",
          "name": "userId",
          "type": "string"
        },
        {
          "indexed": true,
          "internalType": "address",
          "name": "userAddress",
          "type": "address"
        },
        {
          "indexed": false,
          "internalType": "uint256",
          "name": "loansCount",
          "type": "uint256"
        },
        {
          "indexed": false,
          "internalType": "uint256",
          "name": "totalPrincipal",
          "type": "uint256"
        },
        {
          "indexed": false,
          "internalType": "uint256",
          "name": "timestamp",
          "type": "uint256"
        }
      ],
      "name": "CertificateCreated",
      "type": "event"
    },
    {
      "anonymous": false,
      "inputs": [
        {
          "indexed": true,
          "internalType": "string",
          "name": "userId",
          "type": "string"
        },
        {
          "indexed": true,
          "internalType": "address",
          "name": "userAddress",
          "type": "address"
        },
        {
          "indexed": false,
          "internalType": "uint256",
          "name": "loansCount",
          "type": "uint256"
        },
        {
          "indexed": false,
          "internalType": "uint256",
          "name": "totalPrincipal",
          "type": "uint256"
        },
        {
          "indexed": false,
          "internalType": "uint256",
          "name": "version",
          "type": "uint256"
        },
        {
          "indexed": false,
          "internalType": "uint256",
          "name": "timestamp",
          "type": "uint256"
        }
      ],
      "name": "CertificateUpdated",
      "type": "event"
    },
    {
      "anonymous": false,
      "inputs": [
        {
          "indexed": true,
          "internalType": "address",
          "name": "previousOwner",
          "type": "address"
        },
        {
          "indexed": true,
          "internalType": "address",
          "name": "newOwner",
          "type": "address"
        }
      ],
      "name": "OwnershipTransferred",
      "type": "event"
    },
    {
      "inputs": [
        {
          "internalType": "string",
          "name": "userId",
          "type": "string"
        },
        {
          "internalType": "address",
          "name": "userAddress",
          "type": "address"
        },
        {
          "internalType": "string[]",
          "name": "loanIds",
          "type": "string[]"
        },
        {
          "internalType": "uint256",
          "name": "totalPrincipal",
          "type": "uint256"
        }
      ],
      "name": "createPortfolioCertificate",
      "outputs": [
        {
          "internalType": "bool",
          "name": "",
          "type": "bool"
        }
      ],
      "stateMutability": "nonpayable",
      "type": "function"
    },
    {
      "inputs": [],
      "name": "getAllCertificates",
      "outputs": [
        {
          "components": [
            {
              "internalType": "string",
              "name": "id",
              "type": "string"
            },
            {
              "internalType": "string",
              "name": "userId",
              "type": "string"
            },
            {
              "internalType": "address",
              "name": "userAddress",
              "type": "address"
            },
            {
              "internalType": "string",
              "name": "txId",
              "type": "string"
            },
            {
              "internalType": "string[]",
              "name": "loanIds",
              "type": "string[]"
            },
            {
              "internalType": "uint256",
              "name": "loansCount",
              "type": "uint256"
            },
            {
              "internalType": "uint256",
              "name": "totalPrincipal",
              "type": "uint256"
            },
            {
              "internalType": "uint256",
              "name": "createdAt",
              "type": "uint256"
            },
            {
              "internalType": "uint256",
              "name": "lastUpdatedAt",
              "type": "uint256"
            },
            {
              "internalType": "uint256",
              "name": "version",
              "type": "uint256"
            },
            {
              "internalType": "bool",
              "name": "exists",
              "type": "bool"
            }
          ],
          "internalType": "struct Portfolio.PortfolioCertificate[]",
          "name": "",
          "type": "tuple[]"
        }
      ],
      "stateMutability": "view",
      "type": "function"
    },
    {
      "inputs": [
        {
          "internalType": "string",
          "name": "userId",
          "type": "string"
        }
      ],
      "name": "getCertificateStats",
      "outputs": [
        {
          "internalType": "uint256",
          "name": "loansCount",
          "type": "uint256"
        },
        {
          "internalType": "uint256",
          "name": "totalPrincipal",
          "type": "uint256"
        },
        {
          "internalType": "uint256",
          "name": "version",
          "type": "uint256"
        },
        {
          "internalType": "uint256",
          "name": "lastUpdated",
          "type": "uint256"
        }
      ],
      "stateMutability": "view",
      "type": "function"
    },
    {
      "inputs": [
        {
          "internalType": "string",
          "name": "userId",
          "type": "string"
        }
      ],
      "name": "getPortfolioCertificate",
      "outputs": [
        {
          "components": [
            {
              "internalType": "string",
              "name": "id",
              "type": "string"
            },
            {
              "internalType": "string",
              "name": "userId",
              "type": "string"
            },
            {
              "internalType": "address",
              "name": "userAddress",
              "type": "address"
            },
            {
              "internalType": "string",
              "name": "txId",
              "type": "string"
            },
            {
              "internalType": "string[]",
              "name": "loanIds",
              "type": "string[]"
            },
            {
              "internalType": "uint256",
              "name": "loansCount",
              "type": "uint256"
            },
            {
              "internalType": "uint256",
              "name": "totalPrincipal",
              "type": "uint256"
            },
            {
              "internalType": "uint256",
              "name": "createdAt",
              "type": "uint256"
            },
            {
              "internalType": "uint256",
              "name": "lastUpdatedAt",
              "type": "uint256"
            },
            {
              "internalType": "uint256",
              "name": "version",
              "type": "uint256"
            },
            {
              "internalType": "bool",
              "name": "exists",
              "type": "bool"
            }
          ],
          "internalType": "struct Portfolio.PortfolioCertificate",
          "name": "",
          "type": "tuple"
        }
      ],
      "stateMutability": "view",
      "type": "function"
    },
    {
      "inputs": [
        {
          "internalType": "address",
          "name": "userAddress",
          "type": "address"
        }
      ],
      "name": "getPortfolioCertificateByAddress",
      "outputs": [
        {
          "components": [
            {
              "internalType": "string",
              "name": "id",
              "type": "string"
            },
            {
              "internalType": "string",
              "name": "userId",
              "type": "string"
            },
            {
              "internalType": "address",
              "name": "userAddress",
              "type": "address"
            },
            {
              "internalType": "string",
              "name": "txId",
              "type": "string"
            },
            {
              "internalType": "string[]",
              "name": "loanIds",
              "type": "string[]"
            },
            {
              "internalType": "uint256",
              "name": "loansCount",
              "type": "uint256"
            },
            {
              "internalType": "uint256",
              "name": "totalPrincipal",
              "type": "uint256"
            },
            {
              "internalType": "uint256",
              "name": "createdAt",
              "type": "uint256"
            },
            {
              "internalType": "uint256",
              "name": "lastUpdatedAt",
              "type": "uint256"
            },
            {
              "internalType": "uint256",
              "name": "version",
              "type": "uint256"
            },
            {
              "internalType": "bool",
              "name": "exists",
              "type": "bool"
            }
          ],
          "internalType": "struct Portfolio.PortfolioCertificate",
          "name": "",
          "type": "tuple"
        }
      ],
      "stateMutability": "view",
      "type": "function"
    },
    {
      "inputs": [
        {
          "internalType": "string",
          "name": "userId",
          "type": "string"
        }
      ],
      "name": "getPortfolioCertificateTxId",
      "outputs": [
        {
          "internalType": "string",
          "name": "",
          "type": "string"
        }
      ],
      "stateMutability": "view",
      "type": "function"
    },
    {
      "inputs": [],
      "name": "owner",
      "outputs": [
        {
          "internalType": "address",
          "name": "",
          "type": "address"
        }
      ],
      "stateMutability": "view",
      "type": "function"
    },
    {
      "inputs": [
        {
          "internalType": "string",
          "name": "userId",
          "type": "string"
        }
      ],
      "name": "portfolioCertificateExists",
      "outputs": [
        {
          "internalType": "bool",
          "name": "",
          "type": "bool"
        }
      ],
      "stateMutability": "view",
      "type": "function"
    },
    {
      "inputs": [],
      "name": "renounceOwnership",
      "outputs": [],
      "stateMutability": "nonpayable",
      "type": "function"
    },
    {
      "inputs": [
        {
          "internalType": "address",
          "name": "newOwner",
          "type": "address"
        }
      ],
      "name": "transferOwnership",
      "outputs": [],
      "stateMutability": "nonpayable",
      "type": "function"
    },
    {
      "inputs": [
        {
          "internalType": "string",
          "name": "userId",
          "type": "string"
        },
        {
          "internalType": "string[]",
          "name": "loanIds",
          "type": "string[]"
        },
        {
          "internalType": "uint256",
          "name": "totalPrincipal",
          "type": "uint256"
        }
      ],
      "name": "updatePortfolioCertificate",
      "outputs": [
        {
          "internalType": "bool",
          "name": "",
          "type": "bool"
        }
      ],
      "stateMutability": "nonpayable",
      "type": "function"
    }
  ],
  "bytecode": "0x6080346100bb57601f61181f38819003918201601f19168301916001600160401b038311848410176100c0578084926020946040528339810103126100bb57516001600160a01b0390818116908190036100bb5780156100a257600080546001600160a01b03198116831782556040519316907f8be0079c531659141344cd1fd0a4f28419497f9722a3daafe3b4186f6b6457e09080a361174890816100d78239f35b604051631e4fbdf760e01b815260006004820152602490fd5b600080fd5b634e487b7160e01b600052604160045260246000fdfe6080604052600436101561001257600080fd5b60e060003560e01c90816313fcfe8014610d92575080631fd8379614610d315780633d583c2c1461097257806340193415146107ed57806348244c8714610677578063715018a61461061e5780638ab12f2b146105815780638da5cb5b14610558578063afea16a91461038f578063d9fb28091461012c5763f2fde38b1461009957600080fd5b34610127576020366003190112610127576100b26111d1565b6100ba611625565b6001600160a01b0390811690811561010e57600054826bffffffffffffffffffffffff60a01b821617600055167f8be0079c531659141344cd1fd0a4f28419497f9722a3daafe3b4186f6b6457e0600080a3005b604051631e4fbdf760e01b815260006004820152602490fd5b600080fd5b34610127576060366003190112610127576001600160401b036004358181116101275761015d90369060040161117b565b90602435908111610127576101796101dd9136906004016111fe565b60443592610185611625565b61019181511515611413565b61019d82511515611451565b6040519381516101cd60ff6020978881818801956101bc818389610ffd565b8101600381520301902054166115d9565b6040519485918451928391610ffd565b8401938581600196878152030190206102016101f833611651565b600383016114b4565b835160048201600160401b8211610379578054828255808310610302575b50600090815287812087878a015b8a8585106102e7575050505050508351600582015581600682015542600882015560098101918254918683018093116102d1576102a06102c691847fd185641b72b69ff1658c12211348a980a24790c4171c0732f949de9db4f136149655600260018060a01b03910154169651956115b9565b946040519384934292859094939260609260808301968352602083015260408201520152565b0390a3604051908152f35b634e487b7160e01b600052601160045260246000fd5b816102f4849351866114b4565b01920192019190889061022d565b8160005287838a60002092830192015b82811061032057505061021f565b61032a8154611320565b80610339575b50018890610312565b601f908c82821160011461035557505050600081555b8b610330565b600092610370918585528420920160051c820185830161149d565b8183555561034f565b634e487b7160e01b600052604160045260246000fd5b3461012757602080600319360112610127576103a96111d1565b906103b261127d565b506001600160a01b03918216600090815260028252604090206103d49061136e565b80511561051357604051906103f860ff8251938581818601966101bc81838a610ffd565b61040a60405192839251928391610ffd565b8101908281600193600181520301902090604051936104288561113e565b6104318361136e565b855261043f6001840161136e565b84860152600283015416604085015261045a6003830161136e565b60608501526004820190815461046f816111e7565b9261047d604051948561115a565b8184526000908152858120868086015b8484106104f65760808a01879052600588015460a08b0152600688015460c08b0152600788015460e08b015260088801546101008b015260098801546101208b0152600a88015460ff1615156101408b0152604051828152806104f28185018d611045565b0390f35b859182916105038561136e565b815201920192019190879061048d565b60405162461bcd60e51b815260048101839052601f60248201527f4e6f20636572746966696361746520666f7220746869732061646472657373006044820152606490fd5b34610127576000366003190112610127576000546040516001600160a01b039091168152602090f35b3461012757602080600319360112610127576004356001600160401b0381116101275760036105f9836105bb61060994369060040161117b565b604051906105e860ff8251938581818601966105d881838a610ffd565b81018a81520301902054166115d9565b604051938492839251928391610ffd565b810160018152030190200161136e565b906104f2604051928284938452830190611020565b3461012757600036600319011261012757610637611625565b600080546001600160a01b0319811682556001600160a01b03167f8be0079c531659141344cd1fd0a4f28419497f9722a3daafe3b4186f6b6457e08280a3005b3461012757602080600319360112610127576004356001600160401b038111610127576106a890369060040161117b565b906106b161127d565b50604051916106cf60ff8251948481818601976101bc81838b610ffd565b6106e160405193849251928391610ffd565b82019181816001946001815203019020604051926106fe8461113e565b6107078261136e565b84526107156001830161136e565b8484015260028201546001600160a01b031660408501526107386003830161136e565b60608501526004820190815461074d816111e7565b9261075b604051948561115a565b8184526000908152858120868086015b8484106107d05760808a01879052600588015460a08b0152600688015460c08b0152600788015460e08b015260088801546101008b015260098801546101208b0152600a88015460ff1615156101408b0152604051828152806104f28185018d611045565b859182916107dd8561136e565b815201920192019190879061076b565b3461012757602080600319360112610127576004356001600160401b0381116101275761081e90369060040161117b565b6040519061083b60ff8251938581818601966101bc81838a610ffd565b61084d60405192839251928391610ffd565b81019082816001936001815203019020916040519161086b8361113e565b6108748461136e565b83526108826001850161136e565b8383015260028401546001600160a01b031660408401526108a56003850161136e565b6060840152600484018054906108ba826111e7565b936108c8604051958661115a565b82855260009182528082208186015b8484106109575788888860808201526104f26005830154918260a08201526006840154938460c0830152600781015460e08301526008810154918261010082015261014060ff600a600985015494856101208601520154161515910152604051948594859094939260609260808301968352602083015260408201520152565b858381926109648561136e565b8152019201930192906108d7565b34610127576080366003190112610127576001600160401b03600435818111610127576109a390369060040161117b565b90602435906001600160a01b038216820361012757604435908111610127576109d09036906004016111fe565b6109d8611625565b6109e483511515611413565b6001600160a01b03821615610cf3576109ff81511515611451565b60ff6040516020818651610a168183858b01610ffd565b810160038152030190205416610cae5760405164636572742d60d81b6020820152610a5f6025828651610a4f8184840160208b01610ffd565b810103600581018452018261115a565b610a886040516020818751610a778183858c01610ffd565b8101600181520301902091826114b4565b610a9584600183016114b4565b6002810180546001600160a01b0319166001600160a01b038516179055610abe6101f833611651565b8151600160401b8111610379576004820154816004840155808210610c35575b50602083016004830160005260206000206000915b838310610c185750505050600a90825160058201556064356006820155426007820155426008820155600160098201550160ff199060018282541617905560016040516020818751610b488183858c01610ffd565b810160038152030190209182541617905560018060a01b0382166000526002602052610b788360406000206114b4565b600454600160401b81101561037957806001610b9792016004556112d3565b919091610c0257610bd6606091610bcf867fe7b836a5dd7679319ccf7fdf9d8aa87a0ecfec428483e45c406d19cc195b3b35956114b4565b51946115b9565b60408051958652606435602087015242908601526001600160a01b0390931693a3602060405160018152f35b634e487b7160e01b600052600060045260246000fd5b6001602082610c29839451866114b4565b01920192019190610af3565b600483016000526020600020908282015b8183018110610c56575050610ade565b80610c6360019254611320565b80610c70575b5001610c46565b601f908181118414610c89575050600081555b89610c69565b610ca560009284845260208420920160051c820185830161149d565b81835555610c83565b60405162461bcd60e51b815260206004820152601a60248201527f436572746966696361746520616c7265616479206578697374730000000000006044820152606490fd5b60405162461bcd60e51b815260206004820152601660248201527515985b1a59081859191c995cdcc81c995c5d5a5c995960521b6044820152606490fd5b34610127576020366003190112610127576004356001600160401b0381116101275760ff610d7c6020610d698194369060040161117b565b8160405193828580945193849201610ffd565b8101600381520301902054166040519015158152f35b3461012757600036600319011261012757600454610daf816111e7565b90610dbd604051928361115a565b808252610dc9816111e7565b60209390601f19018460005b828110610fe75750505060005b828110610e4b575050506040519082820192808352815180945260408301938160408260051b8601019301916000955b828710610e1f5785850386f35b909192938280610e3b600193603f198a82030186528851611045565b9601920196019592919092610e12565b610e54816112d3565b5060405186816000845494610e6886611320565b906001968781169081600014610fd05750600114610f97575b50508481520301902060405191610e978361113e565b610ea08261136e565b8352610ead81830161136e565b8389015260028201546001600160a01b03166040840152610ed06003830161136e565b606084015260048201908154610ee5816111e7565b92610ef3604051948561115a565b81845260009081528a8120908b8086015b848310610f7a57505050505050600a839260ff926080600197960152600581015460a0850152600681015460c0850152600781015487850152600881015461010085015260098101546101208501520154161515610140820152610f68828761135a565b52610f73818661135a565b5001610de2565b85918291610f878661136e565b8152019301910190918c90610f04565b90915060005282600020856000915b838310610fb95750505081018a80610e81565b8054878401528c9587955090920191879101610fa6565b60ff19168552505080151502820190508a80610e81565b610fef61127d565b828288010152018590610dd5565b60005b8381106110105750506000910152565b8181015183820152602001611000565b9060209161103981518092818552858086019101610ffd565b601f01601f1916010190565b9061105a610160835190808452830190611020565b916110986110746020948584015185820387870152611020565b60018060a01b03604084015116604085015260608301518482036060860152611020565b60808201519383820360808501528451908183528083019281808460051b8301019701936000915b8483106111105750505050505060a081015160a083015260c081015160c083015260e081015160e08301526101008082015190830152610120808201519083015261014080910151151591015290565b909192939497848061112e600193601f198682030187528c51611020565b9a019301930191949392906110c0565b61016081019081106001600160401b0382111761037957604052565b90601f801991011681019081106001600160401b0382111761037957604052565b81601f82011215610127578035906001600160401b03821161037957604051926111af601f8401601f19166020018561115a565b8284526020838301011161012757816000926020809301838601378301015290565b600435906001600160a01b038216820361012757565b6001600160401b0381116103795760051b60200190565b81601f8201121561012757803591602091611218846111e7565b93611226604051958661115a565b808552838086019160051b8301019280841161012757848301915b8483106112515750505050505090565b82356001600160401b0381116101275786916112728484809489010161117b565b815201920191611241565b6040519061128a8261113e565b816060815260606020820152610140600091826040820152606080820152606060808201528260a08201528260c08201528260e082015282610100820152826101208201520152565b60045481101561130a5760046000527f8a35acfbc15ff81a39ae7d344fd709f28e8600b4aa8c65c6b64bfe7fe36bd19b0190600090565b634e487b7160e01b600052603260045260246000fd5b90600182811c92168015611350575b602083101461133a57565b634e487b7160e01b600052602260045260246000fd5b91607f169161132f565b805182101561130a5760209160051b010190565b9060405191826000825461138181611320565b908184526020946001916001811690816000146113f157506001146113b2575b5050506113b09250038361115a565b565b600090815285812095935091905b8183106113d95750506113b093508201013880806113a1565b855488840185015294850194879450918301916113c0565b925050506113b094925060ff191682840152151560051b8201013880806113a1565b1561141a57565b60405162461bcd60e51b815260206004820152600f60248201526e155cd95c9259081c995c5d5a5c9959608a1b6044820152606490fd5b1561145857565b60405162461bcd60e51b815260206004820152601a60248201527f4174206c65617374206f6e65206c6f616e2072657175697265640000000000006044820152606490fd5b8181106114a8575050565b6000815560010161149d565b91909182516001600160401b038111610379576114d18254611320565b601f811161157c575b50602080601f831160011461151757508192939460009261150c575b50508160011b916000199060031b1c1916179055565b0151905038806114f6565b90601f19831695846000526020600020926000905b8882106115645750508360019596971061154b575b505050811b019055565b015160001960f88460031b161c19169055388080611541565b8060018596829496860151815501950193019061152c565b6115a990836000526020600020601f840160051c810191602085106115af575b601f0160051c019061149d565b386114da565b909150819061159c565b6115d190602060405192828480945193849201610ffd565b810103902090565b156115e057565b60405162461bcd60e51b815260206004820152601a60248201527f436572746966696361746520646f6573206e6f742065786973740000000000006044820152606490fd5b6000546001600160a01b0316330361163957565b60405163118cdaa760e01b8152336004820152602490fd5b60405190606082018281106001600160401b0382111761037957604052602a82526020906020830191604036843783511561130a5760308093538351926001936001101561130a57607860218601536029925b8484116116b357505050505090565b600f81166000600a821015611715575082018083116102d1575b865185101561130a5760f81b6001600160f81b03191660001a86850184015360041c9280156117005760001901926116a4565b60246000634e487b7160e01b81526011600452fd5b605791820180921161172757506116cd565b634e487b7160e01b81526011600452602490fdfea164736f6c6343000818000a",
  "linkReferences": {},
  "deployedLinkReferences": {}
}