{
  "_format": "hh-sol-artifact-1",
  "contractName": "ShareLoans",
  "sourceName": "src/ShareLoans.sol",
  "abi": [
    {
      "inputs": [
        {
          "internalType": "address",
          "name": "initialOwner",
          "type": "address"
        }
      ],
      "stateMutability": "nonpayable",
      "type": "constructor"
    },
    {
      "inputs": [
        {
          "internalType": "address",
          "name": "owner",
          "type": "address"
        }
      ],
      "name": "OwnableInvalidOwner",
      "type": "error"
    },
    {
      "inputs": [
        {
          "internalType": "address",
          "name": "account",
          "type": "address"
        }
      ],
      "name": "OwnableUnauthorizedAccount",
      "type": "error"
    },
    {
      "anonymous": false,
      "inputs": [
        {
          "indexed": true,
          "internalType": "string",
          "name": "key",
          "type": "string"
        },
        {
          "indexed": true,
          "internalType": "address",
          "name": "grantedTo",
          "type": "address"
        },
        {
          "indexed": false,
          "internalType": "string",
          "name": "grantedToUserId",
          "type": "string"
        },
        {
          "indexed": false,
          "internalType": "uint256",
          "name": "timestamp",
          "type": "uint256"
        }
      ],
      "name": "AccessGranted",
      "type": "event"
    },
    {
      "anonymous": false,
      "inputs": [
        {
          "indexed": true,
          "internalType": "string",
          "name": "key",
          "type": "string"
        },
        {
          "indexed": true,
          "internalType": "address",
          "name": "revokedFrom",
          "type": "address"
        },
        {
          "indexed": false,
          "internalType": "uint256",
          "name": "timestamp",
          "type": "uint256"
        }
      ],
      "name": "AccessRevoked",
      "type": "event"
    },
    {
      "anonymous": false,
      "inputs": [
        {
          "indexed": true,
          "internalType": "address",
          "name": "previousOwner",
          "type": "address"
        },
        {
          "indexed": true,
          "internalType": "address",
          "name": "newOwner",
          "type": "address"
        }
      ],
      "name": "OwnershipTransferred",
      "type": "event"
    },
    {
      "anonymous": false,
      "inputs": [
        {
          "indexed": true,
          "internalType": "string",
          "name": "key",
          "type": "string"
        },
        {
          "indexed": true,
          "internalType": "address",
          "name": "owner",
          "type": "address"
        },
        {
          "indexed": false,
          "internalType": "uint256",
          "name": "accountsLength",
          "type": "uint256"
        },
        {
          "indexed": false,
          "internalType": "uint256",
          "name": "timestamp",
          "type": "uint256"
        }
      ],
      "name": "ShareCreated",
      "type": "event"
    },
    {
      "anonymous": false,
      "inputs": [
        {
          "indexed": true,
          "internalType": "string",
          "name": "key",
          "type": "string"
        },
        {
          "indexed": true,
          "internalType": "address",
          "name": "owner",
          "type": "address"
        },
        {
          "indexed": false,
          "internalType": "uint256",
          "name": "timestamp",
          "type": "uint256"
        }
      ],
      "name": "ShareDisabled",
      "type": "event"
    },
    {
      "anonymous": false,
      "inputs": [
        {
          "indexed": true,
          "internalType": "string",
          "name": "key",
          "type": "string"
        },
        {
          "indexed": true,
          "internalType": "address",
          "name": "owner",
          "type": "address"
        },
        {
          "indexed": false,
          "internalType": "uint256",
          "name": "timestamp",
          "type": "uint256"
        }
      ],
      "name": "ShareEnabled",
      "type": "event"
    },
    {
      "anonymous": false,
      "inputs": [
        {
          "indexed": true,
          "internalType": "string",
          "name": "key",
          "type": "string"
        },
        {
          "indexed": true,
          "internalType": "address",
          "name": "owner",
          "type": "address"
        },
        {
          "indexed": false,
          "internalType": "uint256",
          "name": "sharedWithCount",
          "type": "uint256"
        },
        {
          "indexed": false,
          "internalType": "uint256",
          "name": "timestamp",
          "type": "uint256"
        }
      ],
      "name": "ShareUpdated",
      "type": "event"
    },
    {
      "inputs": [
        {
          "internalType": "string",
          "name": "key",
          "type": "string"
        },
        {
          "internalType": "address",
          "name": "userAddress",
          "type": "address"
        }
      ],
      "name": "checkUserAccess",
      "outputs": [
        {
          "internalType": "bool",
          "name": "hasAccessValue",
          "type": "bool"
        },
        {
          "internalType": "string",
          "name": "reason",
          "type": "string"
        }
      ],
      "stateMutability": "view",
      "type": "function"
    },
    {
      "inputs": [
        {
          "internalType": "string",
          "name": "key",
          "type": "string"
        },
        {
          "internalType": "string",
          "name": "ownerUserId",
          "type": "string"
        },
        {
          "internalType": "string[]",
          "name": "accounts",
          "type": "string[]"
        },
        {
          "internalType": "string",
          "name": "name",
          "type": "string"
        },
        {
          "internalType": "address[]",
          "name": "sharedWithAddresses",
          "type": "address[]"
        },
        {
          "internalType": "string[]",
          "name": "sharedWithUserIds",
          "type": "string[]"
        }
      ],
      "name": "createShareAsset",
      "outputs": [
        {
          "internalType": "bool",
          "name": "",
          "type": "bool"
        }
      ],
      "stateMutability": "nonpayable",
      "type": "function"
    },
    {
      "inputs": [
        {
          "internalType": "string",
          "name": "key",
          "type": "string"
        }
      ],
      "name": "disableShareAsset",
      "outputs": [
        {
          "internalType": "bool",
          "name": "",
          "type": "bool"
        }
      ],
      "stateMutability": "nonpayable",
      "type": "function"
    },
    {
      "inputs": [
        {
          "internalType": "string",
          "name": "key",
          "type": "string"
        }
      ],
      "name": "enableShareAsset",
      "outputs": [
        {
          "internalType": "bool",
          "name": "",
          "type": "bool"
        }
      ],
      "stateMutability": "nonpayable",
      "type": "function"
    },
    {
      "inputs": [],
      "name": "owner",
      "outputs": [
        {
          "internalType": "address",
          "name": "",
          "type": "address"
        }
      ],
      "stateMutability": "view",
      "type": "function"
    },
    {
      "inputs": [],
      "name": "queryAllShareAssets",
      "outputs": [
        {
          "components": [
            {
              "internalType": "string",
              "name": "key",
              "type": "string"
            },
            {
              "internalType": "address",
              "name": "ownerAddress",
              "type": "address"
            },
            {
              "internalType": "string",
              "name": "ownerUserId",
              "type": "string"
            },
            {
              "internalType": "string[]",
              "name": "accounts",
              "type": "string[]"
            },
            {
              "internalType": "string",
              "name": "name",
              "type": "string"
            },
            {
              "internalType": "address[]",
              "name": "sharedWith",
              "type": "address[]"
            },
            {
              "internalType": "string[]",
              "name": "sharedWithUserIds",
              "type": "string[]"
            },
            {
              "internalType": "bool",
              "name": "isActive",
              "type": "bool"
            },
            {
              "internalType": "uint256",
              "name": "createdAt",
              "type": "uint256"
            },
            {
              "internalType": "uint256",
              "name": "updatedAt",
              "type": "uint256"
            }
          ],
          "internalType": "struct ShareLoans.ShareAsset[]",
          "name": "",
          "type": "tuple[]"
        }
      ],
      "stateMutability": "view",
      "type": "function"
    },
    {
      "inputs": [
        {
          "internalType": "address",
          "name": "userAddress",
          "type": "address"
        }
      ],
      "name": "querySharedByUser",
      "outputs": [
        {
          "components": [
            {
              "internalType": "string",
              "name": "key",
              "type": "string"
            },
            {
              "internalType": "address",
              "name": "ownerAddress",
              "type": "address"
            },
            {
              "internalType": "string",
              "name": "ownerUserId",
              "type": "string"
            },
            {
              "internalType": "string[]",
              "name": "accounts",
              "type": "string[]"
            },
            {
              "internalType": "string",
              "name": "name",
              "type": "string"
            },
            {
              "internalType": "address[]",
              "name": "sharedWith",
              "type": "address[]"
            },
            {
              "internalType": "string[]",
              "name": "sharedWithUserIds",
              "type": "string[]"
            },
            {
              "internalType": "bool",
              "name": "isActive",
              "type": "bool"
            },
            {
              "internalType": "uint256",
              "name": "createdAt",
              "type": "uint256"
            },
            {
              "internalType": "uint256",
              "name": "updatedAt",
              "type": "uint256"
            }
          ],
          "internalType": "struct ShareLoans.ShareAsset[]",
          "name": "",
          "type": "tuple[]"
        }
      ],
      "stateMutability": "view",
      "type": "function"
    },
    {
      "inputs": [
        {
          "internalType": "address",
          "name": "userAddress",
          "type": "address"
        }
      ],
      "name": "querySharedWithMe",
      "outputs": [
        {
          "components": [
            {
              "internalType": "string",
              "name": "key",
              "type": "string"
            },
            {
              "internalType": "address",
              "name": "ownerAddress",
              "type": "address"
            },
            {
              "internalType": "string",
              "name": "ownerUserId",
              "type": "string"
            },
            {
              "internalType": "string[]",
              "name": "accounts",
              "type": "string[]"
            },
            {
              "internalType": "string",
              "name": "name",
              "type": "string"
            },
            {
              "internalType": "address[]",
              "name": "sharedWith",
              "type": "address[]"
            },
            {
              "internalType": "string[]",
              "name": "sharedWithUserIds",
              "type": "string[]"
            },
            {
              "internalType": "bool",
              "name": "isActive",
              "type": "bool"
            },
            {
              "internalType": "uint256",
              "name": "createdAt",
              "type": "uint256"
            },
            {
              "internalType": "uint256",
              "name": "updatedAt",
              "type": "uint256"
            }
          ],
          "internalType": "struct ShareLoans.ShareAsset[]",
          "name": "",
          "type": "tuple[]"
        }
      ],
      "stateMutability": "view",
      "type": "function"
    },
    {
      "inputs": [
        {
          "internalType": "string",
          "name": "key",
          "type": "string"
        }
      ],
      "name": "readShareAsset",
      "outputs": [
        {
          "components": [
            {
              "internalType": "string",
              "name": "key",
              "type": "string"
            },
            {
              "internalType": "address",
              "name": "ownerAddress",
              "type": "address"
            },
            {
              "internalType": "string",
              "name": "ownerUserId",
              "type": "string"
            },
            {
              "internalType": "string[]",
              "name": "accounts",
              "type": "string[]"
            },
            {
              "internalType": "string",
              "name": "name",
              "type": "string"
            },
            {
              "internalType": "address[]",
              "name": "sharedWith",
              "type": "address[]"
            },
            {
              "internalType": "string[]",
              "name": "sharedWithUserIds",
              "type": "string[]"
            },
            {
              "internalType": "bool",
              "name": "isActive",
              "type": "bool"
            },
            {
              "internalType": "uint256",
              "name": "createdAt",
              "type": "uint256"
            },
            {
              "internalType": "uint256",
              "name": "updatedAt",
              "type": "uint256"
            }
          ],
          "internalType": "struct ShareLoans.ShareAsset",
          "name": "",
          "type": "tuple"
        }
      ],
      "stateMutability": "view",
      "type": "function"
    },
    {
      "inputs": [],
      "name": "renounceOwnership",
      "outputs": [],
      "stateMutability": "nonpayable",
      "type": "function"
    },
    {
      "inputs": [
        {
          "internalType": "string",
          "name": "key",
          "type": "string"
        }
      ],
      "name": "shareAssetExists",
      "outputs": [
        {
          "internalType": "bool",
          "name": "",
          "type": "bool"
        }
      ],
      "stateMutability": "view",
      "type": "function"
    },
    {
      "inputs": [
        {
          "internalType": "address",
          "name": "newOwner",
          "type": "address"
        }
      ],
      "name": "transferOwnership",
      "outputs": [],
      "stateMutability": "nonpayable",
      "type": "function"
    },
    {
      "inputs": [
        {
          "internalType": "string",
          "name": "key",
          "type": "string"
        },
        {
          "internalType": "address[]",
          "name": "newSharedWithAddresses",
          "type": "address[]"
        },
        {
          "internalType": "string[]",
          "name": "newSharedWithUserIds",
          "type": "string[]"
        }
      ],
      "name": "updateShareAssetAccounts",
      "outputs": [
        {
          "internalType": "bool",
          "name": "",
          "type": "bool"
        }
      ],
      "stateMutability": "nonpayable",
      "type": "function"
    }
  ],
  "bytecode": "0x6080346100bb57601f61242938819003918201601f19168301916001600160401b038311848410176100c0578084926020946040528339810103126100bb57516001600160a01b0390818116908190036100bb5780156100a257600080546001600160a01b03198116831782556040519316907f8be0079c531659141344cd1fd0a4f28419497f9722a3daafe3b4186f6b6457e09080a361235290816100d78239f35b604051631e4fbdf760e01b815260006004820152602490fd5b600080fd5b634e487b7160e01b600052604160045260246000fdfe6080604052600436101561001257600080fd5b60e060003560e01c9081631d26f37c146112695781633cb34ea9146110c95781633d9d6481146110735781634d5623e514610a905781635411bcad1461090957816365bcc678146107d65781636988f8d5146105c0578163715018a6146105675781638caad8a3146103e45781638da5cb5b146103bb578163e2272c97146101b157508063e9ec20ee146101425763f2fde38b146100af57600080fd5b3461013d57602036600319011261013d576100c861189c565b6100d0612319565b6001600160a01b0390811690811561012457600054826bffffffffffffffffffffffff60a01b821617600055167f8be0079c531659141344cd1fd0a4f28419497f9722a3daafe3b4186f6b6457e0600080a3005b604051631e4fbdf760e01b815260006004820152602490fd5b600080fd5b3461013d57604036600319011261013d576004356001600160401b03811161013d5761017290369060040161182f565b6024356001600160a01b038116810361013d5761018e9161208b565b906101ad604051928392151583526040602084015260408301906119c4565b0390f35b3461013d5760208060031936011261013d576001600160a01b0390816101d561189c565b16600052600381526101ea6040600020611faf565b9260009160005b85518110156102355760ff600761021161020b848a611e77565b51611b91565b015416610221575b6001016101f1565b9261022d600191612066565b939050610219565b5090926102428593612016565b9060009260005b85518110156103ad57600760ff808261026561020b868c611e77565b015416610277575b5050600101610249565b61028761020b848a999599611e77565b9060405192610295846117d7565b6040516102ad816102a68187611f19565b038261180e565b84526001878185015416878601526040516102cf816102a68160028901611f19565b60408601526102e060038501611faf565b60608601526040516102f9816102a68160048901611f19565b608086015260058401604051918289835491828152019260005289600020916000915b80831061039657505050509260099282610340600199979461038e9997038261180e565b60a086015261035160068401611faf565b60c08601528201541615158c8401526008810154610100840152015461012082015261037d8288611e77565b526103888187611e77565b50612066565b94908861026d565b83548d168552938b0193928101929181019161031c565b604051806101ad8682611b2d565b3461013d57600036600319011261013d576000546040516001600160a01b039091168152602090f35b3461013d5760208060031936011261013d576004356001600160401b03811161013d5761041590369060040161182f565b60405190805161044c610445858401926104308187866119a1565b85019486816001978881520301902054611bb7565b1515611bf1565b61047f6040518484516104608184876119a1565b8201818152829003870190912001546001600160a01b03163314611c34565b60ff6007604051868186516104958183896119a1565b81018881520301902001541661053057906104e760096104fc936007604051888187516104c38183886119a1565b81018a815203019020018660ff1982541617905560405192839185519283916119a1565b82019185835286814294030190200155611ce2565b604051904282527fdb1d5ebd9ac7bc153be14b453aad2f6604e09809e546c70935c57c38ccc98e0a843393a3604051908152f35b60405162461bcd60e51b815260048101859052600f60248201526e105b1c9958591e48195b98589b1959608a1b6044820152606490fd5b3461013d57600036600319011261013d57610580612319565b600080546001600160a01b0319811682556001600160a01b03167f8be0079c531659141344cd1fd0a4f28419497f9722a3daafe3b4186f6b6457e08280a3005b3461013d57600036600319011261013d576105d9612319565b600590600554906105e982612016565b9260005b83811061060257604051806101ad8782611b2d565b81600052807f036b6384b5eca791c62761152d0c79bb0604c104a5fb6f4eb0703f3154bb3db00160405180600083549361063b85611bb7565b9060019586811690816000146107bf5750600114610785575b50508381949394526020938491030190209060405192610673846117d7565b604051610684816102a68187611f19565b8452828201546001600160a01b03908116828601526040516106ad816102a68160028901611f19565b60408601526106be60038501611faf565b60608601526040516106d7816102a68160048901611f19565b608086015286840191604051938482855491828152019460005282600020936000935b82851061076e57505050505050918161071b6009936001979695038261180e565b60a084015261072c60068201611faf565b60c084015260ff6007820154161515878401526008810154610100840152015461012082015261075c8288611e77565b526107678187611e77565b50016105ed565b8554821687529586019594830194938301936106fa565b909150600052602080600020856000915b8483106107aa575050505081018980610654565b80548784015286955091830191879101610796565b60ff19168552505080151502820190508980610654565b3461013d5760208060031936011261013d576004356001600160401b03811161013d5761080790369060040161182f565b604051908051610822610445858401926104308187866119a1565b6108366040518484516104608184876119a1565b60ff60076040518681865161084c8183896119a1565b810188815203019020015416156108d157906104e7600961089d9360076040518881875161087b8183886119a1565b81018a8152030190200160ff19815416905560405192839185519283916119a1565b604051904282527f55ed3226f7f7593ff84dc369e28ee10a77d2e3c05f914164ea18f993a24a9f39843393a3604051908152f35b60405162461bcd60e51b815260048101859052601060248201526f105b1c9958591e48191a5cd8589b195960821b6044820152606490fd5b3461013d576020908160031936011261013d576001600160a01b038061092d61189c565b16600052600290600284526109456040600020611faf565b926109508451612016565b9460005b8551811015610a825761096a61020b8288611e77565b60405190610977826117d7565b604051610988816102a68185611f19565b82526001868183015416858401526040516109a9816102a6818c8701611f19565b60408401526109ba60038301611faf565b60608401526040516109d3816102a68160048701611f19565b608084015260058201604051918287835491828152019260005287600020916000915b898c828510610a6c575050505050509181610a196009936001979695038261180e565b60a0840152610a2a60068201611faf565b60c084015260ff60078201541615158784015260088101546101008401520154610120820152610a5a828a611e77565b52610a658189611e77565b5001610954565b85541686529094019392810192918101916109f6565b604051806101ad8982611b2d565b3461013d5760c036600319011261013d576004356001600160401b03811161013d57610ac090369060040161182f565b6024356001600160401b03811161013d57610adf90369060040161182f565b6044356001600160401b03811161013d57610afe903690600401611922565b906064356001600160401b03811161013d57610b1e90369060040161182f565b906084356001600160401b03811161013d57610b3e9036906004016118b2565b60a4356001600160401b03811161013d57610b5d903690600401611922565b9285511561103f5782511561100257845115610fc957610b9d60405160208181610b8d8b838151938492016119a1565b8101600181520301902054611bb7565b610f8457610bae8251855114611c70565b610bfa60405160208181610bc88b838151938492016119a1565b8101600181520301902093610bdd8886611da8565b6001850180546001600160a01b0319163317905560028501611da8565b8451600160401b8111610e93576003840154816003860155808210610f51575b50602086016003850160005260206000206000915b838310610f345750505050610c479060048401611da8565b8051600583016001600160401b038211610e9357600160401b8211610e93578054828255808310610f16575b506020830190600052602060002060005b838110610ef957505050508251600160401b8111610e93576006830154816006850155808210610ec6575b50602084016006840160005260206000206000915b838310610ea95750505050600782019160ff1992600184825416179055426008820155600942910155336000526002602052610d04856040600020611e8b565b600554600160401b811015610e93576001810180600555811015610e7d5785610d539160056000527f036b6384b5eca791c62761152d0c79bb0604c104a5fb6f4eb0703f3154bb3db001611da8565b60005b8151811015610e355760019060405160208181610d798b838151938492016119a1565b81016004815203019020828060a01b039081610d958487611e77565b51166000526020526040600020838682541617905580610db58386611e77565b51166000526003602052610dcd886040600020611e8b565b610dd78285611e77565b5116610de38287611e77565b517f2d6d2927a16230c9a06ad763967e3804b007adfa5762d1135ac1ba69d24d82b8610e26610e118b611ce2565b926040519182916040835260408301906119c4565b4260208301520390a301610d56565b8451610e4087611ce2565b6040519182524260208301527ff7320c9036c114c330182e8a0c8b3e3394b66c4e0b97b1e2a83238f34fa0d7b460403393a3602060405160018152f35b634e487b7160e01b600052603260045260246000fd5b634e487b7160e01b600052604160045260246000fd5b6001602082610eba83945186611da8565b01920192019190610cc4565b600684016000526020600020908282015b8183018110610ee7575050610caf565b80610ef3600192611d19565b01610ed7565b82516001600160a01b031681830155602090920191600101610c84565b610f2e90826000528360206000209182019101611d02565b87610c73565b6001602082610f4583945186611da8565b01920192019190610c2f565b600385016000526020600020908282015b8183018110610f72575050610c1a565b80610f7e600192611d19565b01610f62565b60405162461bcd60e51b815260206004820152601860248201527f5368617265206b657920616c72656164792065786973747300000000000000006044820152606490fd5b60405162461bcd60e51b81526020600482015260116024820152701058d8dbdd5b9d1cc81c995c5d5a5c9959607a1b6044820152606490fd5b60405162461bcd60e51b815260206004820152601560248201527413dddb995c88155cd95c9251081c995c5d5a5c9959605a1b6044820152606490fd5b60405162461bcd60e51b815260206004820152600c60248201526b12d95e481c995c5d5a5c995960a21b6044820152606490fd5b3461013d57602036600319011261013d576004356001600160401b03811161013d576110bf610b8d60206110ac8194369060040161182f565b81604051938285809451938492016119a1565b1515604051908152f35b3461013d5760208060031936011261013d576004356001600160401b03811161013d576110fa90369060040161182f565b90611103611ece565b5061114b816040519380519061113a61044584830193611124818a876119a1565b880197858160019a600181520301902054611bb7565b6040519384928392519283916119a1565b810160018152030190209060405191611163836117d7565b604051611174816102a68185611f19565b835260018101546001600160a01b039081168385015260405161119e816102a68160028701611f19565b60408501526111af60038301611faf565b60608501526040516111c8816102a68160048701611f19565b60808501526005820194604051918285885491828152019760005285600020916000905b8282106112525750878760098888611206818f038261180e565b60a085015261121760068201611faf565b60c085015260ff600782015416151560e0850152600881015461010085015201546101208301526101ad604051928284938452830190611a46565b835481168a529887019892840192908401906111ec565b3461013d57606036600319011261013d576004356001600160401b03811161013d5761129990369060040161182f565b602480356001600160401b03811161013d576112b99036906004016118b2565b916044356001600160401b03811161013d57836112db84923690600401611922565b926112f76104456040516020818551610b8d8183858a016119a1565b61132d6040516001835161130f8184602088016119a1565b820191818352602081838060a01b0394030190200154163314611c34565b61133a8251855114611c70565b604051602081835161134f81838588016119a1565b81016001815203019020936000925b600586015484101561157457604051602081855161137f8183858a016119a1565b810160048152030190206113968560058901611cca565b905460018060a01b039160031b1c16600052602052604060002060ff1981541690556113c58460058801611cca565b60018060a01b0391549060031b1c16600052600360205260406000209160005b835480821015611567576102a661140c6113ff8488611cca565b5060405192838092611f19565b60208151910120865160208801201461142857506001016113e5565b91959293916000199190828101908111611552576114496114519185611cca565b509184611cca565b611528579061145f9161223b565b8154801561153d5761147382820184611cca565b61152857908161148860019695949354611bb7565b90816114eb575b50500190555b6114a28160058901611cca565b838060a01b0391549060031b1c166114b985611ce2565b7ff7eb47ecbc62e098414c8565b83461841e3ae69f64ad0da8609abefecaec86ad6020604051428152a301929061135e565b600091601f8082118914611504575050555b8a8061148f565b9161152184929382845260208420940160051c84018a8501611d02565b55556114fd565b88634e487b7160e01b60005260006004526000fd5b87634e487b7160e01b60005260316004526000fd5b88634e487b7160e01b60005260116004526000fd5b5050936001919250611495565b9085858351906001600160401b03821161177057600160401b918281116117c25760058401548160058601558082106117a1575b506020860160058501600052602060002060005b83811061178457505050506006830190845192831161177057508054828255808310611741575b50602084019060005260206000206000915b838310611724575050505060094291015560005b82518110156116dc57600190604051602081875161162a8183858c016119a1565b81016004815203019020828060a01b036116448387611e77565b511660005260205260406000208260ff19825416179055818060a01b0361166b8286611e77565b51166000526003602052611683856040600020611e8b565b818060a01b036116938286611e77565b511661169f8285611e77565b517f2d6d2927a16230c9a06ad763967e3804b007adfa5762d1135ac1ba69d24d82b86116cd610e1189611ce2565b4260208301520390a301611609565b82516116e785611ce2565b6040519182524260208301527f1de5075f65ce6d39622a83a245cf7566e418a0d7f17c39aa952cab9f58ec131260403393a3602060405160018152f35b600160208261173583945186611da8565b019201920191906115f5565b8160005282602060002091820191015b81811061175e57506115e3565b8061176a600192611d19565b01611751565b634e487b7160e01b60009081526041600452fd5b82516001600160a01b0316818301556020909201916001016115bc565b6117bc90600586016000528260206000209182019101611d02565b876115a8565b50634e487b7160e01b60009081526041600452fd5b61014081019081106001600160401b03821117610e9357604052565b604081019081106001600160401b03821117610e9357604052565b90601f801991011681019081106001600160401b03821117610e9357604052565b81601f8201121561013d578035906001600160401b038211610e935760405192611863601f8401601f19166020018561180e565b8284526020838301011161013d57816000926020809301838601378301015290565b6001600160401b038111610e935760051b60200190565b600435906001600160a01b038216820361013d57565b9080601f8301121561013d5760209082356118cc81611885565b936118da604051958661180e565b81855260208086019260051b82010192831161013d57602001905b828210611903575050505090565b81356001600160a01b038116810361013d5781529083019083016118f5565b81601f8201121561013d5780359160209161193c84611885565b9361194a604051958661180e565b808552838086019160051b8301019280841161013d57848301915b8483106119755750505050505090565b82356001600160401b03811161013d5786916119968484809489010161182f565b815201920191611965565b60005b8381106119b45750506000910152565b81810151838201526020016119a4565b906020916119dd815180928185528580860191016119a1565b601f01601f1916010190565b90808251908181526020809101926020808460051b8301019501936000915b848310611a185750505050505090565b9091929394958480611a36600193601f198682030187528a516119c4565b9801930193019194939290611a08565b90611a5b6101408351908084528301906119c4565b6020611aaf611a9d611a8b838701519460018060a01b0380961685880152604088015187820360408901526119c4565b606087015186820360608801526119e9565b608086015185820360808701526119c4565b60a08501519184820360a08601528080845193848152019301936000905b838210611b145750505050611aef915060c084015183820360c08501526119e9565b9160e0810151151560e083015261010080820151908301526101208091015191015290565b8551811685529482019493820193600190910190611acd565b6020808201906020835283518092526040830192602060408460051b8301019501936000915b848310611b635750505050505090565b9091929394958480611b81600193603f198682030187528a51611a46565b9801930193019194939290611b53565b6020611baa9181604051938285809451938492016119a1565b8101600181520301902090565b90600182811c92168015611be7575b6020831014611bd157565b634e487b7160e01b600052602260045260246000fd5b91607f1691611bc6565b15611bf857565b60405162461bcd60e51b815260206004820152601460248201527314da185c9948191bd95cc81b9bdd08195e1a5cdd60621b6044820152606490fd5b15611c3b57565b60405162461bcd60e51b815260206004820152600d60248201526c2737ba103a34329037bbb732b960991b6044820152606490fd5b15611c7757565b60405162461bcd60e51b815260206004820152602560248201527f41646472657373657320616e642055736572494473206c656e677468206d69736044820152640dac2e8c6d60db1b6064820152608490fd5b8054821015610e7d5760005260206000200190600090565b611cfa906020604051928284809451938492016119a1565b810103902090565b818110611d0d575050565b60008155600101611d02565b611d238154611bb7565b9081611d2d575050565b81601f60009311600114611d405750555b565b908083918252611d5f601f60208420940160051c840160018501611d02565b5555565b9190601f8111611d7257505050565b611d3e926000526020600020906020601f840160051c83019310611d9e575b601f0160051c0190611d02565b9091508190611d91565b91909182516001600160401b038111610e9357611dcf81611dc98454611bb7565b84611d63565b602080601f8311600114611e1257508190611e03939495600092611e07575b50508160011b916000199060031b1c19161790565b9055565b015190503880611dee565b90601f19831695846000526020600020926000905b888210611e5f57505083600195969710611e46575b505050811b019055565b015160001960f88460031b161c19169055388080611e3c565b80600185968294968601518155019501930190611e27565b8051821015610e7d5760209160051b010190565b8054600160401b811015610e9357611ea891600182018155611cca565b919091611eb857611d3e91611da8565b634e487b7160e01b600052600060045260246000fd5b60405190611edb826117d7565b600061012083606080825283602083015280604083015280808301528060808301528060a083015260c08201528260e0820152826101008201520152565b805460009392611f2882611bb7565b91828252602093600191600181169081600014611f905750600114611f4f575b5050505050565b90939495506000929192528360002092846000945b838610611f7c57505050500101903880808080611f48565b805485870183015294019385908201611f64565b60ff19168685015250505090151560051b010191503880808080611f48565b908154611fbb81611885565b92604093611fcc604051918261180e565b82815280946020809201926000526020600020906000935b858510611ff357505050505050565b60018481928451612008816102a6818a611f19565b815201930194019391611fe4565b9061202082611885565b61202d604051918261180e565b828152809261203e601f1991611885565b019060005b82811061204f57505050565b60209061205a611ece565b82828501015201612043565b60001981146120755760010190565b634e487b7160e01b600052601160045260246000fd5b919091604092835190825192602093816120c386809401926120ae8188866119a1565b86019584816001988981520301902054611bb7565b156122065760ff60078951858185516120dd81838a6119a1565b81018a815203019020015416156121d457875181516120fd8183866119a1565b8101868152819003840190208501546001600160a01b03948516941684146121a05790612135929188519384928392519283916119a1565b8101600481520301902090600052825260ff8460002054166121775750684e6f2061636365737360b81b600093519161216d836117f3565b6009835282015290565b6d1058d8d95cdcc819dc985b9d195960921b90935191612196836117f3565b600e835282015290565b50505050744f776e6572206861732066756c6c2061636365737360581b909351916121ca836117f3565b6015835282015290565b50505050507014da185c99481a5cc8191a5cd8589b1959607a1b60009351916121fc836117f3565b6011835282015290565b50505050507314da185c9948191bd95cc81b9bdd08195e1a5cdd60621b6000935191612231836117f3565b6014835282015290565b908082146123155761224d8154611bb7565b906001600160401b038211610e93576122708261226a8554611bb7565b85611d63565b600090601f83116001146122ab57611e039291600091836122a05750508160011b916000199060031b1c19161790565b015490503880611dee565b815260208082208483528183209291601f1985169083905b8282106122fc5750509084600195949392106122e357505050811b019055565b015460001960f88460031b161c19169055388080611e3c565b84958192958501548155600180910196019401906122c3565b5050565b6000546001600160a01b0316330361232d57565b60405163118cdaa760e01b8152336004820152602490fdfea164736f6c6343000818000a",
  "linkReferences": {},
  "deployedLinkReferences": {}
}