{
  "_format": "hh-sol-artifact-1",
  "contractName": "ShareLoans",
  "sourceName": "src/ShareLoans.sol",
  "abi": [
    {
      "inputs": [
        {
          "internalType": "address",
          "name": "initialOwner",
          "type": "address"
        }
      ],
      "stateMutability": "nonpayable",
      "type": "constructor"
    },
    {
      "inputs": [
        {
          "internalType": "address",
          "name": "owner",
          "type": "address"
        }
      ],
      "name": "OwnableInvalidOwner",
      "type": "error"
    },
    {
      "inputs": [
        {
          "internalType": "address",
          "name": "account",
          "type": "address"
        }
      ],
      "name": "OwnableUnauthorizedAccount",
      "type": "error"
    },
    {
      "anonymous": false,
      "inputs": [
        {
          "indexed": true,
          "internalType": "string",
          "name": "key",
          "type": "string"
        },
        {
          "indexed": true,
          "internalType": "address",
          "name": "grantedTo",
          "type": "address"
        },
        {
          "indexed": false,
          "internalType": "string",
          "name": "grantedToUserId",
          "type": "string"
        },
        {
          "indexed": false,
          "internalType": "uint256",
          "name": "timestamp",
          "type": "uint256"
        }
      ],
      "name": "AccessGranted",
      "type": "event"
    },
    {
      "anonymous": false,
      "inputs": [
        {
          "indexed": true,
          "internalType": "string",
          "name": "key",
          "type": "string"
        },
        {
          "indexed": true,
          "internalType": "address",
          "name": "revokedFrom",
          "type": "address"
        },
        {
          "indexed": false,
          "internalType": "uint256",
          "name": "timestamp",
          "type": "uint256"
        }
      ],
      "name": "AccessRevoked",
      "type": "event"
    },
    {
      "anonymous": false,
      "inputs": [
        {
          "indexed": true,
          "internalType": "address",
          "name": "previousOwner",
          "type": "address"
        },
        {
          "indexed": true,
          "internalType": "address",
          "name": "newOwner",
          "type": "address"
        }
      ],
      "name": "OwnershipTransferred",
      "type": "event"
    },
    {
      "anonymous": false,
      "inputs": [
        {
          "indexed": true,
          "internalType": "string",
          "name": "key",
          "type": "string"
        },
        {
          "indexed": true,
          "internalType": "address",
          "name": "owner",
          "type": "address"
        },
        {
          "indexed": false,
          "internalType": "string",
          "name": "loanId",
          "type": "string"
        },
        {
          "indexed": false,
          "internalType": "uint256",
          "name": "timestamp",
          "type": "uint256"
        }
      ],
      "name": "ShareCreated",
      "type": "event"
    },
    {
      "anonymous": false,
      "inputs": [
        {
          "indexed": true,
          "internalType": "string",
          "name": "key",
          "type": "string"
        },
        {
          "indexed": true,
          "internalType": "address",
          "name": "owner",
          "type": "address"
        },
        {
          "indexed": false,
          "internalType": "uint256",
          "name": "timestamp",
          "type": "uint256"
        }
      ],
      "name": "ShareDisabled",
      "type": "event"
    },
    {
      "anonymous": false,
      "inputs": [
        {
          "indexed": true,
          "internalType": "string",
          "name": "key",
          "type": "string"
        },
        {
          "indexed": true,
          "internalType": "address",
          "name": "owner",
          "type": "address"
        },
        {
          "indexed": false,
          "internalType": "uint256",
          "name": "timestamp",
          "type": "uint256"
        }
      ],
      "name": "ShareEnabled",
      "type": "event"
    },
    {
      "anonymous": false,
      "inputs": [
        {
          "indexed": true,
          "internalType": "string",
          "name": "key",
          "type": "string"
        },
        {
          "indexed": true,
          "internalType": "address",
          "name": "owner",
          "type": "address"
        },
        {
          "indexed": false,
          "internalType": "uint256",
          "name": "sharedWithCount",
          "type": "uint256"
        },
        {
          "indexed": false,
          "internalType": "uint256",
          "name": "timestamp",
          "type": "uint256"
        }
      ],
      "name": "ShareUpdated",
      "type": "event"
    },
    {
      "inputs": [
        {
          "internalType": "string",
          "name": "key",
          "type": "string"
        },
        {
          "internalType": "address",
          "name": "userAddress",
          "type": "address"
        }
      ],
      "name": "checkUserAccess",
      "outputs": [
        {
          "internalType": "bool",
          "name": "hasAccessValue",
          "type": "bool"
        },
        {
          "internalType": "string",
          "name": "reason",
          "type": "string"
        }
      ],
      "stateMutability": "view",
      "type": "function"
    },
    {
      "inputs": [
        {
          "internalType": "string",
          "name": "key",
          "type": "string"
        },
        {
          "internalType": "string",
          "name": "ownerUserId",
          "type": "string"
        },
        {
          "internalType": "string",
          "name": "loanId",
          "type": "string"
        },
        {
          "internalType": "string",
          "name": "description",
          "type": "string"
        },
        {
          "internalType": "address[]",
          "name": "sharedWithAddresses",
          "type": "address[]"
        },
        {
          "internalType": "string[]",
          "name": "sharedWithUserIds",
          "type": "string[]"
        }
      ],
      "name": "createShareAsset",
      "outputs": [
        {
          "internalType": "bool",
          "name": "",
          "type": "bool"
        }
      ],
      "stateMutability": "nonpayable",
      "type": "function"
    },
    {
      "inputs": [
        {
          "internalType": "string",
          "name": "key",
          "type": "string"
        }
      ],
      "name": "disableShareAsset",
      "outputs": [
        {
          "internalType": "bool",
          "name": "",
          "type": "bool"
        }
      ],
      "stateMutability": "nonpayable",
      "type": "function"
    },
    {
      "inputs": [
        {
          "internalType": "string",
          "name": "key",
          "type": "string"
        }
      ],
      "name": "enableShareAsset",
      "outputs": [
        {
          "internalType": "bool",
          "name": "",
          "type": "bool"
        }
      ],
      "stateMutability": "nonpayable",
      "type": "function"
    },
    {
      "inputs": [],
      "name": "owner",
      "outputs": [
        {
          "internalType": "address",
          "name": "",
          "type": "address"
        }
      ],
      "stateMutability": "view",
      "type": "function"
    },
    {
      "inputs": [],
      "name": "queryAllShareAssets",
      "outputs": [
        {
          "components": [
            {
              "internalType": "string",
              "name": "key",
              "type": "string"
            },
            {
              "internalType": "address",
              "name": "ownerAddress",
              "type": "address"
            },
            {
              "internalType": "string",
              "name": "ownerUserId",
              "type": "string"
            },
            {
              "internalType": "string",
              "name": "loanId",
              "type": "string"
            },
            {
              "internalType": "string",
              "name": "description",
              "type": "string"
            },
            {
              "internalType": "address[]",
              "name": "sharedWith",
              "type": "address[]"
            },
            {
              "internalType": "string[]",
              "name": "sharedWithUserIds",
              "type": "string[]"
            },
            {
              "internalType": "bool",
              "name": "isActive",
              "type": "bool"
            },
            {
              "internalType": "uint256",
              "name": "createdAt",
              "type": "uint256"
            },
            {
              "internalType": "uint256",
              "name": "updatedAt",
              "type": "uint256"
            }
          ],
          "internalType": "struct ShareLoans.ShareAsset[]",
          "name": "",
          "type": "tuple[]"
        }
      ],
      "stateMutability": "view",
      "type": "function"
    },
    {
      "inputs": [
        {
          "internalType": "address",
          "name": "userAddress",
          "type": "address"
        }
      ],
      "name": "querySharedByUser",
      "outputs": [
        {
          "components": [
            {
              "internalType": "string",
              "name": "key",
              "type": "string"
            },
            {
              "internalType": "address",
              "name": "ownerAddress",
              "type": "address"
            },
            {
              "internalType": "string",
              "name": "ownerUserId",
              "type": "string"
            },
            {
              "internalType": "string",
              "name": "loanId",
              "type": "string"
            },
            {
              "internalType": "string",
              "name": "description",
              "type": "string"
            },
            {
              "internalType": "address[]",
              "name": "sharedWith",
              "type": "address[]"
            },
            {
              "internalType": "string[]",
              "name": "sharedWithUserIds",
              "type": "string[]"
            },
            {
              "internalType": "bool",
              "name": "isActive",
              "type": "bool"
            },
            {
              "internalType": "uint256",
              "name": "createdAt",
              "type": "uint256"
            },
            {
              "internalType": "uint256",
              "name": "updatedAt",
              "type": "uint256"
            }
          ],
          "internalType": "struct ShareLoans.ShareAsset[]",
          "name": "",
          "type": "tuple[]"
        }
      ],
      "stateMutability": "view",
      "type": "function"
    },
    {
      "inputs": [
        {
          "internalType": "address",
          "name": "userAddress",
          "type": "address"
        }
      ],
      "name": "querySharedWithMe",
      "outputs": [
        {
          "components": [
            {
              "internalType": "string",
              "name": "key",
              "type": "string"
            },
            {
              "internalType": "address",
              "name": "ownerAddress",
              "type": "address"
            },
            {
              "internalType": "string",
              "name": "ownerUserId",
              "type": "string"
            },
            {
              "internalType": "string",
              "name": "loanId",
              "type": "string"
            },
            {
              "internalType": "string",
              "name": "description",
              "type": "string"
            },
            {
              "internalType": "address[]",
              "name": "sharedWith",
              "type": "address[]"
            },
            {
              "internalType": "string[]",
              "name": "sharedWithUserIds",
              "type": "string[]"
            },
            {
              "internalType": "bool",
              "name": "isActive",
              "type": "bool"
            },
            {
              "internalType": "uint256",
              "name": "createdAt",
              "type": "uint256"
            },
            {
              "internalType": "uint256",
              "name": "updatedAt",
              "type": "uint256"
            }
          ],
          "internalType": "struct ShareLoans.ShareAsset[]",
          "name": "",
          "type": "tuple[]"
        }
      ],
      "stateMutability": "view",
      "type": "function"
    },
    {
      "inputs": [
        {
          "internalType": "string",
          "name": "key",
          "type": "string"
        }
      ],
      "name": "readShareAsset",
      "outputs": [
        {
          "components": [
            {
              "internalType": "string",
              "name": "key",
              "type": "string"
            },
            {
              "internalType": "address",
              "name": "ownerAddress",
              "type": "address"
            },
            {
              "internalType": "string",
              "name": "ownerUserId",
              "type": "string"
            },
            {
              "internalType": "string",
              "name": "loanId",
              "type": "string"
            },
            {
              "internalType": "string",
              "name": "description",
              "type": "string"
            },
            {
              "internalType": "address[]",
              "name": "sharedWith",
              "type": "address[]"
            },
            {
              "internalType": "string[]",
              "name": "sharedWithUserIds",
              "type": "string[]"
            },
            {
              "internalType": "bool",
              "name": "isActive",
              "type": "bool"
            },
            {
              "internalType": "uint256",
              "name": "createdAt",
              "type": "uint256"
            },
            {
              "internalType": "uint256",
              "name": "updatedAt",
              "type": "uint256"
            }
          ],
          "internalType": "struct ShareLoans.ShareAsset",
          "name": "",
          "type": "tuple"
        }
      ],
      "stateMutability": "view",
      "type": "function"
    },
    {
      "inputs": [],
      "name": "renounceOwnership",
      "outputs": [],
      "stateMutability": "nonpayable",
      "type": "function"
    },
    {
      "inputs": [
        {
          "internalType": "string",
          "name": "key",
          "type": "string"
        }
      ],
      "name": "shareAssetExists",
      "outputs": [
        {
          "internalType": "bool",
          "name": "",
          "type": "bool"
        }
      ],
      "stateMutability": "view",
      "type": "function"
    },
    {
      "inputs": [
        {
          "internalType": "address",
          "name": "newOwner",
          "type": "address"
        }
      ],
      "name": "transferOwnership",
      "outputs": [],
      "stateMutability": "nonpayable",
      "type": "function"
    },
    {
      "inputs": [
        {
          "internalType": "string",
          "name": "key",
          "type": "string"
        },
        {
          "internalType": "address[]",
          "name": "newSharedWithAddresses",
          "type": "address[]"
        },
        {
          "internalType": "string[]",
          "name": "newSharedWithUserIds",
          "type": "string[]"
        }
      ],
      "name": "updateShareAssetAccounts",
      "outputs": [
        {
          "internalType": "bool",
          "name": "",
          "type": "bool"
        }
      ],
      "stateMutability": "nonpayable",
      "type": "function"
    }
  ],
  "bytecode": "0x6080346100bb57601f61236238819003918201601f19168301916001600160401b038311848410176100c0578084926020946040528339810103126100bb57516001600160a01b0390818116908190036100bb5780156100a257600080546001600160a01b03198116831782556040519316907f8be0079c531659141344cd1fd0a4f28419497f9722a3daafe3b4186f6b6457e09080a361228b90816100d78239f35b604051631e4fbdf760e01b815260006004820152602490fd5b600080fd5b634e487b7160e01b600052604160045260246000fdfe6080604052600436101561001257600080fd5b60e060003560e01c9081631d26f37c1461117c5781633cb34ea914610fd45781633d9d648114610f7e5781635411bcad14610def57816365bcc67814610cbc5781636988f8d514610ac757816369ada57f146105a1578163715018a61461055a5781638caad8a3146103d75781638da5cb5b146103ae578163e2272c971461019757508063e9ec20ee146101285763f2fde38b146100af57600080fd5b34610123576020366003190112610123576100c86117a1565b6100d0612212565b6001600160a01b0390811690811561010a576000548260018060a01b03198216176000551660008051602061225f833981519152600080a3005b604051631e4fbdf760e01b815260006004820152602490fd5b600080fd5b34610123576040366003190112610123576004356001600160401b03811161012357610158903690600401611734565b6024356001600160a01b03811681036101235761017491611f84565b90610193604051928392151583526040602084015260408301906118c9565b0390f35b346101235760209081600319360112610123576001600160a01b03806101bb6117a1565b16600052600391600384526101d36040600020611ea8565b9360009260005b865181101561021e5760ff60076101fa6101f4848b611d70565b51611a8a565b01541661020a575b6001016101da565b93610216600191611f5f565b949050610202565b508461022b879495611f0f565b9160009360005b86518110156103a057600760ff808261024e6101f4868d611d70565b015416610260575b5050600101610232565b6102706101f4848b9a959a611d70565b906040519261027e846116da565b6040516102968161028f8187611e12565b0382611711565b84526001878185015416878601526040516102b88161028f8160028901611e12565b60408601526040516102d08161028f818d8901611e12565b60608601526040516102e98161028f8160048901611e12565b608086015260058401604051918289835491828152019260005289600020916000915b8b8d82851061038a575050505050509260099282610334600199979461038299970382611711565b60a086015261034560068401611ea8565b60c08601528201541615158d840152600881015461010084015201546101208201526103718289611d70565b5261037c8188611d70565b50611f5f565b959089610256565b855416865290940193928101929181019161030c565b604051806101938782611a26565b34610123576000366003190112610123576000546040516001600160a01b039091168152602090f35b3461012357602080600319360112610123576004356001600160401b03811161012357610408903690600401611734565b60405190805161043f610438858401926104238187866118a6565b85019486816001978881520301902054611ab0565b1515611aea565b6104726040518484516104538184876118a6565b8201818152829003870190912001546001600160a01b03163314611b2d565b60ff6007604051868186516104888183896118a6565b81018881520301902001541661052357906104da60096104ef936007604051888187516104b68183886118a6565b81018a815203019020018660ff1982541617905560405192839185519283916118a6565b82019185835286814294030190200155611bdb565b604051904282527fdb1d5ebd9ac7bc153be14b453aad2f6604e09809e546c70935c57c38ccc98e0a843393a3604051908152f35b60405162461bcd60e51b815260048101859052600f60248201526e105b1c9958591e48195b98589b1959608a1b6044820152606490fd5b3461012357600036600319011261012357610573612212565b600080546001600160a01b0319811682556001600160a01b031660008051602061225f8339815191528280a3005b346101235760c0366003190112610123576001600160401b03600435818111610123576105d2903690600401611734565b602435828111610123576105ea903690600401611734565b9160443581811161012357610603903690600401611734565b916064358281116101235761061c903690600401611734565b91608435818111610123576106359036906004016117b7565b9060a4358181116101235761064e903690600401611827565b93835115610a9357865115610a5657855115610a1e5761068c604051602081875161067c8183858c016118a6565b8101600181520301902054611ab0565b6109de57610701906106a18451875114611b69565b6106eb60405160208188516106b98183858d016118a6565b81016001815203019020986106ce878b611ca1565b60018a0180546001600160a01b0319163317905560028a01611ca1565b6106f88760038a01611ca1565b60048801611ca1565b81516005870191811161093d57600160401b9182821161093d5780548282558083106109c0575b506020840190600052602060002060005b8381106109a35750505050835181811161093d576006870154816006890155808210610970575b50602085016006880160005260206000206000915b8383106109535750505050600786019560ff19966001888254161790554260088201556009429101553360005260026020526107b5836040600020611d84565b6005549081101561093d5760018101806005558110156109275760056000526108019083907f036b6384b5eca791c62761152d0c79bb0604c104a5fb6f4eb0703f3154bb3db001611ca1565b60005b81518110156108cf5760019060405160208186516108258183858b016118a6565b81016004815203019020828060a01b0390816108418487611d70565b511660005260205260406000208389825416179055806108618386611d70565b51166000526003602052610879856040600020611d84565b6108838285611d70565b511661088f8287611d70565b5160008051602061223f8339815191526108c06108ab88611bdb565b926040519182916040835260408301906118c9565b4260208301520390a301610804565b846108d984611bdb565b7f2c5ed80fd16b03bc330e183ee4771118cc8e5382228a3459bc769e4637eea22261090f604051936040855260408501906118c9565b924260208201528033940390a3602060405160018152f35b634e487b7160e01b600052603260045260246000fd5b634e487b7160e01b600052604160045260246000fd5b600160208261096483945186611ca1565b01920192019190610775565b600688016000526020600020908282015b8183018110610991575050610760565b8061099d600192611c12565b01610981565b82516001600160a01b031681830155602090920191600101610739565b6109d890826000528360206000209182019101611bfb565b88610728565b60405162461bcd60e51b81526020600482015260186024820152775368617265206b657920616c72656164792065786973747360401b6044820152606490fd5b60405162461bcd60e51b815260206004820152601060248201526f131bd85b881251081c995c5d5a5c995960821b6044820152606490fd5b60405162461bcd60e51b815260206004820152601560248201527413dddb995c88155cd95c9251081c995c5d5a5c9959605a1b6044820152606490fd5b60405162461bcd60e51b815260206004820152600c60248201526b12d95e481c995c5d5a5c995960a21b6044820152606490fd5b346101235760003660031901126101235760059060055490610ae882611f0f565b9260005b838110610b0157604051806101938782611a26565b8160005260208181600020019060405181816000855495610b2187611ab0565b906001978881169081600014610ca55750600114610c6c575b505085815203019020604051929091610b52846116da565b604051610b638161028f8187611e12565b8452828201546001600160a01b0390811682860152604051610b8c8161028f8160028901611e12565b6040860152604051610ba58161028f8160038901611e12565b6060860152604051610bbe8161028f8160048901611e12565b608086015286840191604051938482855491828152019460005282600020936000935b828510610c55575050505050509181610c0260099360019796950382611711565b60a0840152610c1360068201611ea8565b60c084015260ff60078201541615158784015260088101546101008401520154610120820152610c438288611d70565b52610c4e8187611d70565b5001610aec565b855482168752958601959483019493830193610be1565b90915060005282600020866000915b838310610c8e5750505081018b80610b3a565b805487840152879587955090920191889101610c7b565b60ff19168552505080151502820190508b80610b3a565b3461012357602080600319360112610123576004356001600160401b03811161012357610ced903690600401611734565b604051908051610d08610438858401926104238187866118a6565b610d1c6040518484516104538184876118a6565b60ff600760405186818651610d328183896118a6565b81018881520301902001541615610db757906104da6009610d8393600760405188818751610d618183886118a6565b81018a8152030190200160ff19815416905560405192839185519283916118a6565b604051904282527f55ed3226f7f7593ff84dc369e28ee10a77d2e3c05f914164ea18f993a24a9f39843393a3604051908152f35b60405162461bcd60e51b815260048101859052601060248201526f105b1c9958591e48191a5cd8589b195960821b6044820152606490fd5b346101235760209081600319360112610123576001600160a01b0380610e136117a1565b1660005260029060028452610e2b6040600020611ea8565b92610e368451611f0f565b9460005b8551811015610f7057610e506101f48288611d70565b60405190610e5d826116da565b604051610e6e8161028f8185611e12565b8252600186818301541685840152604051610e8f8161028f818c8701611e12565b6040840152604051610ea88161028f8160038701611e12565b6060840152604051610ec18161028f8160048701611e12565b608084015260058201604051918287835491828152019260005287600020916000915b898c828510610f5a575050505050509181610f0760099360019796950382611711565b60a0840152610f1860068201611ea8565b60c084015260ff60078201541615158784015260088101546101008401520154610120820152610f48828a611d70565b52610f538189611d70565b5001610e3a565b8554168652909401939281019291810191610ee4565b604051806101938982611a26565b34610123576020366003190112610123576004356001600160401b03811161012357610fca61067c6020610fb781943690600401611734565b81604051938285809451938492016118a6565b1515604051908152f35b3461012357602080600319360112610123576004356001600160401b03811161012357611005903690600401611734565b9061100e611dc7565b5061105681604051938051906110456104388483019361102f818a876118a6565b880197858160019a600181520301902054611ab0565b6040519384928392519283916118a6565b81016001815203019020906040519161106e836116da565b60405161107f8161028f8185611e12565b835260018101546001600160a01b03908116838501526040516110a98161028f8160028701611e12565b60408501526040516110c28161028f8160038701611e12565b60608501526040516110db8161028f8160048701611e12565b60808501526005820194604051918285885491828152019760005285600020916000905b8282106111655750878760098888611119818f0382611711565b60a085015261112a60068201611ea8565b60c085015260ff600782015416151560e0850152600881015461010085015201546101208301526101936040519282849384528301906118ee565b835481168a529887019892840192908401906110ff565b34610123576060366003190112610123576004356001600160401b038111610123576111ac903690600401611734565b602480356001600160401b038111610123576111cc9036906004016117b7565b916044356001600160401b03811161012357836111ee84923690600401611827565b9261120a610438604051602081855161067c8183858a016118a6565b611240604051600183516112228184602088016118a6565b820191818352602081838060a01b0394030190200154163314611b2d565b61124d8251855114611b69565b604051602081835161126281838588016118a6565b81016001815203019020936000925b60058601548410156114875760405160208185516112928183858a016118a6565b810160048152030190206112a98560058901611bc3565b905460018060a01b039160031b1c16600052602052604060002060ff1981541690556112d88460058801611bc3565b60018060a01b0391549060031b1c16600052600360205260406000209160005b83548082101561147a5761028f61131f6113128488611bc3565b5060405192838092611e12565b60208151910120865160208801201461133b57506001016112f8565b919592939160001991908281019081116114655761135c6113649185611bc3565b509184611bc3565b61143b579061137291612134565b815480156114505761138682820184611bc3565b61143b57908161139b60019695949354611ab0565b90816113fe575b50500190555b6113b58160058901611bc3565b838060a01b0391549060031b1c166113cc85611bdb565b7ff7eb47ecbc62e098414c8565b83461841e3ae69f64ad0da8609abefecaec86ad6020604051428152a3019290611271565b600091601f8082118914611417575050555b8a806113a2565b9161143484929382845260208420940160051c84018a8501611bfb565b5555611410565b88634e487b7160e01b60005260006004526000fd5b87634e487b7160e01b60005260316004526000fd5b88634e487b7160e01b60005260116004526000fd5b50509360019192506113a8565b80519091908690866001600160401b03821161167357600160401b918281116116c55760058401548160058601558082106116a4575b506020860160058501600052602060002060005b83811061168757505050506006830190845192831161167357508054828255808310611644575b50602084019060005260206000206000915b838310611627575050505060094291015560005b82518110156115df57600190604051602081875161153f8183858c016118a6565b81016004815203019020828060a01b036115598387611d70565b511660005260205260406000208260ff19825416179055818060a01b036115808286611d70565b51166000526003602052611598856040600020611d84565b818060a01b036115a88286611d70565b51166115b48285611d70565b5160008051602061223f8339815191526115d06108ab89611bdb565b4260208301520390a30161151e565b82516115ea85611bdb565b6040519182524260208301527f1de5075f65ce6d39622a83a245cf7566e418a0d7f17c39aa952cab9f58ec131260403393a3602060405160018152f35b600160208261163883945186611ca1565b0192019201919061150a565b8160005282602060002091820191015b81811061166157506114f8565b8061166d600192611c12565b01611654565b634e487b7160e01b60009081526041600452fd5b82516001600160a01b0316818301556020909201916001016114d1565b6116bf90600586016000528260206000209182019101611bfb565b876114bd565b50634e487b7160e01b60009081526041600452fd5b61014081019081106001600160401b0382111761093d57604052565b604081019081106001600160401b0382111761093d57604052565b601f909101601f19168101906001600160401b0382119082101761093d57604052565b81601f82011215610123578035906001600160401b03821161093d5760405192611768601f8401601f191660200185611711565b8284526020838301011161012357816000926020809301838601378301015290565b6001600160401b03811161093d5760051b60200190565b600435906001600160a01b038216820361012357565b9080601f830112156101235760209082356117d18161178a565b936117df6040519586611711565b81855260208086019260051b82010192831161012357602001905b828210611808575050505090565b81356001600160a01b03811681036101235781529083019083016117fa565b81601f82011215610123578035916020916118418461178a565b9361184f6040519586611711565b808552838086019160051b8301019280841161012357848301915b84831061187a5750505050505090565b82356001600160401b03811161012357869161189b84848094890101611734565b81520192019161186a565b60005b8381106118b95750506000910152565b81810151838201526020016118a9565b906020916118e2815180928185528580860191016118a6565b601f01601f1916010190565b906119036101408351908084528301906118c9565b91602092611959611947611935868501519360018060a01b0380951688880152604086015187820360408901526118c9565b606085015186820360608801526118c9565b608084015185820360808701526118c9565b9060a08301519184810360a08601528580845192838152019301916000905b87838310611a0c57505050505060c08201519383820360c08501528451908183528083019281808460051b8301019701936000915b8483106119de5750505050505060e0810151151560e083015261010080820151908301526101208091015191015290565b90919293949784806119fc600193601f198682030187528c516118c9565b9a019301930191949392906119ad565b845182168652948501949093019260019190910190611978565b6020808201906020835283518092526040830192602060408460051b8301019501936000915b848310611a5c5750505050505090565b9091929394958480611a7a600193603f198682030187528a516118ee565b9801930193019194939290611a4c565b6020611aa39181604051938285809451938492016118a6565b8101600181520301902090565b90600182811c92168015611ae0575b6020831014611aca57565b634e487b7160e01b600052602260045260246000fd5b91607f1691611abf565b15611af157565b60405162461bcd60e51b815260206004820152601460248201527314da185c9948191bd95cc81b9bdd08195e1a5cdd60621b6044820152606490fd5b15611b3457565b60405162461bcd60e51b815260206004820152600d60248201526c2737ba103a34329037bbb732b960991b6044820152606490fd5b15611b7057565b60405162461bcd60e51b815260206004820152602560248201527f41646472657373657320616e642055736572494473206c656e677468206d69736044820152640dac2e8c6d60db1b6064820152608490fd5b80548210156109275760005260206000200190600090565b611bf3906020604051928284809451938492016118a6565b810103902090565b818110611c06575050565b60008155600101611bfb565b611c1c8154611ab0565b9081611c26575050565b81601f60009311600114611c395750555b565b908083918252611c58601f60208420940160051c840160018501611bfb565b5555565b9190601f8111611c6b57505050565b611c37926000526020600020906020601f840160051c83019310611c97575b601f0160051c0190611bfb565b9091508190611c8a565b81519192916001600160401b03811161093d57611cc881611cc28454611ab0565b84611c5c565b602080601f8311600114611d0b57508190611cfc939495600092611d00575b50508160011b916000199060031b1c19161790565b9055565b015190503880611ce7565b90601f19831695846000526020600020926000905b888210611d5857505083600195969710611d3f575b505050811b019055565b015160001960f88460031b161c19169055388080611d35565b80600185968294968601518155019501930190611d20565b80518210156109275760209160051b010190565b8054600160401b81101561093d57611da191600182018155611bc3565b919091611db157611c3791611ca1565b634e487b7160e01b600052600060045260246000fd5b60405190611dd4826116da565b600061012083606080825283602083015280604083015280808301528060808301528060a083015260c08201528260e0820152826101008201520152565b805460009392611e2182611ab0565b91828252602093600191600181169081600014611e895750600114611e48575b5050505050565b90939495506000929192528360002092846000945b838610611e7557505050500101903880808080611e41565b805485870183015294019385908201611e5d565b60ff19168685015250505090151560051b010191503880808080611e41565b908154611eb48161178a565b92604093611ec56040519182611711565b82815280946020809201926000526020600020906000935b858510611eec57505050505050565b60018481928451611f018161028f818a611e12565b815201930194019391611edd565b90611f198261178a565b611f266040519182611711565b8281528092611f37601f199161178a565b019060005b828110611f4857505050565b602090611f53611dc7565b82828501015201611f3c565b6000198114611f6e5760010190565b634e487b7160e01b600052601160045260246000fd5b91909160409283519082519260209381611fbc8680940192611fa78188866118a6565b86019584816001988981520301902054611ab0565b156120ff5760ff6007895185818551611fd681838a6118a6565b81018a815203019020015416156120cd5787518151611ff68183866118a6565b8101868152819003840190208501546001600160a01b0394851694168414612099579061202e929188519384928392519283916118a6565b8101600481520301902090600052825260ff8460002054166120705750684e6f2061636365737360b81b6000935191612066836116f6565b6009835282015290565b6d1058d8d95cdcc819dc985b9d195960921b9093519161208f836116f6565b600e835282015290565b50505050744f776e6572206861732066756c6c2061636365737360581b909351916120c3836116f6565b6015835282015290565b50505050507014da185c99481a5cc8191a5cd8589b1959607a1b60009351916120f5836116f6565b6011835282015290565b50505050507314da185c9948191bd95cc81b9bdd08195e1a5cdd60621b600093519161212a836116f6565b6014835282015290565b9080821461220e576121468154611ab0565b906001600160401b03821161093d57612169826121638554611ab0565b85611c5c565b600090601f83116001146121a457611cfc9291600091836121995750508160011b916000199060031b1c19161790565b015490503880611ce7565b815260208082208483528183209291601f1985169083905b8282106121f55750509084600195949392106121dc57505050811b019055565b015460001960f88460031b161c19169055388080611d35565b84958192958501548155600180910196019401906121bc565b5050565b6000546001600160a01b0316330361222657565b60405163118cdaa760e01b8152336004820152602490fdfe2d6d2927a16230c9a06ad763967e3804b007adfa5762d1135ac1ba69d24d82b88be0079c531659141344cd1fd0a4f28419497f9722a3daafe3b4186f6b6457e0a164736f6c6343000818000a",
  "linkReferences": {},
  "deployedLinkReferences": {}
}