{
  "_format": "hh-sol-artifact-1",
  "contractName": "UserRegistry",
  "sourceName": "src/UserRegistry.sol",
  "abi": [
    {
      "inputs": [
        {
          "internalType": "address",
          "name": "initialOwner",
          "type": "address"
        }
      ],
      "stateMutability": "nonpayable",
      "type": "constructor"
    },
    {
      "inputs": [
        {
          "internalType": "address",
          "name": "owner",
          "type": "address"
        }
      ],
      "name": "OwnableInvalidOwner",
      "type": "error"
    },
    {
      "inputs": [
        {
          "internalType": "address",
          "name": "account",
          "type": "address"
        }
      ],
      "name": "OwnableUnauthorizedAccount",
      "type": "error"
    },
    {
      "anonymous": false,
      "inputs": [
        {
          "indexed": true,
          "internalType": "address",
          "name": "previousOwner",
          "type": "address"
        },
        {
          "indexed": true,
          "internalType": "address",
          "name": "newOwner",
          "type": "address"
        }
      ],
      "name": "OwnershipTransferred",
      "type": "event"
    },
    {
      "anonymous": false,
      "inputs": [
        {
          "indexed": true,
          "internalType": "address",
          "name": "walletAddress",
          "type": "address"
        },
        {
          "indexed": false,
          "internalType": "string",
          "name": "userId",
          "type": "string"
        },
        {
          "indexed": false,
          "internalType": "uint256",
          "name": "timestamp",
          "type": "uint256"
        }
      ],
      "name": "UserDeactivated",
      "type": "event"
    },
    {
      "anonymous": false,
      "inputs": [
        {
          "indexed": true,
          "internalType": "address",
          "name": "walletAddress",
          "type": "address"
        },
        {
          "indexed": false,
          "internalType": "string",
          "name": "userId",
          "type": "string"
        },
        {
          "indexed": false,
          "internalType": "uint256",
          "name": "timestamp",
          "type": "uint256"
        }
      ],
      "name": "UserReactivated",
      "type": "event"
    },
    {
      "anonymous": false,
      "inputs": [
        {
          "indexed": true,
          "internalType": "address",
          "name": "walletAddress",
          "type": "address"
        },
        {
          "indexed": false,
          "internalType": "string",
          "name": "userId",
          "type": "string"
        },
        {
          "indexed": false,
          "internalType": "string",
          "name": "name",
          "type": "string"
        },
        {
          "indexed": false,
          "internalType": "string",
          "name": "organization",
          "type": "string"
        },
        {
          "indexed": false,
          "internalType": "uint256",
          "name": "timestamp",
          "type": "uint256"
        }
      ],
      "name": "UserRegistered",
      "type": "event"
    },
    {
      "anonymous": false,
      "inputs": [
        {
          "indexed": true,
          "internalType": "address",
          "name": "walletAddress",
          "type": "address"
        },
        {
          "indexed": false,
          "internalType": "string",
          "name": "userId",
          "type": "string"
        },
        {
          "indexed": false,
          "internalType": "uint256",
          "name": "timestamp",
          "type": "uint256"
        }
      ],
      "name": "UserUpdated",
      "type": "event"
    },
    {
      "inputs": [],
      "name": "activeUsersCount",
      "outputs": [
        {
          "internalType": "uint256",
          "name": "",
          "type": "uint256"
        }
      ],
      "stateMutability": "view",
      "type": "function"
    },
    {
      "inputs": [
        {
          "internalType": "uint256",
          "name": "",
          "type": "uint256"
        }
      ],
      "name": "allUsers",
      "outputs": [
        {
          "internalType": "address",
          "name": "",
          "type": "address"
        }
      ],
      "stateMutability": "view",
      "type": "function"
    },
    {
      "inputs": [
        {
          "internalType": "address",
          "name": "walletAddress",
          "type": "address"
        }
      ],
      "name": "deactivateUser",
      "outputs": [
        {
          "internalType": "bool",
          "name": "",
          "type": "bool"
        }
      ],
      "stateMutability": "nonpayable",
      "type": "function"
    },
    {
      "inputs": [],
      "name": "getActiveUsersCount",
      "outputs": [
        {
          "internalType": "uint256",
          "name": "",
          "type": "uint256"
        }
      ],
      "stateMutability": "view",
      "type": "function"
    },
    {
      "inputs": [],
      "name": "getTotalUsers",
      "outputs": [
        {
          "internalType": "uint256",
          "name": "",
          "type": "uint256"
        }
      ],
      "stateMutability": "view",
      "type": "function"
    },
    {
      "inputs": [
        {
          "internalType": "address",
          "name": "walletAddress",
          "type": "address"
        }
      ],
      "name": "getUser",
      "outputs": [
        {
          "components": [
            {
              "internalType": "string",
              "name": "userId",
              "type": "string"
            },
            {
              "internalType": "string",
              "name": "name",
              "type": "string"
            },
            {
              "internalType": "string",
              "name": "organization",
              "type": "string"
            },
            {
              "internalType": "string",
              "name": "role",
              "type": "string"
            },
            {
              "internalType": "address",
              "name": "walletAddress",
              "type": "address"
            },
            {
              "internalType": "uint256",
              "name": "registeredAt",
              "type": "uint256"
            },
            {
              "internalType": "bool",
              "name": "isActive",
              "type": "bool"
            }
          ],
          "internalType": "struct UserRegistry.User",
          "name": "",
          "type": "tuple"
        }
      ],
      "stateMutability": "view",
      "type": "function"
    },
    {
      "inputs": [
        {
          "internalType": "string",
          "name": "userId",
          "type": "string"
        }
      ],
      "name": "getUserByUserId",
      "outputs": [
        {
          "components": [
            {
              "internalType": "string",
              "name": "userId",
              "type": "string"
            },
            {
              "internalType": "string",
              "name": "name",
              "type": "string"
            },
            {
              "internalType": "string",
              "name": "organization",
              "type": "string"
            },
            {
              "internalType": "string",
              "name": "role",
              "type": "string"
            },
            {
              "internalType": "address",
              "name": "walletAddress",
              "type": "address"
            },
            {
              "internalType": "uint256",
              "name": "registeredAt",
              "type": "uint256"
            },
            {
              "internalType": "bool",
              "name": "isActive",
              "type": "bool"
            }
          ],
          "internalType": "struct UserRegistry.User",
          "name": "",
          "type": "tuple"
        }
      ],
      "stateMutability": "view",
      "type": "function"
    },
    {
      "inputs": [
        {
          "internalType": "string",
          "name": "organization",
          "type": "string"
        },
        {
          "internalType": "uint256",
          "name": "start",
          "type": "uint256"
        },
        {
          "internalType": "uint256",
          "name": "limit",
          "type": "uint256"
        }
      ],
      "name": "getUsersByOrganization",
      "outputs": [
        {
          "components": [
            {
              "internalType": "string",
              "name": "userId",
              "type": "string"
            },
            {
              "internalType": "string",
              "name": "name",
              "type": "string"
            },
            {
              "internalType": "string",
              "name": "organization",
              "type": "string"
            },
            {
              "internalType": "string",
              "name": "role",
              "type": "string"
            },
            {
              "internalType": "address",
              "name": "walletAddress",
              "type": "address"
            },
            {
              "internalType": "uint256",
              "name": "registeredAt",
              "type": "uint256"
            },
            {
              "internalType": "bool",
              "name": "isActive",
              "type": "bool"
            }
          ],
          "internalType": "struct UserRegistry.User[]",
          "name": "",
          "type": "tuple[]"
        }
      ],
      "stateMutability": "view",
      "type": "function"
    },
    {
      "inputs": [
        {
          "internalType": "address",
          "name": "walletAddress",
          "type": "address"
        }
      ],
      "name": "isUserActive",
      "outputs": [
        {
          "internalType": "bool",
          "name": "",
          "type": "bool"
        }
      ],
      "stateMutability": "view",
      "type": "function"
    },
    {
      "inputs": [],
      "name": "owner",
      "outputs": [
        {
          "internalType": "address",
          "name": "",
          "type": "address"
        }
      ],
      "stateMutability": "view",
      "type": "function"
    },
    {
      "inputs": [
        {
          "internalType": "address",
          "name": "walletAddress",
          "type": "address"
        }
      ],
      "name": "reactivateUser",
      "outputs": [
        {
          "internalType": "bool",
          "name": "",
          "type": "bool"
        }
      ],
      "stateMutability": "nonpayable",
      "type": "function"
    },
    {
      "inputs": [
        {
          "internalType": "address",
          "name": "walletAddress",
          "type": "address"
        },
        {
          "internalType": "string",
          "name": "userId",
          "type": "string"
        },
        {
          "internalType": "string",
          "name": "name",
          "type": "string"
        },
        {
          "internalType": "string",
          "name": "organization",
          "type": "string"
        },
        {
          "internalType": "string",
          "name": "role",
          "type": "string"
        }
      ],
      "name": "registerUser",
      "outputs": [
        {
          "internalType": "bool",
          "name": "",
          "type": "bool"
        }
      ],
      "stateMutability": "nonpayable",
      "type": "function"
    },
    {
      "inputs": [],
      "name": "renounceOwnership",
      "outputs": [],
      "stateMutability": "nonpayable",
      "type": "function"
    },
    {
      "inputs": [
        {
          "internalType": "address",
          "name": "newOwner",
          "type": "address"
        }
      ],
      "name": "transferOwnership",
      "outputs": [],
      "stateMutability": "nonpayable",
      "type": "function"
    },
    {
      "inputs": [
        {
          "internalType": "address",
          "name": "walletAddress",
          "type": "address"
        },
        {
          "internalType": "string",
          "name": "name",
          "type": "string"
        },
        {
          "internalType": "string",
          "name": "role",
          "type": "string"
        }
      ],
      "name": "updateUser",
      "outputs": [
        {
          "internalType": "bool",
          "name": "",
          "type": "bool"
        }
      ],
      "stateMutability": "nonpayable",
      "type": "function"
    },
    {
      "inputs": [
        {
          "internalType": "string",
          "name": "",
          "type": "string"
        }
      ],
      "name": "userIdToAddress",
      "outputs": [
        {
          "internalType": "address",
          "name": "",
          "type": "address"
        }
      ],
      "stateMutability": "view",
      "type": "function"
    },
    {
      "inputs": [
        {
          "internalType": "address",
          "name": "walletAddress",
          "type": "address"
        }
      ],
      "name": "userRegistered",
      "outputs": [
        {
          "internalType": "bool",
          "name": "",
          "type": "bool"
        }
      ],
      "stateMutability": "view",
      "type": "function"
    },
    {
      "inputs": [
        {
          "internalType": "address",
          "name": "",
          "type": "address"
        }
      ],
      "name": "users",
      "outputs": [
        {
          "internalType": "string",
          "name": "userId",
          "type": "string"
        },
        {
          "internalType": "string",
          "name": "name",
          "type": "string"
        },
        {
          "internalType": "string",
          "name": "organization",
          "type": "string"
        },
        {
          "internalType": "string",
          "name": "role",
          "type": "string"
        },
        {
          "internalType": "address",
          "name": "walletAddress",
          "type": "address"
        },
        {
          "internalType": "uint256",
          "name": "registeredAt",
          "type": "uint256"
        },
        {
          "internalType": "bool",
          "name": "isActive",
          "type": "bool"
        }
      ],
      "stateMutability": "view",
      "type": "function"
    }
  ],
  "bytecode": "0x6080346100bb57601f611c8038819003918201601f19168301916001600160401b038311848410176100c0578084926020946040528339810103126100bb57516001600160a01b0390818116908190036100bb5780156100a257600080546001600160a01b03198116831782556040519316907f8be0079c531659141344cd1fd0a4f28419497f9722a3daafe3b4186f6b6457e09080a3611ba990816100d78239f35b604051631e4fbdf760e01b815260006004820152602490fd5b600080fd5b634e487b7160e01b600052604160045260246000fdfe6080604052600436101561001257600080fd5b60003560e01c806310e8b22d146111815780631a47767b1461107d57806322b457271461105f5780636d7642981461105f5780636f77926b14610fea578063715018a614610f915780637e3956f414610eed57806381a2945714610df057806386fb3ee814610d305780638da5cb5b14610d07578063999eab2b146103e85780639be572f6146103ca5780639ee20b1514610388578063a2bdedf41461032d578063a87430ba14610221578063bccbc36c146101dd578063c21be6ae146101755763f2fde38b146100e257600080fd5b34610170576020366003190112610170576100fb6114ec565b610103611b70565b6001600160a01b0390811690811561015757600054826bffffffffffffffffffffffff60a01b821617600055167f8be0079c531659141344cd1fd0a4f28419497f9722a3daafe3b4186f6b6457e0600080a3005b604051631e4fbdf760e01b815260006004820152602490fd5b600080fd5b34610170576020366003190112610170576004356001600160401b038111610170576101a7602091369060040161153e565b816101bb6040519283815193849201611594565b600290820190815281900382019020546040516001600160a01b039091168152f35b34610170576020366003190112610170576001600160a01b036101fe6114ec565b166000526001602052602061021760406000205461165a565b1515604051908152f35b34610170576020366003190112610170576102ed6001600160a01b03806102466114ec565b1660005260016020526040600020906040519161026e836102678184611694565b038461151d565b6040519061028a826102838160018501611694565b038361151d565b610317604051936102a9856102a28160028701611694565b038661151d565b610309604051916102c1836102678160038901611694565b600485015416956102fb60ff6006600588015497015416966040519a8b9a60e08c5260e08c01906115b7565b908a820360208c01526115b7565b9088820360408a01526115b7565b9086820360608801526115b7565b92608085015260a0840152151560c08301520390f35b34610170576020366003190112610170576004356004548110156101705760046000527f8a35acfbc15ff81a39ae7d344fd709f28e8600b4aa8c65c6b64bfe7fe36bd19b01546040516001600160a01b039091168152602090f35b34610170576020366003190112610170576001600160a01b036103a96114ec565b166000526001602052602060ff600660406000200154166040519015158152f35b34610170576000366003190112610170576020600454604051908152f35b346101705760a0366003190112610170576104016114ec565b6024356001600160401b0381116101705761042090369060040161153e565b6044356001600160401b0381116101705761043f90369060040161153e565b60649182356001600160401b0381116101705761046090369060040161153e565b926084356001600160401b0381116101705761048090369060040161153e565b90610489611b70565b6001600160a01b0386166000908152600160205260409020546104ab9061165a565b610cc55760405183516104c2818360208801611594565b60029082019081528190036020019020546001600160a01b0316610c8b578251818115159182610c80575b505015610c455761050b8451828115159182610c3a575b505061172a565b80855111610bf8575061052260328251111561176c565b6040519061052f82611502565b828252836020830152846040830152606082015260018060a01b03851660808201524260a0820152600160c082015260018060a01b038516600052600160205260406000209080518051906001600160401b0382116108ab578190610594855461165a565b601f8111610ba8575b50602090601f8311600114610b3c57600092610b31575b50508160011b916000199060031b1c19161782555b60208101518051906001600160401b0382116108ab5781906105ee600186015461165a565b601f8111610ade575b50602090601f8311600114610a6c57600092610a61575b50508160011b916000199060031b1c19161760018301555b60408101518051906001600160401b0382116108ab57819061064b600286015461165a565b601f8111610a0e575b50602090601f831160011461099c57600092610991575b50508160011b916000199060031b1c19161760028301555b60608101518051906001600160401b0382116108ab5781906106a8600386015461165a565b601f811161093e575b50602090601f83116001146108cc576000926108c1575b50508160011b916000199060031b1c19161760038301555b60c06006600484019360018060a01b03608085015116946bffffffffffffffffffffffff60a01b958682541617905560a0840151600582015501910151151560ff8019835416911617905560405160208184516107408183858901611594565b8101600281520301902060018060a01b03861682825416179055604051602081865161076f8183858b01611594565b810160038152030190209384546801000000000000000095868210156108ab57600182018082558210156108955760009081526020902001805483166001600160a01b038816179055600454948510156108ab5760018501806004558510156108955761086761085994610875937feb909d03a1826538126783a14a06a590245c9e5085337d88971cca5ada6b80999760046000527f8a35acfbc15ff81a39ae7d344fd709f28e8600b4aa8c65c6b64bfe7fe36bd19b019060018060a01b038a16908254161790556108426005546118d7565b6005556040519586956080875260808701906115b7565b9085820360208701526115b7565b9083820360408501526115b7565b4260608301526001600160a01b03909416930390a2602060405160018152f35b634e487b7160e01b600052603260045260246000fd5b634e487b7160e01b600052604160045260246000fd5b0151905088806106c8565b9250600385016000526020600020906000935b601f1984168510610923576001945083601f1981161061090a575b505050811b0160038301556106e0565b015160001960f88460031b161c191690558880806108fa565b818101518355602094850194600190930192909101906108df565b909150600385016000526020600020601f840160051c81016020851061098a575b90849392915b601f830160051c8201811061097b5750506106b1565b60008155859450600101610965565b508061095f565b01519050888061066b565b9250600285016000526020600020906000935b601f19841685106109f3576001945083601f198116106109da575b505050811b016002830155610683565b015160001960f88460031b161c191690558880806109ca565b818101518355602094850194600190930192909101906109af565b909150600285016000526020600020601f840160051c810160208510610a5a575b90849392915b601f830160051c82018110610a4b575050610654565b60008155859450600101610a35565b5080610a2f565b01519050888061060e565b9250600185016000526020600020906000935b601f1984168510610ac3576001945083601f19811610610aaa575b505050811b016001830155610626565b015160001960f88460031b161c19169055888080610a9a565b81810151835560209485019460019093019290910190610a7f565b909150600185016000526020600020601f840160051c810160208510610b2a575b90849392915b601f830160051c82018110610b1b5750506105f7565b60008155859450600101610b05565b5080610aff565b0151905088806105b4565b9250846000526020600020906000935b601f1984168510610b8d576001945083601f19811610610b74575b505050811b0182556105c9565b015160001960f88460031b161c19169055888080610b67565b81810151835560209485019460019093019290910190610b4c565b909150846000526020600020601f840160051c810160208510610bf1575b90849392915b601f830160051c82018110610be257505061059d565b60008155859450600101610bcc565b5080610bc6565b60405162461bcd60e51b815260206004820152601b60248201527f4f7267616e697a6174696f6e20696e76616c6964206c656e67746800000000006044820152fd5b111590508289610504565b60405162461bcd60e51b81526020600482015260166024820152750aae6cae440928840d2dcecc2d8d2c840d8cadccee8d60531b6044820152fd5b1115905081886104ed565b60405162461bcd60e51b81526020600482015260156024820152742ab9b2b91024a21030b63932b0b23c903a30b5b2b760591b6044820152fd5b60405162461bcd60e51b815260206004820152601960248201527f57616c6c657420616c72656164792072656769737465726564000000000000006044820152fd5b34610170576000366003190112610170576000546040516001600160a01b039091168152602090f35b3461017057602080600319360112610170576004356001600160401b03811161017057610d6190369060040161153e565b610d696117ae565b5081610d7e6040519283815193849201611594565b600290820190815281900382019020546001600160a01b031680151580610dd6575b610da9906117e8565b60005260018152610dbd6040600020611825565b90610dd26040519282849384528301906115dc565b0390f35b50600081815260018352604090206006015460ff16610da0565b346101705760208060031936011261017057610e0a6114ec565b610e12611b70565b6001600160a01b0316600081815260018352604090206006015460ff16610eb25780600052600182526006604060002001600160ff19825416179055610e596005546118d7565b60055580600052600182527f73c60c7b7f8decec3b2483c6a073e0236ea890f63d2c1f2e5c9adfd5a26b45c5610ea16040600020604051918291604083526040830190611694565b42868301520390a260405160018152f35b60405162461bcd60e51b81526004810183905260136024820152725573657220616c72656164792061637469766560681b6044820152606490fd5b34610170576060366003190112610170576004356001600160401b03811161017057610f20610f2d91369060040161153e565b604435906024359061190a565b60405160209160208201926020835281518094526040830193602060408260051b8601019301916000955b828710610f655785850386f35b909192938280610f81600193603f198a820301865288516115dc565b9601920196019592919092610f58565b3461017057600036600319011261017057610faa611b70565b600080546001600160a01b0319811682556001600160a01b03167f8be0079c531659141344cd1fd0a4f28419497f9722a3daafe3b4186f6b6457e08280a3005b34610170576020366003190112610170576110036114ec565b61100b6117ae565b506001600160a01b03166000818152600160205260409020600601546110339060ff166117e8565b6000526001602052610dd261104b6040600020611825565b6040519182916020835260208301906115dc565b34610170576000366003190112610170576020600554604051908152f35b3461017057602080600319360112610170576110976114ec565b61109f611b70565b6001600160a01b0316600081815260018352604090206006015460ff1615611144578060005260018252600660406000200160ff198154169055600554801561112e576000190160055580600052600182527fe659a6ecb0c26f4007b258207c9e78d185a1a402594c97d6bbe3d0648aebef88610ea16040600020604051918291604083526040830190611694565b634e487b7160e01b600052601160045260246000fd5b60405162461bcd60e51b81526004810183905260156024820152745573657220616c726561647920696e61637469766560581b6044820152606490fd5b346101705760603660031901126101705761119a6114ec565b6001600160401b03602435818111610170576111ba90369060040161153e565b604435828111610170576111d290369060040161153e565b926111db611b70565b60018060a01b0316908160005260019260209484865260ff60066040600020015416156114b157611217835180151590816114a5575b5061172a565b61122560328251111561176c565b836000528486528460406000200183518381116108ab5780611247835461165a565b95601f96878111611454575b5089908783116001146113f1576000926113e6575b5050600019600383901b1c191690871b1790555b8360005284865260036040600020019281519283116108ab5782916112a1855461165a565b828111611393575b508791831160011461133057600092611325575b5050600019600383901b1c191690841b1790555b806000528183527f429ad3a7ede99d93a72d6f0ba190681a2763d681f984e2f299af21ca35caebdb6113156040600020604051918291604083526040830190611694565b42878301520390a2604051908152f35b0151905086806112bd565b90869350601f1983169185600052886000209260005b8a82821061137d5750508411611364575b505050811b0190556112d1565b015160001960f88460031b161c19169055868080611357565b8385015186558a97909501949384019301611346565b9091925084600052876000208380860160051c8201928a87106113dd575b9186958a929594930160051c01915b8281106113ce5750506112a9565b600081558695508991016113c0565b925081926113b1565b015190508980611268565b90899350601f19831691856000528b6000209260005b8d82821061143e5750508411611425575b505050811b01905561127c565b015160001960f88460031b161c19169055898080611418565b8385015186558d97909501949384019301611407565b90915083600052896000208780850160051c8201928c861061149c575b918b91869594930160051c01915b82811061148d575050611253565b600081558594508b910161147f565b92508192611471565b60649150111588611211565b60405162461bcd60e51b8152600481018790526013602482015272155cd95c88191bd95cc81b9bdd08195e1a5cdd606a1b6044820152606490fd5b600435906001600160a01b038216820361017057565b60e081019081106001600160401b038211176108ab57604052565b90601f801991011681019081106001600160401b038211176108ab57604052565b81601f82011215610170578035906001600160401b0382116108ab5760405192611572601f8401601f19166020018561151d565b8284526020838301011161017057816000926020809301838601378301015290565b60005b8381106115a75750506000910152565b8181015183820152602001611597565b906020916115d081518092818552858086019101611594565b601f01601f1916010190565b9060c08061163261162061160e6115fc875160e0885260e08801906115b7565b602088015187820360208901526115b7565b604087015186820360408801526115b7565b606086015185820360608701526115b7565b6080808601516001600160a01b03169085015260a08086015190850152930151151591015290565b90600182811c9216801561168a575b602083101461167457565b634e487b7160e01b600052602260045260246000fd5b91607f1691611669565b8054600093926116a38261165a565b9182825260209360019160018116908160001461170b57506001146116ca575b5050505050565b90939495506000929192528360002092846000945b8386106116f7575050505001019038808080806116c3565b8054858701830152940193859082016116df565b60ff19168685015250505090151560051b0101915038808080806116c3565b1561173157565b60405162461bcd60e51b815260206004820152601360248201527209cc2daca40d2dcecc2d8d2c840d8cadccee8d606b1b6044820152606490fd5b1561177357565b60405162461bcd60e51b81526020600482015260136024820152720a4ded8ca40d2dcecc2d8d2c840d8cadccee8d606b1b6044820152606490fd5b604051906117bb82611502565b600060c0836060815260606020820152606060408201526060808201528260808201528260a08201520152565b156117ef57565b60405162461bcd60e51b815260206004820152600e60248201526d155cd95c881b9bdd08199bdd5b9960921b6044820152606490fd5b9060409160c060ff600685519361183b85611502565b849680516118548161184d8186611694565b038261151d565b865280516118698161184d8160018701611694565b602087015280516118818161184d8160028701611694565b81870152516118978161184d8160038601611694565b606086015260048101546001600160a01b03166080860152600581015460a08601520154161515910152565b80518210156108955760209160051b010190565b600019811461112e5760010190565b6001600160401b0381116108ab5760051b60200190565b9190820391821161112e57565b604090815181818093516119248160209687809601611594565b8101600381520301902094825190818284895492838152016000998a52858a20928a5b87828210611b515750505061195e9250038361151d565b8694875b83518110156119b0576001600160a01b0361197d82866118c3565b511689526001855260ff6006878b2001541661199c575b600101611962565b956119a86001916118d7565b969050611994565b509390969495840195868511611b3d57808711611b35575b841015611aff576119d984876118fd565b936119e3856118e6565b946119f08351968761151d565b8086526119ff601f19916118e6565b0184875b828110611ae95750505085948693875b8151811080611ae0575b15611ad3576001600160a01b0380611a3583856118c3565b51168a5260019081895260ff6006888d20015416611a5e575b5050611a59906118d7565b611a13565b858a939a1015611a7f575b5050611a77611a59916118d7565b979038611a4e565b611a599297611a7792611acc92611a968d886118c3565b51168d528a52611ac6888d20611ab5611aaf8a856118fd565b91611825565b611abf828a6118c3565b52876118c3565b506118d7565b9691611a69565b5050965050505050505090565b50898610611a1d565b611af16117ae565b82828a010152018590611a03565b805195509185019250506001600160401b03821184831017611b215752815290565b634e487b7160e01b83526041600452602483fd5b9550856119c8565b634e487b7160e01b86526011600452602486fd5b85546001600160a01b0316845260019586019588955093019201611947565b6000546001600160a01b03163303611b8457565b60405163118cdaa760e01b8152336004820152602490fdfea164736f6c6343000818000a",
  "linkReferences": {},
  "deployedLinkReferences": {}
}