{
  "_format": "hh-sol-artifact-1",
  "contractName": "UserRegistry",
  "sourceName": "src/UserRegistry.sol",
  "abi": [
    {
      "inputs": [
        {
          "internalType": "address",
          "name": "initialOwner",
          "type": "address"
        }
      ],
      "stateMutability": "nonpayable",
      "type": "constructor"
    },
    {
      "inputs": [
        {
          "internalType": "address",
          "name": "owner",
          "type": "address"
        }
      ],
      "name": "OwnableInvalidOwner",
      "type": "error"
    },
    {
      "inputs": [
        {
          "internalType": "address",
          "name": "account",
          "type": "address"
        }
      ],
      "name": "OwnableUnauthorizedAccount",
      "type": "error"
    },
    {
      "anonymous": false,
      "inputs": [
        {
          "indexed": true,
          "internalType": "address",
          "name": "previousOwner",
          "type": "address"
        },
        {
          "indexed": true,
          "internalType": "address",
          "name": "newOwner",
          "type": "address"
        }
      ],
      "name": "OwnershipTransferred",
      "type": "event"
    },
    {
      "anonymous": false,
      "inputs": [
        {
          "indexed": true,
          "internalType": "address",
          "name": "walletAddress",
          "type": "address"
        },
        {
          "indexed": false,
          "internalType": "string",
          "name": "userId",
          "type": "string"
        },
        {
          "indexed": false,
          "internalType": "uint256",
          "name": "timestamp",
          "type": "uint256"
        }
      ],
      "name": "UserDeactivated",
      "type": "event"
    },
    {
      "anonymous": false,
      "inputs": [
        {
          "indexed": true,
          "internalType": "address",
          "name": "walletAddress",
          "type": "address"
        },
        {
          "indexed": false,
          "internalType": "string",
          "name": "userId",
          "type": "string"
        },
        {
          "indexed": false,
          "internalType": "uint256",
          "name": "timestamp",
          "type": "uint256"
        }
      ],
      "name": "UserReactivated",
      "type": "event"
    },
    {
      "anonymous": false,
      "inputs": [
        {
          "indexed": true,
          "internalType": "address",
          "name": "walletAddress",
          "type": "address"
        },
        {
          "indexed": false,
          "internalType": "string",
          "name": "userId",
          "type": "string"
        },
        {
          "indexed": false,
          "internalType": "string",
          "name": "name",
          "type": "string"
        },
        {
          "indexed": false,
          "internalType": "string",
          "name": "organization",
          "type": "string"
        },
        {
          "indexed": false,
          "internalType": "uint256",
          "name": "timestamp",
          "type": "uint256"
        }
      ],
      "name": "UserRegistered",
      "type": "event"
    },
    {
      "anonymous": false,
      "inputs": [
        {
          "indexed": true,
          "internalType": "address",
          "name": "walletAddress",
          "type": "address"
        },
        {
          "indexed": false,
          "internalType": "string",
          "name": "userId",
          "type": "string"
        },
        {
          "indexed": false,
          "internalType": "uint256",
          "name": "timestamp",
          "type": "uint256"
        }
      ],
      "name": "UserUpdated",
      "type": "event"
    },
    {
      "inputs": [],
      "name": "activeUsersCount",
      "outputs": [
        {
          "internalType": "uint256",
          "name": "",
          "type": "uint256"
        }
      ],
      "stateMutability": "view",
      "type": "function"
    },
    {
      "inputs": [
        {
          "internalType": "uint256",
          "name": "",
          "type": "uint256"
        }
      ],
      "name": "allUsers",
      "outputs": [
        {
          "internalType": "address",
          "name": "",
          "type": "address"
        }
      ],
      "stateMutability": "view",
      "type": "function"
    },
    {
      "inputs": [
        {
          "internalType": "address",
          "name": "walletAddress",
          "type": "address"
        }
      ],
      "name": "deactivateUser",
      "outputs": [
        {
          "internalType": "bool",
          "name": "",
          "type": "bool"
        }
      ],
      "stateMutability": "nonpayable",
      "type": "function"
    },
    {
      "inputs": [],
      "name": "getActiveUsersCount",
      "outputs": [
        {
          "internalType": "uint256",
          "name": "",
          "type": "uint256"
        }
      ],
      "stateMutability": "view",
      "type": "function"
    },
    {
      "inputs": [],
      "name": "getTotalUsers",
      "outputs": [
        {
          "internalType": "uint256",
          "name": "",
          "type": "uint256"
        }
      ],
      "stateMutability": "view",
      "type": "function"
    },
    {
      "inputs": [
        {
          "internalType": "address",
          "name": "walletAddress",
          "type": "address"
        }
      ],
      "name": "getUser",
      "outputs": [
        {
          "components": [
            {
              "internalType": "string",
              "name": "userId",
              "type": "string"
            },
            {
              "internalType": "string",
              "name": "name",
              "type": "string"
            },
            {
              "internalType": "string",
              "name": "organization",
              "type": "string"
            },
            {
              "internalType": "string",
              "name": "role",
              "type": "string"
            },
            {
              "internalType": "address",
              "name": "walletAddress",
              "type": "address"
            },
            {
              "internalType": "uint256",
              "name": "registeredAt",
              "type": "uint256"
            },
            {
              "internalType": "bool",
              "name": "isActive",
              "type": "bool"
            }
          ],
          "internalType": "struct UserRegistry.User",
          "name": "",
          "type": "tuple"
        }
      ],
      "stateMutability": "view",
      "type": "function"
    },
    {
      "inputs": [
        {
          "internalType": "string",
          "name": "userId",
          "type": "string"
        }
      ],
      "name": "getUserByUserId",
      "outputs": [
        {
          "components": [
            {
              "internalType": "string",
              "name": "userId",
              "type": "string"
            },
            {
              "internalType": "string",
              "name": "name",
              "type": "string"
            },
            {
              "internalType": "string",
              "name": "organization",
              "type": "string"
            },
            {
              "internalType": "string",
              "name": "role",
              "type": "string"
            },
            {
              "internalType": "address",
              "name": "walletAddress",
              "type": "address"
            },
            {
              "internalType": "uint256",
              "name": "registeredAt",
              "type": "uint256"
            },
            {
              "internalType": "bool",
              "name": "isActive",
              "type": "bool"
            }
          ],
          "internalType": "struct UserRegistry.User",
          "name": "",
          "type": "tuple"
        }
      ],
      "stateMutability": "view",
      "type": "function"
    },
    {
      "inputs": [
        {
          "internalType": "string",
          "name": "organization",
          "type": "string"
        },
        {
          "internalType": "uint256",
          "name": "start",
          "type": "uint256"
        },
        {
          "internalType": "uint256",
          "name": "limit",
          "type": "uint256"
        }
      ],
      "name": "getUsersByOrganization",
      "outputs": [
        {
          "components": [
            {
              "internalType": "string",
              "name": "userId",
              "type": "string"
            },
            {
              "internalType": "string",
              "name": "name",
              "type": "string"
            },
            {
              "internalType": "string",
              "name": "organization",
              "type": "string"
            },
            {
              "internalType": "string",
              "name": "role",
              "type": "string"
            },
            {
              "internalType": "address",
              "name": "walletAddress",
              "type": "address"
            },
            {
              "internalType": "uint256",
              "name": "registeredAt",
              "type": "uint256"
            },
            {
              "internalType": "bool",
              "name": "isActive",
              "type": "bool"
            }
          ],
          "internalType": "struct UserRegistry.User[]",
          "name": "",
          "type": "tuple[]"
        }
      ],
      "stateMutability": "view",
      "type": "function"
    },
    {
      "inputs": [
        {
          "internalType": "address",
          "name": "walletAddress",
          "type": "address"
        }
      ],
      "name": "isUserActive",
      "outputs": [
        {
          "internalType": "bool",
          "name": "",
          "type": "bool"
        }
      ],
      "stateMutability": "view",
      "type": "function"
    },
    {
      "inputs": [],
      "name": "owner",
      "outputs": [
        {
          "internalType": "address",
          "name": "",
          "type": "address"
        }
      ],
      "stateMutability": "view",
      "type": "function"
    },
    {
      "inputs": [
        {
          "internalType": "address",
          "name": "walletAddress",
          "type": "address"
        }
      ],
      "name": "reactivateUser",
      "outputs": [
        {
          "internalType": "bool",
          "name": "",
          "type": "bool"
        }
      ],
      "stateMutability": "nonpayable",
      "type": "function"
    },
    {
      "inputs": [
        {
          "internalType": "address",
          "name": "walletAddress",
          "type": "address"
        },
        {
          "internalType": "string",
          "name": "userId",
          "type": "string"
        },
        {
          "internalType": "string",
          "name": "name",
          "type": "string"
        },
        {
          "internalType": "string",
          "name": "organization",
          "type": "string"
        },
        {
          "internalType": "string",
          "name": "role",
          "type": "string"
        }
      ],
      "name": "registerUser",
      "outputs": [
        {
          "internalType": "bool",
          "name": "",
          "type": "bool"
        }
      ],
      "stateMutability": "nonpayable",
      "type": "function"
    },
    {
      "inputs": [],
      "name": "renounceOwnership",
      "outputs": [],
      "stateMutability": "nonpayable",
      "type": "function"
    },
    {
      "inputs": [
        {
          "internalType": "address",
          "name": "newOwner",
          "type": "address"
        }
      ],
      "name": "transferOwnership",
      "outputs": [],
      "stateMutability": "nonpayable",
      "type": "function"
    },
    {
      "inputs": [
        {
          "internalType": "address",
          "name": "walletAddress",
          "type": "address"
        },
        {
          "internalType": "string",
          "name": "name",
          "type": "string"
        },
        {
          "internalType": "string",
          "name": "role",
          "type": "string"
        }
      ],
      "name": "updateUser",
      "outputs": [
        {
          "internalType": "bool",
          "name": "",
          "type": "bool"
        }
      ],
      "stateMutability": "nonpayable",
      "type": "function"
    },
    {
      "inputs": [
        {
          "internalType": "string",
          "name": "",
          "type": "string"
        }
      ],
      "name": "userIdToAddress",
      "outputs": [
        {
          "internalType": "address",
          "name": "",
          "type": "address"
        }
      ],
      "stateMutability": "view",
      "type": "function"
    },
    {
      "inputs": [
        {
          "internalType": "address",
          "name": "walletAddress",
          "type": "address"
        }
      ],
      "name": "userRegistered",
      "outputs": [
        {
          "internalType": "bool",
          "name": "",
          "type": "bool"
        }
      ],
      "stateMutability": "view",
      "type": "function"
    },
    {
      "inputs": [
        {
          "internalType": "address",
          "name": "",
          "type": "address"
        }
      ],
      "name": "users",
      "outputs": [
        {
          "internalType": "string",
          "name": "userId",
          "type": "string"
        },
        {
          "internalType": "string",
          "name": "name",
          "type": "string"
        },
        {
          "internalType": "string",
          "name": "organization",
          "type": "string"
        },
        {
          "internalType": "string",
          "name": "role",
          "type": "string"
        },
        {
          "internalType": "address",
          "name": "walletAddress",
          "type": "address"
        },
        {
          "internalType": "uint256",
          "name": "registeredAt",
          "type": "uint256"
        },
        {
          "internalType": "bool",
          "name": "isActive",
          "type": "bool"
        }
      ],
      "stateMutability": "view",
      "type": "function"
    }
  ],
  "bytecode": "0x6080346100bb57601f611c6638819003918201601f19168301916001600160401b038311848410176100c0578084926020946040528339810103126100bb57516001600160a01b0390818116908190036100bb5780156100a257600080546001600160a01b03198116831782556040519316907f8be0079c531659141344cd1fd0a4f28419497f9722a3daafe3b4186f6b6457e09080a3611b8f90816100d78239f35b604051631e4fbdf760e01b815260006004820152602490fd5b600080fd5b634e487b7160e01b600052604160045260246000fdfe6080604052600436101561001257600080fd5b60003560e01c806310e8b22d146111255780631a47767b1461102157806322b45727146110035780636d764298146110035780636f77926b14610f8e578063715018a614610f475780637e3956f414610ea357806381a2945714610da657806386fb3ee814610ce65780638da5cb5b14610cbd578063999eab2b146103bc5780639be572f61461039e5780639ee20b151461035c578063a2bdedf414610313578063a87430ba14610207578063bccbc36c146101c3578063c21be6ae1461015b5763f2fde38b146100e257600080fd5b34610156576020366003190112610156576100fb611490565b610103611b16565b6001600160a01b0390811690811561013d576000548260018060a01b031982161760005516600080516020611b43833981519152600080a3005b604051631e4fbdf760e01b815260006004820152602490fd5b600080fd5b34610156576020366003190112610156576004356001600160401b0381116101565761018d60209136906004016114e4565b816101a1604051928381519384920161153a565b600290820190815281900382019020546040516001600160a01b039091168152f35b34610156576020366003190112610156576001600160a01b036101e4611490565b16600052600160205260206101fd604060002054611600565b1515604051908152f35b34610156576020366003190112610156576102d36001600160a01b038061022c611490565b166000526001602052604060002090604051916102548361024d818461163a565b03846114c1565b6040519061027082610269816001850161163a565b03836114c1565b6102fd6040519361028f85610288816002870161163a565b03866114c1565b6102ef604051916102a78361024d816003890161163a565b600485015416956102e160ff6006600588015497015416966040519a8b9a60e08c5260e08c019061155d565b908a820360208c015261155d565b9088820360408a015261155d565b90868203606088015261155d565b92608085015260a0840152151560c08301520390f35b3461015657602036600319011261015657600435600454811015610156576004600052600080516020611b6383398151915201546040516001600160a01b039091168152602090f35b34610156576020366003190112610156576001600160a01b0361037d611490565b166000526001602052602060ff600660406000200154166040519015158152f35b34610156576000366003190112610156576020600454604051908152f35b346101565760a0366003190112610156576103d5611490565b6024356001600160401b038111610156576103f49036906004016114e4565b6044356001600160401b038111610156576104139036906004016114e4565b60649182356001600160401b038111610156576104349036906004016114e4565b926084356001600160401b038111610156576104549036906004016114e4565b9061045d611b16565b6001600160a01b03861660009081526001602052604090205461047f90611600565b610c7f57604051835161049681836020880161153a565b60029082019081528190036020019020546001600160a01b0316610c45578251818115159182610c3a575b505015610bff576104df8451828115159182610bf4575b50506116d0565b80855111610bb457506104f6603282511115611712565b60405190610503826114a6565b8282526020808301859052604080840187905260608401929092526001600160a01b038716608084018190524260a0850152600160c0850181905260009182529091522081518051919291906001600160401b0382116108675781906105698554611600565b601f8111610b64575b50602090601f8311600114610af857600092610aed575b50508160011b916000199060031b1c19161782555b60208101518051906001600160401b0382116108675781906105c36001860154611600565b601f8111610a9a575b50602090601f8311600114610a2857600092610a1d575b50508160011b916000199060031b1c19161760018301555b60408101518051906001600160401b0382116108675781906106206002860154611600565b601f81116109ca575b50602090601f83116001146109585760009261094d575b50508160011b916000199060031b1c19161760028301555b60608101518051906001600160401b03821161086757819061067d6003860154611600565b601f81116108fa575b50602090601f83116001146108885760009261087d575b50508160011b916000199060031b1c19161760038301555b60c06006600484019360018060a01b036080850151169460018060a01b0319958682541617905560a0840151600582015501910151151560ff80198354169116179055604051602081845161070d818385890161153a565b8101600281520301902060018060a01b03861682825416179055604051602081865161073c8183858b0161153a565b81016003815203019020938454600160401b958682101561086757600182018082558210156108515760009081526020902001805483166001600160a01b03881617905560045494851015610867576001850180600455851015610851576004600052600080516020611b6383398151915290940180549091166001600160a01b0386161790556005547feb909d03a1826538126783a14a06a590245c9e5085337d88971cca5ada6b809993610815936108319261082391906107fe9061187d565b60055560405195869560808752608087019061155d565b90858203602087015261155d565b90838203604085015261155d565b4260608301526001600160a01b03909416930390a2602060405160018152f35b634e487b7160e01b600052603260045260246000fd5b634e487b7160e01b600052604160045260246000fd5b01519050888061069d565b9250600385016000526020600020906000935b601f19841685106108df576001945083601f198116106108c6575b505050811b0160038301556106b5565b015160001960f88460031b161c191690558880806108b6565b8181015183556020948501946001909301929091019061089b565b909150600385016000526020600020601f840160051c810160208510610946575b90849392915b601f830160051c82018110610937575050610686565b60008155859450600101610921565b508061091b565b015190508880610640565b9250600285016000526020600020906000935b601f19841685106109af576001945083601f19811610610996575b505050811b016002830155610658565b015160001960f88460031b161c19169055888080610986565b8181015183556020948501946001909301929091019061096b565b909150600285016000526020600020601f840160051c810160208510610a16575b90849392915b601f830160051c82018110610a07575050610629565b600081558594506001016109f1565b50806109eb565b0151905088806105e3565b9250600185016000526020600020906000935b601f1984168510610a7f576001945083601f19811610610a66575b505050811b0160018301556105fb565b015160001960f88460031b161c19169055888080610a56565b81810151835560209485019460019093019290910190610a3b565b909150600185016000526020600020601f840160051c810160208510610ae6575b90849392915b601f830160051c82018110610ad75750506105cc565b60008155859450600101610ac1565b5080610abb565b015190508880610589565b9250846000526020600020906000935b601f1984168510610b49576001945083601f19811610610b30575b505050811b01825561059e565b015160001960f88460031b161c19169055888080610b23565b81810151835560209485019460019093019290910190610b08565b909150846000526020600020601f840160051c810160208510610bad575b90849392915b601f830160051c82018110610b9e575050610572565b60008155859450600101610b88565b5080610b82565b60405162461bcd60e51b815260206004820152601b60248201527a09ee4cec2dcd2f4c2e8d2dedc40d2dcecc2d8d2c840d8cadccee8d602b1b6044820152fd5b1115905082896104d8565b60405162461bcd60e51b81526020600482015260166024820152750aae6cae440928840d2dcecc2d8d2c840d8cadccee8d60531b6044820152fd5b1115905081886104c1565b60405162461bcd60e51b81526020600482015260156024820152742ab9b2b91024a21030b63932b0b23c903a30b5b2b760591b6044820152fd5b60405162461bcd60e51b815260206004820152601960248201527815d85b1b195d08185b1c9958591e481c9959da5cdd195c9959603a1b6044820152fd5b34610156576000366003190112610156576000546040516001600160a01b039091168152602090f35b3461015657602080600319360112610156576004356001600160401b03811161015657610d179036906004016114e4565b610d1f611754565b5081610d34604051928381519384920161153a565b600290820190815281900382019020546001600160a01b031680151580610d8c575b610d5f9061178e565b60005260018152610d7360406000206117cb565b90610d88604051928284938452830190611582565b0390f35b50600081815260018352604090206006015460ff16610d56565b346101565760208060031936011261015657610dc0611490565b610dc8611b16565b6001600160a01b0316600081815260018352604090206006015460ff16610e685780600052600182526006604060002001600160ff19825416179055610e0f60055461187d565b60055580600052600182527f73c60c7b7f8decec3b2483c6a073e0236ea890f63d2c1f2e5c9adfd5a26b45c5610e57604060002060405191829160408352604083019061163a565b42868301520390a260405160018152f35b60405162461bcd60e51b81526004810183905260136024820152725573657220616c72656164792061637469766560681b6044820152606490fd5b34610156576060366003190112610156576004356001600160401b03811161015657610ed6610ee39136906004016114e4565b60443590602435906118b0565b60405160209160208201926020835281518094526040830193602060408260051b8601019301916000955b828710610f1b5785850386f35b909192938280610f37600193603f198a82030186528851611582565b9601920196019592919092610f0e565b3461015657600036600319011261015657610f60611b16565b600080546001600160a01b0319811682556001600160a01b0316600080516020611b438339815191528280a3005b3461015657602036600319011261015657610fa7611490565b610faf611754565b506001600160a01b0316600081815260016020526040902060060154610fd79060ff1661178e565b6000526001602052610d88610fef60406000206117cb565b604051918291602083526020830190611582565b34610156576000366003190112610156576020600554604051908152f35b34610156576020806003193601126101565761103b611490565b611043611b16565b6001600160a01b0316600081815260018352604090206006015460ff16156110e8578060005260018252600660406000200160ff19815416905560055480156110d2576000190160055580600052600182527fe659a6ecb0c26f4007b258207c9e78d185a1a402594c97d6bbe3d0648aebef88610e57604060002060405191829160408352604083019061163a565b634e487b7160e01b600052601160045260246000fd5b60405162461bcd60e51b81526004810183905260156024820152745573657220616c726561647920696e61637469766560581b6044820152606490fd5b346101565760603660031901126101565761113e611490565b6001600160401b036024358181116101565761115e9036906004016114e4565b604435828111610156576111769036906004016114e4565b9261117f611b16565b60018060a01b0316908160005260019260209484865260ff6006604060002001541615611455576111bb83518015159081611449575b506116d0565b6111c9603282511115611712565b8360005284865284604060002001835183811161086757806111eb8354611600565b95601f968781116113f8575b5089908783116001146113955760009261138a575b5050600019600383901b1c191690871b1790555b8360005284865260036040600020019281519283116108675782916112458554611600565b828111611337575b50879183116001146112d4576000926112c9575b5050600019600383901b1c191690841b1790555b806000528183527f429ad3a7ede99d93a72d6f0ba190681a2763d681f984e2f299af21ca35caebdb6112b9604060002060405191829160408352604083019061163a565b42878301520390a2604051908152f35b015190508680611261565b90869350601f1983169185600052886000209260005b8a8282106113215750508411611308575b505050811b019055611275565b015160001960f88460031b161c191690558680806112fb565b8385015186558a979095019493840193016112ea565b9091925084600052876000208380860160051c8201928a8710611381575b9186958a929594930160051c01915b82811061137257505061124d565b60008155869550899101611364565b92508192611355565b01519050898061120c565b90899350601f19831691856000528b6000209260005b8d8282106113e257505084116113c9575b505050811b019055611220565b015160001960f88460031b161c191690558980806113bc565b8385015186558d979095019493840193016113ab565b90915083600052896000208780850160051c8201928c8610611440575b918b91869594930160051c01915b8281106114315750506111f7565b600081558594508b9101611423565b92508192611415565b606491501115886111b5565b60405162461bcd60e51b8152600481018790526013602482015272155cd95c88191bd95cc81b9bdd08195e1a5cdd606a1b6044820152606490fd5b600435906001600160a01b038216820361015657565b60e081019081106001600160401b0382111761086757604052565b601f909101601f19168101906001600160401b0382119082101761086757604052565b81601f82011215610156578035906001600160401b0382116108675760405192611518601f8401601f1916602001856114c1565b8284526020838301011161015657816000926020809301838601378301015290565b60005b83811061154d5750506000910152565b818101518382015260200161153d565b906020916115768151809281855285808601910161153a565b601f01601f1916010190565b9060c0806115d86115c66115b46115a2875160e0885260e088019061155d565b6020880151878203602089015261155d565b6040870151868203604088015261155d565b6060860151858203606087015261155d565b6080808601516001600160a01b03169085015260a08086015190850152930151151591015290565b90600182811c92168015611630575b602083101461161a57565b634e487b7160e01b600052602260045260246000fd5b91607f169161160f565b80546000939261164982611600565b918282526020936001916001811690816000146116b15750600114611670575b5050505050565b90939495506000929192528360002092846000945b83861061169d57505050500101903880808080611669565b805485870183015294019385908201611685565b60ff19168685015250505090151560051b010191503880808080611669565b156116d757565b60405162461bcd60e51b815260206004820152601360248201527209cc2daca40d2dcecc2d8d2c840d8cadccee8d606b1b6044820152606490fd5b1561171957565b60405162461bcd60e51b81526020600482015260136024820152720a4ded8ca40d2dcecc2d8d2c840d8cadccee8d606b1b6044820152606490fd5b60405190611761826114a6565b600060c0836060815260606020820152606060408201526060808201528260808201528260a08201520152565b1561179557565b60405162461bcd60e51b815260206004820152600e60248201526d155cd95c881b9bdd08199bdd5b9960921b6044820152606490fd5b9060409160c060ff60068551936117e1856114a6565b849680516117fa816117f3818661163a565b03826114c1565b8652805161180f816117f3816001870161163a565b60208701528051611827816117f3816002870161163a565b818701525161183d816117f3816003860161163a565b606086015260048101546001600160a01b03166080860152600581015460a08601520154161515910152565b80518210156108515760209160051b010190565b60001981146110d25760010190565b6001600160401b0381116108675760051b60200190565b919082039182116110d257565b604090815181818093516118ca816020968780960161153a565b8101600381520301902094825190818284895492838152016000998a52858a20928a5b87828210611af757505050611904925003836114c1565b8694875b8351811015611956576001600160a01b036119238286611869565b511689526001855260ff6006878b20015416611942575b600101611908565b9561194e60019161187d565b96905061193a565b509390969495840195868511611ae357808711611adb575b841015611aa55761197f84876118a3565b936119898561188c565b94611996835196876114c1565b8086526119a5601f199161188c565b0184875b828110611a8f5750505085948693875b8151811080611a86575b15611a79576001600160a01b03806119db8385611869565b51168a5260019081895260ff6006888d20015416611a04575b50506119ff9061187d565b6119b9565b858a939a1015611a25575b5050611a1d6119ff9161187d565b9790386119f4565b6119ff9297611a1d92611a7292611a3c8d88611869565b51168d528a52611a6c888d20611a5b611a558a856118a3565b916117cb565b611a65828a611869565b5287611869565b5061187d565b9691611a0f565b5050965050505050505090565b508986106119c3565b611a97611754565b82828a0101520185906119a9565b805195509185019250506001600160401b03821184831017611ac75752815290565b634e487b7160e01b83526041600452602483fd5b95508561196e565b634e487b7160e01b86526011600452602486fd5b85546001600160a01b03168452600195860195889550930192016118ed565b6000546001600160a01b03163303611b2a57565b60405163118cdaa760e01b8152336004820152602490fdfe8be0079c531659141344cd1fd0a4f28419497f9722a3daafe3b4186f6b6457e08a35acfbc15ff81a39ae7d344fd709f28e8600b4aa8c65c6b64bfe7fe36bd19ba164736f6c6343000818000a",
  "linkReferences": {},
  "deployedLinkReferences": {}
}