{
  "_format": "hh-sol-artifact-1",
  "contractName": "USFCI",
  "sourceName": "src/USFCI.sol",
  "abi": [
    {
      "inputs": [
        {
          "internalType": "address",
          "name": "initialOwner",
          "type": "address"
        }
      ],
      "stateMutability": "nonpayable",
      "type": "constructor"
    },
    {
      "inputs": [],
      "name": "AccessControlBadConfirmation",
      "type": "error"
    },
    {
      "inputs": [
        {
          "internalType": "address",
          "name": "account",
          "type": "address"
        },
        {
          "internalType": "bytes32",
          "name": "neededRole",
          "type": "bytes32"
        }
      ],
      "name": "AccessControlUnauthorizedAccount",
      "type": "error"
    },
    {
      "inputs": [
        {
          "internalType": "address",
          "name": "spender",
          "type": "address"
        },
        {
          "internalType": "uint256",
          "name": "allowance",
          "type": "uint256"
        },
        {
          "internalType": "uint256",
          "name": "needed",
          "type": "uint256"
        }
      ],
      "name": "ERC20InsufficientAllowance",
      "type": "error"
    },
    {
      "inputs": [
        {
          "internalType": "address",
          "name": "sender",
          "type": "address"
        },
        {
          "internalType": "uint256",
          "name": "balance",
          "type": "uint256"
        },
        {
          "internalType": "uint256",
          "name": "needed",
          "type": "uint256"
        }
      ],
      "name": "ERC20InsufficientBalance",
      "type": "error"
    },
    {
      "inputs": [
        {
          "internalType": "address",
          "name": "approver",
          "type": "address"
        }
      ],
      "name": "ERC20InvalidApprover",
      "type": "error"
    },
    {
      "inputs": [
        {
          "internalType": "address",
          "name": "receiver",
          "type": "address"
        }
      ],
      "name": "ERC20InvalidReceiver",
      "type": "error"
    },
    {
      "inputs": [
        {
          "internalType": "address",
          "name": "sender",
          "type": "address"
        }
      ],
      "name": "ERC20InvalidSender",
      "type": "error"
    },
    {
      "inputs": [
        {
          "internalType": "address",
          "name": "spender",
          "type": "address"
        }
      ],
      "name": "ERC20InvalidSpender",
      "type": "error"
    },
    {
      "inputs": [],
      "name": "EnforcedPause",
      "type": "error"
    },
    {
      "inputs": [],
      "name": "ExpectedPause",
      "type": "error"
    },
    {
      "inputs": [],
      "name": "ReentrancyGuardReentrantCall",
      "type": "error"
    },
    {
      "anonymous": false,
      "inputs": [
        {
          "indexed": true,
          "internalType": "address",
          "name": "owner",
          "type": "address"
        },
        {
          "indexed": true,
          "internalType": "address",
          "name": "spender",
          "type": "address"
        },
        {
          "indexed": false,
          "internalType": "uint256",
          "name": "value",
          "type": "uint256"
        }
      ],
      "name": "Approval",
      "type": "event"
    },
    {
      "anonymous": false,
      "inputs": [
        {
          "indexed": true,
          "internalType": "address",
          "name": "walletAddress",
          "type": "address"
        },
        {
          "indexed": false,
          "internalType": "string",
          "name": "kycStatus",
          "type": "string"
        },
        {
          "indexed": false,
          "internalType": "string",
          "name": "riskScore",
          "type": "string"
        },
        {
          "indexed": false,
          "internalType": "uint256",
          "name": "timestamp",
          "type": "uint256"
        }
      ],
      "name": "ComplianceUpdated",
      "type": "event"
    },
    {
      "anonymous": false,
      "inputs": [
        {
          "indexed": false,
          "internalType": "address",
          "name": "account",
          "type": "address"
        }
      ],
      "name": "Paused",
      "type": "event"
    },
    {
      "anonymous": false,
      "inputs": [
        {
          "indexed": true,
          "internalType": "bytes32",
          "name": "role",
          "type": "bytes32"
        },
        {
          "indexed": true,
          "internalType": "bytes32",
          "name": "previousAdminRole",
          "type": "bytes32"
        },
        {
          "indexed": true,
          "internalType": "bytes32",
          "name": "newAdminRole",
          "type": "bytes32"
        }
      ],
      "name": "RoleAdminChanged",
      "type": "event"
    },
    {
      "anonymous": false,
      "inputs": [
        {
          "indexed": true,
          "internalType": "bytes32",
          "name": "role",
          "type": "bytes32"
        },
        {
          "indexed": true,
          "internalType": "address",
          "name": "account",
          "type": "address"
        },
        {
          "indexed": true,
          "internalType": "address",
          "name": "sender",
          "type": "address"
        }
      ],
      "name": "RoleGranted",
      "type": "event"
    },
    {
      "anonymous": false,
      "inputs": [
        {
          "indexed": true,
          "internalType": "bytes32",
          "name": "role",
          "type": "bytes32"
        },
        {
          "indexed": true,
          "internalType": "address",
          "name": "account",
          "type": "address"
        },
        {
          "indexed": true,
          "internalType": "address",
          "name": "sender",
          "type": "address"
        }
      ],
      "name": "RoleRevoked",
      "type": "event"
    },
    {
      "anonymous": false,
      "inputs": [
        {
          "indexed": true,
          "internalType": "address",
          "name": "burner",
          "type": "address"
        },
        {
          "indexed": false,
          "internalType": "uint256",
          "name": "amount",
          "type": "uint256"
        },
        {
          "indexed": false,
          "internalType": "string",
          "name": "reason",
          "type": "string"
        },
        {
          "indexed": false,
          "internalType": "uint256",
          "name": "timestamp",
          "type": "uint256"
        }
      ],
      "name": "TokensBurned",
      "type": "event"
    },
    {
      "anonymous": false,
      "inputs": [
        {
          "indexed": true,
          "internalType": "address",
          "name": "recipient",
          "type": "address"
        },
        {
          "indexed": false,
          "internalType": "uint256",
          "name": "amount",
          "type": "uint256"
        },
        {
          "indexed": false,
          "internalType": "string",
          "name": "reserveProof",
          "type": "string"
        },
        {
          "indexed": false,
          "internalType": "uint256",
          "name": "timestamp",
          "type": "uint256"
        }
      ],
      "name": "TokensMinted",
      "type": "event"
    },
    {
      "anonymous": false,
      "inputs": [
        {
          "indexed": true,
          "internalType": "address",
          "name": "sender",
          "type": "address"
        },
        {
          "indexed": true,
          "internalType": "address",
          "name": "recipient",
          "type": "address"
        },
        {
          "indexed": false,
          "internalType": "uint256",
          "name": "amount",
          "type": "uint256"
        },
        {
          "indexed": false,
          "internalType": "string",
          "name": "metadata",
          "type": "string"
        },
        {
          "indexed": false,
          "internalType": "uint256",
          "name": "timestamp",
          "type": "uint256"
        }
      ],
      "name": "TokensTransferred",
      "type": "event"
    },
    {
      "anonymous": false,
      "inputs": [
        {
          "indexed": true,
          "internalType": "address",
          "name": "from",
          "type": "address"
        },
        {
          "indexed": true,
          "internalType": "address",
          "name": "to",
          "type": "address"
        },
        {
          "indexed": false,
          "internalType": "uint256",
          "name": "value",
          "type": "uint256"
        }
      ],
      "name": "Transfer",
      "type": "event"
    },
    {
      "anonymous": false,
      "inputs": [
        {
          "indexed": false,
          "internalType": "address",
          "name": "account",
          "type": "address"
        }
      ],
      "name": "Unpaused",
      "type": "event"
    },
    {
      "anonymous": false,
      "inputs": [
        {
          "indexed": true,
          "internalType": "address",
          "name": "walletAddress",
          "type": "address"
        },
        {
          "indexed": false,
          "internalType": "string",
          "name": "mspId",
          "type": "string"
        },
        {
          "indexed": false,
          "internalType": "string",
          "name": "userId",
          "type": "string"
        },
        {
          "indexed": false,
          "internalType": "uint256",
          "name": "timestamp",
          "type": "uint256"
        }
      ],
      "name": "WalletRegistered",
      "type": "event"
    },
    {
      "inputs": [],
      "name": "BURNER_ROLE",
      "outputs": [
        {
          "internalType": "bytes32",
          "name": "",
          "type": "bytes32"
        }
      ],
      "stateMutability": "view",
      "type": "function"
    },
    {
      "inputs": [],
      "name": "COMPLIANCE_ROLE",
      "outputs": [
        {
          "internalType": "bytes32",
          "name": "",
          "type": "bytes32"
        }
      ],
      "stateMutability": "view",
      "type": "function"
    },
    {
      "inputs": [],
      "name": "DEFAULT_ADMIN_ROLE",
      "outputs": [
        {
          "internalType": "bytes32",
          "name": "",
          "type": "bytes32"
        }
      ],
      "stateMutability": "view",
      "type": "function"
    },
    {
      "inputs": [],
      "name": "MINTER_ROLE",
      "outputs": [
        {
          "internalType": "bytes32",
          "name": "",
          "type": "bytes32"
        }
      ],
      "stateMutability": "view",
      "type": "function"
    },
    {
      "inputs": [
        {
          "internalType": "address",
          "name": "",
          "type": "address"
        }
      ],
      "name": "accounts",
      "outputs": [
        {
          "internalType": "string",
          "name": "mspId",
          "type": "string"
        },
        {
          "internalType": "string",
          "name": "userId",
          "type": "string"
        },
        {
          "internalType": "uint256",
          "name": "frozenBalance",
          "type": "uint256"
        },
        {
          "internalType": "uint256",
          "name": "lastActivity",
          "type": "uint256"
        },
        {
          "internalType": "string",
          "name": "kycStatus",
          "type": "string"
        },
        {
          "internalType": "string",
          "name": "riskScore",
          "type": "string"
        },
        {
          "internalType": "string",
          "name": "accountType",
          "type": "string"
        },
        {
          "internalType": "uint256",
          "name": "createdAt",
          "type": "uint256"
        },
        {
          "internalType": "bool",
          "name": "exists",
          "type": "bool"
        }
      ],
      "stateMutability": "view",
      "type": "function"
    },
    {
      "inputs": [
        {
          "internalType": "address",
          "name": "owner",
          "type": "address"
        },
        {
          "internalType": "address",
          "name": "spender",
          "type": "address"
        }
      ],
      "name": "allowance",
      "outputs": [
        {
          "internalType": "uint256",
          "name": "",
          "type": "uint256"
        }
      ],
      "stateMutability": "view",
      "type": "function"
    },
    {
      "inputs": [
        {
          "internalType": "address",
          "name": "spender",
          "type": "address"
        },
        {
          "internalType": "uint256",
          "name": "value",
          "type": "uint256"
        }
      ],
      "name": "approve",
      "outputs": [
        {
          "internalType": "bool",
          "name": "",
          "type": "bool"
        }
      ],
      "stateMutability": "nonpayable",
      "type": "function"
    },
    {
      "inputs": [
        {
          "internalType": "address",
          "name": "account",
          "type": "address"
        }
      ],
      "name": "balanceOf",
      "outputs": [
        {
          "internalType": "uint256",
          "name": "",
          "type": "uint256"
        }
      ],
      "stateMutability": "view",
      "type": "function"
    },
    {
      "inputs": [
        {
          "internalType": "address",
          "name": "walletAddress",
          "type": "address"
        },
        {
          "internalType": "uint256",
          "name": "amount",
          "type": "uint256"
        },
        {
          "internalType": "string",
          "name": "reason",
          "type": "string"
        }
      ],
      "name": "burnTokens",
      "outputs": [
        {
          "internalType": "bool",
          "name": "",
          "type": "bool"
        }
      ],
      "stateMutability": "nonpayable",
      "type": "function"
    },
    {
      "inputs": [],
      "name": "decimals",
      "outputs": [
        {
          "internalType": "uint8",
          "name": "",
          "type": "uint8"
        }
      ],
      "stateMutability": "view",
      "type": "function"
    },
    {
      "inputs": [
        {
          "internalType": "address",
          "name": "walletAddress",
          "type": "address"
        }
      ],
      "name": "getAccountDetails",
      "outputs": [
        {
          "components": [
            {
              "internalType": "string",
              "name": "mspId",
              "type": "string"
            },
            {
              "internalType": "string",
              "name": "userId",
              "type": "string"
            },
            {
              "internalType": "uint256",
              "name": "frozenBalance",
              "type": "uint256"
            },
            {
              "internalType": "uint256",
              "name": "lastActivity",
              "type": "uint256"
            },
            {
              "internalType": "string",
              "name": "kycStatus",
              "type": "string"
            },
            {
              "internalType": "string",
              "name": "riskScore",
              "type": "string"
            },
            {
              "internalType": "string",
              "name": "accountType",
              "type": "string"
            },
            {
              "internalType": "uint256",
              "name": "createdAt",
              "type": "uint256"
            },
            {
              "internalType": "bool",
              "name": "exists",
              "type": "bool"
            }
          ],
          "internalType": "struct USFCI.Account",
          "name": "",
          "type": "tuple"
        }
      ],
      "stateMutability": "view",
      "type": "function"
    },
    {
      "inputs": [],
      "name": "getAllBurnRecords",
      "outputs": [
        {
          "components": [
            {
              "internalType": "address",
              "name": "burnerAddress",
              "type": "address"
            },
            {
              "internalType": "string",
              "name": "burnerMspId",
              "type": "string"
            },
            {
              "internalType": "uint256",
              "name": "amount",
              "type": "uint256"
            },
            {
              "internalType": "string",
              "name": "reason",
              "type": "string"
            },
            {
              "internalType": "uint256",
              "name": "timestamp",
              "type": "uint256"
            }
          ],
          "internalType": "struct USFCI.BurnRecord[]",
          "name": "",
          "type": "tuple[]"
        }
      ],
      "stateMutability": "view",
      "type": "function"
    },
    {
      "inputs": [],
      "name": "getAllMintRecords",
      "outputs": [
        {
          "components": [
            {
              "internalType": "address",
              "name": "recipientAddress",
              "type": "address"
            },
            {
              "internalType": "string",
              "name": "recipientMspId",
              "type": "string"
            },
            {
              "internalType": "uint256",
              "name": "amount",
              "type": "uint256"
            },
            {
              "internalType": "string",
              "name": "reserveProof",
              "type": "string"
            },
            {
              "internalType": "uint256",
              "name": "timestamp",
              "type": "uint256"
            },
            {
              "internalType": "address",
              "name": "minter",
              "type": "address"
            }
          ],
          "internalType": "struct USFCI.MintRecord[]",
          "name": "",
          "type": "tuple[]"
        }
      ],
      "stateMutability": "view",
      "type": "function"
    },
    {
      "inputs": [],
      "name": "getAllTransferRecords",
      "outputs": [
        {
          "components": [
            {
              "internalType": "address",
              "name": "senderAddress",
              "type": "address"
            },
            {
              "internalType": "string",
              "name": "senderMspId",
              "type": "string"
            },
            {
              "internalType": "address",
              "name": "recipientAddress",
              "type": "address"
            },
            {
              "internalType": "string",
              "name": "recipientMspId",
              "type": "string"
            },
            {
              "internalType": "uint256",
              "name": "amount",
              "type": "uint256"
            },
            {
              "internalType": "string",
              "name": "metadata",
              "type": "string"
            },
            {
              "internalType": "uint256",
              "name": "timestamp",
              "type": "uint256"
            },
            {
              "internalType": "string",
              "name": "settlementType",
              "type": "string"
            }
          ],
          "internalType": "struct USFCI.TransferRecord[]",
          "name": "",
          "type": "tuple[]"
        }
      ],
      "stateMutability": "view",
      "type": "function"
    },
    {
      "inputs": [
        {
          "internalType": "address",
          "name": "walletAddress",
          "type": "address"
        }
      ],
      "name": "getBalance",
      "outputs": [
        {
          "internalType": "uint256",
          "name": "",
          "type": "uint256"
        }
      ],
      "stateMutability": "view",
      "type": "function"
    },
    {
      "inputs": [
        {
          "internalType": "address",
          "name": "walletAddress",
          "type": "address"
        }
      ],
      "name": "getBurnHistory",
      "outputs": [
        {
          "components": [
            {
              "internalType": "address",
              "name": "burnerAddress",
              "type": "address"
            },
            {
              "internalType": "string",
              "name": "burnerMspId",
              "type": "string"
            },
            {
              "internalType": "uint256",
              "name": "amount",
              "type": "uint256"
            },
            {
              "internalType": "string",
              "name": "reason",
              "type": "string"
            },
            {
              "internalType": "uint256",
              "name": "timestamp",
              "type": "uint256"
            }
          ],
          "internalType": "struct USFCI.BurnRecord[]",
          "name": "",
          "type": "tuple[]"
        }
      ],
      "stateMutability": "view",
      "type": "function"
    },
    {
      "inputs": [
        {
          "internalType": "address",
          "name": "walletAddress",
          "type": "address"
        }
      ],
      "name": "getMintHistory",
      "outputs": [
        {
          "components": [
            {
              "internalType": "address",
              "name": "recipientAddress",
              "type": "address"
            },
            {
              "internalType": "string",
              "name": "recipientMspId",
              "type": "string"
            },
            {
              "internalType": "uint256",
              "name": "amount",
              "type": "uint256"
            },
            {
              "internalType": "string",
              "name": "reserveProof",
              "type": "string"
            },
            {
              "internalType": "uint256",
              "name": "timestamp",
              "type": "uint256"
            },
            {
              "internalType": "address",
              "name": "minter",
              "type": "address"
            }
          ],
          "internalType": "struct USFCI.MintRecord[]",
          "name": "",
          "type": "tuple[]"
        }
      ],
      "stateMutability": "view",
      "type": "function"
    },
    {
      "inputs": [
        {
          "internalType": "address",
          "name": "walletAddress",
          "type": "address"
        }
      ],
      "name": "getReceivedTransactions",
      "outputs": [
        {
          "components": [
            {
              "internalType": "address",
              "name": "senderAddress",
              "type": "address"
            },
            {
              "internalType": "string",
              "name": "senderMspId",
              "type": "string"
            },
            {
              "internalType": "address",
              "name": "recipientAddress",
              "type": "address"
            },
            {
              "internalType": "string",
              "name": "recipientMspId",
              "type": "string"
            },
            {
              "internalType": "uint256",
              "name": "amount",
              "type": "uint256"
            },
            {
              "internalType": "string",
              "name": "metadata",
              "type": "string"
            },
            {
              "internalType": "uint256",
              "name": "timestamp",
              "type": "uint256"
            },
            {
              "internalType": "string",
              "name": "settlementType",
              "type": "string"
            }
          ],
          "internalType": "struct USFCI.TransferRecord[]",
          "name": "",
          "type": "tuple[]"
        }
      ],
      "stateMutability": "view",
      "type": "function"
    },
    {
      "inputs": [
        {
          "internalType": "bytes32",
          "name": "role",
          "type": "bytes32"
        }
      ],
      "name": "getRoleAdmin",
      "outputs": [
        {
          "internalType": "bytes32",
          "name": "",
          "type": "bytes32"
        }
      ],
      "stateMutability": "view",
      "type": "function"
    },
    {
      "inputs": [
        {
          "internalType": "address",
          "name": "walletAddress",
          "type": "address"
        }
      ],
      "name": "getSentTransactions",
      "outputs": [
        {
          "components": [
            {
              "internalType": "address",
              "name": "senderAddress",
              "type": "address"
            },
            {
              "internalType": "string",
              "name": "senderMspId",
              "type": "string"
            },
            {
              "internalType": "address",
              "name": "recipientAddress",
              "type": "address"
            },
            {
              "internalType": "string",
              "name": "recipientMspId",
              "type": "string"
            },
            {
              "internalType": "uint256",
              "name": "amount",
              "type": "uint256"
            },
            {
              "internalType": "string",
              "name": "metadata",
              "type": "string"
            },
            {
              "internalType": "uint256",
              "name": "timestamp",
              "type": "uint256"
            },
            {
              "internalType": "string",
              "name": "settlementType",
              "type": "string"
            }
          ],
          "internalType": "struct USFCI.TransferRecord[]",
          "name": "",
          "type": "tuple[]"
        }
      ],
      "stateMutability": "view",
      "type": "function"
    },
    {
      "inputs": [],
      "name": "getStatistics",
      "outputs": [
        {
          "internalType": "uint256",
          "name": "totalMints",
          "type": "uint256"
        },
        {
          "internalType": "uint256",
          "name": "totalBurns",
          "type": "uint256"
        },
        {
          "internalType": "uint256",
          "name": "totalTransfers",
          "type": "uint256"
        },
        {
          "internalType": "uint256",
          "name": "totalSupply_",
          "type": "uint256"
        }
      ],
      "stateMutability": "view",
      "type": "function"
    },
    {
      "inputs": [
        {
          "internalType": "address",
          "name": "walletAddress",
          "type": "address"
        }
      ],
      "name": "getTransactionHistory",
      "outputs": [
        {
          "components": [
            {
              "internalType": "address",
              "name": "senderAddress",
              "type": "address"
            },
            {
              "internalType": "string",
              "name": "senderMspId",
              "type": "string"
            },
            {
              "internalType": "address",
              "name": "recipientAddress",
              "type": "address"
            },
            {
              "internalType": "string",
              "name": "recipientMspId",
              "type": "string"
            },
            {
              "internalType": "uint256",
              "name": "amount",
              "type": "uint256"
            },
            {
              "internalType": "string",
              "name": "metadata",
              "type": "string"
            },
            {
              "internalType": "uint256",
              "name": "timestamp",
              "type": "uint256"
            },
            {
              "internalType": "string",
              "name": "settlementType",
              "type": "string"
            }
          ],
          "internalType": "struct USFCI.TransferRecord[]",
          "name": "",
          "type": "tuple[]"
        }
      ],
      "stateMutability": "view",
      "type": "function"
    },
    {
      "inputs": [
        {
          "internalType": "bytes32",
          "name": "role",
          "type": "bytes32"
        },
        {
          "internalType": "address",
          "name": "account",
          "type": "address"
        }
      ],
      "name": "grantRole",
      "outputs": [],
      "stateMutability": "nonpayable",
      "type": "function"
    },
    {
      "inputs": [
        {
          "internalType": "bytes32",
          "name": "role",
          "type": "bytes32"
        },
        {
          "internalType": "address",
          "name": "account",
          "type": "address"
        }
      ],
      "name": "hasRole",
      "outputs": [
        {
          "internalType": "bool",
          "name": "",
          "type": "bool"
        }
      ],
      "stateMutability": "view",
      "type": "function"
    },
    {
      "inputs": [],
      "name": "initLedger",
      "outputs": [],
      "stateMutability": "nonpayable",
      "type": "function"
    },
    {
      "inputs": [
        {
          "internalType": "address",
          "name": "walletAddress",
          "type": "address"
        },
        {
          "internalType": "uint256",
          "name": "amount",
          "type": "uint256"
        },
        {
          "internalType": "string",
          "name": "reserveProof",
          "type": "string"
        }
      ],
      "name": "mintTokens",
      "outputs": [
        {
          "internalType": "bool",
          "name": "",
          "type": "bool"
        }
      ],
      "stateMutability": "nonpayable",
      "type": "function"
    },
    {
      "inputs": [
        {
          "internalType": "string",
          "name": "",
          "type": "string"
        }
      ],
      "name": "mspToWallet",
      "outputs": [
        {
          "internalType": "address",
          "name": "",
          "type": "address"
        }
      ],
      "stateMutability": "view",
      "type": "function"
    },
    {
      "inputs": [],
      "name": "name",
      "outputs": [
        {
          "internalType": "string",
          "name": "",
          "type": "string"
        }
      ],
      "stateMutability": "view",
      "type": "function"
    },
    {
      "inputs": [],
      "name": "paused",
      "outputs": [
        {
          "internalType": "bool",
          "name": "",
          "type": "bool"
        }
      ],
      "stateMutability": "view",
      "type": "function"
    },
    {
      "inputs": [
        {
          "internalType": "string",
          "name": "mspId",
          "type": "string"
        },
        {
          "internalType": "string",
          "name": "userId",
          "type": "string"
        },
        {
          "internalType": "string",
          "name": "accountType",
          "type": "string"
        }
      ],
      "name": "registerWallet",
      "outputs": [
        {
          "internalType": "address",
          "name": "",
          "type": "address"
        }
      ],
      "stateMutability": "nonpayable",
      "type": "function"
    },
    {
      "inputs": [
        {
          "internalType": "bytes32",
          "name": "role",
          "type": "bytes32"
        },
        {
          "internalType": "address",
          "name": "callerConfirmation",
          "type": "address"
        }
      ],
      "name": "renounceRole",
      "outputs": [],
      "stateMutability": "nonpayable",
      "type": "function"
    },
    {
      "inputs": [
        {
          "internalType": "bytes32",
          "name": "role",
          "type": "bytes32"
        },
        {
          "internalType": "address",
          "name": "account",
          "type": "address"
        }
      ],
      "name": "revokeRole",
      "outputs": [],
      "stateMutability": "nonpayable",
      "type": "function"
    },
    {
      "inputs": [
        {
          "internalType": "bytes4",
          "name": "interfaceId",
          "type": "bytes4"
        }
      ],
      "name": "supportsInterface",
      "outputs": [
        {
          "internalType": "bool",
          "name": "",
          "type": "bool"
        }
      ],
      "stateMutability": "view",
      "type": "function"
    },
    {
      "inputs": [],
      "name": "symbol",
      "outputs": [
        {
          "internalType": "string",
          "name": "",
          "type": "string"
        }
      ],
      "stateMutability": "view",
      "type": "function"
    },
    {
      "inputs": [],
      "name": "systemConfig",
      "outputs": [
        {
          "internalType": "string",
          "name": "tokenName",
          "type": "string"
        },
        {
          "internalType": "string",
          "name": "tokenSymbol",
          "type": "string"
        },
        {
          "internalType": "uint256",
          "name": "maxTransactionAmount",
          "type": "uint256"
        },
        {
          "internalType": "uint256",
          "name": "maxDailyTransactionAmount",
          "type": "uint256"
        },
        {
          "internalType": "bool",
          "name": "dailyReserveReportRequired",
          "type": "bool"
        },
        {
          "internalType": "string",
          "name": "reserveBank",
          "type": "string"
        },
        {
          "internalType": "bool",
          "name": "complianceEnabled",
          "type": "bool"
        }
      ],
      "stateMutability": "view",
      "type": "function"
    },
    {
      "inputs": [],
      "name": "totalSupply",
      "outputs": [
        {
          "internalType": "uint256",
          "name": "",
          "type": "uint256"
        }
      ],
      "stateMutability": "view",
      "type": "function"
    },
    {
      "inputs": [
        {
          "internalType": "address",
          "name": "recipient",
          "type": "address"
        },
        {
          "internalType": "uint256",
          "name": "amount",
          "type": "uint256"
        }
      ],
      "name": "transfer",
      "outputs": [
        {
          "internalType": "bool",
          "name": "",
          "type": "bool"
        }
      ],
      "stateMutability": "nonpayable",
      "type": "function"
    },
    {
      "inputs": [
        {
          "internalType": "address",
          "name": "from",
          "type": "address"
        },
        {
          "internalType": "address",
          "name": "to",
          "type": "address"
        },
        {
          "internalType": "uint256",
          "name": "value",
          "type": "uint256"
        }
      ],
      "name": "transferFrom",
      "outputs": [
        {
          "internalType": "bool",
          "name": "",
          "type": "bool"
        }
      ],
      "stateMutability": "nonpayable",
      "type": "function"
    },
    {
      "inputs": [
        {
          "internalType": "address",
          "name": "walletAddress",
          "type": "address"
        },
        {
          "internalType": "string",
          "name": "kycStatus",
          "type": "string"
        },
        {
          "internalType": "string",
          "name": "riskScore",
          "type": "string"
        }
      ],
      "name": "updateComplianceStatus",
      "outputs": [
        {
          "internalType": "bool",
          "name": "",
          "type": "bool"
        }
      ],
      "stateMutability": "nonpayable",
      "type": "function"
    }
  ],
  "bytecode": "0x608034620008ed57601f6200541338819003918201601f19168301916001600160401b03831184841017620004d057808492602094604052833981010312620008ed57516001600160a01b0381168103620008ed576200005e620008f2565b906005825264555346434960d81b908160208401526200007d620008f2565b600581526020810183905283516001600160401b038111620004d057600354600181811c91168015620008e2575b6020821014620004af57601f811162000878575b50602094601f82116001146200080b57948192939495600092620007ff575b50508160011b916000199060031b1c1916176003555b8051906001600160401b038211620004d057600454600181811c91168015620007f4575b6020821014620004af57601f81116200078a575b50602090601f8311600114620006f9576200019293929160009183620006ed575b50508160011b916000199060031b1c1916176004555b6001600755620001738162000912565b506200017f8162000993565b506200018b8162000a36565b5062000ad4565b506040519060e082016001600160401b03811183821017620004d057604052620001bb620008f2565b600581528160208201528252620001d1620008f2565b9060058252602082015260208201526d04ee2d6d415b85acef81000000008060408301526060820152600160808201526200020b620008f2565b600c81526b53756e776573742042616e6b60a01b602082015260a0820152600160c082015280518051906001600160401b038211620004d057600b5490600182811c92168015620006e2575b6020831014620004af5781601f8493116200066d575b50602090601f8311600114620005de57600092620005d2575b50508160011b916000199060031b1c191617600b555b602081015180519091906001600160401b038111620004d057600c54600181811c91168015620005c7575b6020821014620004af57601f81116200055d575b50602092601f8211600114620004f25792819293600092620004e6575b50508160011b916000199060031b1c191617600c555b6040810151600d556060810151600e55608081015115159060ff199160ff83600f5416911617600f5560a081015180519060018060401b038211620004d057601054600181811c91168015620004c5575b6020821014620004af57601f811162000456575b50602090601f8311600114620003d657918060ff949260c094600092620003ca575b50508160011b916000199060031b1c1916176010555b015115159160115416911617601155604051614860908162000b738239f35b01519050388062000395565b60106000908152600080516020620053f3833981519152929190601f198516905b8181106200043d575092600192859260c09660ff98961062000423575b505050811b01601055620003ab565b015160001960f88460031b161c1916905538808062000414565b92936020600181928786015181550195019301620003f7565b6010600052600080516020620053f3833981519152601f840160051c81019160208510620004a4575b601f0160051c01905b81811062000497575062000373565b6000815560010162000488565b90915081906200047f565b634e487b7160e01b600052602260045260246000fd5b90607f16906200035f565b634e487b7160e01b600052604160045260246000fd5b015190503880620002f8565b601f19821693600c60005260206000209160005b8681106200054457508360019596106200052a575b505050811b01600c556200030e565b015160001960f88460031b161c191690553880806200051b565b9192602060018192868501518155019401920162000506565b600c6000527fdf6966c971051c3d54ec59162606531493a51404a002842f56009d7e5cf4a8c7601f830160051c81019160208410620005bc575b601f0160051c01905b818110620005af5750620002db565b60008155600101620005a0565b909150819062000597565b90607f1690620002c7565b01519050388062000286565b600b600090815293507f0175b7a638427703f0dbe7bb9bbf987a2551717b34e79f33b5b1008d1fa01db991905b601f198416851062000651576001945083601f1981161062000637575b505050811b01600b556200029c565b015160001960f88460031b161c1916905538808062000628565b818101518355602094850194600190930192909101906200060b565b600b6000529091507f0175b7a638427703f0dbe7bb9bbf987a2551717b34e79f33b5b1008d1fa01db9601f840160051c81019160208510620006d7575b90601f859493920160051c01905b818110620006c757506200026d565b60008155849350600101620006b8565b9091508190620006aa565b91607f169162000257565b0151905038806200014d565b600460009081527f8a35acfbc15ff81a39ae7d344fd709f28e8600b4aa8c65c6b64bfe7fe36bd19b929190601f198516905b818110620007715750916001939185620001929796941062000757575b505050811b0160045562000163565b015160001960f88460031b161c1916905538808062000748565b929360206001819287860151815501950193016200072b565b60046000527f8a35acfbc15ff81a39ae7d344fd709f28e8600b4aa8c65c6b64bfe7fe36bd19b601f840160051c81019160208510620007e9575b601f0160051c01905b818110620007dc57506200012c565b60008155600101620007cd565b9091508190620007c4565b90607f169062000118565b015190503880620000de565b601f19821695600360005260206000209160005b8881106200085f5750836001959697981062000845575b505050811b01600355620000f4565b015160001960f88460031b161c1916905538808062000836565b919260206001819286850151815501940192016200081f565b60036000527fc2575a0e9e593c00f959f8c92f12db2869c3395a3b0502d05e2516446f71f85b601f830160051c81019160208410620008d7575b601f0160051c01905b818110620008ca5750620000bf565b60008155600101620008bb565b9091508190620008b2565b90607f1690620000ab565b600080fd5b60408051919082016001600160401b03811183821017620004d057604052565b6001600160a01b031660008181527f05b8ccbb9d4d8fb16ea74ce3c29a41f1b461fbdaff4714a0d9a8eb05499746bc602052604081205490919060ff166200098f5781805260056020526040822081835260205260408220600160ff198254161790553391600080516020620053d38339815191528180a4600190565b5090565b6001600160a01b031660008181527f15a28d26fa1bf736cf7edc9922607171ccb09c3c73b808e7772a3013e068a52260205260408120549091907f9f2df0fed2c77648de5860a4cc508cd0818c85b8b8a1ab4ceeef8d981c8956a69060ff1662000a315780835260056020526040832082845260205260408320600160ff19825416179055600080516020620053d3833981519152339380a4600190565b505090565b6001600160a01b031660008181527f847f481f687befb06ed3511f1a8dcef57e83007c0147ae5047583d705617093760205260408120549091907f3c11d16cbaffd01df69ce1c404f6340ee057498f5f00246190ea54220576a8489060ff1662000a315780835260056020526040832082845260205260408320600160ff19825416179055600080516020620053d3833981519152339380a4600190565b6001600160a01b031660008181527f9c71f34f6c28caec29a53b642f7d428de4506e0f57fa8c38507e64ce7bcfff1860205260408120549091907f442a94f1a1fac79af32856af2a64f63648cfa2ef3b98610a5bb7cbec4cee69859060ff1662000a315780835260056020526040832082845260205260408320600160ff19825416179055600080516020620053d3833981519152339380a460019056fe608080604052600436101561001357600080fd5b60003560e01c90816301ffc9a71461351357508063062d3bd7146134d857806306fdde031461342a578063095ea7b3146133a45780630ed460041461331357806318160ddd146132f55780631cccfe021461322f5780631ecfee0f146131c757806323b872dd146130ca578063248a9ca31461309b578063282c51f3146130605780632aceb53414612e425780632f2ff15d14612e03578063313ce56714612de757806333d7e2bd14612b4b57806336568abe14612b04578063372d6b2714612acd5780635c975abb14612aaa5780635e5c06e21461296e57806362970f9b1461284257806370a08231146102b6578063778b4671146124e75780637b4e54581461242257806388fc23c2146122ef57806391d14854146122a257806395d89b41146121bf578063a217fddf146121a3578063a9059cbb14611897578063bf5aa69514611397578063c2e7fa6c14610b58578063d20cf0e814610a5b578063d539139314610a20578063d547741f146109df578063dd62ed3e1461098e578063e401c9aa146108fd578063e67524a314610388578063f5453402146102f7578063f8b2cb4f146102b65763fc70c477146101cc57600080fd5b346102b15760203660031901126102b1576101e56135ae565b6014546001600160a01b03918216916000805b838110610281575061020990613b0d565b9260009160005b84811061022957604051806102258882613684565b0390f35b828261023483613aae565b50541614610245575b600101610210565b9261027960019161025e61025887613aae565b50613ba8565b610268828a613b94565b526102738189613b94565b50613afe565b93905061023d565b848361028c83613aae565b5054161461029d575b6001016101f8565b906102a9600191613afe565b919050610295565b600080fd5b346102b15760203660031901126102b15760206102ef6102d46135ae565b6001600160a01b031660009081526020819052604090205490565b604051908152f35b346102b15760003660031901126102b15760125461031481613a35565b61032160405191826137f1565b8181526020916020820160126000527fbb8a6a4669ba250d26cd7a459eca9d215f8307e33aebe50379bc5a3617ec3444936000915b83831061036b57604051806102258782613938565b60068260019261037a89613d5f565b815201960192019194610356565b346102b157610396366139f0565b3360009081527f15a28d26fa1bf736cf7edc9922607171ccb09c3c73b808e7772a3013e068a52260205260409020549091907f9f2df0fed2c77648de5860a4cc508cd0818c85b8b8a1ab4ceeef8d981c8956a69060ff16156108df57506103fb6147f2565b610403614810565b61040e811515613dcd565b8151156108a15760018060a01b038316600052600860205261043a60ff60086040600020015416613e3d565b6001600160a01b0383161561088857600254818101809111610872576002556001600160a01b038316600081815260208181526040808320805486019055518481527fddf252ad1be2c89b69c2b068fc378daa952ba7f163c4a11628f55a4df523b3ef9190a360018060a01b03831660005260086020526040600020924260038501556104e96104f0604051956104d08761379f565b6001600160a01b038416875260405192839182906138a2565b03826137f1565b60208501528160408501528260608501524260808501523360a0850152601254600160401b8110156107765780600161052c9201601255613d24565b94909461085c57805185546001600160a01b0319166001600160a01b039190911617855560208101518051906001600160401b0382116107765781906105756001890154613868565b601f8111610809575b50602090601f83116001146107975760009261078c575b50508160011b916000199060031b1c19161760018601555b6040810151600286015560608101519485516001600160401b038111610776576105da6003830154613868565b601f811161072f575b506020601f821160011461069b579080600593927f04133ee4cb027e1c5fce5e3481289278a93bd16a65a3b65b428a6d239e706bfb9899600092610690575b50508160011b916000199060031b1c19161760038201555b6080830151600482015560a090920151910180546001600160a01b0319166001600160a01b039283161790556040519116939091829161067d9142919084613e81565b0390a26001600755602060405160018152f35b015190508980610622565b6003830160005260206000209760005b601f19841681106107175750917f04133ee4cb027e1c5fce5e3481289278a93bd16a65a3b65b428a6d239e706bfb97986001926005959483601f198116106106fe575b505050811b01600382015561063a565b015160001960f88460031b161c191690558980806106ee565b828201518a55600190990198602092830192016106ab565b600383016000526020600020601f830160051c81016020841061076f575b601f830160051c820181106107635750506105e3565b6000815560010161074d565b508061074d565b634e487b7160e01b600052604160045260246000fd5b015190508780610595565b9250600188016000526020600020906000935b601f19841685106107ee576001945083601f198116106107d5575b505050811b0160018601556105ad565b015160001960f88460031b161c191690558780806107c5565b818101518355602094850194600190930192909101906107aa565b909150600188016000526020600020601f840160051c810160208510610855575b90849392915b601f830160051c8201811061084657505061057e565b60008155859450600101610830565b508061082a565b634e487b7160e01b600052600060045260246000fd5b634e487b7160e01b600052601160045260246000fd5b60405163ec442f0560e01b815260006004820152602490fd5b60405162461bcd60e51b815260206004820152601660248201527514995cd95c9d99481c1c9bdbd9881c995c5d5a5c995960521b6044820152606490fd5b6044906040519063e2517d3f60e01b82523360048301526024820152fd5b346102b15760003660031901126102b15760145461091a81613a35565b61092760405191826137f1565b8181526020916020820160146000527fce6d7b5282bd9a3661ae061feed1dbda4e52ab073b1f9285be6e155d9c38d4ec936000915b83831061097157604051806102258782613684565b60088260019261098089613ba8565b81520196019201919461095c565b346102b15760403660031901126102b1576109a76135ae565b6109af6135c4565b9060018060a01b038091166000526001602052604060002091166000526020526020604060002054604051908152f35b346102b15760403660031901126102b157610a1e6004356109fe6135c4565b90806000526005602052610a19600160406000200154613f8c565b614032565b005b346102b15760003660031901126102b15760206040517f9f2df0fed2c77648de5860a4cc508cd0818c85b8b8a1ab4ceeef8d981c8956a68152f35b346102b15760203660031901126102b157610a746135ae565b6014546001600160a01b039182166000805b838110610b095750610a9790613b0d565b9260009160005b848110610ab357604051806102258882613684565b8183610abe83613aae565b505416148015610af1575b610ad6575b600101610a9e565b92610ae960019161025e61025887613aae565b939050610ace565b5081836002610aff84613aae565b5001541614610ac9565b8285610b1483613aae565b505416148015610b40575b610b2c575b600101610a86565b90610b38600191613afe565b919050610b24565b5082856002610b4e84613aae565b5001541614610b1f565b346102b15760603660031901126102b1576004356001600160401b0381116102b157610b88903690600401613812565b6024356001600160401b0381116102b157610ba7903690600401613812565b906044356001600160401b0381116102b157610bc7903690600401613812565b33600052600860205260ff600860406000200154166113525781511561131c578251156112e55760405190610bfb82613768565b82825283602083015260006040830152426060830152604051610c1d816137d6565b600781526670656e64696e6760c81b60208201526080830152604051610c42816137d6565b60068152656d656469756d60d01b602082015260a083015260c08201524260e0820152600161010082015233600052600860205260406000209080518051906001600160401b038211610776578190610c9b8554613868565b601f8111611295575b50602090601f83116001146112295760009261121e575b50508160011b916000199060031b1c19161782555b60208101518051906001600160401b038211610776578190610cf56001860154613868565b601f81116111cb575b50602090601f83116001146111595760009261114e575b50508160011b916000199060031b1c19161760018301555b604081015160028301556060810151600383015560808101518051906001600160401b038211610776578190610d666004860154613868565b601f81116110fb575b50602090601f831160011461108e57600092611083575b50508160011b916000199060031b1c19161760048301555b60a08101518051906001600160401b038211610776578190610dc36005860154613868565b601f8111611030575b50602090601f8311600114610fc357600092610fb8575b50508160011b916000199060031b1c19161760058301555b6006820160c08201518051906001600160401b03821161077657610e1f8354613868565b601f8111610f70575b50602090601f8311600114610eea576000805160206148348339815191529694610e979484610ed2989560089561010095600092610edf575b50508160011b916000199060031b1c19161790555b60e081015160078501550151151591019060ff801983541691151516179055565b610ec26040518251610ead818360208701613566565b810190600a8252602081339303019020613e9e565b6040519182913395429184613ccd565b0390a26020604051338152f35b015190508c80610e61565b90601f198316918460005260206000209260005b818110610f58575094600185600895610100956000805160206148348339815191529c9a95610ed29c99610e979b10610f3f575b505050811b019055610e76565b015160001960f88460031b161c191690558c8080610f32565b92936020600181928786015181550195019301610efe565b836000526020600020601f840160051c81019160208510610fae575b601f0160051c01905b818110610fa25750610e28565b60008155600101610f95565b9091508190610f8c565b015190508680610de3565b600586016000908152602081209350601f198516905b8181106110185750908460019594939210610fff575b505050811b016005830155610dfb565b015160001960f88460031b161c19169055868080610fef565b92936020600181928786015181550195019301610fd9565b909150600585016000526020600020601f840160051c81016020851061107c575b90849392915b601f830160051c8201811061106d575050610dcc565b60008155859450600101611057565b5080611051565b015190508680610d86565b600486016000908152602081209350601f198516905b8181106110e357509084600195949392106110ca575b505050811b016004830155610d9e565b015160001960f88460031b161c191690558680806110ba565b929360206001819287860151815501950193016110a4565b909150600485016000526020600020601f840160051c810160208510611147575b90849392915b601f830160051c82018110611138575050610d6f565b60008155859450600101611122565b508061111c565b015190508680610d15565b9250600185016000526020600020906000935b601f19841685106111b0576001945083601f19811610611197575b505050811b016001830155610d2d565b015160001960f88460031b161c19169055868080611187565b8181015183556020948501946001909301929091019061116c565b909150600185016000526020600020601f840160051c810160208510611217575b90849392915b601f830160051c82018110611208575050610cfe565b600081558594506001016111f2565b50806111ec565b015190508680610cbb565b9250846000526020600020906000935b601f198416851061127a576001945083601f19811610611261575b505050811b018255610cd0565b015160001960f88460031b161c19169055868080611254565b81810151835560209485019460019093019290910190611239565b909150846000526020600020601f840160051c8101602085106112de575b90849392915b601f830160051c820181106112cf575050610ca4565b600081558594506001016112b9565b50806112b3565b60405162461bcd60e51b815260206004820152600f60248201526e155cd95c9259081c995c5d5a5c9959608a1b6044820152606490fd5b60405162461bcd60e51b815260206004820152600e60248201526d135cdc1259081c995c5d5a5c995960921b6044820152606490fd5b60405162461bcd60e51b815260206004820152601960248201527f57616c6c657420616c72656164792072656769737465726564000000000000006044820152606490fd5b346102b1576113a5366139f0565b3360009081527f847f481f687befb06ed3511f1a8dcef57e83007c0147ae5047583d70561709376020526040902054919290917f3c11d16cbaffd01df69ce1c404f6340ee057498f5f00246190ea54220576a8489060ff16156108df575061140b6147f2565b611413614810565b61141e831515613dcd565b60018060a01b0390818116600052600860205261144560ff60086040600020015416613e3d565b8181166000526000602052836040600020541061185b5781811615611842578181166000526000602052604060002054848110611813578490838316600052600060205203604060002055836002540360025560006040518581527fddf252ad1be2c89b69c2b068fc378daa952ba7f163c4a11628f55a4df523b3ef602085851692a381811660005260086020526040600020934260038601556104e9611503604051966114f288613784565b8585168852604051928380926138a2565b60208601908152816040870152846060870152426080870152601354600160401b8110156107765780600161153b9201601355613c92565b91909161085c57865182546001600160a01b031916908616178255518051906001600160401b0382116107765781906115776001850154613868565b601f81116117c0575b50602090601f831160011461174e57600092611743575b50508160011b916000199060031b1c19161760018201555b6040860151600282015560608601519586516001600160401b038111610776576115dc6003840154613868565b601f81116116fc575b506020601f82116001146116635761067d949392826004936080937fcdf267c1a9455e99c6cdd3aa34d4984f5128adb3662b30465d26f683406339989b9c600092611658575b50508160011b916000199060031b1c19161760038501555b01519101556040519384931695429184613e81565b015190508c8061162b565b601f198216986003850160005260206000209960005b8181106116e45750837fcdf267c1a9455e99c6cdd3aa34d4984f5128adb3662b30465d26f683406339989a9b60809461067d99989794600497600195106116cb575b505050811b016003850155611643565b015160001960f88460031b161c191690558c80806116bb565b838301518c556001909b019a60209384019301611679565b600384016000526020600020601f830160051c81016020841061173c575b601f830160051c820181106117305750506115e5565b6000815560010161171a565b508061171a565b015190508880611597565b9250600184016000526020600020906000935b601f19841685106117a5576001945083601f1981161061178c575b505050811b0160018201556115af565b015160001960f88460031b161c1916905588808061177c565b81810151835560209485019460019093019290910190611761565b909150600184016000526020600020601f840160051c81016020851061180c575b90849392915b601f830160051c820181106117fd575050611580565b600081558594506001016117e7565b50806117e1565b60405163391434e360e21b81526001600160a01b03929092166004830152602482015260448101849052606490fd5b604051634b637e8f60e11b815260006004820152602490fd5b60405162461bcd60e51b8152602060048201526014602482015273496e73756666696369656e742062616c616e636560601b6044820152606490fd5b346102b15760403660031901126102b1576118b06135ae565b6118b86147f2565b6118c0614810565b6118cd6024351515613dcd565b6001600160a01b038116331461215e573360005260088060205260ff81604060002001541615612121576001600160a01b038216600090815260208290526040902081015460ff16156120dc5733600052600060205260406000205481602052600260406000200154810390811161087257602435116120975760ff60115416611f8b575b61195f6024358333613ee0565b33600090815260209190915260408082204260038083018290556001600160a01b038616855293839020938401559051916104e9916119d6919083906119b7906119a8876137ba565b338752604051928380926138a2565b602085015260018060a01b0385166040850152604051928380926138a2565b606082015260243560808201526040518060208101106001600160401b0360208301111761077657602081016040526000815260a08201524260c0820152604051611a20816137d6565b60078152661a5b9cdd185b9d60ca1b602082015260e0820152601454600160401b81101561077657806001611a589201601455613aae565b91909161085c57805182546001600160a01b0319166001600160a01b0391909116178255602081015180519093906001600160401b03811161077657611aa16001850154613868565b601f8111611f44575b506020601f8211600114611ed5578192939495600092611eca575b50508160011b916000199060031b1c19161760018401555b6002830160018060a01b036040840151166001600160601b0360a01b82541617905560608201519283516001600160401b03811161077657611b226003830154613868565b601f8111611e83575b506020601f8211600114611e14578192939495600092611e09575b50508160011b916000199060031b1c19161760038201555b6080830151600482015560a08301518051906001600160401b03821161077657611b8b6005840154613868565b601f8111611dc2575b50602090601f8311600114611d4d57918060e09492600794600092611d42575b50508160011b916000199060031b1c19161760058201555b60c08501516006820155019201519182516001600160401b03811161077657611bf58254613868565b601f8111611cfa575b506020601f8211600114611c945781929394600092611c89575b50508160011b916000199060031b1c19161790555b604051906024358252606060208301526000606083015242604083015260018060a01b0316907f7cb24ad5253d1c44678f7c5fe51284b627a23cf84e58e1dbc560c11ff305b8dc60803392a36001600755602060405160018152f35b015190508480611c18565b601f198216908360005260206000209160005b818110611ce257509583600195969710611cc9575b505050811b019055611c2d565b015160001960f88460031b161c19169055848080611cbc565b9192602060018192868b015181550194019201611ca7565b826000526020600020601f830160051c81019160208410611d38575b601f0160051c01905b818110611d2c5750611bfe565b60008155600101611d1f565b9091508190611d16565b015190508780611bb4565b906005840160005260206000209160005b601f1985168110611daa57509260e0949260019260079583601f19811610611d91575b505050811b016005820155611bcc565b015160001960f88460031b161c19169055878080611d81565b91926020600181928685015181550194019201611d5e565b600584016000526020600020601f840160051c810160208510611e02575b601f830160051c82018110611df6575050611b94565b60008155600101611de0565b5080611de0565b015190508580611b46565b6003830160005260206000209060005b601f1984168110611e6b575060019394959683601f19811610611e52575b505050811b016003820155611b5e565b015160001960f88460031b161c19169055858080611e42565b9091602060018192858b015181550193019101611e24565b600383016000526020600020601f830160051c810160208410611ec3575b601f830160051c82018110611eb7575050611b2b565b60008155600101611ea1565b5080611ea1565b015190508580611ac5565b6001850160005260206000209060005b601f1984168110611f2c575060019394959683601f19811610611f13575b505050811b016001840155611add565b015160001960f88460031b161c19169055858080611f03565b9091602060018192858b015181550193019101611ee5565b600185016000526020600020601f830160051c810160208410611f84575b601f830160051c82018110611f78575050611aaa565b60008155600101611f62565b5080611f62565b33600052806020526104e9611fad6004604060002001604051928380926138a2565b60208151910120611fbc613e19565b60208151910120036120525760018060a01b038216600052806020526104e9611ff26004604060002001604051928380926138a2565b60208151910120612001613e19565b60208151910120146119525760405162461bcd60e51b815260206004820152601a60248201527f526563697069656e74204b5943206e6f7420617070726f7665640000000000006044820152606490fd5b60405162461bcd60e51b815260206004820152601760248201527f53656e646572204b5943206e6f7420617070726f7665640000000000000000006044820152606490fd5b60405162461bcd60e51b815260206004820152601d60248201527f496e73756666696369656e7420756e66726f7a656e2062616c616e63650000006044820152606490fd5b60405162461bcd60e51b815260206004820152601860248201527f526563697069656e74206e6f74207265676973746572656400000000000000006044820152606490fd5b60405162461bcd60e51b815260206004820152601560248201527414d95b99195c881b9bdd081c9959da5cdd195c9959605a1b6044820152606490fd5b60405162461bcd60e51b815260206004820152601b60248201527f43616e6e6f74207472616e7366657220746f20796f757273656c6600000000006044820152606490fd5b346102b15760003660031901126102b157602060405160008152f35b346102b15760003660031901126102b1576040516004546000826121e283613868565b9182825260209360019085600182169182600014612282575050600114612225575b50612211925003836137f1565b610225604051928284938452830190613589565b84915060046000527f8a35acfbc15ff81a39ae7d344fd709f28e8600b4aa8c65c6b64bfe7fe36bd19b906000915b85831061226a575050612211935082010185612204565b80548389018501528794508693909201918101612253565b60ff19168582015261221195151560051b85010192508791506122049050565b346102b15760403660031901126102b1576122bb6135c4565b600435600052600560205260406000209060018060a01b0316600052602052602060ff604060002054166040519015158152f35b346102b1576020806003193601126102b1576123096135ae565b60125460009290916001600160a01b039190821690845b8481106123f2575061233185613a35565b9461233f60405196876137f1565b80865261234e601f1991613a35565b0160005b8181106123b45750505060009160005b84811061237757604051806102258882613938565b828261238283613d24565b50541614612393575b600101612362565b926123ac60019161025e6123a687613d24565b50613d5f565b93905061238b565b82906040516123c28161379f565b6000815260608084830152600060408301528082015260006080820152600060a082015282828a01015201612352565b82846123fd83613d24565b5054161461240e575b600101612320565b9461241a600191613afe565b959050612406565b346102b15760003660031901126102b1573360009081527f05b8ccbb9d4d8fb16ea74ce3c29a41f1b461fbdaff4714a0d9a8eb05499746bc602052604090205460ff16156124c85761249e604051612479816137d6565b600a815269053756e776573744d53560b41b6020820152612498613cfb565b906140a9565b610a1e6040516124ad816137d6565b600681526504643494d53560d41b6020820152612498613cfb565b60405163e2517d3f60e01b815233600482015260006024820152604490fd5b346102b15760603660031901126102b1576125006135ae565b6001600160401b036024358181116102b157612520903690600401613812565b916044358281116102b157612539903690600401613812565b3360009081527f9c71f34f6c28caec29a53b642f7d428de4506e0f57fa8c38507e64ce7bcfff18602090815260409091205490946005939092917f442a94f1a1fac79af32856af2a64f63648cfa2ef3b98610a5bb7cbec4cee69859060ff16156108df575060018060a01b03169283600052600886526125c360ff60086040600020015416613c4d565b83600052600886526004604060002001835190868211610776576125e78154613868565b91601f92838111612801575b50808984821160011461279e57600091612793575b508160011b916000199060031b1c19161790555b8460005260088752816040600020019183519687116107765761263f8354613868565b90828211612756575b5050869086116001146126d05794807f7adf7c11246ea2d9ffd628fe62199493e5b802955d4ab15cef216ff1f2d4678e95966000916126c5575b508160011b916000199060031b1c19161790555b8360005260088552426003604060002001556126b9604051928392429184613ccd565b0390a260405160018152f35b905083015188612682565b601f1986169082600052876000209160005b898282106127405750509187917f7adf7c11246ea2d9ffd628fe62199493e5b802955d4ab15cef216ff1f2d4678e979860019410612727575b5050811b019055612696565b85015160001960f88460031b161c19169055888061271b565b60018495829395890151815501940192016126e2565b83600052886000209083808a01821c8301938b8b1061278a575b01901c01905b818110156126485760008155600101612776565b93508293612770565b90508601518a612608565b60008481528b81209250601f198416905b8c8282106127eb57505090836001949392106127d2575b5050811b01905561261c565b88015160001960f88460031b161c191690558a806127c6565b600184958293958d0151815501940192016127af565b826000528960002084808401871c8201928c8510612839575b01861c01905b81811061282d57506125f3565b60008155600101612820565b9250819261281a565b346102b1576020806003193601126102b15761285c6135ae565b60135460009290916001600160a01b039190821690845b84811061293e575061288485613a35565b9461289260405196876137f1565b8086526128a1601f1991613a35565b0160005b8181106129075750505060009160005b8481106128ca576040518061022588826135da565b82826128d583613c92565b505416146128e6575b6001016128b5565b926128ff60019161025e6128f987613c92565b50613a4c565b9390506128de565b829060405161291581613784565b600081526060808483015260006040830152808201526000608082015282828a010152016128a5565b828461294983613c92565b5054161461295a575b600101612873565b94612966600191613afe565b959050612952565b346102b15760203660031901126102b1576001600160a01b0361298f6135ae565b166000526008602052612a566040600020604051906129b9826129b281846138a2565b03836137f1565b6040516129cd816104e981600186016138a2565b612a986006612a8a6005612a7c6002870154600460038901546129fa8a6129b260405180958193016138a2565b612a158a612a0e60405180988193016138a2565b03866137f1565b612a308a612a29604051809a8193016138a2565b03886137f1565b612a6460ff600860078d01549c015416996040519d8e9d8e610120908181520190613589565b8d810360208f015290613589565b9260408c015260608b015289820360808b0152613589565b9087820360a0890152613589565b9085820360c0870152613589565b9160e084015215156101008301520390f35b346102b15760003660031901126102b157602060ff600654166040519015158152f35b346102b15760003660031901126102b157608060125460135460145460025491604051938452602084015260408301526060820152f35b346102b15760403660031901126102b157612b1d6135c4565b336001600160a01b03821603612b3957610a1e90600435614032565b60405163334bd91960e11b8152600490fd5b346102b15760003660031901126102b157604051600090600b54612b6e81613868565b8083528260209485926001948581169081600014612dc95750600114612d6d575b50612b9c925003836137f1565b6040519083826000600c54612bb081613868565b80845290858116908115612d4f5750600114612cf3575b50612bd4925003836137f1565b600d5490600e5460ff600f5416906040519260009060105490612bf682613868565b80875291818116908115612cd35750600114612c7c575b505090612c51612c4498612c2986612c709897969503866137f1565b60ff60115416976040519a8b9a60e08c5260e08c0190613589565b918a8303908b0152613589565b93604088015260608701521515608086015284820360a0860152613589565b90151560c08301520390f35b6010600090815292507f1b6847dc741a1b0cd08d278845f9d819d87b734759afb55fe2de5cb82a9ae6725b828410612cc05750505083018701612c51612c44612c0d565b80548785018c0152928a01928101612ca7565b60ff19168b8801525050151560051b840188019050612c51612c44612c0d565b600c60009081529150847fdf6966c971051c3d54ec59162606531493a51404a002842f56009d7e5cf4a8c75b828410612d385750505091612bd4928201018692612bc7565b805488850187015287945092850192869101612d1f565b60ff19168486015250879390151560051b8301019050612bd4612bc7565b600b60009081529150847f0175b7a638427703f0dbe7bb9bbf987a2551717b34e79f33b5b1008d1fa01db95b828410612db25750505091612b9c928201018592612b8f565b805488850187015287945092850192869101612d99565b60ff19168486015250869390151560051b8301019050612b9c612b8f565b346102b15760003660031901126102b157602060405160128152f35b346102b15760403660031901126102b157610a1e600435612e226135c4565b90806000526005602052612e3d600160406000200154613f8c565b613fb2565b346102b1576020806003193601126102b157612e5c6135ae565b9060405190612e6a82613768565b60609283835283828401526040830160009052838301600090528360808401528360a08401528360c084015260e083016000905261010080930160009052600160a01b6001900316806000526008825260406000206008015460ff16612ecf90613c4d565b6000526008815260406000209060405192612ee984613768565b60405180612ef781866138a2565b03612f0290826137f1565b84526040519081612f1681600187016138a2565b03612f2190836137f1565b848301918252600284015460408087019182526003860154888801908152905190939181612f528160048a016138a2565b03612f5d90836137f1565b608088019182526040519081612f768160058b016138a2565b03612f8190836137f1565b60a089019182526040519283612f9a8160068c016138a2565b03612fa590856137f1565b60c08a0193845260078901549860e08b01998a526008015460ff1696868b0197151588526040519b8c9b8a8d52518c6101209b8c9101526101408d01612fea91613589565b9651601f198d8903810160408f01529761300391613589565b9351908c01525160808b01525190848a82030160a08b015261302491613589565b905190838982030160c08a015261303a91613589565b9051918782030160e088015261304f91613589565b935190850152511515908301520390f35b346102b15760003660031901126102b15760206040517f3c11d16cbaffd01df69ce1c404f6340ee057498f5f00246190ea54220576a8488152f35b346102b15760203660031901126102b15760043560005260056020526020600160406000200154604051908152f35b346102b15760603660031901126102b1576130e36135ae565b6130eb6135c4565b6001600160a01b03821660008181526001602090815260408083203384529091529020549260443592916000198510613135575b5061312a9350613ee0565b602060405160018152f35b8385106131a157801561318857331561316f5761312a9484916000526001602052604060002033600052602052036040600020558461311f565b604051634a1406b160e11b815260006004820152602490fd5b60405163e602df0560e01b815260006004820152602490fd5b604051637dc7a0d960e11b81523360048201526024810186905260448101859052606490fd5b346102b15760203660031901126102b1576004356001600160401b0381116102b1576131f96020913690600401613812565b8161320d6040519283815193849201613566565b600990820190815281900382019020546040516001600160a01b039091168152f35b346102b15760203660031901126102b1576132486135ae565b6014546001600160a01b03918216916000805b8381106132c2575061326c90613b0d565b9260009160005b84811061328857604051806102258882613684565b8282600261329584613aae565b50015416146132a7575b600101613273565b926132ba60019161025e61025887613aae565b93905061329f565b848360026132cf84613aae565b50015416146132e1575b60010161325b565b906132ed600191613afe565b9190506132d9565b346102b15760003660031901126102b1576020600254604051908152f35b346102b15760003660031901126102b15760135461333081613a35565b61333d60405191826137f1565b8181526020916020820160136000527f66de8ffda797e3de9c05e8fc57b3bf0ec28a930d40b0d285d93c06501cf6a090936000915b838310613387576040518061022587826135da565b60058260019261339689613a4c565b815201960192019194613372565b346102b15760403660031901126102b1576133bd6135ae565b602435903315613188576001600160a01b031690811561316f57336000526001602052604060002082600052602052806040600020556040519081527f8c5be1e5ebec7d5bd14f71427d1e84f3dd0314c0f7b2291e5b200ac8c7c3b92560203392a3602060405160018152f35b346102b15760003660031901126102b15760405160035460008261344d83613868565b918282526020936001908560018216918260001461228257505060011461347b5750612211925003836137f1565b84915060036000527fc2575a0e9e593c00f959f8c92f12db2869c3395a3b0502d05e2516446f71f85b906000915b8583106134c0575050612211935082010185612204565b805483890185015287945086939092019181016134a9565b346102b15760003660031901126102b15760206040517f442a94f1a1fac79af32856af2a64f63648cfa2ef3b98610a5bb7cbec4cee69858152f35b346102b15760203660031901126102b1576004359063ffffffff60e01b82168092036102b157602091637965db0b60e01b8114908115613555575b5015158152f35b6301ffc9a760e01b1490508361354e565b60005b8381106135795750506000910152565b8181015183820152602001613569565b906020916135a281518092818552858086019101613566565b601f01601f1916010190565b600435906001600160a01b03821682036102b157565b602435906001600160a01b03821682036102b157565b6020808201908083528351809252604092604081018260408560051b8401019601946000925b858410613611575050505050505090565b909192939495968580600192603f198582030187528a519061366961364e60a0878060a01b03855116845285850151908087860152840190613589565b88840151898401526060808501519084830390850152613589565b91608080910151910152990194019401929594939190613600565b6020808201908083528351809252604092604081018260408560051b8401019601946000925b8584106136bb575050505050505090565b909192939495968580613757600193603f198682030188528b5161373a61371d610100613700898060a01b03918286511687528886015190808a890152870190613589565b908b850151168b8601526060808501519086830390870152613589565b6080808401519085015260a0808401519085830390860152613589565b9160c0808301519082015260e08092015191818403910152613589565b9901940194019295949391906136aa565b61012081019081106001600160401b0382111761077657604052565b60a081019081106001600160401b0382111761077657604052565b60c081019081106001600160401b0382111761077657604052565b61010081019081106001600160401b0382111761077657604052565b604081019081106001600160401b0382111761077657604052565b90601f801991011681019081106001600160401b0382111761077657604052565b81601f820112156102b1578035906001600160401b0382116107765760405192613846601f8401601f1916602001856137f1565b828452602083830101116102b157816000926020809301838601378301015290565b90600182811c92168015613898575b602083101461388257565b634e487b7160e01b600052602260045260246000fd5b91607f1691613877565b8054600093926138b182613868565b9182825260209360019160018116908160001461391957506001146138d8575b5050505050565b90939495506000929192528360002092846000945b838610613905575050505001019038808080806138d1565b8054858701830152940193859082016138ed565b60ff19168685015250505090151560051b0101915038808080806138d1565b6020808201908083528351809252604092604081018260408560051b8401019601946000925b85841061396f575050505050505090565b909192939495968580600192603f198582030187528a519060c0916139ca6139af878060a01b039485845116855286840151908088870152850190613589565b898301518a8501526060808401519085830390860152613589565b926080808301519084015260a0809201511691015299019401940192959493919061395e565b60606003198201126102b1576004356001600160a01b03811681036102b1579160243591604435906001600160401b0382116102b157613a3291600401613812565b90565b6001600160401b0381116107765760051b60200190565b90604051613a5981613784565b60806004829460018060a01b038154168452604051613a7f816104e981600186016138a2565b602085015260028101546040850152604051613aa2816104e981600386016138a2565b60608501520154910152565b601454811015613ae857601460005260031b7fce6d7b5282bd9a3661ae061feed1dbda4e52ab073b1f9285be6e155d9c38d4ec0190600090565b634e487b7160e01b600052603260045260246000fd5b60001981146108725760010190565b90613b1782613a35565b604090613b2760405191826137f1565b8381528093613b38601f1991613a35565b019160005b838110613b4a5750505050565b6020908251613b58816137ba565b600081526060839080828401526000868401528080840152600060808401528060a0840152600060c084015260e0830152828601015201613b3d565b8051821015613ae85760209160051b010190565b90600760e0604093613c49855191613bbf836137ba565b613c42839760018060a01b038084541686528151613be4816104e981600189016138a2565b6020870152600284015416818601528051613c06816104e981600388016138a2565b6060860152600483015460808601528051613c28816104e981600588016138a2565b60a0860152600683015460c08601525180968193016138a2565b03846137f1565b0152565b15613c5457565b60405162461bcd60e51b81526020600482015260166024820152751058d8dbdd5b9d08191bd95cc81b9bdd08195e1a5cdd60521b6044820152606490fd5b601354811015613ae8576005906013600052027f66de8ffda797e3de9c05e8fc57b3bf0ec28a930d40b0d285d93c06501cf6a0900190600090565b939291613cf690613ce8604093606088526060880190613589565b908682036020880152613589565b930152565b60405190613d08826137d6565b600d82526c1a5b9cdd1a5d1d5d1a5bdb985b609a1b6020830152565b601254811015613ae8576006906012600052027fbb8a6a4669ba250d26cd7a459eca9d215f8307e33aebe50379bc5a3617ec34440190600090565b90604051613d6c8161379f565b60a081936005600180841b0391828154168552604051613d93816104e981600186016138a2565b602086015260028101546040860152604051613db6816104e981600386016138a2565b606086015260048101546080860152015416910152565b15613dd457565b60405162461bcd60e51b815260206004820152601760248201527f416d6f756e74206d75737420626520706f7369746976650000000000000000006044820152606490fd5b60405190613e26826137d6565b6008825267185c1c1c9bdd995960c21b6020830152565b15613e4457565b60405162461bcd60e51b815260206004820152601560248201527415d85b1b195d081b9bdd081c9959da5cdd195c9959605a1b6044820152606490fd5b939291613cf6906040928652606060208701526060860190613589565b805490600160401b8210156107765760018201808255821015613ae8576000526020600020019060018060a01b03166001600160601b0360a01b825416179055565b916001600160a01b0380841692831561184257169283156108885760009083825281602052604082205490838210613f5a575091604082827fddf252ad1be2c89b69c2b068fc378daa952ba7f163c4a11628f55a4df523b3ef958760209652828652038282205586815220818154019055604051908152a3565b60405163391434e360e21b81526001600160a01b03919091166004820152602481019190915260448101839052606490fd5b80600052600560205260406000203360005260205260ff60406000205416156108df5750565b906000918083526005602052604083209160018060a01b03169182845260205260ff6040842054161560001461402d5780835260056020526040832082845260205260408320600160ff198254161790557f2f8788117e7eff1d82e926ec794901d17c78024a50270940304540a733656f0d339380a4600190565b505090565b906000918083526005602052604083209160018060a01b03169182845260205260ff60408420541660001461402d578083526005602052604083208284526020526040832060ff1981541690557ff6391f5c32d9c69d2a47ea670b442974b53935d1edc7fd64eb21e047a839171b339380a4600190565b604051602081016140d260208385516140c58186858a01613566565b81010380855201836137f1565b905190206040516001600160a01b03909116926140ee82613768565b8282528260208301526000604083015242606083015261410c613e19565b608083015260405161411d816137d6565b60038152626c6f7760e81b602082015260a083015260c08201524260e0820152600161010082015282600052600860205260406000209080518051906001600160401b0382116107765781906141738554613868565b601f81116147a2575b50602090601f83116001146147365760009261472b575b50508160011b916000199060031b1c19161782555b60208101518051906001600160401b0382116107765781906141cd6001860154613868565b601f81116146d8575b50602090601f83116001146146665760009261465b575b50508160011b916000199060031b1c19161760018301555b604081015160028301556060810151600383015560808101518051906001600160401b03821161077657819061423e6004860154613868565b601f8111614608575b50602090601f83116001146145965760009261458b575b50508160011b916000199060031b1c19161760048301555b60a08101518051906001600160401b03821161077657819061429b6005860154613868565b601f8111614538575b50602090601f83116001146144c6576000926144bb575b50508160011b916000199060031b1c19161760058301555b60c08101518051906001600160401b038211610776576142f66006850154613868565b601f8111614474575b50602090601f83116001146143e75761010060008051602061483483398151915296948461436f956143d798956008956000926143dc575b50508160011b916000199060031b1c191617600685015560e081015160078501550151151591019060ff801983541691151516179055565b60405160208183516143848183858801613566565b81016009815203019020846001600160601b0360a01b8254161790556143c88460405160208185516143b98183858a01613566565b8101600a815203019020613e9e565b60405191829142908084613ccd565b0390a2565b015190503880614337565b906006850160005260206000209160005b601f198516811061445c575060008051602061483483398151915296946001856143d798956008956101009561436f99601f19811610614443575b505050811b016006850155610e76565b015160001960f88460031b161c19169055388080614433565b919260206001819286850151815501940192016143f8565b600685016000526020600020601f840160051c8101602085106144b4575b601f830160051c820181106144a85750506142ff565b60008155600101614492565b5080614492565b0151905038806142bb565b9250600585016000526020600020906000935b601f198416851061451d576001945083601f19811610614504575b505050811b0160058301556142d3565b015160001960f88460031b161c191690553880806144f4565b818101518355602094850194600190930192909101906144d9565b909150600585016000526020600020601f840160051c810160208510614584575b90849392915b601f830160051c820181106145755750506142a4565b6000815585945060010161455f565b5080614559565b01519050388061425e565b9250600485016000526020600020906000935b601f19841685106145ed576001945083601f198116106145d4575b505050811b016004830155614276565b015160001960f88460031b161c191690553880806145c4565b818101518355602094850194600190930192909101906145a9565b909150600485016000526020600020601f840160051c810160208510614654575b90849392915b601f830160051c82018110614645575050614247565b6000815585945060010161462f565b5080614629565b0151905038806141ed565b9250600185016000526020600020906000935b601f19841685106146bd576001945083601f198116106146a4575b505050811b016001830155614205565b015160001960f88460031b161c19169055388080614694565b81810151835560209485019460019093019290910190614679565b909150600185016000526020600020601f840160051c810160208510614724575b90849392915b601f830160051c820181106147155750506141d6565b600081558594506001016146ff565b50806146f9565b015190503880614193565b9250846000526020600020906000935b601f1984168510614787576001945083601f1981161061476e575b505050811b0182556141a8565b015160001960f88460031b161c19169055388080614761565b81810151835560209485019460019093019290910190614746565b909150846000526020600020601f840160051c8101602085106147eb575b90849392915b601f830160051c820181106147dc57505061417c565b600081558594506001016147c6565b50806147c0565b60ff600654166147fe57565b60405163d93c066560e01b8152600490fd5b600260075414614821576002600755565b604051633ee5aeb560e01b8152600490fdfe1b0798bd58b2133b10fd6f3ff5c87c85e0d538641ced1ae7abd256c82625811da164736f6c6343000818000a2f8788117e7eff1d82e926ec794901d17c78024a50270940304540a733656f0d1b6847dc741a1b0cd08d278845f9d819d87b734759afb55fe2de5cb82a9ae672",
  "linkReferences": {},
  "deployedLinkReferences": {}
}