{
  "_format": "hh-sol-artifact-1",
  "contractName": "USFCI",
  "sourceName": "src/USFCI.sol",
  "abi": [
    {
      "inputs": [
        {
          "internalType": "address",
          "name": "initialOwner",
          "type": "address"
        }
      ],
      "stateMutability": "nonpayable",
      "type": "constructor"
    },
    {
      "inputs": [],
      "name": "AccessControlBadConfirmation",
      "type": "error"
    },
    {
      "inputs": [
        {
          "internalType": "address",
          "name": "account",
          "type": "address"
        },
        {
          "internalType": "bytes32",
          "name": "neededRole",
          "type": "bytes32"
        }
      ],
      "name": "AccessControlUnauthorizedAccount",
      "type": "error"
    },
    {
      "inputs": [
        {
          "internalType": "address",
          "name": "spender",
          "type": "address"
        },
        {
          "internalType": "uint256",
          "name": "allowance",
          "type": "uint256"
        },
        {
          "internalType": "uint256",
          "name": "needed",
          "type": "uint256"
        }
      ],
      "name": "ERC20InsufficientAllowance",
      "type": "error"
    },
    {
      "inputs": [
        {
          "internalType": "address",
          "name": "sender",
          "type": "address"
        },
        {
          "internalType": "uint256",
          "name": "balance",
          "type": "uint256"
        },
        {
          "internalType": "uint256",
          "name": "needed",
          "type": "uint256"
        }
      ],
      "name": "ERC20InsufficientBalance",
      "type": "error"
    },
    {
      "inputs": [
        {
          "internalType": "address",
          "name": "approver",
          "type": "address"
        }
      ],
      "name": "ERC20InvalidApprover",
      "type": "error"
    },
    {
      "inputs": [
        {
          "internalType": "address",
          "name": "receiver",
          "type": "address"
        }
      ],
      "name": "ERC20InvalidReceiver",
      "type": "error"
    },
    {
      "inputs": [
        {
          "internalType": "address",
          "name": "sender",
          "type": "address"
        }
      ],
      "name": "ERC20InvalidSender",
      "type": "error"
    },
    {
      "inputs": [
        {
          "internalType": "address",
          "name": "spender",
          "type": "address"
        }
      ],
      "name": "ERC20InvalidSpender",
      "type": "error"
    },
    {
      "inputs": [],
      "name": "EnforcedPause",
      "type": "error"
    },
    {
      "inputs": [],
      "name": "ExpectedPause",
      "type": "error"
    },
    {
      "inputs": [],
      "name": "ReentrancyGuardReentrantCall",
      "type": "error"
    },
    {
      "anonymous": false,
      "inputs": [
        {
          "indexed": true,
          "internalType": "address",
          "name": "owner",
          "type": "address"
        },
        {
          "indexed": true,
          "internalType": "address",
          "name": "spender",
          "type": "address"
        },
        {
          "indexed": false,
          "internalType": "uint256",
          "name": "value",
          "type": "uint256"
        }
      ],
      "name": "Approval",
      "type": "event"
    },
    {
      "anonymous": false,
      "inputs": [
        {
          "indexed": true,
          "internalType": "address",
          "name": "walletAddress",
          "type": "address"
        },
        {
          "indexed": false,
          "internalType": "string",
          "name": "kycStatus",
          "type": "string"
        },
        {
          "indexed": false,
          "internalType": "string",
          "name": "riskScore",
          "type": "string"
        },
        {
          "indexed": false,
          "internalType": "uint256",
          "name": "timestamp",
          "type": "uint256"
        }
      ],
      "name": "ComplianceUpdated",
      "type": "event"
    },
    {
      "anonymous": false,
      "inputs": [
        {
          "indexed": false,
          "internalType": "address",
          "name": "account",
          "type": "address"
        }
      ],
      "name": "Paused",
      "type": "event"
    },
    {
      "anonymous": false,
      "inputs": [
        {
          "indexed": true,
          "internalType": "bytes32",
          "name": "role",
          "type": "bytes32"
        },
        {
          "indexed": true,
          "internalType": "bytes32",
          "name": "previousAdminRole",
          "type": "bytes32"
        },
        {
          "indexed": true,
          "internalType": "bytes32",
          "name": "newAdminRole",
          "type": "bytes32"
        }
      ],
      "name": "RoleAdminChanged",
      "type": "event"
    },
    {
      "anonymous": false,
      "inputs": [
        {
          "indexed": true,
          "internalType": "bytes32",
          "name": "role",
          "type": "bytes32"
        },
        {
          "indexed": true,
          "internalType": "address",
          "name": "account",
          "type": "address"
        },
        {
          "indexed": true,
          "internalType": "address",
          "name": "sender",
          "type": "address"
        }
      ],
      "name": "RoleGranted",
      "type": "event"
    },
    {
      "anonymous": false,
      "inputs": [
        {
          "indexed": true,
          "internalType": "bytes32",
          "name": "role",
          "type": "bytes32"
        },
        {
          "indexed": true,
          "internalType": "address",
          "name": "account",
          "type": "address"
        },
        {
          "indexed": true,
          "internalType": "address",
          "name": "sender",
          "type": "address"
        }
      ],
      "name": "RoleRevoked",
      "type": "event"
    },
    {
      "anonymous": false,
      "inputs": [
        {
          "indexed": true,
          "internalType": "address",
          "name": "burner",
          "type": "address"
        },
        {
          "indexed": false,
          "internalType": "uint256",
          "name": "amount",
          "type": "uint256"
        },
        {
          "indexed": false,
          "internalType": "string",
          "name": "reason",
          "type": "string"
        },
        {
          "indexed": false,
          "internalType": "uint256",
          "name": "timestamp",
          "type": "uint256"
        }
      ],
      "name": "TokensBurned",
      "type": "event"
    },
    {
      "anonymous": false,
      "inputs": [
        {
          "indexed": true,
          "internalType": "address",
          "name": "recipient",
          "type": "address"
        },
        {
          "indexed": false,
          "internalType": "uint256",
          "name": "amount",
          "type": "uint256"
        },
        {
          "indexed": false,
          "internalType": "string",
          "name": "reserveProof",
          "type": "string"
        },
        {
          "indexed": false,
          "internalType": "uint256",
          "name": "timestamp",
          "type": "uint256"
        }
      ],
      "name": "TokensMinted",
      "type": "event"
    },
    {
      "anonymous": false,
      "inputs": [
        {
          "indexed": true,
          "internalType": "address",
          "name": "sender",
          "type": "address"
        },
        {
          "indexed": true,
          "internalType": "address",
          "name": "recipient",
          "type": "address"
        },
        {
          "indexed": false,
          "internalType": "uint256",
          "name": "amount",
          "type": "uint256"
        },
        {
          "indexed": false,
          "internalType": "string",
          "name": "metadata",
          "type": "string"
        },
        {
          "indexed": false,
          "internalType": "uint256",
          "name": "timestamp",
          "type": "uint256"
        }
      ],
      "name": "TokensTransferred",
      "type": "event"
    },
    {
      "anonymous": false,
      "inputs": [
        {
          "indexed": true,
          "internalType": "address",
          "name": "from",
          "type": "address"
        },
        {
          "indexed": true,
          "internalType": "address",
          "name": "to",
          "type": "address"
        },
        {
          "indexed": false,
          "internalType": "uint256",
          "name": "value",
          "type": "uint256"
        }
      ],
      "name": "Transfer",
      "type": "event"
    },
    {
      "anonymous": false,
      "inputs": [
        {
          "indexed": false,
          "internalType": "address",
          "name": "account",
          "type": "address"
        }
      ],
      "name": "Unpaused",
      "type": "event"
    },
    {
      "anonymous": false,
      "inputs": [
        {
          "indexed": true,
          "internalType": "address",
          "name": "walletAddress",
          "type": "address"
        },
        {
          "indexed": false,
          "internalType": "string",
          "name": "mspId",
          "type": "string"
        },
        {
          "indexed": false,
          "internalType": "string",
          "name": "userId",
          "type": "string"
        },
        {
          "indexed": false,
          "internalType": "uint256",
          "name": "timestamp",
          "type": "uint256"
        }
      ],
      "name": "WalletRegistered",
      "type": "event"
    },
    {
      "inputs": [],
      "name": "BURNER_ROLE",
      "outputs": [
        {
          "internalType": "bytes32",
          "name": "",
          "type": "bytes32"
        }
      ],
      "stateMutability": "view",
      "type": "function"
    },
    {
      "inputs": [],
      "name": "COMPLIANCE_ROLE",
      "outputs": [
        {
          "internalType": "bytes32",
          "name": "",
          "type": "bytes32"
        }
      ],
      "stateMutability": "view",
      "type": "function"
    },
    {
      "inputs": [],
      "name": "DEFAULT_ADMIN_ROLE",
      "outputs": [
        {
          "internalType": "bytes32",
          "name": "",
          "type": "bytes32"
        }
      ],
      "stateMutability": "view",
      "type": "function"
    },
    {
      "inputs": [],
      "name": "MINTER_ROLE",
      "outputs": [
        {
          "internalType": "bytes32",
          "name": "",
          "type": "bytes32"
        }
      ],
      "stateMutability": "view",
      "type": "function"
    },
    {
      "inputs": [
        {
          "internalType": "address",
          "name": "",
          "type": "address"
        }
      ],
      "name": "accounts",
      "outputs": [
        {
          "internalType": "string",
          "name": "mspId",
          "type": "string"
        },
        {
          "internalType": "string",
          "name": "userId",
          "type": "string"
        },
        {
          "internalType": "uint256",
          "name": "frozenBalance",
          "type": "uint256"
        },
        {
          "internalType": "uint256",
          "name": "lastActivity",
          "type": "uint256"
        },
        {
          "internalType": "string",
          "name": "kycStatus",
          "type": "string"
        },
        {
          "internalType": "string",
          "name": "riskScore",
          "type": "string"
        },
        {
          "internalType": "string",
          "name": "accountType",
          "type": "string"
        },
        {
          "internalType": "uint256",
          "name": "createdAt",
          "type": "uint256"
        },
        {
          "internalType": "bool",
          "name": "exists",
          "type": "bool"
        }
      ],
      "stateMutability": "view",
      "type": "function"
    },
    {
      "inputs": [
        {
          "internalType": "address",
          "name": "owner",
          "type": "address"
        },
        {
          "internalType": "address",
          "name": "spender",
          "type": "address"
        }
      ],
      "name": "allowance",
      "outputs": [
        {
          "internalType": "uint256",
          "name": "",
          "type": "uint256"
        }
      ],
      "stateMutability": "view",
      "type": "function"
    },
    {
      "inputs": [
        {
          "internalType": "address",
          "name": "spender",
          "type": "address"
        },
        {
          "internalType": "uint256",
          "name": "value",
          "type": "uint256"
        }
      ],
      "name": "approve",
      "outputs": [
        {
          "internalType": "bool",
          "name": "",
          "type": "bool"
        }
      ],
      "stateMutability": "nonpayable",
      "type": "function"
    },
    {
      "inputs": [
        {
          "internalType": "address",
          "name": "account",
          "type": "address"
        }
      ],
      "name": "balanceOf",
      "outputs": [
        {
          "internalType": "uint256",
          "name": "",
          "type": "uint256"
        }
      ],
      "stateMutability": "view",
      "type": "function"
    },
    {
      "inputs": [],
      "name": "decimals",
      "outputs": [
        {
          "internalType": "uint8",
          "name": "",
          "type": "uint8"
        }
      ],
      "stateMutability": "view",
      "type": "function"
    },
    {
      "inputs": [
        {
          "internalType": "address",
          "name": "walletAddress",
          "type": "address"
        }
      ],
      "name": "getAccountDetails",
      "outputs": [
        {
          "components": [
            {
              "internalType": "string",
              "name": "mspId",
              "type": "string"
            },
            {
              "internalType": "string",
              "name": "userId",
              "type": "string"
            },
            {
              "internalType": "uint256",
              "name": "frozenBalance",
              "type": "uint256"
            },
            {
              "internalType": "uint256",
              "name": "lastActivity",
              "type": "uint256"
            },
            {
              "internalType": "string",
              "name": "kycStatus",
              "type": "string"
            },
            {
              "internalType": "string",
              "name": "riskScore",
              "type": "string"
            },
            {
              "internalType": "string",
              "name": "accountType",
              "type": "string"
            },
            {
              "internalType": "uint256",
              "name": "createdAt",
              "type": "uint256"
            },
            {
              "internalType": "bool",
              "name": "exists",
              "type": "bool"
            }
          ],
          "internalType": "struct USFCI.Account",
          "name": "",
          "type": "tuple"
        }
      ],
      "stateMutability": "view",
      "type": "function"
    },
    {
      "inputs": [
        {
          "internalType": "address",
          "name": "walletAddress",
          "type": "address"
        }
      ],
      "name": "getBalance",
      "outputs": [
        {
          "internalType": "uint256",
          "name": "",
          "type": "uint256"
        }
      ],
      "stateMutability": "view",
      "type": "function"
    },
    {
      "inputs": [
        {
          "internalType": "bytes32",
          "name": "role",
          "type": "bytes32"
        }
      ],
      "name": "getRoleAdmin",
      "outputs": [
        {
          "internalType": "bytes32",
          "name": "",
          "type": "bytes32"
        }
      ],
      "stateMutability": "view",
      "type": "function"
    },
    {
      "inputs": [
        {
          "internalType": "bytes32",
          "name": "role",
          "type": "bytes32"
        },
        {
          "internalType": "address",
          "name": "account",
          "type": "address"
        }
      ],
      "name": "grantRole",
      "outputs": [],
      "stateMutability": "nonpayable",
      "type": "function"
    },
    {
      "inputs": [
        {
          "internalType": "bytes32",
          "name": "role",
          "type": "bytes32"
        },
        {
          "internalType": "address",
          "name": "account",
          "type": "address"
        }
      ],
      "name": "hasRole",
      "outputs": [
        {
          "internalType": "bool",
          "name": "",
          "type": "bool"
        }
      ],
      "stateMutability": "view",
      "type": "function"
    },
    {
      "inputs": [],
      "name": "initLedger",
      "outputs": [],
      "stateMutability": "nonpayable",
      "type": "function"
    },
    {
      "inputs": [
        {
          "internalType": "address",
          "name": "walletAddress",
          "type": "address"
        },
        {
          "internalType": "uint256",
          "name": "amount",
          "type": "uint256"
        },
        {
          "internalType": "string",
          "name": "reserveProof",
          "type": "string"
        }
      ],
      "name": "mintTokens",
      "outputs": [
        {
          "internalType": "bool",
          "name": "",
          "type": "bool"
        }
      ],
      "stateMutability": "nonpayable",
      "type": "function"
    },
    {
      "inputs": [
        {
          "internalType": "string",
          "name": "",
          "type": "string"
        }
      ],
      "name": "mspToWallet",
      "outputs": [
        {
          "internalType": "address",
          "name": "",
          "type": "address"
        }
      ],
      "stateMutability": "view",
      "type": "function"
    },
    {
      "inputs": [],
      "name": "name",
      "outputs": [
        {
          "internalType": "string",
          "name": "",
          "type": "string"
        }
      ],
      "stateMutability": "view",
      "type": "function"
    },
    {
      "inputs": [],
      "name": "paused",
      "outputs": [
        {
          "internalType": "bool",
          "name": "",
          "type": "bool"
        }
      ],
      "stateMutability": "view",
      "type": "function"
    },
    {
      "inputs": [
        {
          "internalType": "string",
          "name": "mspId",
          "type": "string"
        },
        {
          "internalType": "string",
          "name": "userId",
          "type": "string"
        },
        {
          "internalType": "string",
          "name": "accountType",
          "type": "string"
        }
      ],
      "name": "registerWallet",
      "outputs": [
        {
          "internalType": "address",
          "name": "",
          "type": "address"
        }
      ],
      "stateMutability": "nonpayable",
      "type": "function"
    },
    {
      "inputs": [
        {
          "internalType": "bytes32",
          "name": "role",
          "type": "bytes32"
        },
        {
          "internalType": "address",
          "name": "callerConfirmation",
          "type": "address"
        }
      ],
      "name": "renounceRole",
      "outputs": [],
      "stateMutability": "nonpayable",
      "type": "function"
    },
    {
      "inputs": [
        {
          "internalType": "bytes32",
          "name": "role",
          "type": "bytes32"
        },
        {
          "internalType": "address",
          "name": "account",
          "type": "address"
        }
      ],
      "name": "revokeRole",
      "outputs": [],
      "stateMutability": "nonpayable",
      "type": "function"
    },
    {
      "inputs": [
        {
          "internalType": "bytes4",
          "name": "interfaceId",
          "type": "bytes4"
        }
      ],
      "name": "supportsInterface",
      "outputs": [
        {
          "internalType": "bool",
          "name": "",
          "type": "bool"
        }
      ],
      "stateMutability": "view",
      "type": "function"
    },
    {
      "inputs": [],
      "name": "symbol",
      "outputs": [
        {
          "internalType": "string",
          "name": "",
          "type": "string"
        }
      ],
      "stateMutability": "view",
      "type": "function"
    },
    {
      "inputs": [],
      "name": "systemConfig",
      "outputs": [
        {
          "internalType": "string",
          "name": "tokenName",
          "type": "string"
        },
        {
          "internalType": "string",
          "name": "tokenSymbol",
          "type": "string"
        },
        {
          "internalType": "uint256",
          "name": "maxTransactionAmount",
          "type": "uint256"
        },
        {
          "internalType": "uint256",
          "name": "maxDailyTransactionAmount",
          "type": "uint256"
        },
        {
          "internalType": "bool",
          "name": "dailyReserveReportRequired",
          "type": "bool"
        },
        {
          "internalType": "string",
          "name": "reserveBank",
          "type": "string"
        },
        {
          "internalType": "bool",
          "name": "complianceEnabled",
          "type": "bool"
        }
      ],
      "stateMutability": "view",
      "type": "function"
    },
    {
      "inputs": [],
      "name": "totalSupply",
      "outputs": [
        {
          "internalType": "uint256",
          "name": "",
          "type": "uint256"
        }
      ],
      "stateMutability": "view",
      "type": "function"
    },
    {
      "inputs": [
        {
          "internalType": "address",
          "name": "recipient",
          "type": "address"
        },
        {
          "internalType": "uint256",
          "name": "amount",
          "type": "uint256"
        }
      ],
      "name": "transfer",
      "outputs": [
        {
          "internalType": "bool",
          "name": "",
          "type": "bool"
        }
      ],
      "stateMutability": "nonpayable",
      "type": "function"
    },
    {
      "inputs": [
        {
          "internalType": "address",
          "name": "from",
          "type": "address"
        },
        {
          "internalType": "address",
          "name": "to",
          "type": "address"
        },
        {
          "internalType": "uint256",
          "name": "value",
          "type": "uint256"
        }
      ],
      "name": "transferFrom",
      "outputs": [
        {
          "internalType": "bool",
          "name": "",
          "type": "bool"
        }
      ],
      "stateMutability": "nonpayable",
      "type": "function"
    },
    {
      "inputs": [
        {
          "internalType": "address",
          "name": "walletAddress",
          "type": "address"
        },
        {
          "internalType": "string",
          "name": "kycStatus",
          "type": "string"
        },
        {
          "internalType": "string",
          "name": "riskScore",
          "type": "string"
        }
      ],
      "name": "updateComplianceStatus",
      "outputs": [
        {
          "internalType": "bool",
          "name": "",
          "type": "bool"
        }
      ],
      "stateMutability": "nonpayable",
      "type": "function"
    }
  ],
  "bytecode": "0x608034620008f657601f620042ad38819003918201601f19168301916001600160401b03831184841017620004d957808492602094604052833981010312620008f657516001600160a01b0381168103620008f6576200005e620008fb565b906005825264555346434960d81b908160208401526200007d620008fb565b600581526020810183905283516001600160401b038111620004d957600354600181811c91168015620008eb575b6020821014620004b857601f811162000881575b50602094601f8211600114620008145794819293949560009262000808575b50508160011b916000199060031b1c1916176003555b8051906001600160401b038211620004d957600454600181811c91168015620007fd575b6020821014620004b857601f811162000793575b50602090601f831160011462000702576200019293929160009183620006f6575b50508160011b916000199060031b1c1916176004555b600160075562000173816200091b565b506200017f816200099c565b506200018b8162000a3f565b5062000add565b506040519060e082016001600160401b03811183821017620004d957604052620001bb620008fb565b600581528160208201528252620001d1620008fb565b9060058252602082015260208201526a52b7d2dcc80cd2e400000060408201526b019d971e4fe8401e7400000060608201526001608082015262000214620008fb565b600c81526b53756e776573742042616e6b60a01b602082015260a0820152600160c082015280518051906001600160401b038211620004d957600b5490600182811c92168015620006eb575b6020831014620004b85781601f84931162000676575b50602090601f8311600114620005e757600092620005db575b50508160011b916000199060031b1c191617600b555b602081015180519091906001600160401b038111620004d957600c54600181811c91168015620005d0575b6020821014620004b857601f811162000566575b50602092601f8211600114620004fb5792819293600092620004ef575b50508160011b916000199060031b1c191617600c555b6040810151600d556060810151600e55608081015115159060ff199160ff83600f5416911617600f5560a081015180519060018060401b038211620004d957601054600181811c91168015620004ce575b6020821014620004b857601f81116200045f575b50602090601f8311600114620003df57918060ff949260c094600092620003d3575b50508160011b916000199060031b1c1916176010555b0151151591601154169116176011556040516136f1908162000b7c8239f35b0151905038806200039e565b601060009081526000805160206200428d833981519152929190601f198516905b81811062000446575092600192859260c09660ff9896106200042c575b505050811b01601055620003b4565b015160001960f88460031b161c191690553880806200041d565b9293602060018192878601518155019501930162000400565b60106000526000805160206200428d833981519152601f840160051c81019160208510620004ad575b601f0160051c01905b818110620004a057506200037c565b6000815560010162000491565b909150819062000488565b634e487b7160e01b600052602260045260246000fd5b90607f169062000368565b634e487b7160e01b600052604160045260246000fd5b01519050388062000301565b601f19821693600c60005260206000209160005b8681106200054d575083600195961062000533575b505050811b01600c5562000317565b015160001960f88460031b161c1916905538808062000524565b919260206001819286850151815501940192016200050f565b600c6000527fdf6966c971051c3d54ec59162606531493a51404a002842f56009d7e5cf4a8c7601f830160051c81019160208410620005c5575b601f0160051c01905b818110620005b85750620002e4565b60008155600101620005a9565b9091508190620005a0565b90607f1690620002d0565b0151905038806200028f565b600b600090815293507f0175b7a638427703f0dbe7bb9bbf987a2551717b34e79f33b5b1008d1fa01db991905b601f19841685106200065a576001945083601f1981161062000640575b505050811b01600b55620002a5565b015160001960f88460031b161c1916905538808062000631565b8181015183556020948501946001909301929091019062000614565b600b6000529091507f0175b7a638427703f0dbe7bb9bbf987a2551717b34e79f33b5b1008d1fa01db9601f840160051c81019160208510620006e0575b90601f859493920160051c01905b818110620006d0575062000276565b60008155849350600101620006c1565b9091508190620006b3565b91607f169162000260565b0151905038806200014d565b600460009081527f8a35acfbc15ff81a39ae7d344fd709f28e8600b4aa8c65c6b64bfe7fe36bd19b929190601f198516905b8181106200077a5750916001939185620001929796941062000760575b505050811b0160045562000163565b015160001960f88460031b161c1916905538808062000751565b9293602060018192878601518155019501930162000734565b60046000527f8a35acfbc15ff81a39ae7d344fd709f28e8600b4aa8c65c6b64bfe7fe36bd19b601f840160051c81019160208510620007f2575b601f0160051c01905b818110620007e557506200012c565b60008155600101620007d6565b9091508190620007cd565b90607f169062000118565b015190503880620000de565b601f19821695600360005260206000209160005b88811062000868575083600195969798106200084e575b505050811b01600355620000f4565b015160001960f88460031b161c191690553880806200083f565b9192602060018192868501518155019401920162000828565b60036000527fc2575a0e9e593c00f959f8c92f12db2869c3395a3b0502d05e2516446f71f85b601f830160051c81019160208410620008e0575b601f0160051c01905b818110620008d35750620000bf565b60008155600101620008c4565b9091508190620008bb565b90607f1690620000ab565b600080fd5b60408051919082016001600160401b03811183821017620004d957604052565b6001600160a01b031660008181527f05b8ccbb9d4d8fb16ea74ce3c29a41f1b461fbdaff4714a0d9a8eb05499746bc602052604081205490919060ff16620009985781805260056020526040822081835260205260408220600160ff1982541617905533916000805160206200426d8339815191528180a4600190565b5090565b6001600160a01b031660008181527f15a28d26fa1bf736cf7edc9922607171ccb09c3c73b808e7772a3013e068a52260205260408120549091907f9f2df0fed2c77648de5860a4cc508cd0818c85b8b8a1ab4ceeef8d981c8956a69060ff1662000a3a5780835260056020526040832082845260205260408320600160ff198254161790556000805160206200426d833981519152339380a4600190565b505090565b6001600160a01b031660008181527f847f481f687befb06ed3511f1a8dcef57e83007c0147ae5047583d705617093760205260408120549091907f3c11d16cbaffd01df69ce1c404f6340ee057498f5f00246190ea54220576a8489060ff1662000a3a5780835260056020526040832082845260205260408320600160ff198254161790556000805160206200426d833981519152339380a4600190565b6001600160a01b031660008181527f9c71f34f6c28caec29a53b642f7d428de4506e0f57fa8c38507e64ce7bcfff1860205260408120549091907f442a94f1a1fac79af32856af2a64f63648cfa2ef3b98610a5bb7cbec4cee69859060ff1662000a3a5780835260056020526040832082845260205260408320600160ff198254161790556000805160206200426d833981519152339380a460019056fe608080604052600436101561001357600080fd5b60003560e01c90816301ffc9a71461293257508063062d3bd71461290957806306fdde0314612878578063095ea7b3146127f257806318160ddd146127d45780631ecfee0f1461276c57806323b872dd14612674578063248a9ca314612645578063282c51f31461260a5780632aceb534146123ec5780632f2ff15d146123ad578063313ce5671461239157806333d7e2bd1461214657806336568abe146120ff5780635c975abb146120dc5780635e5c06e214611fa057806370a082311461015e578063778b467114611c7b5780637b4e545814611bb657806391d1485414611b6957806395d89b4114611a9f578063a217fddf14611a83578063a9059cbb146110d0578063c2e7fa6c14610896578063d53913931461086d578063d547741f1461082c578063dd62ed3e146107db578063e67524a3146101a45763f8b2cb4f1461015e57600080fd5b3461019f57602036600319011261019f57602061019761017c6129cd565b6001600160a01b031660009081526020819052604090205490565b604051908152f35b600080fd5b3461019f57606036600319011261019f576101bd6129cd565b6044356001600160401b03811161019f576101dc903690600401612a53565b3360009081527f15a28d26fa1bf736cf7edc9922607171ccb09c3c73b808e7772a3013e068a52260205260409020546000805160206136658339815191529060ff16156107bd575061022c6135e3565b610234613601565b6102416024351515612c15565b80511561077f5760018060a01b038216600052600860205260ff6008604060002001541615610742576001600160a01b03821615610729576002546024358101809111610713576002556001600160a01b038216600081815260208181526040808320805460243590810190915590519081526000805160206136858339815191529190a36001600160a01b0382166000908152600860205260409081902042600382015590519060c082016001600160401b038111838210176106085760409081526001600160a01b0385168352519061032a908290610323908290612ae3565b0382612a30565b60208201526024356040820152606081018290524260808201523360a0820152601254600160401b8110156106085760018101806012558110156106fd5760126000528151600682027fbb8a6a4669ba250d26cd7a459eca9d215f8307e33aebe50379bc5a3617ec344490810180546001600160a01b0319166001600160a01b03939093169290921790915560208301518051919291906001600160401b0382116106085781906103e360016006860287010154612aa9565b601f81116106a5575b50602090601f83116001146106295760009261061e575b50508160011b916000199060031b1c191617600160068302840101555b60408301516006820283016002015560608301518051906001600160401b0382116106085761045760036006850286010154612aa9565b601f81116105bc575b50602090601f8311600114610529576104f99593836005946000805160206136a583398151915299979460069460009261051e575b50508160011b916000199060031b1c1916176003838302850101555b60808501516004838302850101550201019060a0600180821b039101511660018060a01b031982541617905560405191829160243583526060602084015260608301906129a8565b4260408301526001600160a01b03909416930390a26001600755602060405160018152f35b015190508b80610495565b9060036006850286010160005260206000209160005b601f19851681106105a45750936001846000805160206136a58339815191529997946006946104f99a98600598601f1981161061058b575b505050811b016003838302850101556104b1565b015160001960f88460031b161c191690558b8080610577565b9192602060018192868501518155019401920161053f565b6003600685028601016000526020600020601f840160051c810160208510610601575b601f830160051c820181106105f5575050610460565b600081556001016105df565b50806105df565b634e487b7160e01b600052604160045260246000fd5b015190508780610403565b92506001600685028601016000526020600020906000935b601f198416851061068a576001945083601f19811610610671575b505050811b0160016006830284010155610420565b015160001960f88460031b161c1916905587808061065c565b81810151835560209485019460019093019290910190610641565b9091506001600685028601016000526020600020601f840160051c8101602085106106f6575b90849392915b601f830160051c820181106106e75750506103ec565b600081558594506001016106d1565b50806106cb565b634e487b7160e01b600052603260045260246000fd5b634e487b7160e01b600052601160045260246000fd5b60405163ec442f0560e01b815260006004820152602490fd5b60405162461bcd60e51b815260206004820152601560248201527415d85b1b195d081b9bdd081c9959da5cdd195c9959605a1b6044820152606490fd5b60405162461bcd60e51b815260206004820152601660248201527514995cd95c9d99481c1c9bdbd9881c995c5d5a5c995960521b6044820152606490fd5b6044906040519063e2517d3f60e01b82523360048301526024820152fd5b3461019f57604036600319011261019f576107f46129cd565b6107fc6129e3565b9060018060a01b038091166000526001602052604060002091166000526020526020604060002054604051908152f35b3461019f57604036600319011261019f5761086b60043561084b6129e3565b90806000526005602052610866600160406000200154612d81565b612e27565b005b3461019f57600036600319011261019f5760206040516000805160206136658339815191528152f35b3461019f57606036600319011261019f576004356001600160401b03811161019f576108c6903690600401612a53565b6024356001600160401b03811161019f576108e5903690600401612a53565b906044356001600160401b03811161019f57610905903690600401612a53565b33600052600860205260ff6008604060002001541661108f57815115611059578251156110225760405190610939826129f9565b8282528360208301526000604083015242606083015260405161095b81612a15565b600781526670656e64696e6760c81b6020820152608083015260405161098081612a15565b60068152656d656469756d60d01b602082015260a083015260c08201524260e08201526001610100820152336000526008602052604060002090805180519060018060401b0382116106085781906109d88554612aa9565b601f8111610fd2575b50602090601f8311600114610f6657600092610f5b575b50508160011b916000199060031b1c19161782555b60208101518051906001600160401b038211610608578190610a326001860154612aa9565b601f8111610f08575b50602090601f8311600114610e9657600092610e8b575b50508160011b916000199060031b1c19161760018301555b604081015160028301556060810151600383015560808101518051906001600160401b038211610608578190610aa36004860154612aa9565b601f8111610e38575b50602090601f8311600114610dcb57600092610dc0575b50508160011b916000199060031b1c19161760048301555b60a08101518051906001600160401b038211610608578190610b006005860154612aa9565b601f8111610d6d575b50602090601f8311600114610d0057600092610cf5575b50508160011b916000199060031b1c19161760058301555b60c0810151805160068401916001600160401b03821161060857610b5c8354612aa9565b601f8111610cad575b50602090601f8311600114610c27576000805160206136c58339815191529694610bd49484610c0f989560089561010095600092610c1c575b50508160011b916000199060031b1c19161790555b60e081015160078501550151151591019060ff801983541691151516179055565b610bff6040518251610bea818360208701612985565b810190600a8252602081339303019020612c7f565b6040519182913395429184612bbe565b0390a26020604051338152f35b015190508c80610b9e565b90601f198316918460005260206000209260005b818110610c95575094600185600895610100956000805160206136c58339815191529c9a95610c0f9c99610bd49b10610c7c575b505050811b019055610bb3565b015160001960f88460031b161c191690558c8080610c6f565b92936020600181928786015181550195019301610c3b565b836000526020600020601f840160051c81019160208510610ceb575b601f0160051c01905b818110610cdf5750610b65565b60008155600101610cd2565b9091508190610cc9565b015190508680610b20565b600586016000908152602081209350601f198516905b818110610d555750908460019594939210610d3c575b505050811b016005830155610b38565b015160001960f88460031b161c19169055868080610d2c565b92936020600181928786015181550195019301610d16565b909150600585016000526020600020601f840160051c810160208510610db9575b90849392915b601f830160051c82018110610daa575050610b09565b60008155859450600101610d94565b5080610d8e565b015190508680610ac3565b600486016000908152602081209350601f198516905b818110610e205750908460019594939210610e07575b505050811b016004830155610adb565b015160001960f88460031b161c19169055868080610df7565b92936020600181928786015181550195019301610de1565b909150600485016000526020600020601f840160051c810160208510610e84575b90849392915b601f830160051c82018110610e75575050610aac565b60008155859450600101610e5f565b5080610e59565b015190508680610a52565b9250600185016000526020600020906000935b601f1984168510610eed576001945083601f19811610610ed4575b505050811b016001830155610a6a565b015160001960f88460031b161c19169055868080610ec4565b81810151835560209485019460019093019290910190610ea9565b909150600185016000526020600020601f840160051c810160208510610f54575b90849392915b601f830160051c82018110610f45575050610a3b565b60008155859450600101610f2f565b5080610f29565b0151905086806109f8565b9250846000526020600020906000935b601f1984168510610fb7576001945083601f19811610610f9e575b505050811b018255610a0d565b015160001960f88460031b161c19169055868080610f91565b81810151835560209485019460019093019290910190610f76565b909150846000526020600020601f840160051c81016020851061101b575b90849392915b601f830160051c8201811061100c5750506109e1565b60008155859450600101610ff6565b5080610ff0565b60405162461bcd60e51b815260206004820152600f60248201526e155cd95c9259081c995c5d5a5c9959608a1b6044820152606490fd5b60405162461bcd60e51b815260206004820152600e60248201526d135cdc1259081c995c5d5a5c995960921b6044820152606490fd5b60405162461bcd60e51b815260206004820152601960248201527815d85b1b195d08185b1c9958591e481c9959da5cdd195c9959603a1b6044820152606490fd5b3461019f57604036600319011261019f576110e96129cd565b6110f16135e3565b6110f9613601565b6111066024351515612c15565b6001600160a01b0381163314611a40573360005260088060205260ff81604060002001541615611a03576001600160a01b038216600090815260208290526040902081015460ff16156119c357336000526000602052604060002054816020526002604060002001548103908111610713576024351161197e5760ff6011541661187b575b6111986024358333612ce3565b33600090815260209190915260408082204260038083018290556001600160a01b03861685529383902093840155905192916101008401908482106001600160401b0383111761060857610323611202610323946112219460405233885260405192838092612ae3565b602086015260018060a01b038416604086015260405192838092612ae3565b606083015260243560808301526040516001600160401b03602082019081119082111761060857602081016040526000815260a08301524260c083015260405161126a81612a15565b60078152661a5b9cdd185b9d60ca1b602082015260e0830152601454600160401b8110156106085760018101806014558110156106fd5760146000528251600382901b7fce6d7b5282bd9a3661ae061feed1dbda4e52ab073b1f9285be6e155d9c38d4ec90810180546001600160a01b0319166001600160a01b03939093169290921790915560208401518051919291906001600160401b03821161060857819061131d60018560031b87010154612aa9565b601f8111611823575b50602090601f83116001146117a75760009261179c575b50508160011b916000199060031b1c19161760018260031b840101555b6040840151600382901b830160020180546001600160a01b0319166001600160a01b039290921691909117905560608401518051906001600160401b0382116106085781906113b0600385811b87010154612aa9565b601f8111611745575b50602090601f83116001146116cb576000926116c0575b50508160011b916000199060031b1c191617600382811b840101555b6080840151600382901b83016004015560a08401518051906001600160401b0382116106085761142460058460031b86010154612aa9565b601f8111611674575b50602090601f83116001146115f45791806007949260e096946000926115e9575b50508160011b916000199060031b1c19161760058260031b840101555b60c086015160068260031b8401015560031b010192015191825160018060401b0381116106085761149c8254612aa9565b601f81116115a1575b506020601f821160011461153b5781929394600092611530575b50508160011b916000199060031b1c19161790555b604051906024358252606060208301526000606083015242604083015260018060a01b0316907f7cb24ad5253d1c44678f7c5fe51284b627a23cf84e58e1dbc560c11ff305b8dc60803392a36001600755602060405160018152f35b0151905084806114bf565b601f198216908360005260206000209160005b81811061158957509583600195969710611570575b505050811b0190556114d4565b015160001960f88460031b161c19169055848080611563565b9192602060018192868b01518155019401920161154e565b826000526020600020601f830160051c810191602084106115df575b601f0160051c01905b8181106115d357506114a5565b600081556001016115c6565b90915081906115bd565b01519050888061144e565b9060058460031b86010160005260206000209160005b601f198516811061165c5750926007949260019260e0979583601f19811610611643575b505050811b0160058260031b8401015561146b565b015160001960f88460031b161c1916905588808061162e565b9192602060018192868501518155019401920161160a565b60058460031b8601016000526020600020601f840160051c8101602085106116b9575b601f830160051c820181106116ad57505061142d565b60008155600101611697565b5080611697565b0151905086806113d0565b9250600384811b8601016000526020600020906000935b601f198416851061172a576001945083601f19811610611711575b505050811b01600382811b840101556113ec565b015160001960f88460031b161c191690558680806116fd565b818101518355602094850194600190930192909101906116e2565b909150600384811b8601016000526020600020601f840160051c810160208510611795575b90849392915b601f830160051c820181106117865750506113b9565b60008155859450600101611770565b508061176a565b01519050868061133d565b925060018460031b8601016000526020600020906000935b601f1984168510611808576001945083601f198116106117ef575b505050811b0160018260031b8401015561135a565b015160001960f88460031b161c191690558680806117da565b818101518355602094850194600190930192909101906117bf565b90915060018460031b8601016000526020600020601f840160051c810160208510611874575b90849392915b601f830160051c82018110611865575050611326565b6000815585945060010161184f565b5080611849565b336000528060205261032361189d600460406000200160405192838092612ae3565b602081519101206118ac612c5b565b602081519101200361193f5760018060a01b038216600052806020526103236118e2600460406000200160405192838092612ae3565b602081519101206118f1612c5b565b602081519101201461118b5760405162461bcd60e51b815260206004820152601a602482015279149958da5c1a595b9d0812d650c81b9bdd08185c1c1c9bdd995960321b6044820152606490fd5b60405162461bcd60e51b815260206004820152601760248201527614d95b99195c8812d650c81b9bdd08185c1c1c9bdd9959604a1b6044820152606490fd5b60405162461bcd60e51b815260206004820152601d60248201527f496e73756666696369656e7420756e66726f7a656e2062616c616e63650000006044820152606490fd5b60405162461bcd60e51b8152602060048201526018602482015277149958da5c1a595b9d081b9bdd081c9959da5cdd195c995960421b6044820152606490fd5b60405162461bcd60e51b815260206004820152601560248201527414d95b99195c881b9bdd081c9959da5cdd195c9959605a1b6044820152606490fd5b60405162461bcd60e51b815260206004820152601b60248201527a21b0b73737ba103a3930b739b332b9103a37903cb7bab939b2b63360291b6044820152606490fd5b3461019f57600036600319011261019f57602060405160008152f35b3461019f57600036600319011261019f57604051600454600082611ac283612aa9565b9182825260209360019085600182169182600014611b49575050600114611b09575b50611af192500383612a30565b611b056040519282849384528301906129a8565b0390f35b849150600460005281600020906000915b858310611b31575050611af1935082010185611ae4565b80548389018501528794508693909201918101611b1a565b60ff191685820152611af195151560051b8501019250879150611ae49050565b3461019f57604036600319011261019f57611b826129e3565b600435600052600560205260406000209060018060a01b0316600052602052602060ff604060002054166040519015158152f35b3461019f57600036600319011261019f573360009081527f05b8ccbb9d4d8fb16ea74ce3c29a41f1b461fbdaff4714a0d9a8eb05499746bc602052604090205460ff1615611c5c57611c32604051611c0d81612a15565b600a815269053756e776573744d53560b41b6020820152611c2c612bec565b90612e9e565b61086b604051611c4181612a15565b600681526504643494d53560d41b6020820152611c2c612bec565b60405163e2517d3f60e01b815233600482015260006024820152604490fd5b3461019f57606036600319011261019f57611c946129cd565b6001600160401b0360243581811161019f57611cb4903690600401612a53565b9160443582811161019f57611ccd903690600401612a53565b3360009081527f9c71f34f6c28caec29a53b642f7d428de4506e0f57fa8c38507e64ce7bcfff18602090815260409091205490946005939092916000805160206136258339815191529060ff16156107bd575060018060a01b0316928360005260088652611d4560ff60086040600020015416612b79565b8360005260088652600460406000200183519086821161060857611d698154612aa9565b91601f92838111611f5f575b508089848211600114611efc57600091611ef1575b508160011b916000199060031b1c19161790555b84600052600887528160406000200191835196871161060857611dc18354612aa9565b90828211611eb4575b505086908611600114611e405794806000805160206136458339815191529596600091611e35575b508160011b916000199060031b1c19161790555b836000526008855242600360406000200155611e29604051928392429184612bbe565b0390a260405160018152f35b905083015188611df2565b601f1986169082600052876000209160005b89828210611e9e575050918791600080516020613645833981519152979860019410611e85575b5050811b019055611e06565b85015160001960f88460031b161c191690558880611e79565b6001849582939589015181550194019201611e52565b83600052886000209083808a01821c8301938b8b10611ee8575b01901c01905b81811015611dca5760008155600101611ed4565b93508293611ece565b90508601518a611d8a565b60008481528b81209250601f198416905b8c828210611f495750509083600194939210611f30575b5050811b019055611d9e565b88015160001960f88460031b161c191690558a80611f24565b600184958293958d015181550194019201611f0d565b826000528960002084808401871c8201928c8510611f97575b01861c01905b818110611f8b5750611d75565b60008155600101611f7e565b92508192611f78565b3461019f57602036600319011261019f576001600160a01b03611fc16129cd565b166000526008602052612088604060002060405190611feb82611fe48184612ae3565b0383612a30565b604051611fff816103238160018601612ae3565b6120ca60066120bc60056120ae60028701546004600389015461202c8a611fe46040518095819301612ae3565b6120478a6120406040518098819301612ae3565b0386612a30565b6120628a61205b604051809a819301612ae3565b0388612a30565b61209660ff600860078d01549c015416996040519d8e9d8e6101209081815201906129a8565b8d810360208f0152906129a8565b9260408c015260608b015289820360808b01526129a8565b9087820360a08901526129a8565b9085820360c08701526129a8565b9160e084015215156101008301520390f35b3461019f57600036600319011261019f57602060ff600654166040519015158152f35b3461019f57604036600319011261019f576121186129e3565b336001600160a01b038216036121345761086b90600435612e27565b60405163334bd91960e11b8152600490fd5b3461019f57600036600319011261019f57604051600090600b5461216981612aa9565b80835282602094859260019485811690816000146123735750600114612332575b5061219792500383612a30565b6040519083826000600c546121ab81612aa9565b8084529085811690811561231457506001146122d3575b506121cf92500383612a30565b600d5490600e5460ff600f54169060405192600090601054906121f182612aa9565b808752918181169081156122b35750600114612277575b50509061224c61223f986122248661226b989796950386612a30565b60ff60115416976040519a8b9a60e08c5260e08c01906129a8565b918a8303908b01526129a8565b93604088015260608701521515608086015284820360a08601526129a8565b90151560c08301520390f35b9150601060005288600020916000925b8284106122a0575050508301870161224c61223f612208565b80548785018c0152928a01928101612287565b60ff19168b8801525050151560051b84018801905061224c61223f612208565b9050600c6000528260002090846000925b8284106122fd57505050916121cf9282010186926121c2565b8054888501870152879450928501928691016122e4565b60ff19168486015250879390151560051b83010190506121cf6121c2565b9050600b6000528260002090846000925b82841061235c575050509161219792820101859261218a565b805488850187015287945092850192869101612343565b60ff19168486015250869390151560051b830101905061219761218a565b3461019f57600036600319011261019f57602060405160128152f35b3461019f57604036600319011261019f5761086b6004356123cc6129e3565b908060005260056020526123e7600160406000200154612d81565b612da7565b3461019f5760208060031936011261019f576124066129cd565b9060405190612414826129f9565b60609283835283828401526040830160009052838301600090528360808401528360a08401528360c084015260e083016000905261010080930160009052600160a01b6001900316806000526008825260406000206008015460ff1661247990612b79565b6000526008815260406000209060405192612493846129f9565b604051806124a18186612ae3565b036124ac9082612a30565b845260405190816124c08160018701612ae3565b036124cb9083612a30565b8483019182526002840154604080870191825260038601548888019081529051909391816124fc8160048a01612ae3565b036125079083612a30565b6080880191825260405190816125208160058b01612ae3565b0361252b9083612a30565b60a0890191825260405192836125448160068c01612ae3565b0361254f9085612a30565b60c08a0193845260078901549860e08b01998a526008015460ff1696868b0197151588526040519b8c9b8a8d52518c6101209b8c9101526101408d01612594916129a8565b9651601f198d8903810160408f0152976125ad916129a8565b9351908c01525160808b01525190848a82030160a08b01526125ce916129a8565b905190838982030160c08a01526125e4916129a8565b9051918782030160e08801526125f9916129a8565b935190850152511515908301520390f35b3461019f57600036600319011261019f5760206040517f3c11d16cbaffd01df69ce1c404f6340ee057498f5f00246190ea54220576a8488152f35b3461019f57602036600319011261019f5760043560005260056020526020600160406000200154604051908152f35b3461019f57606036600319011261019f5761268d6129cd565b6126956129e3565b6001600160a01b038216600081815260016020908152604080832033845290915290205492604435929160001985106126df575b506126d49350612ce3565b602060405160018152f35b83851061274b578015612732573315612719576126d4948491600052600160205260406000203360005260205203604060002055846126c9565b604051634a1406b160e11b815260006004820152602490fd5b60405163e602df0560e01b815260006004820152602490fd5b604051637dc7a0d960e11b81528061276886883360048501612cc5565b0390fd5b3461019f57602036600319011261019f576004356001600160401b03811161019f5761279e6020913690600401612a53565b816127b26040519283815193849201612985565b600990820190815281900382019020546040516001600160a01b039091168152f35b3461019f57600036600319011261019f576020600254604051908152f35b3461019f57604036600319011261019f5761280b6129cd565b602435903315612732576001600160a01b031690811561271957336000526001602052604060002082600052602052806040600020556040519081527f8c5be1e5ebec7d5bd14f71427d1e84f3dd0314c0f7b2291e5b200ac8c7c3b92560203392a3602060405160018152f35b3461019f57600036600319011261019f5760405160035460008261289b83612aa9565b9182825260209360019085600182169182600014611b495750506001146128c95750611af192500383612a30565b849150600360005281600020906000915b8583106128f1575050611af1935082010185611ae4565b805483890185015287945086939092019181016128da565b3461019f57600036600319011261019f5760206040516000805160206136258339815191528152f35b3461019f57602036600319011261019f576004359063ffffffff60e01b821680920361019f57602091637965db0b60e01b8114908115612974575b5015158152f35b6301ffc9a760e01b1490508361296d565b60005b8381106129985750506000910152565b8181015183820152602001612988565b906020916129c181518092818552858086019101612985565b601f01601f1916010190565b600435906001600160a01b038216820361019f57565b602435906001600160a01b038216820361019f57565b61012081019081106001600160401b0382111761060857604052565b604081019081106001600160401b0382111761060857604052565b601f909101601f19168101906001600160401b0382119082101761060857604052565b81601f8201121561019f578035906001600160401b0382116106085760405192612a87601f8401601f191660200185612a30565b8284526020838301011161019f57816000926020809301838601378301015290565b90600182811c92168015612ad9575b6020831014612ac357565b634e487b7160e01b600052602260045260246000fd5b91607f1691612ab8565b805460009392612af282612aa9565b91828252602093600191600181169081600014612b5a5750600114612b19575b5050505050565b90939495506000929192528360002092846000945b838610612b4657505050500101903880808080612b12565b805485870183015294019385908201612b2e565b60ff19168685015250505090151560051b010191503880808080612b12565b15612b8057565b60405162461bcd60e51b81526020600482015260166024820152751058d8dbdd5b9d08191bd95cc81b9bdd08195e1a5cdd60521b6044820152606490fd5b939291612be790612bd96040936060885260608801906129a8565b9086820360208801526129a8565b930152565b60405190612bf982612a15565b600d82526c1a5b9cdd1a5d1d5d1a5bdb985b609a1b6020830152565b15612c1c57565b60405162461bcd60e51b8152602060048201526017602482015276416d6f756e74206d75737420626520706f73697469766560481b6044820152606490fd5b60405190612c6882612a15565b6008825267185c1c1c9bdd995960c21b6020830152565b805490600160401b82101561060857600182018082558210156106fd576000908152602090200180546001600160a01b0319166001600160a01b03909216919091179055565b604091949392606082019560018060a01b0316825260208201520152565b916001600160a01b03808416928315612d6857169283156107295760009083825281602052604082205490838210612d4b57509160408282600080516020613685833981519152958760209652828652038282205586815220818154019055604051908152a3565b6127688460405193849363391434e360e21b855260048501612cc5565b604051634b637e8f60e11b815260006004820152602490fd5b80600052600560205260406000203360005260205260ff60406000205416156107bd5750565b906000918083526005602052604083209160018060a01b03169182845260205260ff60408420541615600014612e225780835260056020526040832082845260205260408320600160ff198254161790557f2f8788117e7eff1d82e926ec794901d17c78024a50270940304540a733656f0d339380a4600190565b505090565b906000918083526005602052604083209160018060a01b03169182845260205260ff604084205416600014612e22578083526005602052604083208284526020526040832060ff1981541690557ff6391f5c32d9c69d2a47ea670b442974b53935d1edc7fd64eb21e047a839171b339380a4600190565b60405160208101612ec76020838551612eba8186858a01612985565b8101038085520183612a30565b905190206040516001600160a01b0390911692612ee3826129f9565b82825282602083015260006040830152426060830152612f01612c5b565b6080830152604051612f1281612a15565b60038152626c6f7760e81b602082015260a083015260c08201524260e08201526001610100820152826000526008602052604060002090805180519060018060401b038211610608578190612f678554612aa9565b601f8111613593575b50602090601f83116001146135275760009261351c575b50508160011b916000199060031b1c19161782555b60208101518051906001600160401b038211610608578190612fc16001860154612aa9565b601f81116134c9575b50602090601f83116001146134575760009261344c575b50508160011b916000199060031b1c19161760018301555b604081015160028301556060810151600383015560808101518051906001600160401b0382116106085781906130326004860154612aa9565b601f81116133f9575b50602090601f83116001146133875760009261337c575b50508160011b916000199060031b1c19161760048301555b60a08101518051906001600160401b03821161060857819061308f6005860154612aa9565b601f8111613329575b50602090601f83116001146132b7576000926132ac575b50508160011b916000199060031b1c19161760058301555b60c08101518051906001600160401b038211610608576130ea6006850154612aa9565b601f8111613265575b50602090601f83116001146131d8576101006000805160206136c5833981519152969484613163956131c898956008956000926131cd575b50508160011b916000199060031b1c191617600685015560e081015160078501550151151591019060ff801983541691151516179055565b60405160208183516131788183858801612985565b810160098152030190208460018060a01b03198254161790556131b98460405160208185516131aa8183858a01612985565b8101600a815203019020612c7f565b60405191829142908084612bbe565b0390a2565b01519050388061312b565b906006850160005260206000209160005b601f198516811061324d57506000805160206136c583398151915296946001856131c898956008956101009561316399601f19811610613234575b505050811b016006850155610bb3565b015160001960f88460031b161c19169055388080613224565b919260206001819286850151815501940192016131e9565b600685016000526020600020601f840160051c8101602085106132a5575b601f830160051c820181106132995750506130f3565b60008155600101613283565b5080613283565b0151905038806130af565b9250600585016000526020600020906000935b601f198416851061330e576001945083601f198116106132f5575b505050811b0160058301556130c7565b015160001960f88460031b161c191690553880806132e5565b818101518355602094850194600190930192909101906132ca565b909150600585016000526020600020601f840160051c810160208510613375575b90849392915b601f830160051c82018110613366575050613098565b60008155859450600101613350565b508061334a565b015190503880613052565b9250600485016000526020600020906000935b601f19841685106133de576001945083601f198116106133c5575b505050811b01600483015561306a565b015160001960f88460031b161c191690553880806133b5565b8181015183556020948501946001909301929091019061339a565b909150600485016000526020600020601f840160051c810160208510613445575b90849392915b601f830160051c8201811061343657505061303b565b60008155859450600101613420565b508061341a565b015190503880612fe1565b9250600185016000526020600020906000935b601f19841685106134ae576001945083601f19811610613495575b505050811b016001830155612ff9565b015160001960f88460031b161c19169055388080613485565b8181015183556020948501946001909301929091019061346a565b909150600185016000526020600020601f840160051c810160208510613515575b90849392915b601f830160051c82018110613506575050612fca565b600081558594506001016134f0565b50806134ea565b015190503880612f87565b9250846000526020600020906000935b601f1984168510613578576001945083601f1981161061355f575b505050811b018255612f9c565b015160001960f88460031b161c19169055388080613552565b81810151835560209485019460019093019290910190613537565b909150846000526020600020601f840160051c8101602085106135dc575b90849392915b601f830160051c820181106135cd575050612f70565b600081558594506001016135b7565b50806135b1565b60ff600654166135ef57565b60405163d93c066560e01b8152600490fd5b600260075414613612576002600755565b604051633ee5aeb560e01b8152600490fdfe442a94f1a1fac79af32856af2a64f63648cfa2ef3b98610a5bb7cbec4cee69857adf7c11246ea2d9ffd628fe62199493e5b802955d4ab15cef216ff1f2d4678e9f2df0fed2c77648de5860a4cc508cd0818c85b8b8a1ab4ceeef8d981c8956a6ddf252ad1be2c89b69c2b068fc378daa952ba7f163c4a11628f55a4df523b3ef04133ee4cb027e1c5fce5e3481289278a93bd16a65a3b65b428a6d239e706bfb1b0798bd58b2133b10fd6f3ff5c87c85e0d538641ced1ae7abd256c82625811da164736f6c6343000818000a2f8788117e7eff1d82e926ec794901d17c78024a50270940304540a733656f0d1b6847dc741a1b0cd08d278845f9d819d87b734759afb55fe2de5cb82a9ae672",
  "linkReferences": {},
  "deployedLinkReferences": {}
}